{
  "_format": "hh-sol-artifact-1",
  "contractName": "TheOpenFarmDAO",
  "sourceName": "contracts/FarmDAO.sol",
  "abi": [
    {
      "anonymous": false,
      "inputs": [
        {
          "indexed": true,
          "internalType": "address",
          "name": "previousOwner",
          "type": "address"
        },
        {
          "indexed": true,
          "internalType": "address",
          "name": "newOwner",
          "type": "address"
        }
      ],
      "name": "OwnershipTransferred",
      "type": "event"
    },
    {
      "stateMutability": "payable",
      "type": "fallback"
    },
    {
      "inputs": [],
      "name": "MAX_INT_TYPE",
      "outputs": [
        {
          "internalType": "uint256",
          "name": "",
          "type": "uint256"
        }
      ],
      "stateMutability": "view",
      "type": "function"
    },
    {
      "inputs": [],
      "name": "VOTE_COST",
      "outputs": [
        {
          "internalType": "uint256",
          "name": "",
          "type": "uint256"
        }
      ],
      "stateMutability": "view",
      "type": "function"
    },
    {
      "inputs": [
        {
          "internalType": "uint256",
          "name": "_proposalIndex",
          "type": "uint256"
        }
      ],
      "name": "amountOfVotesRequired",
      "outputs": [
        {
          "internalType": "uint256",
          "name": "",
          "type": "uint256"
        }
      ],
      "stateMutability": "view",
      "type": "function"
    },
    {
      "inputs": [
        {
          "internalType": "uint256",
          "name": "_amountOfVotesRequired",
          "type": "uint256"
        },
        {
          "internalType": "uint256",
          "name": "_minutes",
          "type": "uint256"
        }
      ],
      "name": "createProposal",
      "outputs": [
        {
          "internalType": "uint256",
          "name": "",
          "type": "uint256"
        }
      ],
      "stateMutability": "nonpayable",
      "type": "function"
    },
    {
      "inputs": [
        {
          "internalType": "uint256",
          "name": "_proposalIndex",
          "type": "uint256"
        }
      ],
      "name": "executeProposal",
      "outputs": [],
      "stateMutability": "nonpayable",
      "type": "function"
    },
    {
      "inputs": [],
      "name": "geUnlockTime",
      "outputs": [
        {
          "internalType": "uint256",
          "name": "",
          "type": "uint256"
        }
      ],
      "stateMutability": "view",
      "type": "function"
    },
    {
      "inputs": [
        {
          "internalType": "uint256",
          "name": "_proposalIndex",
          "type": "uint256"
        },
        {
          "internalType": "address",
          "name": "_voter",
          "type": "address"
        }
      ],
      "name": "getVoterAmountOfTokens",
      "outputs": [
        {
          "internalType": "uint256",
          "name": "",
          "type": "uint256"
        }
      ],
      "stateMutability": "view",
      "type": "function"
    },
    {
      "inputs": [
        {
          "internalType": "uint256",
          "name": "_proposalIndex",
          "type": "uint256"
        },
        {
          "internalType": "address",
          "name": "_voter",
          "type": "address"
        }
      ],
      "name": "getVoterAmountOfVotes",
      "outputs": [
        {
          "internalType": "uint256",
          "name": "",
          "type": "uint256"
        }
      ],
      "stateMutability": "view",
      "type": "function"
    },
    {
      "inputs": [
        {
          "internalType": "uint256",
          "name": "_proposalIndex",
          "type": "uint256"
        },
        {
          "internalType": "address",
          "name": "_voter",
          "type": "address"
        }
      ],
      "name": "getVoterRefAmount",
      "outputs": [
        {
          "internalType": "uint256",
          "name": "",
          "type": "uint256"
        }
      ],
      "stateMutability": "view",
      "type": "function"
    },
    {
      "inputs": [
        {
          "internalType": "uint256",
          "name": "_proposalIndex",
          "type": "uint256"
        },
        {
          "internalType": "address",
          "name": "_voter",
          "type": "address"
        }
      ],
      "name": "getVoterVoteIndex",
      "outputs": [
        {
          "internalType": "uint256",
          "name": "",
          "type": "uint256"
        }
      ],
      "stateMutability": "view",
      "type": "function"
    },
    {
      "inputs": [
        {
          "internalType": "uint256",
          "name": "time",
          "type": "uint256"
        }
      ],
      "name": "lock",
      "outputs": [],
      "stateMutability": "nonpayable",
      "type": "function"
    },
    {
      "inputs": [],
      "name": "numProposals",
      "outputs": [
        {
          "internalType": "uint256",
          "name": "",
          "type": "uint256"
        }
      ],
      "stateMutability": "view",
      "type": "function"
    },
    {
      "inputs": [],
      "name": "owner",
      "outputs": [
        {
          "internalType": "address",
          "name": "",
          "type": "address"
        }
      ],
      "stateMutability": "view",
      "type": "function"
    },
    {
      "inputs": [
        {
          "internalType": "uint256",
          "name": "",
          "type": "uint256"
        }
      ],
      "name": "proposals",
      "outputs": [
        {
          "internalType": "uint256",
          "name": "amountOfVotes",
          "type": "uint256"
        },
        {
          "internalType": "uint256",
          "name": "amountOfVotesRequired",
          "type": "uint256"
        },
        {
          "internalType": "uint256",
          "name": "amountOfTokens",
          "type": "uint256"
        },
        {
          "internalType": "uint256",
          "name": "amountOfTokensRequired",
          "type": "uint256"
        },
        {
          "internalType": "uint256",
          "name": "deadline",
          "type": "uint256"
        },
        {
          "internalType": "bool",
          "name": "executed",
          "type": "bool"
        }
      ],
      "stateMutability": "view",
      "type": "function"
    },
    {
      "inputs": [],
      "name": "renounceOwnership",
      "outputs": [],
      "stateMutability": "nonpayable",
      "type": "function"
    },
    {
      "inputs": [
        {
          "internalType": "address",
          "name": "_lotto",
          "type": "address"
        }
      ],
      "name": "setLotto",
      "outputs": [],
      "stateMutability": "nonpayable",
      "type": "function"
    },
    {
      "inputs": [],
      "name": "theLotto",
      "outputs": [
        {
          "internalType": "address",
          "name": "",
          "type": "address"
        }
      ],
      "stateMutability": "view",
      "type": "function"
    },
    {
      "inputs": [
        {
          "internalType": "address",
          "name": "newOwner",
          "type": "address"
        }
      ],
      "name": "transferOwnership",
      "outputs": [],
      "stateMutability": "nonpayable",
      "type": "function"
    },
    {
      "inputs": [],
      "name": "unlock",
      "outputs": [],
      "stateMutability": "nonpayable",
      "type": "function"
    },
    {
      "inputs": [
        {
          "internalType": "uint256",
          "name": "_proposalIndex",
          "type": "uint256"
        },
        {
          "internalType": "uint256",
          "name": "_amountOfVotes",
          "type": "uint256"
        },
        {
          "internalType": "address",
          "name": "_ref",
          "type": "address"
        }
      ],
      "name": "voteOnProposal",
      "outputs": [],
      "stateMutability": "nonpayable",
      "type": "function"
    },
    {
      "inputs": [],
      "name": "withdrawBalance",
      "outputs": [],
      "stateMutability": "nonpayable",
      "type": "function"
    },
    {
      "inputs": [],
      "name": "withdrawEther",
      "outputs": [],
      "stateMutability": "nonpayable",
      "type": "function"
    },
    {
      "inputs": [
        {
          "internalType": "uint256",
          "name": "_proposalIndex",
          "type": "uint256"
        }
      ],
      "name": "withdrawFromFailedProposal",
      "outputs": [],
      "stateMutability": "nonpayable",
      "type": "function"
    },
    {
      "inputs": [
        {
          "internalType": "uint256",
          "name": "_proposalIndex",
          "type": "uint256"
        }
      ],
      "name": "withdrawRefBonus",
      "outputs": [],
      "stateMutability": "nonpayable",
      "type": "function"
    },
    {
      "stateMutability": "payable",
      "type": "receive"
    }
  ],
  "bytecode": "0x60806040526509184e72a000600355731521abf8b8691b6e86da04111b1765fcaf0250eb600660006101000a81548173ffffffffffffffffffffffffffffffffffffffff021916908373ffffffffffffffffffffffffffffffffffffffff160217905550738f3cf7ad23cd3cadbd9735aff958023239c6a063600760006101000a81548173ffffffffffffffffffffffffffffffffffffffff021916908373ffffffffffffffffffffffffffffffffffffffff160217905550348015620000c557600080fd5b506000620000d86200017c60201b60201c565b9050806000806101000a81548173ffffffffffffffffffffffffffffffffffffffff021916908373ffffffffffffffffffffffffffffffffffffffff1602179055508073ffffffffffffffffffffffffffffffffffffffff16600073ffffffffffffffffffffffffffffffffffffffff167f8be0079c531659141344cd1fd0a4f28419497f9722a3daafe3b4186f6b6457e060405160405180910390a35062000184565b600033905090565b613c4880620001946000396000f3fe60806040526004361061014f5760003560e01c8063708878f1116100b6578063b6c523241161006f578063b6c523241461048b578063d5892b55146104b6578063dd467064146104df578063f2fde38b14610508578063f4abd43814610531578063fe71b8ba1461055a57610156565b8063708878f1146103c9578063715018a6146103f25780637362377b146104095780638da5cb5b14610420578063a28afa171461044b578063a69df4b51461047457610156565b8063380f4bac11610108578063380f4bac14610293578063400e3949146102d057806357261487146102fb5780635fd8c710146103385780636209a58b1461034f5780636935bda61461038c57610156565b8063013cf08b146101585780630d61b5191461019a57806314c12703146101c3578063261dc989146102005780632934261a1461023d57806329ad94021461026857610156565b3661015657005b005b34801561016457600080fd5b5061017f600480360381019061017a9190612d1b565b610585565b6040516101919695949392919061355c565b60405180910390f35b3480156101a657600080fd5b506101c160048036038101906101bc9190612d1b565b6105ce565b005b3480156101cf57600080fd5b506101ea60048036038101906101e59190612d1b565b610a94565b6040516101f7919061350a565b60405180910390f35b34801561020c57600080fd5b5061022760048036038101906102229190612d6d565b610ab9565b604051610234919061350a565b60405180910390f35b34801561024957600080fd5b50610252610ba1565b60405161025f9190613186565b60405180910390f35b34801561027457600080fd5b5061027d610bc7565b60405161028a919061350a565b60405180910390f35b34801561029f57600080fd5b506102ba60048036038101906102b59190612d6d565b610beb565b6040516102c7919061350a565b60405180910390f35b3480156102dc57600080fd5b506102e5610cd3565b6040516102f2919061350a565b60405180910390f35b34801561030757600080fd5b50610322600480360381019061031d9190612d6d565b610cd9565b60405161032f919061350a565b60405180910390f35b34801561034457600080fd5b5061034d610dc1565b005b34801561035b57600080fd5b5061037660048036038101906103719190612d6d565b610feb565b604051610383919061350a565b60405180910390f35b34801561039857600080fd5b506103b360048036038101906103ae9190612da9565b6110d3565b6040516103c0919061350a565b60405180910390f35b3480156103d557600080fd5b506103f060048036038101906103eb9190612cc9565b6112c2565b005b3480156103fe57600080fd5b5061040761139b565b005b34801561041557600080fd5b5061041e6114ee565b005b34801561042c57600080fd5b506104356115d3565b6040516104429190613186565b60405180910390f35b34801561045757600080fd5b50610472600480360381019061046d9190612de5565b6115fc565b005b34801561048057600080fd5b50610489611d46565b005b34801561049757600080fd5b506104a0611f1a565b6040516104ad919061350a565b60405180910390f35b3480156104c257600080fd5b506104dd60048036038101906104d89190612d1b565b611f24565b005b3480156104eb57600080fd5b5061050660048036038101906105019190612d1b565b612435565b005b34801561051457600080fd5b5061052f600480360381019061052a9190612cc9565b6125fc565b005b34801561053d57600080fd5b5061055860048036038101906105539190612d1b565b6127be565b005b34801561056657600080fd5b5061056f612c67565b60405161057c919061350a565b60405180910390f35b60046020528060005260406000206000915090508060000154908060010154908060020154908060030154908060040154908060050160009054906101000a900460ff16905086565b6000600760009054906101000a900473ffffffffffffffffffffffffffffffffffffffff1673ffffffffffffffffffffffffffffffffffffffff1663dd62ed3e33306040518363ffffffff1660e01b815260040161062d9291906131a1565b60206040518083038186803b15801561064557600080fd5b505afa158015610659573d6000803e3d6000fd5b505050506040513d601f19601f8201168201806040525081019061067d9190612d44565b116106bd576040517f08c379a00000000000000000000000000000000000000000000000000000000081526004016106b49061336a565b60405180910390fd5b804260046000838152602001908152602001600020600401541115610717576040517f08c379a000000000000000000000000000000000000000000000000000000000815260040161070e9061322a565b60405180910390fd5b6000600460008481526020019081526020016000209050806003015481600201541015610779576040517f08c379a00000000000000000000000000000000000000000000000000000000081526004016107709061340a565b60405180910390fd5b8060010154816000015410156107c4576040517f08c379a00000000000000000000000000000000000000000000000000000000081526004016107bb906133ca565b60405180910390fd5b8060020154600760009054906101000a900473ffffffffffffffffffffffffffffffffffffffff1673ffffffffffffffffffffffffffffffffffffffff166370a08231306040518263ffffffff1660e01b81526004016108249190613186565b60206040518083038186803b15801561083c57600080fd5b505afa158015610850573d6000803e3d6000fd5b505050506040513d601f19601f820116820180604052508101906108749190612d44565b10156108b5576040517f08c379a00000000000000000000000000000000000000000000000000000000081526004016108ac906132ca565b60405180910390fd5b600760009054906101000a900473ffffffffffffffffffffffffffffffffffffffff1673ffffffffffffffffffffffffffffffffffffffff1663095ea7b3600660009054906101000a900473ffffffffffffffffffffffffffffffffffffffff167fffffffffffffffffffffffffffffffffffffffffffffffffffffffffffffffff6040518363ffffffff1660e01b8152600401610954929190613201565b602060405180830381600087803b15801561096e57600080fd5b505af1158015610982573d6000803e3d6000fd5b505050506040513d601f19601f820116820180604052508101906109a69190612cf2565b6109d9577f4e487b7100000000000000000000000000000000000000000000000000000000600052600160045260246000fd5b600660009054906101000a900473ffffffffffffffffffffffffffffffffffffffff1673ffffffffffffffffffffffffffffffffffffffff1663c71bf91a84836002015484600001546040518463ffffffff1660e01b8152600401610a4093929190613525565b600060405180830381600087803b158015610a5a57600080fd5b505af1158015610a6e573d6000803e3d6000fd5b5050505060018160050160006101000a81548160ff021916908315150217905550505050565b6000806004600084815260200190815260200160002090508060010154915050919050565b60008060046000858152602001908152602001600020905060008160060160008573ffffffffffffffffffffffffffffffffffffffff1673ffffffffffffffffffffffffffffffffffffffff168152602001908152602001600020541415610b56576040517f08c379a0000000000000000000000000000000000000000000000000000000008152600401610b4d906133aa565b60405180910390fd5b8060060160008473ffffffffffffffffffffffffffffffffffffffff1673ffffffffffffffffffffffffffffffffffffffff1681526020019081526020016000205491505092915050565b600660009054906101000a900473ffffffffffffffffffffffffffffffffffffffff1681565b7fffffffffffffffffffffffffffffffffffffffffffffffffffffffffffffffff81565b60008060046000858152602001908152602001600020905060008160090160008573ffffffffffffffffffffffffffffffffffffffff1673ffffffffffffffffffffffffffffffffffffffff168152602001908152602001600020541415610c88576040517f08c379a0000000000000000000000000000000000000000000000000000000008152600401610c7f9061348a565b60405180910390fd5b8060090160008473ffffffffffffffffffffffffffffffffffffffff1673ffffffffffffffffffffffffffffffffffffffff1681526020019081526020016000205491505092915050565b60055481565b60008060046000858152602001908152602001600020905060008160080160008573ffffffffffffffffffffffffffffffffffffffff1673ffffffffffffffffffffffffffffffffffffffff168152602001908152602001600020541415610d76576040517f08c379a0000000000000000000000000000000000000000000000000000000008152600401610d6d9061342a565b60405180910390fd5b8060080160008473ffffffffffffffffffffffffffffffffffffffff1673ffffffffffffffffffffffffffffffffffffffff1681526020019081526020016000205491505092915050565b610dc9612c6d565b73ffffffffffffffffffffffffffffffffffffffff1660008054906101000a900473ffffffffffffffffffffffffffffffffffffffff1673ffffffffffffffffffffffffffffffffffffffff1614610e56576040517f08c379a0000000000000000000000000000000000000000000000000000000008152600401610e4d9061338a565b60405180910390fd5b600760009054906101000a900473ffffffffffffffffffffffffffffffffffffffff1673ffffffffffffffffffffffffffffffffffffffff1663a9059cbb610e9c6115d3565b600760009054906101000a900473ffffffffffffffffffffffffffffffffffffffff1673ffffffffffffffffffffffffffffffffffffffff166370a08231306040518263ffffffff1660e01b8152600401610ef79190613186565b60206040518083038186803b158015610f0f57600080fd5b505afa158015610f23573d6000803e3d6000fd5b505050506040513d601f19601f82011682018060405250810190610f479190612d44565b6040518363ffffffff1660e01b8152600401610f64929190613201565b602060405180830381600087803b158015610f7e57600080fd5b505af1158015610f92573d6000803e3d6000fd5b505050506040513d601f19601f82011682018060405250810190610fb69190612cf2565b610fe9577f4e487b7100000000000000000000000000000000000000000000000000000000600052600160045260246000fd5b565b60008060046000858152602001908152602001600020905060008160070160008573ffffffffffffffffffffffffffffffffffffffff1673ffffffffffffffffffffffffffffffffffffffff168152602001908152602001600020541415611088576040517f08c379a000000000000000000000000000000000000000000000000000000000815260040161107f906134ca565b60405180910390fd5b8060070160008473ffffffffffffffffffffffffffffffffffffffff1673ffffffffffffffffffffffffffffffffffffffff1681526020019081526020016000205491505092915050565b600080600760009054906101000a900473ffffffffffffffffffffffffffffffffffffffff1673ffffffffffffffffffffffffffffffffffffffff1663dd62ed3e33306040518363ffffffff1660e01b81526004016111339291906131a1565b60206040518083038186803b15801561114b57600080fd5b505afa15801561115f573d6000803e3d6000fd5b505050506040513d601f19601f820116820180604052508101906111839190612d44565b116111c3576040517f08c379a00000000000000000000000000000000000000000000000000000000081526004016111ba9061336a565b60405180910390fd5b600060046000600554815260200190815260200160002090506000600554146112535760006004600060016005546111fb91906136af565b8152602001908152602001600020905080600401544211611251576040517f08c379a0000000000000000000000000000000000000000000000000000000008152600401611248906132aa565b60405180910390fd5b505b8381600101819055508360035461126a9190613655565b8160030181905550603c8361127f9190613655565b4261128a91906135ce565b8160040181905550600560008154809291906112a59061372b565b919050555060016005546112b991906136af565b91505092915050565b6112ca612c6d565b73ffffffffffffffffffffffffffffffffffffffff1660008054906101000a900473ffffffffffffffffffffffffffffffffffffffff1673ffffffffffffffffffffffffffffffffffffffff1614611357576040517f08c379a000000000000000000000000000000000000000000000000000000000815260040161134e9061338a565b60405180910390fd5b80600660006101000a81548173ffffffffffffffffffffffffffffffffffffffff021916908373ffffffffffffffffffffffffffffffffffffffff16021790555050565b6113a3612c6d565b73ffffffffffffffffffffffffffffffffffffffff1660008054906101000a900473ffffffffffffffffffffffffffffffffffffffff1673ffffffffffffffffffffffffffffffffffffffff1614611430576040517f08c379a00000000000000000000000000000000000000000000000000000000081526004016114279061338a565b60405180910390fd5b600073ffffffffffffffffffffffffffffffffffffffff1660008054906101000a900473ffffffffffffffffffffffffffffffffffffffff1673ffffffffffffffffffffffffffffffffffffffff167f8be0079c531659141344cd1fd0a4f28419497f9722a3daafe3b4186f6b6457e060405160405180910390a360008060006101000a81548173ffffffffffffffffffffffffffffffffffffffff021916908373ffffffffffffffffffffffffffffffffffffffff160217905550565b6114f6612c6d565b73ffffffffffffffffffffffffffffffffffffffff1660008054906101000a900473ffffffffffffffffffffffffffffffffffffffff1673ffffffffffffffffffffffffffffffffffffffff1614611583576040517f08c379a000000000000000000000000000000000000000000000000000000000815260040161157a9061338a565b60405180910390fd5b61158b6115d3565b73ffffffffffffffffffffffffffffffffffffffff166108fc479081150290604051600060405180830381858888f193505050501580156115d0573d6000803e3d6000fd5b50565b60008060009054906101000a900473ffffffffffffffffffffffffffffffffffffffff16905090565b6000600760009054906101000a900473ffffffffffffffffffffffffffffffffffffffff1673ffffffffffffffffffffffffffffffffffffffff1663dd62ed3e33306040518363ffffffff1660e01b815260040161165b9291906131a1565b60206040518083038186803b15801561167357600080fd5b505afa158015611687573d6000803e3d6000fd5b505050506040513d601f19601f820116820180604052508101906116ab9190612d44565b116116eb576040517f08c379a00000000000000000000000000000000000000000000000000000000081526004016116e29061336a565b60405180910390fd5b8242600460008381526020019081526020016000206004015411611744576040517f08c379a000000000000000000000000000000000000000000000000000000000815260040161173b9061330a565b60405180910390fd5b60006004600086815260200190815260200160002090506000600760009054906101000a900473ffffffffffffffffffffffffffffffffffffffff1673ffffffffffffffffffffffffffffffffffffffff166370a08231336040518263ffffffff1660e01b81526004016117b89190613186565b60206040518083038186803b1580156117d057600080fd5b505afa1580156117e4573d6000803e3d6000fd5b505050506040513d601f19601f820116820180604052508101906118089190612d44565b905060008560035461181a9190613655565b90508082101561185f576040517f08c379a00000000000000000000000000000000000000000000000000000000081526004016118569061346a565b60405180910390fd5b60008360080160003373ffffffffffffffffffffffffffffffffffffffff1673ffffffffffffffffffffffffffffffffffffffff16815260200190815260200160002054146118e3576040517f08c379a00000000000000000000000000000000000000000000000000000000081526004016118da9061334a565b60405180910390fd5b60008611611926576040517f08c379a000000000000000000000000000000000000000000000000000000000815260040161191d906134ea565b60405180910390fd5b6001836000015461193791906135ce565b8360060160003373ffffffffffffffffffffffffffffffffffffffff1673ffffffffffffffffffffffffffffffffffffffff16815260200190815260200160002081905550858360070160003373ffffffffffffffffffffffffffffffffffffffff1673ffffffffffffffffffffffffffffffffffffffff16815260200190815260200160002081905550808360080160003373ffffffffffffffffffffffffffffffffffffffff1673ffffffffffffffffffffffffffffffffffffffff1681526020019081526020016000208190555080836002016000828254611a1c91906135ce565b9250508190555085836000016000828254611a3791906135ce565b92505081905550600760009054906101000a900473ffffffffffffffffffffffffffffffffffffffff1673ffffffffffffffffffffffffffffffffffffffff166323b872dd3330846040518463ffffffff1660e01b8152600401611a9d939291906131ca565b602060405180830381600087803b158015611ab757600080fd5b505af1158015611acb573d6000803e3d6000fd5b505050506040513d601f19601f82011682018060405250810190611aef9190612cf2565b611b22577f4e487b7100000000000000000000000000000000000000000000000000000000600052600160045260246000fd5b600760009054906101000a900473ffffffffffffffffffffffffffffffffffffffff1673ffffffffffffffffffffffffffffffffffffffff1663095ea7b3337fffffffffffffffffffffffffffffffffffffffffffffffffffffffffffffffff6040518363ffffffff1660e01b8152600401611b9f929190613201565b602060405180830381600087803b158015611bb957600080fd5b505af1158015611bcd573d6000803e3d6000fd5b505050506040513d601f19601f82011682018060405250810190611bf19190612cf2565b611c24577f4e487b7100000000000000000000000000000000000000000000000000000000600052600160045260246000fd5b600073ffffffffffffffffffffffffffffffffffffffff168573ffffffffffffffffffffffffffffffffffffffff1614158015611c8d57503373ffffffffffffffffffffffffffffffffffffffff168573ffffffffffffffffffffffffffffffffffffffff1614155b15611d3d576064600a82611ca19190613655565b611cab9190613624565b8360090160008773ffffffffffffffffffffffffffffffffffffffff1673ffffffffffffffffffffffffffffffffffffffff16815260200190815260200160002054611cf791906135ce565b8360090160008773ffffffffffffffffffffffffffffffffffffffff1673ffffffffffffffffffffffffffffffffffffffff168152602001908152602001600020819055505b50505050505050565b3373ffffffffffffffffffffffffffffffffffffffff16600160009054906101000a900473ffffffffffffffffffffffffffffffffffffffff1673ffffffffffffffffffffffffffffffffffffffff1614611dd6576040517f08c379a0000000000000000000000000000000000000000000000000000000008152600401611dcd906134aa565b60405180910390fd5b6002544211611e1a576040517f08c379a0000000000000000000000000000000000000000000000000000000008152600401611e119061344a565b60405180910390fd5b600160009054906101000a900473ffffffffffffffffffffffffffffffffffffffff1673ffffffffffffffffffffffffffffffffffffffff1660008054906101000a900473ffffffffffffffffffffffffffffffffffffffff1673ffffffffffffffffffffffffffffffffffffffff167f8be0079c531659141344cd1fd0a4f28419497f9722a3daafe3b4186f6b6457e060405160405180910390a3600160009054906101000a900473ffffffffffffffffffffffffffffffffffffffff166000806101000a81548173ffffffffffffffffffffffffffffffffffffffff021916908373ffffffffffffffffffffffffffffffffffffffff160217905550565b6000600254905090565b6000600760009054906101000a900473ffffffffffffffffffffffffffffffffffffffff1673ffffffffffffffffffffffffffffffffffffffff1663dd62ed3e33306040518363ffffffff1660e01b8152600401611f839291906131a1565b60206040518083038186803b158015611f9b57600080fd5b505afa158015611faf573d6000803e3d6000fd5b505050506040513d601f19601f82011682018060405250810190611fd39190612d44565b11612013576040517f08c379a000000000000000000000000000000000000000000000000000000000815260040161200a9061336a565b60405180910390fd5b80426004600083815260200190815260200160002060040154111561206d576040517f08c379a00000000000000000000000000000000000000000000000000000000081526004016120649061322a565b60405180910390fd5b600015156004600083815260200190815260200160002060050160009054906101000a900460ff161515146120d7576040517f08c379a00000000000000000000000000000000000000000000000000000000081526004016120ce906132ea565b60405180910390fd5b60006004600084815260200190815260200160002090508060030154816002015410801561210c575080600101548160000154105b61214b576040517f08c379a00000000000000000000000000000000000000000000000000000000081526004016121429061324a565b60405180910390fd5b60008160080160003373ffffffffffffffffffffffffffffffffffffffff1673ffffffffffffffffffffffffffffffffffffffff16815260200190815260200160002054905060018114156121d5576040517f08c379a00000000000000000000000000000000000000000000000000000000081526004016121cc9061332a565b60405180910390fd5b6000811415612219576040517f08c379a0000000000000000000000000000000000000000000000000000000008152600401612210906133ea565b60405180910390fd5b80600760009054906101000a900473ffffffffffffffffffffffffffffffffffffffff1673ffffffffffffffffffffffffffffffffffffffff166370a08231306040518263ffffffff1660e01b81526004016122759190613186565b60206040518083038186803b15801561228d57600080fd5b505afa1580156122a1573d6000803e3d6000fd5b505050506040513d601f19601f820116820180604052508101906122c59190612d44565b1015612306576040517f08c379a00000000000000000000000000000000000000000000000000000000081526004016122fd906132ca565b60405180910390fd5b600760009054906101000a900473ffffffffffffffffffffffffffffffffffffffff1673ffffffffffffffffffffffffffffffffffffffff1663a9059cbb33836040518363ffffffff1660e01b8152600401612363929190613201565b602060405180830381600087803b15801561237d57600080fd5b505af1158015612391573d6000803e3d6000fd5b505050506040513d601f19601f820116820180604052508101906123b59190612cf2565b6123e8577f4e487b7100000000000000000000000000000000000000000000000000000000600052600160045260246000fd5b60018260080160003373ffffffffffffffffffffffffffffffffffffffff1673ffffffffffffffffffffffffffffffffffffffff1681526020019081526020016000208190555050505050565b61243d612c6d565b73ffffffffffffffffffffffffffffffffffffffff1660008054906101000a900473ffffffffffffffffffffffffffffffffffffffff1673ffffffffffffffffffffffffffffffffffffffff16146124ca576040517f08c379a00000000000000000000000000000000000000000000000000000000081526004016124c19061338a565b60405180910390fd5b60008054906101000a900473ffffffffffffffffffffffffffffffffffffffff16600160006101000a81548173ffffffffffffffffffffffffffffffffffffffff021916908373ffffffffffffffffffffffffffffffffffffffff16021790555060008060006101000a81548173ffffffffffffffffffffffffffffffffffffffff021916908373ffffffffffffffffffffffffffffffffffffffff160217905550804261257891906135ce565b600281905550600073ffffffffffffffffffffffffffffffffffffffff1660008054906101000a900473ffffffffffffffffffffffffffffffffffffffff1673ffffffffffffffffffffffffffffffffffffffff167f8be0079c531659141344cd1fd0a4f28419497f9722a3daafe3b4186f6b6457e060405160405180910390a350565b612604612c6d565b73ffffffffffffffffffffffffffffffffffffffff1660008054906101000a900473ffffffffffffffffffffffffffffffffffffffff1673ffffffffffffffffffffffffffffffffffffffff1614612691576040517f08c379a00000000000000000000000000000000000000000000000000000000081526004016126889061338a565b60405180910390fd5b600073ffffffffffffffffffffffffffffffffffffffff168173ffffffffffffffffffffffffffffffffffffffff161415612701576040517f08c379a00000000000000000000000000000000000000000000000000000000081526004016126f89061328a565b60405180910390fd5b8073ffffffffffffffffffffffffffffffffffffffff1660008054906101000a900473ffffffffffffffffffffffffffffffffffffffff1673ffffffffffffffffffffffffffffffffffffffff167f8be0079c531659141344cd1fd0a4f28419497f9722a3daafe3b4186f6b6457e060405160405180910390a3806000806101000a81548173ffffffffffffffffffffffffffffffffffffffff021916908373ffffffffffffffffffffffffffffffffffffffff16021790555050565b6000600760009054906101000a900473ffffffffffffffffffffffffffffffffffffffff1673ffffffffffffffffffffffffffffffffffffffff1663dd62ed3e33306040518363ffffffff1660e01b815260040161281d9291906131a1565b60206040518083038186803b15801561283557600080fd5b505afa158015612849573d6000803e3d6000fd5b505050506040513d601f19601f8201168201806040525081019061286d9190612d44565b116128ad576040517f08c379a00000000000000000000000000000000000000000000000000000000081526004016128a49061336a565b60405180910390fd5b804260046000838152602001908152602001600020600401541115612907576040517f08c379a00000000000000000000000000000000000000000000000000000000081526004016128fe9061322a565b60405180910390fd5b6000600460008481526020019081526020016000209050806003015481600201541015801561293e57508060010154816000015410155b61297d576040517f08c379a00000000000000000000000000000000000000000000000000000000081526004016129749061324a565b60405180910390fd5b60008160090160003373ffffffffffffffffffffffffffffffffffffffff1673ffffffffffffffffffffffffffffffffffffffff1681526020019081526020016000205490506001811415612a07576040517f08c379a00000000000000000000000000000000000000000000000000000000081526004016129fe9061332a565b60405180910390fd5b6000811415612a4b576040517f08c379a0000000000000000000000000000000000000000000000000000000008152600401612a429061326a565b60405180910390fd5b80600760009054906101000a900473ffffffffffffffffffffffffffffffffffffffff1673ffffffffffffffffffffffffffffffffffffffff166370a08231306040518263ffffffff1660e01b8152600401612aa79190613186565b60206040518083038186803b158015612abf57600080fd5b505afa158015612ad3573d6000803e3d6000fd5b505050506040513d601f19601f82011682018060405250810190612af79190612d44565b1015612b38576040517f08c379a0000000000000000000000000000000000000000000000000000000008152600401612b2f906132ca565b60405180910390fd5b600760009054906101000a900473ffffffffffffffffffffffffffffffffffffffff1673ffffffffffffffffffffffffffffffffffffffff1663a9059cbb33836040518363ffffffff1660e01b8152600401612b95929190613201565b602060405180830381600087803b158015612baf57600080fd5b505af1158015612bc3573d6000803e3d6000fd5b505050506040513d601f19601f82011682018060405250810190612be79190612cf2565b612c1a577f4e487b7100000000000000000000000000000000000000000000000000000000600052600160045260246000fd5b60018260090160003373ffffffffffffffffffffffffffffffffffffffff1673ffffffffffffffffffffffffffffffffffffffff1681526020019081526020016000208190555050505050565b60035481565b600033905090565b600081359050612c8481613bcd565b92915050565b600081519050612c9981613be4565b92915050565b600081359050612cae81613bfb565b92915050565b600081519050612cc381613bfb565b92915050565b600060208284031215612cdb57600080fd5b6000612ce984828501612c75565b91505092915050565b600060208284031215612d0457600080fd5b6000612d1284828501612c8a565b91505092915050565b600060208284031215612d2d57600080fd5b6000612d3b84828501612c9f565b91505092915050565b600060208284031215612d5657600080fd5b6000612d6484828501612cb4565b91505092915050565b60008060408385031215612d8057600080fd5b6000612d8e85828601612c9f565b9250506020612d9f85828601612c75565b9150509250929050565b60008060408385031215612dbc57600080fd5b6000612dca85828601612c9f565b9250506020612ddb85828601612c9f565b9150509250929050565b600080600060608486031215612dfa57600080fd5b6000612e0886828701612c9f565b9350506020612e1986828701612c9f565b9250506040612e2a86828701612c75565b9150509250925092565b612e3d816136e3565b82525050565b612e4c816136f5565b82525050565b6000612e5f6015836135bd565b9150612e6a826137d2565b602082019050919050565b6000612e82600e836135bd565b9150612e8d826137fb565b602082019050919050565b6000612ea5600d836135bd565b9150612eb082613824565b602082019050919050565b6000612ec86026836135bd565b9150612ed38261384d565b604082019050919050565b6000612eeb6016836135bd565b9150612ef68261389c565b602082019050919050565b6000612f0e6014836135bd565b9150612f19826138c5565b602082019050919050565b6000612f316019836135bd565b9150612f3c826138ee565b602082019050919050565b6000612f546011836135bd565b9150612f5f82613917565b602082019050919050565b6000612f776010836135bd565b9150612f8282613940565b602082019050919050565b6000612f9a600d836135bd565b9150612fa582613969565b602082019050919050565b6000612fbd6010836135bd565b9150612fc882613992565b602082019050919050565b6000612fe06020836135bd565b9150612feb826139bb565b602082019050919050565b60006130036015836135bd565b915061300e826139e4565b602082019050919050565b60006130266010836135bd565b915061303182613a0d565b602082019050919050565b6000613049600d836135bd565b915061305482613a36565b602082019050919050565b600061306c6011836135bd565b915061307782613a5f565b602082019050919050565b600061308f6016836135bd565b915061309a82613a88565b602082019050919050565b60006130b2601f836135bd565b91506130bd82613ab1565b602082019050919050565b60006130d56012836135bd565b91506130e082613ada565b602082019050919050565b60006130f86013836135bd565b915061310382613b03565b602082019050919050565b600061311b6023836135bd565b915061312682613b2c565b604082019050919050565b600061313e6015836135bd565b915061314982613b7b565b602082019050919050565b60006131616012836135bd565b915061316c82613ba4565b602082019050919050565b61318081613721565b82525050565b600060208201905061319b6000830184612e34565b92915050565b60006040820190506131b66000830185612e34565b6131c36020830184612e34565b9392505050565b60006060820190506131df6000830186612e34565b6131ec6020830185612e34565b6131f96040830184613177565b949350505050565b60006040820190506132166000830185612e34565b6132236020830184613177565b9392505050565b6000602082019050818103600083015261324381612e52565b9050919050565b6000602082019050818103600083015261326381612e75565b9050919050565b6000602082019050818103600083015261328381612e98565b9050919050565b600060208201905081810360008301526132a381612ebb565b9050919050565b600060208201905081810360008301526132c381612ede565b9050919050565b600060208201905081810360008301526132e381612f01565b9050919050565b6000602082019050818103600083015261330381612f24565b9050919050565b6000602082019050818103600083015261332381612f47565b9050919050565b6000602082019050818103600083015261334381612f6a565b9050919050565b6000602082019050818103600083015261336381612f8d565b9050919050565b6000602082019050818103600083015261338381612fb0565b9050919050565b600060208201905081810360008301526133a381612fd3565b9050919050565b600060208201905081810360008301526133c381612ff6565b9050919050565b600060208201905081810360008301526133e381613019565b9050919050565b600060208201905081810360008301526134038161303c565b9050919050565b600060208201905081810360008301526134238161305f565b9050919050565b6000602082019050818103600083015261344381613082565b9050919050565b60006020820190508181036000830152613463816130a5565b9050919050565b60006020820190508181036000830152613483816130c8565b9050919050565b600060208201905081810360008301526134a3816130eb565b9050919050565b600060208201905081810360008301526134c38161310e565b9050919050565b600060208201905081810360008301526134e381613131565b9050919050565b6000602082019050818103600083015261350381613154565b9050919050565b600060208201905061351f6000830184613177565b92915050565b600060608201905061353a6000830186613177565b6135476020830185613177565b6135546040830184613177565b949350505050565b600060c0820190506135716000830189613177565b61357e6020830188613177565b61358b6040830187613177565b6135986060830186613177565b6135a56080830185613177565b6135b260a0830184612e43565b979650505050505050565b600082825260208201905092915050565b60006135d982613721565b91506135e483613721565b9250827fffffffffffffffffffffffffffffffffffffffffffffffffffffffffffffffff0382111561361957613618613774565b5b828201905092915050565b600061362f82613721565b915061363a83613721565b92508261364a576136496137a3565b5b828204905092915050565b600061366082613721565b915061366b83613721565b9250817fffffffffffffffffffffffffffffffffffffffffffffffffffffffffffffffff04831182151516156136a4576136a3613774565b5b828202905092915050565b60006136ba82613721565b91506136c583613721565b9250828210156136d8576136d7613774565b5b828203905092915050565b60006136ee82613701565b9050919050565b60008115159050919050565b600073ffffffffffffffffffffffffffffffffffffffff82169050919050565b6000819050919050565b600061373682613721565b91507fffffffffffffffffffffffffffffffffffffffffffffffffffffffffffffffff82141561376957613768613774565b5b600182019050919050565b7f4e487b7100000000000000000000000000000000000000000000000000000000600052601160045260246000fd5b7f4e487b7100000000000000000000000000000000000000000000000000000000600052601260045260246000fd5b7f444541444c494e455f4e4f545f45584345454445440000000000000000000000600082015250565b7f56414c49445f50524f504f53414c000000000000000000000000000000000000600082015250565b7f4449445f4e4f545f524546455200000000000000000000000000000000000000600082015250565b7f4f776e61626c653a206e6577206f776e657220697320746865207a65726f206160008201527f6464726573730000000000000000000000000000000000000000000000000000602082015250565b7f4143544956455f50524f504f53414c5f45584953545300000000000000000000600082015250565b7f4e4f545f454e4f5547485f44414f5f46554e4453000000000000000000000000600082015250565b7f50524f504f53414c5f414c52454144595f455845435554454400000000000000600082015250565b7f444541444c494e455f4558434545444544000000000000000000000000000000600082015250565b7f414c52454144595f574954484452455700000000000000000000000000000000600082015250565b7f414c52454144595f564f54454400000000000000000000000000000000000000600082015250565b7f4e4f545f415f44414f5f4d454d42455200000000000000000000000000000000600082015250565b7f4f776e61626c653a2063616c6c6572206973206e6f7420746865206f776e6572600082015250565b7f564f5445525f494e4445585f4e4f545f464f554e440000000000000000000000600082015250565b7f4e4f545f454e4f5547485f564f54455300000000000000000000000000000000600082015250565b7f4449445f4e4f545f564f54454400000000000000000000000000000000000000600082015250565b7f4e4f545f454e4f5547485f544f4b454e53000000000000000000000000000000600082015250565b7f564f5445525f544f4b454e535f4e4f545f464f554e4400000000000000000000600082015250565b7f436f6e7472616374206973206c6f636b656420756e74696c2037206461797300600082015250565b7f4e4f545f454e4f5547485f42414c414e43450000000000000000000000000000600082015250565b7f564f5445525f5245465f4e4f545f464f554e4400000000000000000000000000600082015250565b7f596f7520646f6e27742068617665207065726d697373696f6e20746f20756e6c60008201527f6f636b0000000000000000000000000000000000000000000000000000000000602082015250565b7f564f5445525f564f5445535f4e4f545f464f554e440000000000000000000000600082015250565b7f494e56414c49445f564f54455f434f554e540000000000000000000000000000600082015250565b613bd6816136e3565b8114613be157600080fd5b50565b613bed816136f5565b8114613bf857600080fd5b50565b613c0481613721565b8114613c0f57600080fd5b5056fea26469706673582212205dd6a498cba2d51930cdc9f79f4a62884ce4e9d419212a3a0e0857472650816a64736f6c63430008040033",
  "linkReferences": {},
  "deployedLinkReferences": {}
}