{
  "_format": "hh-sol-artifact-1",
  "contractName": "TheOpenFarmDAOsLotto",
  "sourceName": "contracts/FarmDAOsLotto.sol",
  "abi": [
    {
      "anonymous": false,
      "inputs": [
        {
          "indexed": true,
          "internalType": "uint256",
          "name": "_proposalIndex",
          "type": "uint256"
        },
        {
          "indexed": false,
          "internalType": "bytes32",
          "name": "requestId",
          "type": "bytes32"
        }
      ],
      "name": "NewRandomRequest",
      "type": "event"
    },
    {
      "anonymous": false,
      "inputs": [
        {
          "indexed": true,
          "internalType": "address",
          "name": "previousOwner",
          "type": "address"
        },
        {
          "indexed": true,
          "internalType": "address",
          "name": "newOwner",
          "type": "address"
        }
      ],
      "name": "OwnershipTransferred",
      "type": "event"
    },
    {
      "inputs": [
        {
          "internalType": "uint256",
          "name": "_proposalIndex",
          "type": "uint256"
        },
        {
          "internalType": "uint256",
          "name": "_votePos",
          "type": "uint256"
        },
        {
          "internalType": "address",
          "name": "_voter",
          "type": "address"
        }
      ],
      "name": "_getVoteResult",
      "outputs": [
        {
          "internalType": "uint256",
          "name": "",
          "type": "uint256"
        }
      ],
      "stateMutability": "nonpayable",
      "type": "function"
    },
    {
      "inputs": [
        {
          "internalType": "uint256",
          "name": "_proposalIndex",
          "type": "uint256"
        },
        {
          "internalType": "uint256",
          "name": "_voteIndex",
          "type": "uint256"
        },
        {
          "internalType": "address",
          "name": "_voter",
          "type": "address"
        },
        {
          "internalType": "uint256",
          "name": "_voteDistance",
          "type": "uint256"
        }
      ],
      "name": "_withdrawAll",
      "outputs": [
        {
          "internalType": "uint256",
          "name": "",
          "type": "uint256"
        }
      ],
      "stateMutability": "nonpayable",
      "type": "function"
    },
    {
      "inputs": [],
      "name": "emergencyWithdraw",
      "outputs": [],
      "stateMutability": "nonpayable",
      "type": "function"
    },
    {
      "inputs": [
        {
          "internalType": "uint256",
          "name": "randomValue",
          "type": "uint256"
        },
        {
          "internalType": "uint256",
          "name": "n",
          "type": "uint256"
        }
      ],
      "name": "expand",
      "outputs": [
        {
          "internalType": "uint256[]",
          "name": "expandedValues",
          "type": "uint256[]"
        }
      ],
      "stateMutability": "pure",
      "type": "function"
    },
    {
      "inputs": [
        {
          "internalType": "uint256",
          "name": "",
          "type": "uint256"
        }
      ],
      "name": "gameRounds",
      "outputs": [
        {
          "internalType": "uint256",
          "name": "randomRequestBlock",
          "type": "uint256"
        },
        {
          "internalType": "uint256",
          "name": "randomResult",
          "type": "uint256"
        },
        {
          "internalType": "uint256",
          "name": "randomResultBlock",
          "type": "uint256"
        },
        {
          "internalType": "uint256",
          "name": "lockedFunds",
          "type": "uint256"
        },
        {
          "internalType": "uint256",
          "name": "amountRaised",
          "type": "uint256"
        },
        {
          "internalType": "uint256",
          "name": "votes",
          "type": "uint256"
        },
        {
          "internalType": "bytes32",
          "name": "randomRequestId",
          "type": "bytes32"
        },
        {
          "internalType": "uint8",
          "name": "lastResult",
          "type": "uint8"
        }
      ],
      "stateMutability": "view",
      "type": "function"
    },
    {
      "inputs": [],
      "name": "geUnlockTime",
      "outputs": [
        {
          "internalType": "uint256",
          "name": "",
          "type": "uint256"
        }
      ],
      "stateMutability": "view",
      "type": "function"
    },
    {
      "inputs": [
        {
          "internalType": "uint256",
          "name": "_proposalIndex",
          "type": "uint256"
        },
        {
          "internalType": "uint256",
          "name": "_votePos",
          "type": "uint256"
        }
      ],
      "name": "getVoteRedeemd",
      "outputs": [
        {
          "internalType": "uint256",
          "name": "",
          "type": "uint256"
        }
      ],
      "stateMutability": "view",
      "type": "function"
    },
    {
      "inputs": [
        {
          "internalType": "uint256",
          "name": "_proposalIndex",
          "type": "uint256"
        },
        {
          "internalType": "uint256",
          "name": "_votePos",
          "type": "uint256"
        },
        {
          "internalType": "address",
          "name": "_voter",
          "type": "address"
        }
      ],
      "name": "getVoteResult",
      "outputs": [
        {
          "internalType": "uint256",
          "name": "",
          "type": "uint256"
        }
      ],
      "stateMutability": "nonpayable",
      "type": "function"
    },
    {
      "inputs": [
        {
          "internalType": "uint256",
          "name": "_proposalIndex",
          "type": "uint256"
        },
        {
          "internalType": "uint256",
          "name": "_votePos",
          "type": "uint256"
        }
      ],
      "name": "getVoteScratchedNumber",
      "outputs": [
        {
          "internalType": "uint256",
          "name": "",
          "type": "uint256"
        }
      ],
      "stateMutability": "view",
      "type": "function"
    },
    {
      "inputs": [
        {
          "internalType": "uint256",
          "name": "_proposalIndex",
          "type": "uint256"
        },
        {
          "internalType": "uint256",
          "name": "_winnerIndex",
          "type": "uint256"
        }
      ],
      "name": "getWinner",
      "outputs": [
        {
          "internalType": "uint256",
          "name": "",
          "type": "uint256"
        }
      ],
      "stateMutability": "view",
      "type": "function"
    },
    {
      "inputs": [
        {
          "internalType": "uint256",
          "name": "_proposalIndex",
          "type": "uint256"
        },
        {
          "internalType": "uint256",
          "name": "_votePos",
          "type": "uint256"
        }
      ],
      "name": "getWonAmount",
      "outputs": [
        {
          "internalType": "uint256",
          "name": "",
          "type": "uint256"
        }
      ],
      "stateMutability": "view",
      "type": "function"
    },
    {
      "inputs": [
        {
          "internalType": "uint256",
          "name": "",
          "type": "uint256"
        }
      ],
      "name": "hasRequestedRandom",
      "outputs": [
        {
          "internalType": "bool",
          "name": "",
          "type": "bool"
        }
      ],
      "stateMutability": "view",
      "type": "function"
    },
    {
      "inputs": [
        {
          "internalType": "uint256",
          "name": "time",
          "type": "uint256"
        }
      ],
      "name": "lock",
      "outputs": [],
      "stateMutability": "nonpayable",
      "type": "function"
    },
    {
      "inputs": [
        {
          "internalType": "uint256",
          "name": "_proposalIndex",
          "type": "uint256"
        },
        {
          "internalType": "uint256",
          "name": "_amount",
          "type": "uint256"
        },
        {
          "internalType": "uint256",
          "name": "_votes",
          "type": "uint256"
        }
      ],
      "name": "newRound",
      "outputs": [],
      "stateMutability": "nonpayable",
      "type": "function"
    },
    {
      "inputs": [],
      "name": "owner",
      "outputs": [
        {
          "internalType": "address",
          "name": "",
          "type": "address"
        }
      ],
      "stateMutability": "view",
      "type": "function"
    },
    {
      "inputs": [
        {
          "internalType": "uint256",
          "name": "",
          "type": "uint256"
        }
      ],
      "name": "randomRequests",
      "outputs": [
        {
          "internalType": "uint256",
          "name": "",
          "type": "uint256"
        }
      ],
      "stateMutability": "view",
      "type": "function"
    },
    {
      "inputs": [
        {
          "internalType": "uint256",
          "name": "",
          "type": "uint256"
        },
        {
          "internalType": "uint256",
          "name": "",
          "type": "uint256"
        }
      ],
      "name": "redeemHistory",
      "outputs": [
        {
          "internalType": "uint256",
          "name": "",
          "type": "uint256"
        }
      ],
      "stateMutability": "view",
      "type": "function"
    },
    {
      "inputs": [],
      "name": "renounceOwnership",
      "outputs": [],
      "stateMutability": "nonpayable",
      "type": "function"
    },
    {
      "inputs": [
        {
          "internalType": "uint256",
          "name": "_proposalIndex",
          "type": "uint256"
        }
      ],
      "name": "requestResolveRound",
      "outputs": [],
      "stateMutability": "nonpayable",
      "type": "function"
    },
    {
      "inputs": [
        {
          "internalType": "uint256",
          "name": "_proposalIndex",
          "type": "uint256"
        }
      ],
      "name": "resolveBet",
      "outputs": [
        {
          "internalType": "bool",
          "name": "",
          "type": "bool"
        }
      ],
      "stateMutability": "nonpayable",
      "type": "function"
    },
    {
      "inputs": [
        {
          "internalType": "address",
          "name": "newOwner",
          "type": "address"
        }
      ],
      "name": "transferOwnership",
      "outputs": [],
      "stateMutability": "nonpayable",
      "type": "function"
    },
    {
      "inputs": [],
      "name": "unlock",
      "outputs": [],
      "stateMutability": "nonpayable",
      "type": "function"
    },
    {
      "inputs": [
        {
          "internalType": "uint256",
          "name": "_proposalIndex",
          "type": "uint256"
        },
        {
          "internalType": "uint256",
          "name": "_voteIndex",
          "type": "uint256"
        },
        {
          "internalType": "address",
          "name": "_voter",
          "type": "address"
        },
        {
          "internalType": "uint256",
          "name": "_voteDistance",
          "type": "uint256"
        }
      ],
      "name": "withdrawAll",
      "outputs": [
        {
          "internalType": "uint256",
          "name": "",
          "type": "uint256"
        }
      ],
      "stateMutability": "nonpayable",
      "type": "function"
    },
    {
      "inputs": [
        {
          "internalType": "uint256",
          "name": "_proposalIndex",
          "type": "uint256"
        },
        {
          "internalType": "uint256",
          "name": "_votePos",
          "type": "uint256"
        },
        {
          "internalType": "address",
          "name": "_voter",
          "type": "address"
        }
      ],
      "name": "withdrawAmount",
      "outputs": [
        {
          "internalType": "uint256",
          "name": "",
          "type": "uint256"
        }
      ],
      "stateMutability": "nonpayable",
      "type": "function"
    }
  ],
  "bytecode": "0x6080604052738f3cf7ad23cd3cadbd9735aff958023239c6a063600360006101000a81548173ffffffffffffffffffffffffffffffffffffffff021916908373ffffffffffffffffffffffffffffffffffffffff160217905550734c5f09d239e11896ed4b21e5beba0de9d777eebd600460006101000a81548173ffffffffffffffffffffffffffffffffffffffff021916908373ffffffffffffffffffffffffffffffffffffffff160217905550348015620000bb57600080fd5b506000620000ce6200017260201b60201c565b9050806000806101000a81548173ffffffffffffffffffffffffffffffffffffffff021916908373ffffffffffffffffffffffffffffffffffffffff1602179055508073ffffffffffffffffffffffffffffffffffffffff16600073ffffffffffffffffffffffffffffffffffffffff167f8be0079c531659141344cd1fd0a4f28419497f9722a3daafe3b4186f6b6457e060405160405180910390a3506200017a565b600033905090565b6147e9806200018a6000396000f3fe608060405234801561001057600080fd5b50600436106101575760003560e01c8063874b3afc116100c3578063ca067ad01161007c578063ca067ad01461042b578063d212dcea1461045b578063db2e21bc1461048b578063dd46706414610495578063f2fde38b146104b1578063f84e6d91146104cd57610157565b8063874b3afc1461037d5780638da5cb5b146103ad578063a69df4b5146103cb578063b6c52324146103d5578063c36aea47146103f3578063c71bf91a1461040f57610157565b80634c36c36e116101155780634c36c36e146102835780635fafaf06146102b357806363c60c3a146102e3578063673efa69146103135780636abbee8214610343578063715018a61461037357610157565b806219e6371461015c578063122197cc1461018c5780631398b3cb146101bc57806325f3c1bd146101ec5780632ecdc14f1461022357806339ff487b14610253575b600080fd5b6101766004803603810190610171919061399f565b6104fd565b60405161018391906140f3565b60405180910390f35b6101a660048036038101906101a1919061399f565b61052f565b6040516101b391906140f3565b60405180910390f35b6101d660048036038101906101d19190613a2a565b610561565b6040516101e391906140f3565b60405180910390f35b6102066004803603810190610201919061394d565b6109aa565b60405161021a989796959493929190614160565b60405180910390f35b61023d600480360381019061023891906139db565b6109ff565b60405161024a91906140f3565b60405180910390f35b61026d6004803603810190610268919061399f565b610d5d565b60405161027a91906140f3565b60405180910390f35b61029d6004803603810190610298919061394d565b610db7565b6040516102aa9190613e82565b60405180910390f35b6102cd60048036038101906102c8919061399f565b6113db565b6040516102da91906140f3565b60405180910390f35b6102fd60048036038101906102f89190613a2a565b61140d565b60405161030a91906140f3565b60405180910390f35b61032d6004803603810190610328919061399f565b61186d565b60405161033a91906140f3565b60405180910390f35b61035d600480360381019061035891906139db565b611895565b60405161036a91906140f3565b60405180910390f35b61037b612098565b005b6103976004803603810190610392919061399f565b6121eb565b6040516103a49190613e60565b60405180910390f35b6103b56122f4565b6040516103c29190613e0e565b60405180910390f35b6103d361231d565b005b6103dd6124f1565b6040516103ea91906140f3565b60405180910390f35b61040d6004803603810190610408919061394d565b6124fb565b005b61042960048036038101906104249190613a8d565b612791565b005b6104456004803603810190610440919061394d565b612963565b60405161045291906140f3565b60405180910390f35b6104756004803603810190610470919061394d565b61297b565b6040516104829190613e82565b60405180910390f35b61049361299b565b005b6104af60048036038101906104aa919061394d565b612bc7565b005b6104cb60048036038101906104c691906138d2565b612d8e565b005b6104e760048036038101906104e291906139db565b612f50565b6040516104f491906140f3565b60405180910390f35b600060076000848152602001908152602001600020600801600083815260200190815260200160002054905092915050565b600060076000848152602001908152602001600020600901600083815260200190815260200160002054905092915050565b60008061056c6122f4565b73ffffffffffffffffffffffffffffffffffffffff1663261dc98987866040518363ffffffff1660e01b81526004016105a692919061410e565b60206040518083038186803b1580156105be57600080fd5b505afa1580156105d2573d6000803e3d6000fd5b505050506040513d601f19601f820116820180604052508101906105f69190613976565b905060006106026122f4565b73ffffffffffffffffffffffffffffffffffffffff16636209a58b88876040518363ffffffff1660e01b815260040161063c92919061410e565b60206040518083038186803b15801561065457600080fd5b505afa158015610668573d6000803e3d6000fd5b505050506040513d601f19601f8201168201806040525081019061068c9190613976565b9050808261069a9190614228565b8611156106dc576040517f08c379a00000000000000000000000000000000000000000000000000000000081526004016106d3906140b3565b60405180910390fd5b6000841161071f576040517f08c379a000000000000000000000000000000000000000000000000000000000815260040161071690613fd3565b60405180910390fd5b808261072b9190614228565b84876107379190614228565b1115610778576040517f08c379a000000000000000000000000000000000000000000000000000000000815260040161076f906140d3565b60405180910390fd5b80841015610784578390505b6000805b828110156108a6576000600760008b8152602001908152602001600020600a0160008a846107b69190614228565b81526020019081526020016000205490506001811161080a576040517f08c379a000000000000000000000000000000000000000000000000000000000815260040161080190613f13565b60405180910390fd5b6000600760008c8152602001908152602001600020600a0160008b856108309190614228565b815260200190815260200160002054905060018111156108915780846108569190614228565b93506001600760008d8152602001908152602001600020600a0160008c8661087e9190614228565b8152602001908152602001600020819055505b5050808061089e9061437a565b915050610788565b50600081111561099c57600360009054906101000a900473ffffffffffffffffffffffffffffffffffffffff1673ffffffffffffffffffffffffffffffffffffffff166323b872dd6108f66122f4565b88846040518463ffffffff1660e01b815260040161091693929190613e29565b602060405180830381600087803b15801561093057600080fd5b505af1158015610944573d6000803e3d6000fd5b505050506040513d601f19601f8201168201806040525081019061096891906138fb565b61099b577f4e487b7100000000000000000000000000000000000000000000000000000000600052600160045260246000fd5b5b809350505050949350505050565b60076020528060005260406000206000915090508060000154908060010154908060020154908060030154908060040154908060050154908060060154908060070160009054906101000a900460ff16905088565b600080610a0a6122f4565b73ffffffffffffffffffffffffffffffffffffffff1663261dc98986856040518363ffffffff1660e01b8152600401610a4492919061410e565b60206040518083038186803b158015610a5c57600080fd5b505afa158015610a70573d6000803e3d6000fd5b505050506040513d601f19601f82011682018060405250810190610a949190613976565b90506000610aa06122f4565b73ffffffffffffffffffffffffffffffffffffffff16636209a58b87866040518363ffffffff1660e01b8152600401610ada92919061410e565b60206040518083038186803b158015610af257600080fd5b505afa158015610b06573d6000803e3d6000fd5b505050506040513d601f19601f82011682018060405250810190610b2a9190613976565b9050818510158015610b4757508082610b439190614228565b8511155b610b86576040517f08c379a0000000000000000000000000000000000000000000000000000000008152600401610b7d90614013565b60405180910390fd5b600060076000888152602001908152602001600020600a01600087815260200190815260200160002054905060008111610bf5576040517f08c379a0000000000000000000000000000000000000000000000000000000008152600401610bec90613ed3565b60405180910390fd5b60018111610c38576040517f08c379a0000000000000000000000000000000000000000000000000000000008152600401610c2f90613f13565b60405180910390fd5b600360009054906101000a900473ffffffffffffffffffffffffffffffffffffffff1673ffffffffffffffffffffffffffffffffffffffff166323b872dd610c7e6122f4565b87846040518463ffffffff1660e01b8152600401610c9e93929190613e29565b602060405180830381600087803b158015610cb857600080fd5b505af1158015610ccc573d6000803e3d6000fd5b505050506040513d601f19601f82011682018060405250810190610cf091906138fb565b610d23577f4e487b7100000000000000000000000000000000000000000000000000000000600052600160045260246000fd5b600160076000898152602001908152602001600020600a016000888152602001908152602001600020819055508093505050509392505050565b600060076000848152602001908152602001600020600b018260538110610dad577f4e487b7100000000000000000000000000000000000000000000000000000000600052603260045260246000fd5b0154905092915050565b600080600760008481526020019081526020016000206004015411610e11576040517f08c379a0000000000000000000000000000000000000000000000000000000008152600401610e0890613f33565b60405180910390fd5b600060076000848152602001908152602001600020600601549050600460009054906101000a900473ffffffffffffffffffffffffffffffffffffffff1673ffffffffffffffffffffffffffffffffffffffff1663e89e106a6040518163ffffffff1660e01b8152600401602060405180830381600087803b158015610e9657600080fd5b505af1158015610eaa573d6000803e3d6000fd5b505050506040513d601f19601f82011682018060405250810190610ece9190613924565b8114610f0f576040517f08c379a0000000000000000000000000000000000000000000000000000000008152600401610f0690614053565b60405180910390fd5b6000600660008581526020019081526020016000205414610f65576040517f08c379a0000000000000000000000000000000000000000000000000000000008152600401610f5c90614073565b60405180910390fd5b436007600085815260200190815260200160002060020181905550600460009054906101000a900473ffffffffffffffffffffffffffffffffffffffff1673ffffffffffffffffffffffffffffffffffffffff1663db61e87b6040518163ffffffff1660e01b8152600401602060405180830381600087803b158015610fea57600080fd5b505af1158015610ffe573d6000803e3d6000fd5b505050506040513d601f19601f820116820180604052508101906110229190613976565b6006600085815260200190815260200160002081905550600460009054906101000a900473ffffffffffffffffffffffffffffffffffffffff1673ffffffffffffffffffffffffffffffffffffffff1663f6eaffc860006040518263ffffffff1660e01b81526004016110959190613eb8565b602060405180830381600087803b1580156110af57600080fd5b505af11580156110c3573d6000803e3d6000fd5b505050506040513d601f19601f820116820180604052508101906110e79190613976565b60076000858152602001908152602001600020600101819055506000611124600760008681526020019081526020016000206001015460536121eb565b9050600080600090505b60538110156113c85760006001600760008981526020019081526020016000206005015485848151811061118b577f4e487b7100000000000000000000000000000000000000000000000000000000600052603260045260246000fd5b602002602001015161119d91906143c3565b6111a79190614228565b90508060076000898152602001908152602001600020600b0183605381106111f8577f4e487b7100000000000000000000000000000000000000000000000000000000600052603260045260246000fd5b0181905550600082141561123c57600a6002600760008a81526020019081526020016000206004015461122b91906142af565b611235919061427e565b9250611330565b600382101561127b5760646005600760008a81526020019081526020016000206004015461126a91906142af565b611274919061427e565b925061132f565b600d8210156112ba5760646001600760008a8152602001908152602001600020600401546112a991906142af565b6112b3919061427e565b925061132e565b60218210156112fa576103e86005600760008a8152602001908152602001600020600401546112e991906142af565b6112f3919061427e565b925061132d565b6103e86002600760008a81526020019081526020016000206004015461132091906142af565b61132a919061427e565b92505b5b5b5b8260076000898152602001908152602001600020600a01600083815260200190815260200160002081905550816007600089815260200190815260200160002060090160008381526020019081526020016000208190555081600760008981526020019081526020016000206008016000838152602001908152602001600020819055505080806113c09061437a565b91505061112e565b5060006001905080945050505050919050565b600060076000848152602001908152602001600020600a01600083815260200190815260200160002054905092915050565b6000806114186122f4565b73ffffffffffffffffffffffffffffffffffffffff1663261dc98987866040518363ffffffff1660e01b815260040161145292919061410e565b60206040518083038186803b15801561146a57600080fd5b505afa15801561147e573d6000803e3d6000fd5b505050506040513d601f19601f820116820180604052508101906114a29190613976565b905060006114ae6122f4565b73ffffffffffffffffffffffffffffffffffffffff16636209a58b88876040518363ffffffff1660e01b81526004016114e892919061410e565b60206040518083038186803b15801561150057600080fd5b505afa158015611514573d6000803e3d6000fd5b505050506040513d601f19601f820116820180604052508101906115389190613976565b905080826115469190614228565b861115611588576040517f08c379a000000000000000000000000000000000000000000000000000000000815260040161157f906140b3565b60405180910390fd5b600084116115cb576040517f08c379a00000000000000000000000000000000000000000000000000000000081526004016115c290613fd3565b60405180910390fd5b80826115d79190614228565b84876115e39190614228565b1115611624576040517f08c379a000000000000000000000000000000000000000000000000000000000815260040161161b906140d3565b60405180910390fd5b80841015611630578390505b6000805b82811015611769576000600760008b8152602001908152602001600020600a0160008a846116629190614228565b8152602001908152602001600020549050600081146116b6576040517f08c379a00000000000000000000000000000000000000000000000000000000081526004016116ad90613f13565b60405180910390fd5b6116cc8a8a846116c69190614228565b8a612f50565b506000600760008c8152602001908152602001600020600a0160008b856116f39190614228565b815260200190815260200160002054905060018111156117545780846117199190614228565b93506001600760008d8152602001908152602001600020600a0160008c866117419190614228565b8152602001908152602001600020819055505b505080806117619061437a565b915050611634565b50600081111561185f57600360009054906101000a900473ffffffffffffffffffffffffffffffffffffffff1673ffffffffffffffffffffffffffffffffffffffff166323b872dd6117b96122f4565b88846040518463ffffffff1660e01b81526004016117d993929190613e29565b602060405180830381600087803b1580156117f357600080fd5b505af1158015611807573d6000803e3d6000fd5b505050506040513d601f19601f8201168201806040525081019061182b91906138fb565b61185e577f4e487b7100000000000000000000000000000000000000000000000000000000600052600160045260246000fd5b5b809350505050949350505050565b6005602052816000526040600020816006811061188957600080fd5b01600091509150505481565b600080600660008681526020019081526020016000205414156118ed576040517f08c379a00000000000000000000000000000000000000000000000000000000081526004016118e490613fb3565b60405180910390fd5b60006118f76122f4565b73ffffffffffffffffffffffffffffffffffffffff1663261dc98986856040518363ffffffff1660e01b815260040161193192919061410e565b60206040518083038186803b15801561194957600080fd5b505afa15801561195d573d6000803e3d6000fd5b505050506040513d601f19601f820116820180604052508101906119819190613976565b9050600061198d6122f4565b73ffffffffffffffffffffffffffffffffffffffff16636209a58b87866040518363ffffffff1660e01b81526004016119c792919061410e565b60206040518083038186803b1580156119df57600080fd5b505afa1580156119f3573d6000803e3d6000fd5b505050506040513d601f19601f82011682018060405250810190611a179190613976565b9050818510158015611a3457508082611a309190614228565b8511155b611a73576040517f08c379a0000000000000000000000000000000000000000000000000000000008152600401611a6a90614013565b60405180910390fd5b60006007600088815260200190815260200160002060080160008781526020019081526020016000205414611add576040517f08c379a0000000000000000000000000000000000000000000000000000000008152600401611ad490613f53565b60405180910390fd5b6000600760008881526020019081526020016000206005015490506000600282611b0791906143c3565b1415611b1c578080611b189061437a565b9150505b60008187600660008b815260200190815260200160002054611b3e91906142af565b611b4891906143c3565b905060008288600660008c815260200190815260200160002054611b6c91906142af565b611b7691906143c3565b9050600083826103e8611b8991906142af565b611b93919061427e565b905080600760008c815260200190815260200160002060080160008b81526020019081526020016000208190555082600760008c815260200190815260200160002060090160008b81526020019081526020016000208190555060018111611ca4576001600560008c8152602001908152602001600020600060068110611c43577f4e487b7100000000000000000000000000000000000000000000000000000000600052603260045260246000fd5b01541015611c9f576001600560008c8152602001908152602001600020600060068110611c99577f4e487b7100000000000000000000000000000000000000000000000000000000600052603260045260246000fd5b01819055505b612088565b60028111611d6b576002600560008c8152602001908152602001600020600160068110611cfa577f4e487b7100000000000000000000000000000000000000000000000000000000600052603260045260246000fd5b01541015611d6657600560008b8152602001908152602001600020600160068110611d4e577f4e487b7100000000000000000000000000000000000000000000000000000000600052603260045260246000fd5b016000815480929190611d609061437a565b91905055505b612087565b600a8111611e3257600a600560008c8152602001908152602001600020600260068110611dc1577f4e487b7100000000000000000000000000000000000000000000000000000000600052603260045260246000fd5b01541015611e2d57600560008b8152602001908152602001600020600260068110611e15577f4e487b7100000000000000000000000000000000000000000000000000000000600052603260045260246000fd5b016000815480929190611e279061437a565b91905055505b612086565b60148111611ef9576014600560008c8152602001908152602001600020600360068110611e88577f4e487b7100000000000000000000000000000000000000000000000000000000600052603260045260246000fd5b01541015611ef457600560008b8152602001908152602001600020600360068110611edc577f4e487b7100000000000000000000000000000000000000000000000000000000600052603260045260246000fd5b016000815480929190611eee9061437a565b91905055505b612085565b60328111611fc0576032600560008c8152602001908152602001600020600460068110611f4f577f4e487b7100000000000000000000000000000000000000000000000000000000600052603260045260246000fd5b01541015611fbb57600560008b8152602001908152602001600020600460068110611fa3577f4e487b7100000000000000000000000000000000000000000000000000000000600052603260045260246000fd5b016000815480929190611fb59061437a565b91905055505b612084565b60648111612083576064600560008c8152602001908152602001600020600560068110612016577f4e487b7100000000000000000000000000000000000000000000000000000000600052603260045260246000fd5b0154101561208257600560008b815260200190815260200160002060056006811061206a577f4e487b7100000000000000000000000000000000000000000000000000000000600052603260045260246000fd5b01600081548092919061207c9061437a565b91905055505b5b5b5b5b5b5b8296505050505050509392505050565b6120a0613861565b73ffffffffffffffffffffffffffffffffffffffff1660008054906101000a900473ffffffffffffffffffffffffffffffffffffffff1673ffffffffffffffffffffffffffffffffffffffff161461212d576040517f08c379a000000000000000000000000000000000000000000000000000000000815260040161212490613f93565b60405180910390fd5b600073ffffffffffffffffffffffffffffffffffffffff1660008054906101000a900473ffffffffffffffffffffffffffffffffffffffff1673ffffffffffffffffffffffffffffffffffffffff167f8be0079c531659141344cd1fd0a4f28419497f9722a3daafe3b4186f6b6457e060405160405180910390a360008060006101000a81548173ffffffffffffffffffffffffffffffffffffffff021916908373ffffffffffffffffffffffffffffffffffffffff160217905550565b60608167ffffffffffffffff81111561222d577f4e487b7100000000000000000000000000000000000000000000000000000000600052604160045260246000fd5b60405190808252806020026020018201604052801561225b5781602001602082028036833780820191505090505b50905060005b828110156122ed57838160405160200161227c929190614137565b6040516020818303038152906040528051906020012060001c8282815181106122ce577f4e487b7100000000000000000000000000000000000000000000000000000000600052603260045260246000fd5b60200260200101818152505080806122e59061437a565b915050612261565b5092915050565b60008060009054906101000a900473ffffffffffffffffffffffffffffffffffffffff16905090565b3373ffffffffffffffffffffffffffffffffffffffff16600160009054906101000a900473ffffffffffffffffffffffffffffffffffffffff1673ffffffffffffffffffffffffffffffffffffffff16146123ad576040517f08c379a00000000000000000000000000000000000000000000000000000000081526004016123a490614093565b60405180910390fd5b60025442116123f1576040517f08c379a00000000000000000000000000000000000000000000000000000000081526004016123e890614033565b60405180910390fd5b600160009054906101000a900473ffffffffffffffffffffffffffffffffffffffff1673ffffffffffffffffffffffffffffffffffffffff1660008054906101000a900473ffffffffffffffffffffffffffffffffffffffff1673ffffffffffffffffffffffffffffffffffffffff167f8be0079c531659141344cd1fd0a4f28419497f9722a3daafe3b4186f6b6457e060405160405180910390a3600160009054906101000a900473ffffffffffffffffffffffffffffffffffffffff166000806101000a81548173ffffffffffffffffffffffffffffffffffffffff021916908373ffffffffffffffffffffffffffffffffffffffff160217905550565b6000600254905090565b6000600760008381526020019081526020016000206004015411612554576040517f08c379a000000000000000000000000000000000000000000000000000000000815260040161254b90613f33565b60405180910390fd5b600015156008600083815260200190815260200160002060009054906101000a900460ff161515146125bb576040517f08c379a00000000000000000000000000000000000000000000000000000000081526004016125b290613f73565b60405180910390fd5b60016008600083815260200190815260200160002060006101000a81548160ff021916908315150217905550600460009054906101000a900473ffffffffffffffffffffffffffffffffffffffff1673ffffffffffffffffffffffffffffffffffffffff1663e0c862896040518163ffffffff1660e01b8152600401600060405180830381600087803b15801561265157600080fd5b505af1158015612665573d6000803e3d6000fd5b50505050600460009054906101000a900473ffffffffffffffffffffffffffffffffffffffff1673ffffffffffffffffffffffffffffffffffffffff1663e89e106a6040518163ffffffff1660e01b8152600401602060405180830381600087803b1580156126d357600080fd5b505af11580156126e7573d6000803e3d6000fd5b505050506040513d601f19601f8201168201806040525081019061270b9190613924565b6007600083815260200190815260200160002060060181905550436007600083815260200190815260200160002060000181905550807fbd51e5a352fab6e096017c2be9f26b900b8615c0353bc652a3f429c6e56c4e1260076000848152602001908152602001600020600601546040516127869190613e9d565b60405180910390a250565b612799613861565b73ffffffffffffffffffffffffffffffffffffffff1660008054906101000a900473ffffffffffffffffffffffffffffffffffffffff1673ffffffffffffffffffffffffffffffffffffffff1614612826576040517f08c379a000000000000000000000000000000000000000000000000000000000815260040161281d90613f93565b60405180910390fd5b6008600084815260200190815260200160002060009054906101000a900460ff1615612887576040517f08c379a000000000000000000000000000000000000000000000000000000000815260040161287e90613f73565b60405180910390fd5b60006007600085815260200190815260200160002060040154146128e0576040517f08c379a00000000000000000000000000000000000000000000000000000000081526004016128d790613ff3565b60405180910390fd5b816007600085815260200190815260200160002060040181905550600a60078060008681526020019081526020016000206004015461291f91906142af565b612929919061427e565b6007600085815260200190815260200160002060030181905550806007600085815260200190815260200160002060050181905550505050565b60066020528060005260406000206000915090505481565b60086020528060005260406000206000915054906101000a900460ff1681565b6129a3613861565b73ffffffffffffffffffffffffffffffffffffffff1660008054906101000a900473ffffffffffffffffffffffffffffffffffffffff1673ffffffffffffffffffffffffffffffffffffffff1614612a30576040517f08c379a0000000000000000000000000000000000000000000000000000000008152600401612a2790613f93565b60405180910390fd5b600360009054906101000a900473ffffffffffffffffffffffffffffffffffffffff1673ffffffffffffffffffffffffffffffffffffffff166323b872dd30612a776122f4565b600360009054906101000a900473ffffffffffffffffffffffffffffffffffffffff1673ffffffffffffffffffffffffffffffffffffffff166370a08231306040518263ffffffff1660e01b8152600401612ad29190613e0e565b60206040518083038186803b158015612aea57600080fd5b505afa158015612afe573d6000803e3d6000fd5b505050506040513d601f19601f82011682018060405250810190612b229190613976565b6040518463ffffffff1660e01b8152600401612b4093929190613e29565b602060405180830381600087803b158015612b5a57600080fd5b505af1158015612b6e573d6000803e3d6000fd5b505050506040513d601f19601f82011682018060405250810190612b9291906138fb565b612bc5577f4e487b7100000000000000000000000000000000000000000000000000000000600052600160045260246000fd5b565b612bcf613861565b73ffffffffffffffffffffffffffffffffffffffff1660008054906101000a900473ffffffffffffffffffffffffffffffffffffffff1673ffffffffffffffffffffffffffffffffffffffff1614612c5c576040517f08c379a0000000000000000000000000000000000000000000000000000000008152600401612c5390613f93565b60405180910390fd5b60008054906101000a900473ffffffffffffffffffffffffffffffffffffffff16600160006101000a81548173ffffffffffffffffffffffffffffffffffffffff021916908373ffffffffffffffffffffffffffffffffffffffff16021790555060008060006101000a81548173ffffffffffffffffffffffffffffffffffffffff021916908373ffffffffffffffffffffffffffffffffffffffff1602179055508042612d0a9190614228565b600281905550600073ffffffffffffffffffffffffffffffffffffffff1660008054906101000a900473ffffffffffffffffffffffffffffffffffffffff1673ffffffffffffffffffffffffffffffffffffffff167f8be0079c531659141344cd1fd0a4f28419497f9722a3daafe3b4186f6b6457e060405160405180910390a350565b612d96613861565b73ffffffffffffffffffffffffffffffffffffffff1660008054906101000a900473ffffffffffffffffffffffffffffffffffffffff1673ffffffffffffffffffffffffffffffffffffffff1614612e23576040517f08c379a0000000000000000000000000000000000000000000000000000000008152600401612e1a90613f93565b60405180910390fd5b600073ffffffffffffffffffffffffffffffffffffffff168173ffffffffffffffffffffffffffffffffffffffff161415612e93576040517f08c379a0000000000000000000000000000000000000000000000000000000008152600401612e8a90613ef3565b60405180910390fd5b8073ffffffffffffffffffffffffffffffffffffffff1660008054906101000a900473ffffffffffffffffffffffffffffffffffffffff1673ffffffffffffffffffffffffffffffffffffffff167f8be0079c531659141344cd1fd0a4f28419497f9722a3daafe3b4186f6b6457e060405160405180910390a3806000806101000a81548173ffffffffffffffffffffffffffffffffffffffff021916908373ffffffffffffffffffffffffffffffffffffffff16021790555050565b60008060066000868152602001908152602001600020541415612fa8576040517f08c379a0000000000000000000000000000000000000000000000000000000008152600401612f9f90613fb3565b60405180910390fd5b6000612fb26122f4565b73ffffffffffffffffffffffffffffffffffffffff1663261dc98986856040518363ffffffff1660e01b8152600401612fec92919061410e565b60206040518083038186803b15801561300457600080fd5b505afa158015613018573d6000803e3d6000fd5b505050506040513d601f19601f8201168201806040525081019061303c9190613976565b905060006130486122f4565b73ffffffffffffffffffffffffffffffffffffffff16636209a58b87866040518363ffffffff1660e01b815260040161308292919061410e565b60206040518083038186803b15801561309a57600080fd5b505afa1580156130ae573d6000803e3d6000fd5b505050506040513d601f19601f820116820180604052508101906130d29190613976565b90508185101580156130ef575080826130eb9190614228565b8511155b61312e576040517f08c379a000000000000000000000000000000000000000000000000000000000815260040161312590614013565b60405180910390fd5b60006007600088815260200190815260200160002060080160008781526020019081526020016000205414613198576040517f08c379a000000000000000000000000000000000000000000000000000000000815260040161318f90613f53565b60405180910390fd5b6007600087815260200190815260200160002060050154856007600089815260200190815260200160002060050154600660008a8152602001908152602001600020546131e591906143c3565b6131ef91906142af565b6131f991906143c3565b60076000888152602001908152602001600020600801600087815260200190815260200160002081905550600060076000888152602001908152602001600020600501546103e8600760008a815260200190815260200160002060080160008981526020019081526020016000205461327291906142af565b61327c919061427e565b905080600760008981526020019081526020016000206009016000888152602001908152602001600020819055506000600282116133c0576001600560008a8152602001908152602001600020600060068110613302577f4e487b7100000000000000000000000000000000000000000000000000000000600052603260045260246000fd5b015410156133bb57600a6002600760008b81526020019081526020016000206004015461332f91906142af565b613339919061427e565b90506001600560008a8152602001908152602001600020600060068110613389577f4e487b7100000000000000000000000000000000000000000000000000000000600052603260045260246000fd5b018190555080600760008a8152602001908152602001600020600a016000898152602001908152602001600020819055505b613853565b600d82116134e457600a600560008a8152602001908152602001600020600260068110613416577f4e487b7100000000000000000000000000000000000000000000000000000000600052603260045260246000fd5b015410156134df5760646001600760008b81526020019081526020016000206004015461344391906142af565b61344d919061427e565b90506005600089815260200190815260200160002060026006811061349b577f4e487b7100000000000000000000000000000000000000000000000000000000600052603260045260246000fd5b0160008154809291906134ad9061437a565b919050555080600760008a8152602001908152602001600020600a016000898152602001908152602001600020819055505b613852565b60218211613609576014600560008a815260200190815260200160002060036006811061353a577f4e487b7100000000000000000000000000000000000000000000000000000000600052603260045260246000fd5b01541015613604576103e86005600760008b81526020019081526020016000206004015461356891906142af565b613572919061427e565b9050600560008981526020019081526020016000206003600681106135c0577f4e487b7100000000000000000000000000000000000000000000000000000000600052603260045260246000fd5b0160008154809291906135d29061437a565b919050555080600760008a8152602001908152602001600020600a016000898152602001908152602001600020819055505b613851565b6053821161372e576032600560008a815260200190815260200160002060046006811061365f577f4e487b7100000000000000000000000000000000000000000000000000000000600052603260045260246000fd5b01541015613729576103e86002600760008b81526020019081526020016000206004015461368d91906142af565b613697919061427e565b9050600560008981526020019081526020016000206004600681106136e5577f4e487b7100000000000000000000000000000000000000000000000000000000600052603260045260246000fd5b0160008154809291906136f79061437a565b919050555080600760008a8152602001908152602001600020600a016000898152602001908152602001600020819055505b613850565b60b7821161384f576064600560008a8152602001908152602001600020600560068110613784577f4e487b7100000000000000000000000000000000000000000000000000000000600052603260045260246000fd5b0154101561384e576103e86001600760008b8152602001908152602001600020600401546137b291906142af565b6137bc919061427e565b90506005600089815260200190815260200160002060056006811061380a577f4e487b7100000000000000000000000000000000000000000000000000000000600052603260045260246000fd5b01600081548092919061381c9061437a565b919050555080600760008a8152602001908152602001600020600a016000898152602001908152602001600020819055505b5b5b5b5b5b819450505050509392505050565b600033905090565b60008135905061387881614757565b92915050565b60008151905061388d8161476e565b92915050565b6000815190506138a281614785565b92915050565b6000813590506138b78161479c565b92915050565b6000815190506138cc8161479c565b92915050565b6000602082840312156138e457600080fd5b60006138f284828501613869565b91505092915050565b60006020828403121561390d57600080fd5b600061391b8482850161387e565b91505092915050565b60006020828403121561393657600080fd5b600061394484828501613893565b91505092915050565b60006020828403121561395f57600080fd5b600061396d848285016138a8565b91505092915050565b60006020828403121561398857600080fd5b6000613996848285016138bd565b91505092915050565b600080604083850312156139b257600080fd5b60006139c0858286016138a8565b92505060206139d1858286016138a8565b9150509250929050565b6000806000606084860312156139f057600080fd5b60006139fe868287016138a8565b9350506020613a0f868287016138a8565b9250506040613a2086828701613869565b9150509250925092565b60008060008060808587031215613a4057600080fd5b6000613a4e878288016138a8565b9450506020613a5f878288016138a8565b9350506040613a7087828801613869565b9250506060613a81878288016138a8565b91505092959194509250565b600080600060608486031215613aa257600080fd5b6000613ab0868287016138a8565b9350506020613ac1868287016138a8565b9250506040613ad2868287016138a8565b9150509250925092565b6000613ae88383613de1565b60208301905092915050565b613afd81614309565b82525050565b6000613b0e826141ee565b613b188185614206565b9350613b23836141de565b8060005b83811015613b54578151613b3b8882613adc565b9750613b46836141f9565b925050600181019050613b27565b5085935050505092915050565b613b6a8161431b565b82525050565b613b7981614327565b82525050565b613b8881614368565b82525050565b6000613b9b600b83614217565b9150613ba682614452565b602082019050919050565b6000613bbe602683614217565b9150613bc98261447b565b604082019050919050565b6000613be1601083614217565b9150613bec826144ca565b602082019050919050565b6000613c04601583614217565b9150613c0f826144f3565b602082019050919050565b6000613c27601583614217565b9150613c328261451c565b602082019050919050565b6000613c4a601583614217565b9150613c5582614545565b602082019050919050565b6000613c6d602083614217565b9150613c788261456e565b602082019050919050565b6000613c90601283614217565b9150613c9b82614597565b602082019050919050565b6000613cb3600c83614217565b9150613cbe826145c0565b602082019050919050565b6000613cd6600e83614217565b9150613ce1826145e9565b602082019050919050565b6000613cf9600e83614217565b9150613d0482614612565b602082019050919050565b6000613d1c601f83614217565b9150613d278261463b565b602082019050919050565b6000613d3f601383614217565b9150613d4a82614664565b602082019050919050565b6000613d62601383614217565b9150613d6d8261468d565b602082019050919050565b6000613d85602383614217565b9150613d90826146b6565b604082019050919050565b6000613da8600f83614217565b9150613db382614705565b602082019050919050565b6000613dcb600f83614217565b9150613dd68261472e565b602082019050919050565b613dea81614351565b82525050565b613df981614351565b82525050565b613e088161435b565b82525050565b6000602082019050613e236000830184613af4565b92915050565b6000606082019050613e3e6000830186613af4565b613e4b6020830185613af4565b613e586040830184613df0565b949350505050565b60006020820190508181036000830152613e7a8184613b03565b905092915050565b6000602082019050613e976000830184613b61565b92915050565b6000602082019050613eb26000830184613b70565b92915050565b6000602082019050613ecd6000830184613b7f565b92915050565b60006020820190508181036000830152613eec81613b8e565b9050919050565b60006020820190508181036000830152613f0c81613bb1565b9050919050565b60006020820190508181036000830152613f2c81613bd4565b9050919050565b60006020820190508181036000830152613f4c81613bf7565b9050919050565b60006020820190508181036000830152613f6c81613c1a565b9050919050565b60006020820190508181036000830152613f8c81613c3d565b9050919050565b60006020820190508181036000830152613fac81613c60565b9050919050565b60006020820190508181036000830152613fcc81613c83565b9050919050565b60006020820190508181036000830152613fec81613ca6565b9050919050565b6000602082019050818103600083015261400c81613cc9565b9050919050565b6000602082019050818103600083015261402c81613cec565b9050919050565b6000602082019050818103600083015261404c81613d0f565b9050919050565b6000602082019050818103600083015261406c81613d32565b9050919050565b6000602082019050818103600083015261408c81613d55565b9050919050565b600060208201905081810360008301526140ac81613d78565b9050919050565b600060208201905081810360008301526140cc81613d9b565b9050919050565b600060208201905081810360008301526140ec81613dbe565b9050919050565b60006020820190506141086000830184613df0565b92915050565b60006040820190506141236000830185613df0565b6141306020830184613af4565b9392505050565b600060408201905061414c6000830185613df0565b6141596020830184613df0565b9392505050565b600061010082019050614176600083018b613df0565b614183602083018a613df0565b6141906040830189613df0565b61419d6060830188613df0565b6141aa6080830187613df0565b6141b760a0830186613df0565b6141c460c0830185613b70565b6141d160e0830184613dff565b9998505050505050505050565b6000819050602082019050919050565b600081519050919050565b6000602082019050919050565b600082825260208201905092915050565b600082825260208201905092915050565b600061423382614351565b915061423e83614351565b9250827fffffffffffffffffffffffffffffffffffffffffffffffffffffffffffffffff03821115614273576142726143f4565b5b828201905092915050565b600061428982614351565b915061429483614351565b9250826142a4576142a3614423565b5b828204905092915050565b60006142ba82614351565b91506142c583614351565b9250817fffffffffffffffffffffffffffffffffffffffffffffffffffffffffffffffff04831182151516156142fe576142fd6143f4565b5b828202905092915050565b600061431482614331565b9050919050565b60008115159050919050565b6000819050919050565b600073ffffffffffffffffffffffffffffffffffffffff82169050919050565b6000819050919050565b600060ff82169050919050565b600061437382614351565b9050919050565b600061438582614351565b91507fffffffffffffffffffffffffffffffffffffffffffffffffffffffffffffffff8214156143b8576143b76143f4565b5b600182019050919050565b60006143ce82614351565b91506143d983614351565b9250826143e9576143e8614423565b5b828206905092915050565b7f4e487b7100000000000000000000000000000000000000000000000000000000600052601160045260246000fd5b7f4e487b7100000000000000000000000000000000000000000000000000000000600052601260045260246000fd5b7f494e56414c49445f57494e000000000000000000000000000000000000000000600082015250565b7f4f776e61626c653a206e6577206f776e657220697320746865207a65726f206160008201527f6464726573730000000000000000000000000000000000000000000000000000602082015250565b7f414c52454144595f52454445454d454400000000000000000000000000000000600082015250565b7f50524f504f53414c5f444f45534e545f45584953540000000000000000000000600082015250565b7f524553554c545f414c52454144595f4558495354530000000000000000000000600082015250565b7f52414e444f4d5f524551554553545f4558495354530000000000000000000000600082015250565b7f4f776e61626c653a2063616c6c6572206973206e6f7420746865206f776e6572600082015250565b7f524553554c545f49535f4e4f545f444f4e450000000000000000000000000000600082015250565b7f4d494e5f44495354414e43450000000000000000000000000000000000000000600082015250565b7f50524f504f53414c5f4558495354000000000000000000000000000000000000600082015250565b7f4e4f545f564f54455f4f574e4552000000000000000000000000000000000000600082015250565b7f436f6e7472616374206973206c6f636b656420756e74696c2037206461797300600082015250565b7f524551554553545f4e4f545f43555252454e5400000000000000000000000000600082015250565b7f524553554c545f414c52454144595f444f4e4500000000000000000000000000600082015250565b7f596f7520646f6e27742068617665207065726d697373696f6e20746f20756e6c60008201527f6f636b0000000000000000000000000000000000000000000000000000000000602082015250565b7f4e4f545f56414c49445f494e4445580000000000000000000000000000000000600082015250565b7f4f55545f4f465f424f554e444152590000000000000000000000000000000000600082015250565b61476081614309565b811461476b57600080fd5b50565b6147778161431b565b811461478257600080fd5b50565b61478e81614327565b811461479957600080fd5b50565b6147a581614351565b81146147b057600080fd5b5056fea26469706673582212204f7161834fb1cf7602d13b07b2ae57ad146ef6806c1695d4be6fdcfb1f1a7de864736f6c63430008040033",
  "linkReferences": {},
  "deployedLinkReferences": {}
}