{
  "_format": "hh-sol-artifact-1",
  "contractName": "TheOpenFarmDAO",
  "sourceName": "contracts/FarmDAO.sol",
  "abi": [
    {
      "anonymous": false,
      "inputs": [
        {
          "indexed": true,
          "internalType": "address",
          "name": "previousOwner",
          "type": "address"
        },
        {
          "indexed": true,
          "internalType": "address",
          "name": "newOwner",
          "type": "address"
        }
      ],
      "name": "OwnershipTransferred",
      "type": "event"
    },
    {
      "stateMutability": "payable",
      "type": "fallback"
    },
    {
      "inputs": [],
      "name": "VOTE_COST",
      "outputs": [
        {
          "internalType": "uint256",
          "name": "",
          "type": "uint256"
        }
      ],
      "stateMutability": "view",
      "type": "function"
    },
    {
      "inputs": [
        {
          "internalType": "uint256",
          "name": "_proposalIndex",
          "type": "uint256"
        }
      ],
      "name": "amountOfVotesRequired",
      "outputs": [
        {
          "internalType": "uint256",
          "name": "",
          "type": "uint256"
        }
      ],
      "stateMutability": "view",
      "type": "function"
    },
    {
      "inputs": [
        {
          "internalType": "uint256",
          "name": "_amountOfVotesRequired",
          "type": "uint256"
        }
      ],
      "name": "createProposal",
      "outputs": [
        {
          "internalType": "uint256",
          "name": "",
          "type": "uint256"
        }
      ],
      "stateMutability": "nonpayable",
      "type": "function"
    },
    {
      "inputs": [
        {
          "internalType": "uint256",
          "name": "_proposalIndex",
          "type": "uint256"
        }
      ],
      "name": "executeProposal",
      "outputs": [],
      "stateMutability": "nonpayable",
      "type": "function"
    },
    {
      "inputs": [],
      "name": "geUnlockTime",
      "outputs": [
        {
          "internalType": "uint256",
          "name": "",
          "type": "uint256"
        }
      ],
      "stateMutability": "view",
      "type": "function"
    },
    {
      "inputs": [
        {
          "internalType": "uint256",
          "name": "_proposalIndex",
          "type": "uint256"
        },
        {
          "internalType": "address",
          "name": "_voter",
          "type": "address"
        }
      ],
      "name": "getVoterAmountOfTokens",
      "outputs": [
        {
          "internalType": "uint256",
          "name": "",
          "type": "uint256"
        }
      ],
      "stateMutability": "view",
      "type": "function"
    },
    {
      "inputs": [
        {
          "internalType": "uint256",
          "name": "_proposalIndex",
          "type": "uint256"
        },
        {
          "internalType": "address",
          "name": "_voter",
          "type": "address"
        }
      ],
      "name": "getVoterAmountOfVotes",
      "outputs": [
        {
          "internalType": "uint256",
          "name": "",
          "type": "uint256"
        }
      ],
      "stateMutability": "view",
      "type": "function"
    },
    {
      "inputs": [
        {
          "internalType": "uint256",
          "name": "_proposalIndex",
          "type": "uint256"
        },
        {
          "internalType": "address",
          "name": "_voter",
          "type": "address"
        }
      ],
      "name": "getVoterVoteIndex",
      "outputs": [
        {
          "internalType": "uint256",
          "name": "",
          "type": "uint256"
        }
      ],
      "stateMutability": "view",
      "type": "function"
    },
    {
      "inputs": [
        {
          "internalType": "uint256",
          "name": "time",
          "type": "uint256"
        }
      ],
      "name": "lock",
      "outputs": [],
      "stateMutability": "nonpayable",
      "type": "function"
    },
    {
      "inputs": [],
      "name": "numProposals",
      "outputs": [
        {
          "internalType": "uint256",
          "name": "",
          "type": "uint256"
        }
      ],
      "stateMutability": "view",
      "type": "function"
    },
    {
      "inputs": [],
      "name": "owner",
      "outputs": [
        {
          "internalType": "address",
          "name": "",
          "type": "address"
        }
      ],
      "stateMutability": "view",
      "type": "function"
    },
    {
      "inputs": [
        {
          "internalType": "uint256",
          "name": "",
          "type": "uint256"
        }
      ],
      "name": "proposals",
      "outputs": [
        {
          "internalType": "uint256",
          "name": "amountOfVotes",
          "type": "uint256"
        },
        {
          "internalType": "uint256",
          "name": "amountOfVotesRequired",
          "type": "uint256"
        },
        {
          "internalType": "uint256",
          "name": "amountOfTokens",
          "type": "uint256"
        },
        {
          "internalType": "uint256",
          "name": "amountOfTokensRequired",
          "type": "uint256"
        },
        {
          "internalType": "uint256",
          "name": "deadline",
          "type": "uint256"
        },
        {
          "internalType": "bool",
          "name": "executed",
          "type": "bool"
        }
      ],
      "stateMutability": "view",
      "type": "function"
    },
    {
      "inputs": [],
      "name": "renounceOwnership",
      "outputs": [],
      "stateMutability": "nonpayable",
      "type": "function"
    },
    {
      "inputs": [
        {
          "internalType": "address",
          "name": "newOwner",
          "type": "address"
        }
      ],
      "name": "transferOwnership",
      "outputs": [],
      "stateMutability": "nonpayable",
      "type": "function"
    },
    {
      "inputs": [],
      "name": "unlock",
      "outputs": [],
      "stateMutability": "nonpayable",
      "type": "function"
    },
    {
      "inputs": [
        {
          "internalType": "uint256",
          "name": "_proposalIndex",
          "type": "uint256"
        },
        {
          "internalType": "uint256",
          "name": "_amountOfVotes",
          "type": "uint256"
        }
      ],
      "name": "voteOnProposal",
      "outputs": [],
      "stateMutability": "nonpayable",
      "type": "function"
    },
    {
      "inputs": [],
      "name": "withdrawBalance",
      "outputs": [],
      "stateMutability": "nonpayable",
      "type": "function"
    },
    {
      "inputs": [],
      "name": "withdrawEther",
      "outputs": [],
      "stateMutability": "nonpayable",
      "type": "function"
    },
    {
      "inputs": [
        {
          "internalType": "uint256",
          "name": "_proposalIndex",
          "type": "uint256"
        }
      ],
      "name": "withdrawFromFailedProposal",
      "outputs": [],
      "stateMutability": "nonpayable",
      "type": "function"
    },
    {
      "stateMutability": "payable",
      "type": "receive"
    }
  ],
  "bytecode": "0x6080604052655af3107a4000600355736f30a31d61e348bd53e7ccf00f9ddff4296bec95600660006101000a81548173ffffffffffffffffffffffffffffffffffffffff021916908373ffffffffffffffffffffffffffffffffffffffff160217905550738f3cf7ad23cd3cadbd9735aff958023239c6a063600760006101000a81548173ffffffffffffffffffffffffffffffffffffffff021916908373ffffffffffffffffffffffffffffffffffffffff1602179055503480156100c457600080fd5b5060006100d561017860201b60201c565b9050806000806101000a81548173ffffffffffffffffffffffffffffffffffffffff021916908373ffffffffffffffffffffffffffffffffffffffff1602179055508073ffffffffffffffffffffffffffffffffffffffff16600073ffffffffffffffffffffffffffffffffffffffff167f8be0079c531659141344cd1fd0a4f28419497f9722a3daafe3b4186f6b6457e060405160405180910390a350610180565b600033905090565b612e0280620001906000396000f3fe6080604052600436106101185760003560e01c80636209a58b116100a0578063b6c5232411610064578063b6c5232414610398578063d5892b55146103c3578063dd467064146103ec578063f2fde38b14610415578063fe71b8ba1461043e5761011f565b80636209a58b146102eb578063715018a6146103285780637362377b1461033f5780638da5cb5b14610356578063a69df4b5146103815761011f565b8063400e3949116100e7578063400e394914610206578063556f6cc014610231578063572614871461025a5780635a43dc00146102975780635fd8c710146102d45761011f565b8063013cf08b146101215780630d61b5191461016357806314c127031461018c578063261dc989146101c95761011f565b3661011f57005b005b34801561012d57600080fd5b5061014860048036038101906101439190612278565b610469565b60405161015a96959493929190612895565b60405180910390f35b34801561016f57600080fd5b5061018a60048036038101906101859190612278565b6104b2565b005b34801561019857600080fd5b506101b360048036038101906101ae9190612278565b6109c6565b6040516101c09190612843565b60405180910390f35b3480156101d557600080fd5b506101f060048036038101906101eb91906122ca565b6109eb565b6040516101fd9190612843565b60405180910390f35b34801561021257600080fd5b5061021b610ad3565b6040516102289190612843565b60405180910390f35b34801561023d57600080fd5b5061025860048036038101906102539190612306565b610ad9565b005b34801561026657600080fd5b50610281600480360381019061027c91906122ca565b610ffb565b60405161028e9190612843565b60405180910390f35b3480156102a357600080fd5b506102be60048036038101906102b99190612278565b6110e3565b6040516102cb9190612843565b60405180910390f35b3480156102e057600080fd5b506102e96112c6565b005b3480156102f757600080fd5b50610312600480360381019061030d91906122ca565b6114f2565b60405161031f9190612843565b60405180910390f35b34801561033457600080fd5b5061033d6115da565b005b34801561034b57600080fd5b5061035461172d565b005b34801561036257600080fd5b5061036b611812565b604051610378919061259f565b60405180910390f35b34801561038d57600080fd5b5061039661183b565b005b3480156103a457600080fd5b506103ad611a0f565b6040516103ba9190612843565b60405180910390f35b3480156103cf57600080fd5b506103ea60048036038101906103e59190612278565b611a19565b005b3480156103f857600080fd5b50610413600480360381019061040e9190612278565b611e3b565b005b34801561042157600080fd5b5061043c60048036038101906104379190612226565b612002565b005b34801561044a57600080fd5b506104536121c4565b6040516104609190612843565b60405180910390f35b60046020528060005260406000206000915090508060000154908060010154908060020154908060030154908060040154908060050160009054906101000a900460ff16905086565b6000600760009054906101000a900473ffffffffffffffffffffffffffffffffffffffff1673ffffffffffffffffffffffffffffffffffffffff1663dd62ed3e33306040518363ffffffff1660e01b81526004016105119291906125ba565b60206040518083038186803b15801561052957600080fd5b505afa15801561053d573d6000803e3d6000fd5b505050506040513d601f19601f8201168201806040525081019061056191906122a1565b116105a1576040517f08c379a000000000000000000000000000000000000000000000000000000000815260040161059890612743565b60405180910390fd5b8042600460008381526020019081526020016000206004015411156105fb576040517f08c379a00000000000000000000000000000000000000000000000000000000081526004016105f290612643565b60405180910390fd5b600015156004600083815260200190815260200160002060050160009054906101000a900460ff16151514610665576040517f08c379a000000000000000000000000000000000000000000000000000000000815260040161065c906126c3565b60405180910390fd5b60006004600084815260200190815260200160002090508060030154816002015410156106c7576040517f08c379a00000000000000000000000000000000000000000000000000000000081526004016106be906127a3565b60405180910390fd5b806001015481600001541015610712576040517f08c379a000000000000000000000000000000000000000000000000000000000815260040161070990612783565b60405180910390fd5b8060020154600760009054906101000a900473ffffffffffffffffffffffffffffffffffffffff1673ffffffffffffffffffffffffffffffffffffffff166370a08231306040518263ffffffff1660e01b8152600401610772919061259f565b60206040518083038186803b15801561078a57600080fd5b505afa15801561079e573d6000803e3d6000fd5b505050506040513d601f19601f820116820180604052508101906107c291906122a1565b1015610803576040517f08c379a00000000000000000000000000000000000000000000000000000000081526004016107fa906126a3565b60405180910390fd5b600760009054906101000a900473ffffffffffffffffffffffffffffffffffffffff1673ffffffffffffffffffffffffffffffffffffffff1663095ea7b3600660009054906101000a900473ffffffffffffffffffffffffffffffffffffffff1683600201546040518363ffffffff1660e01b815260040161088692919061261a565b602060405180830381600087803b1580156108a057600080fd5b505af11580156108b4573d6000803e3d6000fd5b505050506040513d601f19601f820116820180604052508101906108d8919061224f565b61090b577f4e487b7100000000000000000000000000000000000000000000000000000000600052600160045260246000fd5b600660009054906101000a900473ffffffffffffffffffffffffffffffffffffffff1673ffffffffffffffffffffffffffffffffffffffff1663c71bf91a84836002015484600001546040518463ffffffff1660e01b81526004016109729392919061285e565b600060405180830381600087803b15801561098c57600080fd5b505af11580156109a0573d6000803e3d6000fd5b5050505060018160050160006101000a81548160ff021916908315150217905550505050565b6000806004600084815260200190815260200160002090508060010154915050919050565b60008060046000858152602001908152602001600020905060008160060160008573ffffffffffffffffffffffffffffffffffffffff1673ffffffffffffffffffffffffffffffffffffffff168152602001908152602001600020541415610a88576040517f08c379a0000000000000000000000000000000000000000000000000000000008152600401610a7f90612723565b60405180910390fd5b8060060160008473ffffffffffffffffffffffffffffffffffffffff1673ffffffffffffffffffffffffffffffffffffffff1681526020019081526020016000205491505092915050565b60055481565b6000600760009054906101000a900473ffffffffffffffffffffffffffffffffffffffff1673ffffffffffffffffffffffffffffffffffffffff1663dd62ed3e33306040518363ffffffff1660e01b8152600401610b389291906125ba565b60206040518083038186803b158015610b5057600080fd5b505afa158015610b64573d6000803e3d6000fd5b505050506040513d601f19601f82011682018060405250810190610b8891906122a1565b11610bc8576040517f08c379a0000000000000000000000000000000000000000000000000000000008152600401610bbf90612743565b60405180910390fd5b8142600460008381526020019081526020016000206004015411610c21576040517f08c379a0000000000000000000000000000000000000000000000000000000008152600401610c18906126e3565b60405180910390fd5b60006004600085815260200190815260200160002090506000600760009054906101000a900473ffffffffffffffffffffffffffffffffffffffff1673ffffffffffffffffffffffffffffffffffffffff166370a08231336040518263ffffffff1660e01b8152600401610c95919061259f565b60206040518083038186803b158015610cad57600080fd5b505afa158015610cc1573d6000803e3d6000fd5b505050506040513d601f19601f82011682018060405250810190610ce591906122a1565b9050600084600354610cf7919061295d565b905080821015610d3c576040517f08c379a0000000000000000000000000000000000000000000000000000000008152600401610d33906127e3565b60405180910390fd5b60008360080160003373ffffffffffffffffffffffffffffffffffffffff1673ffffffffffffffffffffffffffffffffffffffff1681526020019081526020016000205414610dc0576040517f08c379a0000000000000000000000000000000000000000000000000000000008152600401610db790612703565b60405180910390fd5b60008511610e03576040517f08c379a0000000000000000000000000000000000000000000000000000000008152600401610dfa90612823565b60405180910390fd5b82600001548360060160003373ffffffffffffffffffffffffffffffffffffffff1673ffffffffffffffffffffffffffffffffffffffff16815260200190815260200160002081905550848360070160003373ffffffffffffffffffffffffffffffffffffffff1673ffffffffffffffffffffffffffffffffffffffff16815260200190815260200160002081905550808360080160003373ffffffffffffffffffffffffffffffffffffffff1673ffffffffffffffffffffffffffffffffffffffff1681526020019081526020016000208190555080836002016000828254610eed9190612907565b9250508190555084836000016000828254610f089190612907565b92505081905550600760009054906101000a900473ffffffffffffffffffffffffffffffffffffffff1673ffffffffffffffffffffffffffffffffffffffff166323b872dd3330846040518463ffffffff1660e01b8152600401610f6e939291906125e3565b602060405180830381600087803b158015610f8857600080fd5b505af1158015610f9c573d6000803e3d6000fd5b505050506040513d601f19601f82011682018060405250810190610fc0919061224f565b610ff3577f4e487b7100000000000000000000000000000000000000000000000000000000600052600160045260246000fd5b505050505050565b60008060046000858152602001908152602001600020905060008160080160008573ffffffffffffffffffffffffffffffffffffffff1673ffffffffffffffffffffffffffffffffffffffff168152602001908152602001600020541415611098576040517f08c379a000000000000000000000000000000000000000000000000000000000815260040161108f90612723565b60405180910390fd5b8060080160008473ffffffffffffffffffffffffffffffffffffffff1673ffffffffffffffffffffffffffffffffffffffff1681526020019081526020016000205491505092915050565b600080600760009054906101000a900473ffffffffffffffffffffffffffffffffffffffff1673ffffffffffffffffffffffffffffffffffffffff1663dd62ed3e33306040518363ffffffff1660e01b81526004016111439291906125ba565b60206040518083038186803b15801561115b57600080fd5b505afa15801561116f573d6000803e3d6000fd5b505050506040513d601f19601f8201168201806040525081019061119391906122a1565b116111d3576040517f08c379a00000000000000000000000000000000000000000000000000000000081526004016111ca90612743565b60405180910390fd5b6000600460006005548152602001908152602001600020905060006005541461126357600060046000600160055461120b91906129b7565b8152602001908152602001600020905080600401544211611261576040517f08c379a000000000000000000000000000000000000000000000000000000000815260040161125890612683565b60405180910390fd5b505b8281600101819055508260035461127a919061295d565b8160030181905550603c4261128f9190612907565b8160040181905550600560008154809291906112aa90612a33565b919050555060016005546112be91906129b7565b915050919050565b6112ce6121ca565b73ffffffffffffffffffffffffffffffffffffffff1660008054906101000a900473ffffffffffffffffffffffffffffffffffffffff1673ffffffffffffffffffffffffffffffffffffffff161461135b576040517f08c379a000000000000000000000000000000000000000000000000000000000815260040161135290612763565b60405180910390fd5b600760009054906101000a900473ffffffffffffffffffffffffffffffffffffffff1673ffffffffffffffffffffffffffffffffffffffff166323b872dd306113a2611812565b600760009054906101000a900473ffffffffffffffffffffffffffffffffffffffff1673ffffffffffffffffffffffffffffffffffffffff166370a08231306040518263ffffffff1660e01b81526004016113fd919061259f565b60206040518083038186803b15801561141557600080fd5b505afa158015611429573d6000803e3d6000fd5b505050506040513d601f19601f8201168201806040525081019061144d91906122a1565b6040518463ffffffff1660e01b815260040161146b939291906125e3565b602060405180830381600087803b15801561148557600080fd5b505af1158015611499573d6000803e3d6000fd5b505050506040513d601f19601f820116820180604052508101906114bd919061224f565b6114f0577f4e487b7100000000000000000000000000000000000000000000000000000000600052600160045260246000fd5b565b60008060046000858152602001908152602001600020905060008160070160008573ffffffffffffffffffffffffffffffffffffffff1673ffffffffffffffffffffffffffffffffffffffff16815260200190815260200160002054141561158f576040517f08c379a000000000000000000000000000000000000000000000000000000000815260040161158690612723565b60405180910390fd5b8060070160008473ffffffffffffffffffffffffffffffffffffffff1673ffffffffffffffffffffffffffffffffffffffff1681526020019081526020016000205491505092915050565b6115e26121ca565b73ffffffffffffffffffffffffffffffffffffffff1660008054906101000a900473ffffffffffffffffffffffffffffffffffffffff1673ffffffffffffffffffffffffffffffffffffffff161461166f576040517f08c379a000000000000000000000000000000000000000000000000000000000815260040161166690612763565b60405180910390fd5b600073ffffffffffffffffffffffffffffffffffffffff1660008054906101000a900473ffffffffffffffffffffffffffffffffffffffff1673ffffffffffffffffffffffffffffffffffffffff167f8be0079c531659141344cd1fd0a4f28419497f9722a3daafe3b4186f6b6457e060405160405180910390a360008060006101000a81548173ffffffffffffffffffffffffffffffffffffffff021916908373ffffffffffffffffffffffffffffffffffffffff160217905550565b6117356121ca565b73ffffffffffffffffffffffffffffffffffffffff1660008054906101000a900473ffffffffffffffffffffffffffffffffffffffff1673ffffffffffffffffffffffffffffffffffffffff16146117c2576040517f08c379a00000000000000000000000000000000000000000000000000000000081526004016117b990612763565b60405180910390fd5b6117ca611812565b73ffffffffffffffffffffffffffffffffffffffff166108fc479081150290604051600060405180830381858888f1935050505015801561180f573d6000803e3d6000fd5b50565b60008060009054906101000a900473ffffffffffffffffffffffffffffffffffffffff16905090565b3373ffffffffffffffffffffffffffffffffffffffff16600160009054906101000a900473ffffffffffffffffffffffffffffffffffffffff1673ffffffffffffffffffffffffffffffffffffffff16146118cb576040517f08c379a00000000000000000000000000000000000000000000000000000000081526004016118c290612803565b60405180910390fd5b600254421161190f576040517f08c379a0000000000000000000000000000000000000000000000000000000008152600401611906906127c3565b60405180910390fd5b600160009054906101000a900473ffffffffffffffffffffffffffffffffffffffff1673ffffffffffffffffffffffffffffffffffffffff1660008054906101000a900473ffffffffffffffffffffffffffffffffffffffff1673ffffffffffffffffffffffffffffffffffffffff167f8be0079c531659141344cd1fd0a4f28419497f9722a3daafe3b4186f6b6457e060405160405180910390a3600160009054906101000a900473ffffffffffffffffffffffffffffffffffffffff166000806101000a81548173ffffffffffffffffffffffffffffffffffffffff021916908373ffffffffffffffffffffffffffffffffffffffff160217905550565b6000600254905090565b6000600760009054906101000a900473ffffffffffffffffffffffffffffffffffffffff1673ffffffffffffffffffffffffffffffffffffffff1663dd62ed3e33306040518363ffffffff1660e01b8152600401611a789291906125ba565b60206040518083038186803b158015611a9057600080fd5b505afa158015611aa4573d6000803e3d6000fd5b505050506040513d601f19601f82011682018060405250810190611ac891906122a1565b11611b08576040517f08c379a0000000000000000000000000000000000000000000000000000000008152600401611aff90612743565b60405180910390fd5b804260046000838152602001908152602001600020600401541115611b62576040517f08c379a0000000000000000000000000000000000000000000000000000000008152600401611b5990612643565b60405180910390fd5b600015156004600083815260200190815260200160002060050160009054906101000a900460ff16151514611bcc576040517f08c379a0000000000000000000000000000000000000000000000000000000008152600401611bc3906126c3565b60405180910390fd5b60006004600084815260200190815260200160002090508060080160003373ffffffffffffffffffffffffffffffffffffffff1673ffffffffffffffffffffffffffffffffffffffff16815260200190815260200160002054600760009054906101000a900473ffffffffffffffffffffffffffffffffffffffff1673ffffffffffffffffffffffffffffffffffffffff166370a08231306040518263ffffffff1660e01b8152600401611c80919061259f565b60206040518083038186803b158015611c9857600080fd5b505afa158015611cac573d6000803e3d6000fd5b505050506040513d601f19601f82011682018060405250810190611cd091906122a1565b1015611d11576040517f08c379a0000000000000000000000000000000000000000000000000000000008152600401611d08906126a3565b60405180910390fd5b600760009054906101000a900473ffffffffffffffffffffffffffffffffffffffff1673ffffffffffffffffffffffffffffffffffffffff166323b872dd30338460080160003373ffffffffffffffffffffffffffffffffffffffff1673ffffffffffffffffffffffffffffffffffffffff168152602001908152602001600020546040518463ffffffff1660e01b8152600401611db1939291906125e3565b602060405180830381600087803b158015611dcb57600080fd5b505af1158015611ddf573d6000803e3d6000fd5b505050506040513d601f19601f82011682018060405250810190611e03919061224f565b611e36577f4e487b7100000000000000000000000000000000000000000000000000000000600052600160045260246000fd5b505050565b611e436121ca565b73ffffffffffffffffffffffffffffffffffffffff1660008054906101000a900473ffffffffffffffffffffffffffffffffffffffff1673ffffffffffffffffffffffffffffffffffffffff1614611ed0576040517f08c379a0000000000000000000000000000000000000000000000000000000008152600401611ec790612763565b60405180910390fd5b60008054906101000a900473ffffffffffffffffffffffffffffffffffffffff16600160006101000a81548173ffffffffffffffffffffffffffffffffffffffff021916908373ffffffffffffffffffffffffffffffffffffffff16021790555060008060006101000a81548173ffffffffffffffffffffffffffffffffffffffff021916908373ffffffffffffffffffffffffffffffffffffffff1602179055508042611f7e9190612907565b600281905550600073ffffffffffffffffffffffffffffffffffffffff1660008054906101000a900473ffffffffffffffffffffffffffffffffffffffff1673ffffffffffffffffffffffffffffffffffffffff167f8be0079c531659141344cd1fd0a4f28419497f9722a3daafe3b4186f6b6457e060405160405180910390a350565b61200a6121ca565b73ffffffffffffffffffffffffffffffffffffffff1660008054906101000a900473ffffffffffffffffffffffffffffffffffffffff1673ffffffffffffffffffffffffffffffffffffffff1614612097576040517f08c379a000000000000000000000000000000000000000000000000000000000815260040161208e90612763565b60405180910390fd5b600073ffffffffffffffffffffffffffffffffffffffff168173ffffffffffffffffffffffffffffffffffffffff161415612107576040517f08c379a00000000000000000000000000000000000000000000000000000000081526004016120fe90612663565b60405180910390fd5b8073ffffffffffffffffffffffffffffffffffffffff1660008054906101000a900473ffffffffffffffffffffffffffffffffffffffff1673ffffffffffffffffffffffffffffffffffffffff167f8be0079c531659141344cd1fd0a4f28419497f9722a3daafe3b4186f6b6457e060405160405180910390a3806000806101000a81548173ffffffffffffffffffffffffffffffffffffffff021916908373ffffffffffffffffffffffffffffffffffffffff16021790555050565b60035481565b600033905090565b6000813590506121e181612d87565b92915050565b6000815190506121f681612d9e565b92915050565b60008135905061220b81612db5565b92915050565b60008151905061222081612db5565b92915050565b60006020828403121561223857600080fd5b6000612246848285016121d2565b91505092915050565b60006020828403121561226157600080fd5b600061226f848285016121e7565b91505092915050565b60006020828403121561228a57600080fd5b6000612298848285016121fc565b91505092915050565b6000602082840312156122b357600080fd5b60006122c184828501612211565b91505092915050565b600080604083850312156122dd57600080fd5b60006122eb858286016121fc565b92505060206122fc858286016121d2565b9150509250929050565b6000806040838503121561231957600080fd5b6000612327858286016121fc565b9250506020612338858286016121fc565b9150509250929050565b61234b816129eb565b82525050565b61235a816129fd565b82525050565b600061236d6015836128f6565b915061237882612aab565b602082019050919050565b60006123906026836128f6565b915061239b82612ad4565b604082019050919050565b60006123b36016836128f6565b91506123be82612b23565b602082019050919050565b60006123d66014836128f6565b91506123e182612b4c565b602082019050919050565b60006123f96019836128f6565b915061240482612b75565b602082019050919050565b600061241c6011836128f6565b915061242782612b9e565b602082019050919050565b600061243f600d836128f6565b915061244a82612bc7565b602082019050919050565b60006124626009836128f6565b915061246d82612bf0565b602082019050919050565b60006124856010836128f6565b915061249082612c19565b602082019050919050565b60006124a86020836128f6565b91506124b382612c42565b602082019050919050565b60006124cb6010836128f6565b91506124d682612c6b565b602082019050919050565b60006124ee6011836128f6565b91506124f982612c94565b602082019050919050565b6000612511601f836128f6565b915061251c82612cbd565b602082019050919050565b60006125346012836128f6565b915061253f82612ce6565b602082019050919050565b60006125576023836128f6565b915061256282612d0f565b604082019050919050565b600061257a6012836128f6565b915061258582612d5e565b602082019050919050565b61259981612a29565b82525050565b60006020820190506125b46000830184612342565b92915050565b60006040820190506125cf6000830185612342565b6125dc6020830184612342565b9392505050565b60006060820190506125f86000830186612342565b6126056020830185612342565b6126126040830184612590565b949350505050565b600060408201905061262f6000830185612342565b61263c6020830184612590565b9392505050565b6000602082019050818103600083015261265c81612360565b9050919050565b6000602082019050818103600083015261267c81612383565b9050919050565b6000602082019050818103600083015261269c816123a6565b9050919050565b600060208201905081810360008301526126bc816123c9565b9050919050565b600060208201905081810360008301526126dc816123ec565b9050919050565b600060208201905081810360008301526126fc8161240f565b9050919050565b6000602082019050818103600083015261271c81612432565b9050919050565b6000602082019050818103600083015261273c81612455565b9050919050565b6000602082019050818103600083015261275c81612478565b9050919050565b6000602082019050818103600083015261277c8161249b565b9050919050565b6000602082019050818103600083015261279c816124be565b9050919050565b600060208201905081810360008301526127bc816124e1565b9050919050565b600060208201905081810360008301526127dc81612504565b9050919050565b600060208201905081810360008301526127fc81612527565b9050919050565b6000602082019050818103600083015261281c8161254a565b9050919050565b6000602082019050818103600083015261283c8161256d565b9050919050565b60006020820190506128586000830184612590565b92915050565b60006060820190506128736000830186612590565b6128806020830185612590565b61288d6040830184612590565b949350505050565b600060c0820190506128aa6000830189612590565b6128b76020830188612590565b6128c46040830187612590565b6128d16060830186612590565b6128de6080830185612590565b6128eb60a0830184612351565b979650505050505050565b600082825260208201905092915050565b600061291282612a29565b915061291d83612a29565b9250827fffffffffffffffffffffffffffffffffffffffffffffffffffffffffffffffff0382111561295257612951612a7c565b5b828201905092915050565b600061296882612a29565b915061297383612a29565b9250817fffffffffffffffffffffffffffffffffffffffffffffffffffffffffffffffff04831182151516156129ac576129ab612a7c565b5b828202905092915050565b60006129c282612a29565b91506129cd83612a29565b9250828210156129e0576129df612a7c565b5b828203905092915050565b60006129f682612a09565b9050919050565b60008115159050919050565b600073ffffffffffffffffffffffffffffffffffffffff82169050919050565b6000819050919050565b6000612a3e82612a29565b91507fffffffffffffffffffffffffffffffffffffffffffffffffffffffffffffffff821415612a7157612a70612a7c565b5b600182019050919050565b7f4e487b7100000000000000000000000000000000000000000000000000000000600052601160045260246000fd5b7f444541444c494e455f4e4f545f45584345454445440000000000000000000000600082015250565b7f4f776e61626c653a206e6577206f776e657220697320746865207a65726f206160008201527f6464726573730000000000000000000000000000000000000000000000000000602082015250565b7f4143544956455f50524f504f53414c5f45584953545300000000000000000000600082015250565b7f4e4f545f454e4f5547485f44414f5f46554e4453000000000000000000000000600082015250565b7f50524f504f53414c5f414c52454144595f455845435554454400000000000000600082015250565b7f444541444c494e455f4558434545444544000000000000000000000000000000600082015250565b7f414c52454144595f564f54454400000000000000000000000000000000000000600082015250565b7f4e4f545f464f554e440000000000000000000000000000000000000000000000600082015250565b7f4e4f545f415f44414f5f4d454d42455200000000000000000000000000000000600082015250565b7f4f776e61626c653a2063616c6c6572206973206e6f7420746865206f776e6572600082015250565b7f4e4f545f454e4f5547485f564f54455300000000000000000000000000000000600082015250565b7f4e4f545f454e4f5547485f544f4b454e53000000000000000000000000000000600082015250565b7f436f6e7472616374206973206c6f636b656420756e74696c2037206461797300600082015250565b7f4e4f545f454e4f5547485f42414c414e43450000000000000000000000000000600082015250565b7f596f7520646f6e27742068617665207065726d697373696f6e20746f20756e6c60008201527f6f636b0000000000000000000000000000000000000000000000000000000000602082015250565b7f494e56414c49445f564f54455f434f554e540000000000000000000000000000600082015250565b612d90816129eb565b8114612d9b57600080fd5b50565b612da7816129fd565b8114612db257600080fd5b50565b612dbe81612a29565b8114612dc957600080fd5b5056fea264697066735822122017e6710b14cdd4db676df8dedf4c4a98a8d0f16222365d9371cceb2caacea38e64736f6c63430008040033",
  "linkReferences": {},
  "deployedLinkReferences": {}
}