{
  "_format": "hh-sol-artifact-1",
  "contractName": "TheOpenFarmDAOsLotto",
  "sourceName": "contracts/FarmDAOsLotto.sol",
  "abi": [
    {
      "anonymous": false,
      "inputs": [
        {
          "indexed": true,
          "internalType": "uint256",
          "name": "_proposalIndex",
          "type": "uint256"
        },
        {
          "indexed": false,
          "internalType": "bytes32",
          "name": "requestId",
          "type": "bytes32"
        }
      ],
      "name": "NewRandomRequest",
      "type": "event"
    },
    {
      "anonymous": false,
      "inputs": [
        {
          "indexed": true,
          "internalType": "address",
          "name": "previousOwner",
          "type": "address"
        },
        {
          "indexed": true,
          "internalType": "address",
          "name": "newOwner",
          "type": "address"
        }
      ],
      "name": "OwnershipTransferred",
      "type": "event"
    },
    {
      "inputs": [],
      "name": "emergencyWithdraw",
      "outputs": [],
      "stateMutability": "nonpayable",
      "type": "function"
    },
    {
      "inputs": [
        {
          "internalType": "uint256",
          "name": "randomValue",
          "type": "uint256"
        },
        {
          "internalType": "uint256",
          "name": "n",
          "type": "uint256"
        }
      ],
      "name": "expand",
      "outputs": [
        {
          "internalType": "uint256[]",
          "name": "expandedValues",
          "type": "uint256[]"
        }
      ],
      "stateMutability": "pure",
      "type": "function"
    },
    {
      "inputs": [
        {
          "internalType": "uint256",
          "name": "",
          "type": "uint256"
        }
      ],
      "name": "gameRounds",
      "outputs": [
        {
          "internalType": "uint256",
          "name": "randomRequestBlock",
          "type": "uint256"
        },
        {
          "internalType": "uint256",
          "name": "randomResult",
          "type": "uint256"
        },
        {
          "internalType": "uint256",
          "name": "randomResultBlock",
          "type": "uint256"
        },
        {
          "internalType": "uint256",
          "name": "lockedFunds",
          "type": "uint256"
        },
        {
          "internalType": "uint256",
          "name": "amountRaised",
          "type": "uint256"
        },
        {
          "internalType": "uint256",
          "name": "votes",
          "type": "uint256"
        },
        {
          "internalType": "bytes32",
          "name": "randomRequestId",
          "type": "bytes32"
        },
        {
          "internalType": "uint8",
          "name": "lastResult",
          "type": "uint8"
        }
      ],
      "stateMutability": "view",
      "type": "function"
    },
    {
      "inputs": [],
      "name": "geUnlockTime",
      "outputs": [
        {
          "internalType": "uint256",
          "name": "",
          "type": "uint256"
        }
      ],
      "stateMutability": "view",
      "type": "function"
    },
    {
      "inputs": [
        {
          "internalType": "uint256",
          "name": "_proposalIndex",
          "type": "uint256"
        },
        {
          "internalType": "uint256",
          "name": "_votePos",
          "type": "uint256"
        }
      ],
      "name": "getVoteRedeemd",
      "outputs": [
        {
          "internalType": "uint256",
          "name": "",
          "type": "uint256"
        }
      ],
      "stateMutability": "view",
      "type": "function"
    },
    {
      "inputs": [
        {
          "internalType": "uint256",
          "name": "_proposalIndex",
          "type": "uint256"
        },
        {
          "internalType": "uint256",
          "name": "_votePos",
          "type": "uint256"
        },
        {
          "internalType": "address",
          "name": "_voter",
          "type": "address"
        }
      ],
      "name": "getVoteResult",
      "outputs": [
        {
          "internalType": "uint256",
          "name": "",
          "type": "uint256"
        }
      ],
      "stateMutability": "nonpayable",
      "type": "function"
    },
    {
      "inputs": [
        {
          "internalType": "uint256",
          "name": "_proposalIndex",
          "type": "uint256"
        },
        {
          "internalType": "uint256",
          "name": "_votePos",
          "type": "uint256"
        }
      ],
      "name": "getVoteScratchedNumber",
      "outputs": [
        {
          "internalType": "uint256",
          "name": "",
          "type": "uint256"
        }
      ],
      "stateMutability": "view",
      "type": "function"
    },
    {
      "inputs": [
        {
          "internalType": "uint256",
          "name": "_proposalIndex",
          "type": "uint256"
        },
        {
          "internalType": "uint256",
          "name": "_winnerIndex",
          "type": "uint256"
        }
      ],
      "name": "getWinner",
      "outputs": [
        {
          "internalType": "uint256",
          "name": "",
          "type": "uint256"
        }
      ],
      "stateMutability": "view",
      "type": "function"
    },
    {
      "inputs": [
        {
          "internalType": "uint256",
          "name": "_proposalIndex",
          "type": "uint256"
        },
        {
          "internalType": "uint256",
          "name": "_votePos",
          "type": "uint256"
        }
      ],
      "name": "getWonAmount",
      "outputs": [
        {
          "internalType": "uint256",
          "name": "",
          "type": "uint256"
        }
      ],
      "stateMutability": "view",
      "type": "function"
    },
    {
      "inputs": [
        {
          "internalType": "uint256",
          "name": "",
          "type": "uint256"
        }
      ],
      "name": "hasRequestedRandom",
      "outputs": [
        {
          "internalType": "bool",
          "name": "",
          "type": "bool"
        }
      ],
      "stateMutability": "view",
      "type": "function"
    },
    {
      "inputs": [
        {
          "internalType": "uint256",
          "name": "time",
          "type": "uint256"
        }
      ],
      "name": "lock",
      "outputs": [],
      "stateMutability": "nonpayable",
      "type": "function"
    },
    {
      "inputs": [
        {
          "internalType": "uint256",
          "name": "_proposalIndex",
          "type": "uint256"
        },
        {
          "internalType": "uint256",
          "name": "_amount",
          "type": "uint256"
        },
        {
          "internalType": "uint256",
          "name": "_votes",
          "type": "uint256"
        }
      ],
      "name": "newRound",
      "outputs": [],
      "stateMutability": "nonpayable",
      "type": "function"
    },
    {
      "inputs": [],
      "name": "owner",
      "outputs": [
        {
          "internalType": "address",
          "name": "",
          "type": "address"
        }
      ],
      "stateMutability": "view",
      "type": "function"
    },
    {
      "inputs": [
        {
          "internalType": "uint256",
          "name": "",
          "type": "uint256"
        }
      ],
      "name": "randomRequests",
      "outputs": [
        {
          "internalType": "uint256",
          "name": "",
          "type": "uint256"
        }
      ],
      "stateMutability": "view",
      "type": "function"
    },
    {
      "inputs": [
        {
          "internalType": "uint256",
          "name": "",
          "type": "uint256"
        },
        {
          "internalType": "uint256",
          "name": "",
          "type": "uint256"
        }
      ],
      "name": "redeemHistory",
      "outputs": [
        {
          "internalType": "uint256",
          "name": "",
          "type": "uint256"
        }
      ],
      "stateMutability": "view",
      "type": "function"
    },
    {
      "inputs": [],
      "name": "renounceOwnership",
      "outputs": [],
      "stateMutability": "nonpayable",
      "type": "function"
    },
    {
      "inputs": [
        {
          "internalType": "uint256",
          "name": "_proposalIndex",
          "type": "uint256"
        }
      ],
      "name": "requestResolveRound",
      "outputs": [],
      "stateMutability": "nonpayable",
      "type": "function"
    },
    {
      "inputs": [
        {
          "internalType": "uint256",
          "name": "_proposalIndex",
          "type": "uint256"
        }
      ],
      "name": "resolveBet",
      "outputs": [
        {
          "internalType": "bool",
          "name": "",
          "type": "bool"
        }
      ],
      "stateMutability": "nonpayable",
      "type": "function"
    },
    {
      "inputs": [
        {
          "internalType": "address",
          "name": "newOwner",
          "type": "address"
        }
      ],
      "name": "transferOwnership",
      "outputs": [],
      "stateMutability": "nonpayable",
      "type": "function"
    },
    {
      "inputs": [],
      "name": "unlock",
      "outputs": [],
      "stateMutability": "nonpayable",
      "type": "function"
    },
    {
      "inputs": [
        {
          "internalType": "uint256",
          "name": "_proposalIndex",
          "type": "uint256"
        },
        {
          "internalType": "uint256",
          "name": "_voteIndex",
          "type": "uint256"
        },
        {
          "internalType": "address",
          "name": "_voter",
          "type": "address"
        },
        {
          "internalType": "uint256",
          "name": "_voteDistance",
          "type": "uint256"
        }
      ],
      "name": "withdrawAll",
      "outputs": [
        {
          "internalType": "uint256",
          "name": "",
          "type": "uint256"
        }
      ],
      "stateMutability": "nonpayable",
      "type": "function"
    },
    {
      "inputs": [
        {
          "internalType": "uint256",
          "name": "_proposalIndex",
          "type": "uint256"
        },
        {
          "internalType": "uint256",
          "name": "_votePos",
          "type": "uint256"
        },
        {
          "internalType": "address",
          "name": "_voter",
          "type": "address"
        }
      ],
      "name": "withdrawAmount",
      "outputs": [
        {
          "internalType": "uint256",
          "name": "",
          "type": "uint256"
        }
      ],
      "stateMutability": "nonpayable",
      "type": "function"
    }
  ],
  "bytecode": "0x6080604052738f3cf7ad23cd3cadbd9735aff958023239c6a063600360006101000a81548173ffffffffffffffffffffffffffffffffffffffff021916908373ffffffffffffffffffffffffffffffffffffffff160217905550734c5f09d239e11896ed4b21e5beba0de9d777eebd600460006101000a81548173ffffffffffffffffffffffffffffffffffffffff021916908373ffffffffffffffffffffffffffffffffffffffff160217905550348015620000bb57600080fd5b506000620000ce6200017260201b60201c565b9050806000806101000a81548173ffffffffffffffffffffffffffffffffffffffff021916908373ffffffffffffffffffffffffffffffffffffffff1602179055508073ffffffffffffffffffffffffffffffffffffffff16600073ffffffffffffffffffffffffffffffffffffffff167f8be0079c531659141344cd1fd0a4f28419497f9722a3daafe3b4186f6b6457e060405160405180910390a3506200017a565b600033905090565b613b11806200018a6000396000f3fe608060405234801561001057600080fd5b50600436106101415760003560e01c80638da5cb5b116100b8578063ca067ad01161007c578063ca067ad0146103b5578063d212dcea146103e5578063db2e21bc14610415578063dd4670641461041f578063f2fde38b1461043b578063f84e6d911461045757610141565b80638da5cb5b14610337578063a69df4b514610355578063b6c523241461035f578063c36aea471461037d578063c71bf91a1461039957610141565b806339ff487b1161010a57806339ff487b1461023d5780634c36c36e1461026d5780635fafaf061461029d578063673efa69146102cd578063715018a6146102fd578063874b3afc1461030757610141565b806219e63714610146578063122197cc146101765780631398b3cb146101a657806325f3c1bd146101d65780632ecdc14f1461020d575b600080fd5b610160600480360381019061015b9190612cc7565b610487565b60405161016d919061341b565b60405180910390f35b610190600480360381019061018b9190612cc7565b6104b9565b60405161019d919061341b565b60405180910390f35b6101c060048036038101906101bb9190612d52565b6104eb565b6040516101cd919061341b565b60405180910390f35b6101f060048036038101906101eb9190612c75565b610935565b604051610204989796959493929190613488565b60405180910390f35b61022760048036038101906102229190612d03565b61098a565b604051610234919061341b565b60405180910390f35b61025760048036038101906102529190612cc7565b610ce8565b604051610264919061341b565b60405180910390f35b61028760048036038101906102829190612c75565b610d42565b60405161029491906131aa565b60405180910390f35b6102b760048036038101906102b29190612cc7565b611366565b6040516102c4919061341b565b60405180910390f35b6102e760048036038101906102e29190612cc7565b611398565b6040516102f4919061341b565b60405180910390f35b6103056113c0565b005b610321600480360381019061031c9190612cc7565b611513565b60405161032e9190613188565b60405180910390f35b61033f61161c565b60405161034c9190613136565b60405180910390f35b61035d611645565b005b610367611819565b604051610374919061341b565b60405180910390f35b61039760048036038101906103929190612c75565b611823565b005b6103b360048036038101906103ae9190612db5565b611ab9565b005b6103cf60048036038101906103ca9190612c75565b611c8b565b6040516103dc919061341b565b60405180910390f35b6103ff60048036038101906103fa9190612c75565b611ca3565b60405161040c91906131aa565b60405180910390f35b61041d611cc3565b005b61043960048036038101906104349190612c75565b611eef565b005b61045560048036038101906104509190612bfa565b6120b6565b005b610471600480360381019061046c9190612d03565b612278565b60405161047e919061341b565b60405180910390f35b600060076000848152602001908152602001600020600801600083815260200190815260200160002054905092915050565b600060076000848152602001908152602001600020600901600083815260200190815260200160002054905092915050565b6000806104f661161c565b73ffffffffffffffffffffffffffffffffffffffff1663261dc98987866040518363ffffffff1660e01b8152600401610530929190613436565b60206040518083038186803b15801561054857600080fd5b505afa15801561055c573d6000803e3d6000fd5b505050506040513d601f19601f820116820180604052508101906105809190612c9e565b9050600061058c61161c565b73ffffffffffffffffffffffffffffffffffffffff16636209a58b88876040518363ffffffff1660e01b81526004016105c6929190613436565b60206040518083038186803b1580156105de57600080fd5b505afa1580156105f2573d6000803e3d6000fd5b505050506040513d601f19601f820116820180604052508101906106169190612c9e565b905080826106249190613550565b861115610666576040517f08c379a000000000000000000000000000000000000000000000000000000000815260040161065d906133db565b60405180910390fd5b600084116106a9576040517f08c379a00000000000000000000000000000000000000000000000000000000081526004016106a0906132fb565b60405180910390fd5b80826106b59190613550565b84876106c19190613550565b1115610702576040517f08c379a00000000000000000000000000000000000000000000000000000000081526004016106f9906133fb565b60405180910390fd5b8084101561070e578390505b6000805b82811015610831576000600760008b8152602001908152602001600020600a0160008a846107409190613550565b81526020019081526020016000205490506001811415610795576040517f08c379a000000000000000000000000000000000000000000000000000000000815260040161078c9061323b565b60405180910390fd5b6000600760008c8152602001908152602001600020600a0160008b856107bb9190613550565b8152602001908152602001600020549050600181111561081c5780846107e19190613550565b93506001600760008d8152602001908152602001600020600a0160008c866108099190613550565b8152602001908152602001600020819055505b50508080610829906136a2565b915050610712565b50600081111561092757600360009054906101000a900473ffffffffffffffffffffffffffffffffffffffff1673ffffffffffffffffffffffffffffffffffffffff166323b872dd61088161161c565b88846040518463ffffffff1660e01b81526004016108a193929190613151565b602060405180830381600087803b1580156108bb57600080fd5b505af11580156108cf573d6000803e3d6000fd5b505050506040513d601f19601f820116820180604052508101906108f39190612c23565b610926577f4e487b7100000000000000000000000000000000000000000000000000000000600052600160045260246000fd5b5b809350505050949350505050565b60076020528060005260406000206000915090508060000154908060010154908060020154908060030154908060040154908060050154908060060154908060070160009054906101000a900460ff16905088565b60008061099561161c565b73ffffffffffffffffffffffffffffffffffffffff1663261dc98986856040518363ffffffff1660e01b81526004016109cf929190613436565b60206040518083038186803b1580156109e757600080fd5b505afa1580156109fb573d6000803e3d6000fd5b505050506040513d601f19601f82011682018060405250810190610a1f9190612c9e565b90506000610a2b61161c565b73ffffffffffffffffffffffffffffffffffffffff16636209a58b87866040518363ffffffff1660e01b8152600401610a65929190613436565b60206040518083038186803b158015610a7d57600080fd5b505afa158015610a91573d6000803e3d6000fd5b505050506040513d601f19601f82011682018060405250810190610ab59190612c9e565b9050818510158015610ad257508082610ace9190613550565b8511155b610b11576040517f08c379a0000000000000000000000000000000000000000000000000000000008152600401610b089061333b565b60405180910390fd5b600060076000888152602001908152602001600020600a01600087815260200190815260200160002054905060008111610b80576040517f08c379a0000000000000000000000000000000000000000000000000000000008152600401610b77906131fb565b60405180910390fd5b60018111610bc3576040517f08c379a0000000000000000000000000000000000000000000000000000000008152600401610bba9061323b565b60405180910390fd5b600360009054906101000a900473ffffffffffffffffffffffffffffffffffffffff1673ffffffffffffffffffffffffffffffffffffffff166323b872dd610c0961161c565b87846040518463ffffffff1660e01b8152600401610c2993929190613151565b602060405180830381600087803b158015610c4357600080fd5b505af1158015610c57573d6000803e3d6000fd5b505050506040513d601f19601f82011682018060405250810190610c7b9190612c23565b610cae577f4e487b7100000000000000000000000000000000000000000000000000000000600052600160045260246000fd5b600160076000898152602001908152602001600020600a016000888152602001908152602001600020819055508093505050509392505050565b600060076000848152602001908152602001600020600b018260538110610d38577f4e487b7100000000000000000000000000000000000000000000000000000000600052603260045260246000fd5b0154905092915050565b600080600760008481526020019081526020016000206004015411610d9c576040517f08c379a0000000000000000000000000000000000000000000000000000000008152600401610d939061325b565b60405180910390fd5b600060076000848152602001908152602001600020600601549050600460009054906101000a900473ffffffffffffffffffffffffffffffffffffffff1673ffffffffffffffffffffffffffffffffffffffff1663e89e106a6040518163ffffffff1660e01b8152600401602060405180830381600087803b158015610e2157600080fd5b505af1158015610e35573d6000803e3d6000fd5b505050506040513d601f19601f82011682018060405250810190610e599190612c4c565b8114610e9a576040517f08c379a0000000000000000000000000000000000000000000000000000000008152600401610e919061337b565b60405180910390fd5b6000600660008581526020019081526020016000205414610ef0576040517f08c379a0000000000000000000000000000000000000000000000000000000008152600401610ee79061339b565b60405180910390fd5b436007600085815260200190815260200160002060020181905550600460009054906101000a900473ffffffffffffffffffffffffffffffffffffffff1673ffffffffffffffffffffffffffffffffffffffff1663db61e87b6040518163ffffffff1660e01b8152600401602060405180830381600087803b158015610f7557600080fd5b505af1158015610f89573d6000803e3d6000fd5b505050506040513d601f19601f82011682018060405250810190610fad9190612c9e565b6006600085815260200190815260200160002081905550600460009054906101000a900473ffffffffffffffffffffffffffffffffffffffff1673ffffffffffffffffffffffffffffffffffffffff1663f6eaffc860006040518263ffffffff1660e01b815260040161102091906131e0565b602060405180830381600087803b15801561103a57600080fd5b505af115801561104e573d6000803e3d6000fd5b505050506040513d601f19601f820116820180604052508101906110729190612c9e565b600760008581526020019081526020016000206001018190555060006110af60076000868152602001908152602001600020600101546053611513565b9050600080600090505b605381101561135357600060016007600089815260200190815260200160002060050154858481518110611116577f4e487b7100000000000000000000000000000000000000000000000000000000600052603260045260246000fd5b602002602001015161112891906136eb565b6111329190613550565b90508060076000898152602001908152602001600020600b018360538110611183577f4e487b7100000000000000000000000000000000000000000000000000000000600052603260045260246000fd5b018190555060008214156111c757600a6002600760008a8152602001908152602001600020600401546111b691906135d7565b6111c091906135a6565b92506112bb565b60038210156112065760646005600760008a8152602001908152602001600020600401546111f591906135d7565b6111ff91906135a6565b92506112ba565b600d8210156112455760646001600760008a81526020019081526020016000206004015461123491906135d7565b61123e91906135a6565b92506112b9565b6021821015611285576103e86005600760008a81526020019081526020016000206004015461127491906135d7565b61127e91906135a6565b92506112b8565b6103e86002600760008a8152602001908152602001600020600401546112ab91906135d7565b6112b591906135a6565b92505b5b5b5b8260076000898152602001908152602001600020600a016000838152602001908152602001600020819055508160076000898152602001908152602001600020600901600083815260200190815260200160002081905550816007600089815260200190815260200160002060080160008381526020019081526020016000208190555050808061134b906136a2565b9150506110b9565b5060006001905080945050505050919050565b600060076000848152602001908152602001600020600a01600083815260200190815260200160002054905092915050565b600560205281600052604060002081600681106113b457600080fd5b01600091509150505481565b6113c8612b89565b73ffffffffffffffffffffffffffffffffffffffff1660008054906101000a900473ffffffffffffffffffffffffffffffffffffffff1673ffffffffffffffffffffffffffffffffffffffff1614611455576040517f08c379a000000000000000000000000000000000000000000000000000000000815260040161144c906132bb565b60405180910390fd5b600073ffffffffffffffffffffffffffffffffffffffff1660008054906101000a900473ffffffffffffffffffffffffffffffffffffffff1673ffffffffffffffffffffffffffffffffffffffff167f8be0079c531659141344cd1fd0a4f28419497f9722a3daafe3b4186f6b6457e060405160405180910390a360008060006101000a81548173ffffffffffffffffffffffffffffffffffffffff021916908373ffffffffffffffffffffffffffffffffffffffff160217905550565b60608167ffffffffffffffff811115611555577f4e487b7100000000000000000000000000000000000000000000000000000000600052604160045260246000fd5b6040519080825280602002602001820160405280156115835781602001602082028036833780820191505090505b50905060005b828110156116155783816040516020016115a492919061345f565b6040516020818303038152906040528051906020012060001c8282815181106115f6577f4e487b7100000000000000000000000000000000000000000000000000000000600052603260045260246000fd5b602002602001018181525050808061160d906136a2565b915050611589565b5092915050565b60008060009054906101000a900473ffffffffffffffffffffffffffffffffffffffff16905090565b3373ffffffffffffffffffffffffffffffffffffffff16600160009054906101000a900473ffffffffffffffffffffffffffffffffffffffff1673ffffffffffffffffffffffffffffffffffffffff16146116d5576040517f08c379a00000000000000000000000000000000000000000000000000000000081526004016116cc906133bb565b60405180910390fd5b6002544211611719576040517f08c379a00000000000000000000000000000000000000000000000000000000081526004016117109061335b565b60405180910390fd5b600160009054906101000a900473ffffffffffffffffffffffffffffffffffffffff1673ffffffffffffffffffffffffffffffffffffffff1660008054906101000a900473ffffffffffffffffffffffffffffffffffffffff1673ffffffffffffffffffffffffffffffffffffffff167f8be0079c531659141344cd1fd0a4f28419497f9722a3daafe3b4186f6b6457e060405160405180910390a3600160009054906101000a900473ffffffffffffffffffffffffffffffffffffffff166000806101000a81548173ffffffffffffffffffffffffffffffffffffffff021916908373ffffffffffffffffffffffffffffffffffffffff160217905550565b6000600254905090565b600060076000838152602001908152602001600020600401541161187c576040517f08c379a00000000000000000000000000000000000000000000000000000000081526004016118739061325b565b60405180910390fd5b600015156008600083815260200190815260200160002060009054906101000a900460ff161515146118e3576040517f08c379a00000000000000000000000000000000000000000000000000000000081526004016118da9061329b565b60405180910390fd5b60016008600083815260200190815260200160002060006101000a81548160ff021916908315150217905550600460009054906101000a900473ffffffffffffffffffffffffffffffffffffffff1673ffffffffffffffffffffffffffffffffffffffff1663e0c862896040518163ffffffff1660e01b8152600401600060405180830381600087803b15801561197957600080fd5b505af115801561198d573d6000803e3d6000fd5b50505050600460009054906101000a900473ffffffffffffffffffffffffffffffffffffffff1673ffffffffffffffffffffffffffffffffffffffff1663e89e106a6040518163ffffffff1660e01b8152600401602060405180830381600087803b1580156119fb57600080fd5b505af1158015611a0f573d6000803e3d6000fd5b505050506040513d601f19601f82011682018060405250810190611a339190612c4c565b6007600083815260200190815260200160002060060181905550436007600083815260200190815260200160002060000181905550807fbd51e5a352fab6e096017c2be9f26b900b8615c0353bc652a3f429c6e56c4e126007600084815260200190815260200160002060060154604051611aae91906131c5565b60405180910390a250565b611ac1612b89565b73ffffffffffffffffffffffffffffffffffffffff1660008054906101000a900473ffffffffffffffffffffffffffffffffffffffff1673ffffffffffffffffffffffffffffffffffffffff1614611b4e576040517f08c379a0000000000000000000000000000000000000000000000000000000008152600401611b45906132bb565b60405180910390fd5b6008600084815260200190815260200160002060009054906101000a900460ff1615611baf576040517f08c379a0000000000000000000000000000000000000000000000000000000008152600401611ba69061329b565b60405180910390fd5b6000600760008581526020019081526020016000206004015414611c08576040517f08c379a0000000000000000000000000000000000000000000000000000000008152600401611bff9061331b565b60405180910390fd5b816007600085815260200190815260200160002060040181905550600a600780600086815260200190815260200160002060040154611c4791906135d7565b611c5191906135a6565b6007600085815260200190815260200160002060030181905550806007600085815260200190815260200160002060050181905550505050565b60066020528060005260406000206000915090505481565b60086020528060005260406000206000915054906101000a900460ff1681565b611ccb612b89565b73ffffffffffffffffffffffffffffffffffffffff1660008054906101000a900473ffffffffffffffffffffffffffffffffffffffff1673ffffffffffffffffffffffffffffffffffffffff1614611d58576040517f08c379a0000000000000000000000000000000000000000000000000000000008152600401611d4f906132bb565b60405180910390fd5b600360009054906101000a900473ffffffffffffffffffffffffffffffffffffffff1673ffffffffffffffffffffffffffffffffffffffff166323b872dd30611d9f61161c565b600360009054906101000a900473ffffffffffffffffffffffffffffffffffffffff1673ffffffffffffffffffffffffffffffffffffffff166370a08231306040518263ffffffff1660e01b8152600401611dfa9190613136565b60206040518083038186803b158015611e1257600080fd5b505afa158015611e26573d6000803e3d6000fd5b505050506040513d601f19601f82011682018060405250810190611e4a9190612c9e565b6040518463ffffffff1660e01b8152600401611e6893929190613151565b602060405180830381600087803b158015611e8257600080fd5b505af1158015611e96573d6000803e3d6000fd5b505050506040513d601f19601f82011682018060405250810190611eba9190612c23565b611eed577f4e487b7100000000000000000000000000000000000000000000000000000000600052600160045260246000fd5b565b611ef7612b89565b73ffffffffffffffffffffffffffffffffffffffff1660008054906101000a900473ffffffffffffffffffffffffffffffffffffffff1673ffffffffffffffffffffffffffffffffffffffff1614611f84576040517f08c379a0000000000000000000000000000000000000000000000000000000008152600401611f7b906132bb565b60405180910390fd5b60008054906101000a900473ffffffffffffffffffffffffffffffffffffffff16600160006101000a81548173ffffffffffffffffffffffffffffffffffffffff021916908373ffffffffffffffffffffffffffffffffffffffff16021790555060008060006101000a81548173ffffffffffffffffffffffffffffffffffffffff021916908373ffffffffffffffffffffffffffffffffffffffff16021790555080426120329190613550565b600281905550600073ffffffffffffffffffffffffffffffffffffffff1660008054906101000a900473ffffffffffffffffffffffffffffffffffffffff1673ffffffffffffffffffffffffffffffffffffffff167f8be0079c531659141344cd1fd0a4f28419497f9722a3daafe3b4186f6b6457e060405160405180910390a350565b6120be612b89565b73ffffffffffffffffffffffffffffffffffffffff1660008054906101000a900473ffffffffffffffffffffffffffffffffffffffff1673ffffffffffffffffffffffffffffffffffffffff161461214b576040517f08c379a0000000000000000000000000000000000000000000000000000000008152600401612142906132bb565b60405180910390fd5b600073ffffffffffffffffffffffffffffffffffffffff168173ffffffffffffffffffffffffffffffffffffffff1614156121bb576040517f08c379a00000000000000000000000000000000000000000000000000000000081526004016121b29061321b565b60405180910390fd5b8073ffffffffffffffffffffffffffffffffffffffff1660008054906101000a900473ffffffffffffffffffffffffffffffffffffffff1673ffffffffffffffffffffffffffffffffffffffff167f8be0079c531659141344cd1fd0a4f28419497f9722a3daafe3b4186f6b6457e060405160405180910390a3806000806101000a81548173ffffffffffffffffffffffffffffffffffffffff021916908373ffffffffffffffffffffffffffffffffffffffff16021790555050565b600080600660008681526020019081526020016000205414156122d0576040517f08c379a00000000000000000000000000000000000000000000000000000000081526004016122c7906132db565b60405180910390fd5b60006122da61161c565b73ffffffffffffffffffffffffffffffffffffffff1663261dc98986856040518363ffffffff1660e01b8152600401612314929190613436565b60206040518083038186803b15801561232c57600080fd5b505afa158015612340573d6000803e3d6000fd5b505050506040513d601f19601f820116820180604052508101906123649190612c9e565b9050600061237061161c565b73ffffffffffffffffffffffffffffffffffffffff16636209a58b87866040518363ffffffff1660e01b81526004016123aa929190613436565b60206040518083038186803b1580156123c257600080fd5b505afa1580156123d6573d6000803e3d6000fd5b505050506040513d601f19601f820116820180604052508101906123fa9190612c9e565b9050818510158015612417575080826124139190613550565b8511155b612456576040517f08c379a000000000000000000000000000000000000000000000000000000000815260040161244d9061333b565b60405180910390fd5b600060076000888152602001908152602001600020600801600087815260200190815260200160002054146124c0576040517f08c379a00000000000000000000000000000000000000000000000000000000081526004016124b79061327b565b60405180910390fd5b6007600087815260200190815260200160002060050154856007600089815260200190815260200160002060050154600660008a81526020019081526020016000205461250d91906136eb565b61251791906135d7565b61252191906136eb565b60076000888152602001908152602001600020600801600087815260200190815260200160002081905550600060076000888152602001908152602001600020600501546103e8600760008a815260200190815260200160002060080160008981526020019081526020016000205461259a91906135d7565b6125a491906135a6565b905080600760008981526020019081526020016000206009016000888152602001908152602001600020819055506000600282116126e8576001600560008a815260200190815260200160002060006006811061262a577f4e487b7100000000000000000000000000000000000000000000000000000000600052603260045260246000fd5b015410156126e357600a6002600760008b81526020019081526020016000206004015461265791906135d7565b61266191906135a6565b90506001600560008a81526020019081526020016000206000600681106126b1577f4e487b7100000000000000000000000000000000000000000000000000000000600052603260045260246000fd5b018190555080600760008a8152602001908152602001600020600a016000898152602001908152602001600020819055505b612b7b565b600d821161280c57600a600560008a815260200190815260200160002060026006811061273e577f4e487b7100000000000000000000000000000000000000000000000000000000600052603260045260246000fd5b015410156128075760646001600760008b81526020019081526020016000206004015461276b91906135d7565b61277591906135a6565b9050600560008981526020019081526020016000206002600681106127c3577f4e487b7100000000000000000000000000000000000000000000000000000000600052603260045260246000fd5b0160008154809291906127d5906136a2565b919050555080600760008a8152602001908152602001600020600a016000898152602001908152602001600020819055505b612b7a565b60218211612931576014600560008a8152602001908152602001600020600360068110612862577f4e487b7100000000000000000000000000000000000000000000000000000000600052603260045260246000fd5b0154101561292c576103e86005600760008b81526020019081526020016000206004015461289091906135d7565b61289a91906135a6565b9050600560008981526020019081526020016000206003600681106128e8577f4e487b7100000000000000000000000000000000000000000000000000000000600052603260045260246000fd5b0160008154809291906128fa906136a2565b919050555080600760008a8152602001908152602001600020600a016000898152602001908152602001600020819055505b612b79565b60538211612a56576032600560008a8152602001908152602001600020600460068110612987577f4e487b7100000000000000000000000000000000000000000000000000000000600052603260045260246000fd5b01541015612a51576103e86002600760008b8152602001908152602001600020600401546129b591906135d7565b6129bf91906135a6565b905060056000898152602001908152602001600020600460068110612a0d577f4e487b7100000000000000000000000000000000000000000000000000000000600052603260045260246000fd5b016000815480929190612a1f906136a2565b919050555080600760008a8152602001908152602001600020600a016000898152602001908152602001600020819055505b612b78565b60b78211612b77576064600560008a8152602001908152602001600020600560068110612aac577f4e487b7100000000000000000000000000000000000000000000000000000000600052603260045260246000fd5b01541015612b76576103e86001600760008b815260200190815260200160002060040154612ada91906135d7565b612ae491906135a6565b905060056000898152602001908152602001600020600560068110612b32577f4e487b7100000000000000000000000000000000000000000000000000000000600052603260045260246000fd5b016000815480929190612b44906136a2565b919050555080600760008a8152602001908152602001600020600a016000898152602001908152602001600020819055505b5b5b5b5b5b819450505050509392505050565b600033905090565b600081359050612ba081613a7f565b92915050565b600081519050612bb581613a96565b92915050565b600081519050612bca81613aad565b92915050565b600081359050612bdf81613ac4565b92915050565b600081519050612bf481613ac4565b92915050565b600060208284031215612c0c57600080fd5b6000612c1a84828501612b91565b91505092915050565b600060208284031215612c3557600080fd5b6000612c4384828501612ba6565b91505092915050565b600060208284031215612c5e57600080fd5b6000612c6c84828501612bbb565b91505092915050565b600060208284031215612c8757600080fd5b6000612c9584828501612bd0565b91505092915050565b600060208284031215612cb057600080fd5b6000612cbe84828501612be5565b91505092915050565b60008060408385031215612cda57600080fd5b6000612ce885828601612bd0565b9250506020612cf985828601612bd0565b9150509250929050565b600080600060608486031215612d1857600080fd5b6000612d2686828701612bd0565b9350506020612d3786828701612bd0565b9250506040612d4886828701612b91565b9150509250925092565b60008060008060808587031215612d6857600080fd5b6000612d7687828801612bd0565b9450506020612d8787828801612bd0565b9350506040612d9887828801612b91565b9250506060612da987828801612bd0565b91505092959194509250565b600080600060608486031215612dca57600080fd5b6000612dd886828701612bd0565b9350506020612de986828701612bd0565b9250506040612dfa86828701612bd0565b9150509250925092565b6000612e108383613109565b60208301905092915050565b612e2581613631565b82525050565b6000612e3682613516565b612e40818561352e565b9350612e4b83613506565b8060005b83811015612e7c578151612e638882612e04565b9750612e6e83613521565b925050600181019050612e4f565b5085935050505092915050565b612e9281613643565b82525050565b612ea18161364f565b82525050565b612eb081613690565b82525050565b6000612ec3600b8361353f565b9150612ece8261377a565b602082019050919050565b6000612ee660268361353f565b9150612ef1826137a3565b604082019050919050565b6000612f0960108361353f565b9150612f14826137f2565b602082019050919050565b6000612f2c60158361353f565b9150612f378261381b565b602082019050919050565b6000612f4f60158361353f565b9150612f5a82613844565b602082019050919050565b6000612f7260158361353f565b9150612f7d8261386d565b602082019050919050565b6000612f9560208361353f565b9150612fa082613896565b602082019050919050565b6000612fb860128361353f565b9150612fc3826138bf565b602082019050919050565b6000612fdb600c8361353f565b9150612fe6826138e8565b602082019050919050565b6000612ffe600e8361353f565b915061300982613911565b602082019050919050565b6000613021600e8361353f565b915061302c8261393a565b602082019050919050565b6000613044601f8361353f565b915061304f82613963565b602082019050919050565b600061306760138361353f565b91506130728261398c565b602082019050919050565b600061308a60138361353f565b9150613095826139b5565b602082019050919050565b60006130ad60238361353f565b91506130b8826139de565b604082019050919050565b60006130d0600f8361353f565b91506130db82613a2d565b602082019050919050565b60006130f3600f8361353f565b91506130fe82613a56565b602082019050919050565b61311281613679565b82525050565b61312181613679565b82525050565b61313081613683565b82525050565b600060208201905061314b6000830184612e1c565b92915050565b60006060820190506131666000830186612e1c565b6131736020830185612e1c565b6131806040830184613118565b949350505050565b600060208201905081810360008301526131a28184612e2b565b905092915050565b60006020820190506131bf6000830184612e89565b92915050565b60006020820190506131da6000830184612e98565b92915050565b60006020820190506131f56000830184612ea7565b92915050565b6000602082019050818103600083015261321481612eb6565b9050919050565b6000602082019050818103600083015261323481612ed9565b9050919050565b6000602082019050818103600083015261325481612efc565b9050919050565b6000602082019050818103600083015261327481612f1f565b9050919050565b6000602082019050818103600083015261329481612f42565b9050919050565b600060208201905081810360008301526132b481612f65565b9050919050565b600060208201905081810360008301526132d481612f88565b9050919050565b600060208201905081810360008301526132f481612fab565b9050919050565b6000602082019050818103600083015261331481612fce565b9050919050565b6000602082019050818103600083015261333481612ff1565b9050919050565b6000602082019050818103600083015261335481613014565b9050919050565b6000602082019050818103600083015261337481613037565b9050919050565b600060208201905081810360008301526133948161305a565b9050919050565b600060208201905081810360008301526133b48161307d565b9050919050565b600060208201905081810360008301526133d4816130a0565b9050919050565b600060208201905081810360008301526133f4816130c3565b9050919050565b60006020820190508181036000830152613414816130e6565b9050919050565b60006020820190506134306000830184613118565b92915050565b600060408201905061344b6000830185613118565b6134586020830184612e1c565b9392505050565b60006040820190506134746000830185613118565b6134816020830184613118565b9392505050565b60006101008201905061349e600083018b613118565b6134ab602083018a613118565b6134b86040830189613118565b6134c56060830188613118565b6134d26080830187613118565b6134df60a0830186613118565b6134ec60c0830185612e98565b6134f960e0830184613127565b9998505050505050505050565b6000819050602082019050919050565b600081519050919050565b6000602082019050919050565b600082825260208201905092915050565b600082825260208201905092915050565b600061355b82613679565b915061356683613679565b9250827fffffffffffffffffffffffffffffffffffffffffffffffffffffffffffffffff0382111561359b5761359a61371c565b5b828201905092915050565b60006135b182613679565b91506135bc83613679565b9250826135cc576135cb61374b565b5b828204905092915050565b60006135e282613679565b91506135ed83613679565b9250817fffffffffffffffffffffffffffffffffffffffffffffffffffffffffffffffff04831182151516156136265761362561371c565b5b828202905092915050565b600061363c82613659565b9050919050565b60008115159050919050565b6000819050919050565b600073ffffffffffffffffffffffffffffffffffffffff82169050919050565b6000819050919050565b600060ff82169050919050565b600061369b82613679565b9050919050565b60006136ad82613679565b91507fffffffffffffffffffffffffffffffffffffffffffffffffffffffffffffffff8214156136e0576136df61371c565b5b600182019050919050565b60006136f682613679565b915061370183613679565b9250826137115761371061374b565b5b828206905092915050565b7f4e487b7100000000000000000000000000000000000000000000000000000000600052601160045260246000fd5b7f4e487b7100000000000000000000000000000000000000000000000000000000600052601260045260246000fd5b7f494e56414c49445f57494e000000000000000000000000000000000000000000600082015250565b7f4f776e61626c653a206e6577206f776e657220697320746865207a65726f206160008201527f6464726573730000000000000000000000000000000000000000000000000000602082015250565b7f414c52454144595f52454445454d454400000000000000000000000000000000600082015250565b7f50524f504f53414c5f444f45534e545f45584953540000000000000000000000600082015250565b7f524553554c545f414c52454144595f4558495354530000000000000000000000600082015250565b7f52414e444f4d5f524551554553545f4558495354530000000000000000000000600082015250565b7f4f776e61626c653a2063616c6c6572206973206e6f7420746865206f776e6572600082015250565b7f524553554c545f49535f4e4f545f444f4e450000000000000000000000000000600082015250565b7f4d494e5f44495354414e43450000000000000000000000000000000000000000600082015250565b7f50524f504f53414c5f4558495354000000000000000000000000000000000000600082015250565b7f4e4f545f564f54455f4f574e4552000000000000000000000000000000000000600082015250565b7f436f6e7472616374206973206c6f636b656420756e74696c2037206461797300600082015250565b7f524551554553545f4e4f545f43555252454e5400000000000000000000000000600082015250565b7f524553554c545f414c52454144595f444f4e4500000000000000000000000000600082015250565b7f596f7520646f6e27742068617665207065726d697373696f6e20746f20756e6c60008201527f6f636b0000000000000000000000000000000000000000000000000000000000602082015250565b7f4e4f545f56414c49445f494e4445580000000000000000000000000000000000600082015250565b7f4f55545f4f465f424f554e444152590000000000000000000000000000000000600082015250565b613a8881613631565b8114613a9357600080fd5b50565b613a9f81613643565b8114613aaa57600080fd5b50565b613ab68161364f565b8114613ac157600080fd5b50565b613acd81613679565b8114613ad857600080fd5b5056fea2646970667358221220a3cac321411061aa001ff6d816ae578a3eb96f10a03a23fab496678fe527314d64736f6c63430008040033",
  "linkReferences": {},
  "deployedLinkReferences": {}
}