{
  "_format": "hh-sol-artifact-1",
  "contractName": "TheOpenFarmDAOsLotto",
  "sourceName": "contracts/FarmDAOsLotto.sol",
  "abi": [
    {
      "anonymous": false,
      "inputs": [
        {
          "indexed": true,
          "internalType": "uint256",
          "name": "_proposalIndex",
          "type": "uint256"
        },
        {
          "indexed": false,
          "internalType": "bytes32",
          "name": "requestId",
          "type": "bytes32"
        }
      ],
      "name": "NewRandomRequest",
      "type": "event"
    },
    {
      "anonymous": false,
      "inputs": [
        {
          "indexed": true,
          "internalType": "address",
          "name": "previousOwner",
          "type": "address"
        },
        {
          "indexed": true,
          "internalType": "address",
          "name": "newOwner",
          "type": "address"
        }
      ],
      "name": "OwnershipTransferred",
      "type": "event"
    },
    {
      "inputs": [],
      "name": "emergencyWithdraw",
      "outputs": [],
      "stateMutability": "nonpayable",
      "type": "function"
    },
    {
      "inputs": [
        {
          "internalType": "uint256",
          "name": "",
          "type": "uint256"
        }
      ],
      "name": "gameRounds",
      "outputs": [
        {
          "internalType": "uint256",
          "name": "randomRequestBlock",
          "type": "uint256"
        },
        {
          "internalType": "uint256",
          "name": "randomResult",
          "type": "uint256"
        },
        {
          "internalType": "uint256",
          "name": "randomResultBlock",
          "type": "uint256"
        },
        {
          "internalType": "uint256",
          "name": "lockedFunds",
          "type": "uint256"
        },
        {
          "internalType": "uint256",
          "name": "votes",
          "type": "uint256"
        },
        {
          "internalType": "uint256",
          "name": "wonAmount",
          "type": "uint256"
        },
        {
          "internalType": "bytes32",
          "name": "randomRequestId",
          "type": "bytes32"
        },
        {
          "internalType": "uint8",
          "name": "lastResult",
          "type": "uint8"
        }
      ],
      "stateMutability": "view",
      "type": "function"
    },
    {
      "inputs": [],
      "name": "geUnlockTime",
      "outputs": [
        {
          "internalType": "uint256",
          "name": "",
          "type": "uint256"
        }
      ],
      "stateMutability": "view",
      "type": "function"
    },
    {
      "inputs": [
        {
          "internalType": "uint256",
          "name": "_proposalIndex",
          "type": "uint256"
        },
        {
          "internalType": "uint256",
          "name": "_votePos",
          "type": "uint256"
        }
      ],
      "name": "getVoteRedeemd",
      "outputs": [
        {
          "internalType": "uint256",
          "name": "",
          "type": "uint256"
        }
      ],
      "stateMutability": "view",
      "type": "function"
    },
    {
      "inputs": [
        {
          "internalType": "uint256",
          "name": "_proposalIndex",
          "type": "uint256"
        },
        {
          "internalType": "uint256",
          "name": "_votePos",
          "type": "uint256"
        },
        {
          "internalType": "address",
          "name": "_voter",
          "type": "address"
        }
      ],
      "name": "getVoteResult",
      "outputs": [
        {
          "internalType": "uint256",
          "name": "",
          "type": "uint256"
        }
      ],
      "stateMutability": "nonpayable",
      "type": "function"
    },
    {
      "inputs": [
        {
          "internalType": "uint256",
          "name": "",
          "type": "uint256"
        }
      ],
      "name": "hasRequestedRandom",
      "outputs": [
        {
          "internalType": "bool",
          "name": "",
          "type": "bool"
        }
      ],
      "stateMutability": "view",
      "type": "function"
    },
    {
      "inputs": [
        {
          "internalType": "uint256",
          "name": "time",
          "type": "uint256"
        }
      ],
      "name": "lock",
      "outputs": [],
      "stateMutability": "nonpayable",
      "type": "function"
    },
    {
      "inputs": [
        {
          "internalType": "uint256",
          "name": "_proposalIndex",
          "type": "uint256"
        },
        {
          "internalType": "uint256",
          "name": "_amount",
          "type": "uint256"
        },
        {
          "internalType": "uint256",
          "name": "_votes",
          "type": "uint256"
        }
      ],
      "name": "newRound",
      "outputs": [],
      "stateMutability": "nonpayable",
      "type": "function"
    },
    {
      "inputs": [],
      "name": "owner",
      "outputs": [
        {
          "internalType": "address",
          "name": "",
          "type": "address"
        }
      ],
      "stateMutability": "view",
      "type": "function"
    },
    {
      "inputs": [
        {
          "internalType": "uint256",
          "name": "",
          "type": "uint256"
        }
      ],
      "name": "randomRequests",
      "outputs": [
        {
          "internalType": "uint256",
          "name": "",
          "type": "uint256"
        }
      ],
      "stateMutability": "view",
      "type": "function"
    },
    {
      "inputs": [
        {
          "internalType": "uint256",
          "name": "",
          "type": "uint256"
        },
        {
          "internalType": "uint256",
          "name": "",
          "type": "uint256"
        }
      ],
      "name": "redeems",
      "outputs": [
        {
          "internalType": "uint256",
          "name": "",
          "type": "uint256"
        }
      ],
      "stateMutability": "view",
      "type": "function"
    },
    {
      "inputs": [],
      "name": "renounceOwnership",
      "outputs": [],
      "stateMutability": "nonpayable",
      "type": "function"
    },
    {
      "inputs": [
        {
          "internalType": "uint256",
          "name": "_proposalIndex",
          "type": "uint256"
        }
      ],
      "name": "resolveBet",
      "outputs": [
        {
          "internalType": "bool",
          "name": "",
          "type": "bool"
        }
      ],
      "stateMutability": "nonpayable",
      "type": "function"
    },
    {
      "inputs": [
        {
          "internalType": "address",
          "name": "newOwner",
          "type": "address"
        }
      ],
      "name": "transferOwnership",
      "outputs": [],
      "stateMutability": "nonpayable",
      "type": "function"
    },
    {
      "inputs": [],
      "name": "unlock",
      "outputs": [],
      "stateMutability": "nonpayable",
      "type": "function"
    }
  ],
  "bytecode": "0x6080604052738f3cf7ad23cd3cadbd9735aff958023239c6a063600360006101000a81548173ffffffffffffffffffffffffffffffffffffffff021916908373ffffffffffffffffffffffffffffffffffffffff1602179055507379e47d2e40c96e7b1ac3220b9fe1a31573f1f948600460006101000a81548173ffffffffffffffffffffffffffffffffffffffff021916908373ffffffffffffffffffffffffffffffffffffffff1602179055503480156100ba57600080fd5b5060006100cb61016e60201b60201c565b9050806000806101000a81548173ffffffffffffffffffffffffffffffffffffffff021916908373ffffffffffffffffffffffffffffffffffffffff1602179055508073ffffffffffffffffffffffffffffffffffffffff16600073ffffffffffffffffffffffffffffffffffffffff167f8be0079c531659141344cd1fd0a4f28419497f9722a3daafe3b4186f6b6457e060405160405180910390a350610176565b600033905090565b612fe080620001866000396000f3fe608060405234801561001057600080fd5b50600436106100f45760003560e01c8063c71bf91a11610097578063db2e21bc11610066578063db2e21bc1461028c578063dd46706414610296578063f2fde38b146102b2578063f84e6d91146102ce576100f4565b8063c71bf91a146101e0578063ca067ad0146101fc578063d212dcea1461022c578063d34b6fbd1461025c576100f4565b8063715018a6116100d3578063715018a6146101905780638da5cb5b1461019a578063a69df4b5146101b8578063b6c52324146101c2576100f4565b806219e637146100f957806325f3c1bd146101295780634c36c36e14610160575b600080fd5b610113600480360381019061010e919061255a565b6102fe565b6040516101209190612a2b565b60405180910390f35b610143600480360381019061013e9190612508565b610330565b604051610157989796959493929190612a6f565b60405180910390f35b61017a60048036038101906101759190612508565b610385565b6040516101879190612875565b60405180910390f35b61019861075e565b005b6101a26108b1565b6040516101af9190612823565b60405180910390f35b6101c06108da565b005b6101ca610aae565b6040516101d79190612a2b565b60405180910390f35b6101fa60048036038101906101f591906125e5565b610ab8565b005b61021660048036038101906102119190612508565b610d36565b6040516102239190612a2b565b60405180910390f35b61024660048036038101906102419190612508565b610d4e565b6040516102539190612875565b60405180910390f35b6102766004803603810190610271919061255a565b610d6e565b6040516102839190612a2b565b60405180910390f35b610294610d96565b005b6102b060048036038101906102ab9190612508565b610fc2565b005b6102cc60048036038101906102c7919061248d565b611189565b005b6102e860048036038101906102e39190612596565b61134b565b6040516102f59190612a2b565b60405180910390f35b600060076000848152602001908152602001600020600801600083815260200190815260200160002054905092915050565b60076020528060005260406000206000915090508060000154908060010154908060020154908060030154908060040154908060050154908060060154908060070160009054906101000a900460ff16905088565b6000806007600084815260200190815260200160002060030154116103df576040517f08c379a00000000000000000000000000000000000000000000000000000000081526004016103d6906128cb565b60405180910390fd5b600060076000848152602001908152602001600020600601549050600460009054906101000a900473ffffffffffffffffffffffffffffffffffffffff1673ffffffffffffffffffffffffffffffffffffffff1663e89e106a6040518163ffffffff1660e01b8152600401602060405180830381600087803b15801561046457600080fd5b505af1158015610478573d6000803e3d6000fd5b505050506040513d601f19601f8201168201806040525081019061049c91906124df565b81146104dd576040517f08c379a00000000000000000000000000000000000000000000000000000000081526004016104d4906129cb565b60405180910390fd5b6000600660008581526020019081526020016000205414610533576040517f08c379a000000000000000000000000000000000000000000000000000000000815260040161052a906129eb565b60405180910390fd5b436007600085815260200190815260200160002060020181905550600460009054906101000a900473ffffffffffffffffffffffffffffffffffffffff1673ffffffffffffffffffffffffffffffffffffffff1663db61e87b6040518163ffffffff1660e01b8152600401602060405180830381600087803b1580156105b857600080fd5b505af11580156105cc573d6000803e3d6000fd5b505050506040513d601f19601f820116820180604052508101906105f09190612531565b600660008581526020019081526020016000208190555060066000848152602001908152602001600020546007600085815260200190815260200160002060010181905550600360009054906101000a900473ffffffffffffffffffffffffffffffffffffffff1673ffffffffffffffffffffffffffffffffffffffff166323b872dd3061067c6108b1565b600a6003600760008a8152602001908152602001600020600301546106a19190612b85565b6106ab9190612b54565b6040518463ffffffff1660e01b81526004016106c99392919061283e565b602060405180830381600087803b1580156106e357600080fd5b505af11580156106f7573d6000803e3d6000fd5b505050506040513d601f19601f8201168201806040525081019061071b91906124b6565b61074e577f4e487b7100000000000000000000000000000000000000000000000000000000600052600160045260246000fd5b6000600190508092505050919050565b61076661218c565b73ffffffffffffffffffffffffffffffffffffffff1660008054906101000a900473ffffffffffffffffffffffffffffffffffffffff1673ffffffffffffffffffffffffffffffffffffffff16146107f3576040517f08c379a00000000000000000000000000000000000000000000000000000000081526004016107ea9061292b565b60405180910390fd5b600073ffffffffffffffffffffffffffffffffffffffff1660008054906101000a900473ffffffffffffffffffffffffffffffffffffffff1673ffffffffffffffffffffffffffffffffffffffff167f8be0079c531659141344cd1fd0a4f28419497f9722a3daafe3b4186f6b6457e060405160405180910390a360008060006101000a81548173ffffffffffffffffffffffffffffffffffffffff021916908373ffffffffffffffffffffffffffffffffffffffff160217905550565b60008060009054906101000a900473ffffffffffffffffffffffffffffffffffffffff16905090565b3373ffffffffffffffffffffffffffffffffffffffff16600160009054906101000a900473ffffffffffffffffffffffffffffffffffffffff1673ffffffffffffffffffffffffffffffffffffffff161461096a576040517f08c379a000000000000000000000000000000000000000000000000000000000815260040161096190612a0b565b60405180910390fd5b60025442116109ae576040517f08c379a00000000000000000000000000000000000000000000000000000000081526004016109a5906129ab565b60405180910390fd5b600160009054906101000a900473ffffffffffffffffffffffffffffffffffffffff1673ffffffffffffffffffffffffffffffffffffffff1660008054906101000a900473ffffffffffffffffffffffffffffffffffffffff1673ffffffffffffffffffffffffffffffffffffffff167f8be0079c531659141344cd1fd0a4f28419497f9722a3daafe3b4186f6b6457e060405160405180910390a3600160009054906101000a900473ffffffffffffffffffffffffffffffffffffffff166000806101000a81548173ffffffffffffffffffffffffffffffffffffffff021916908373ffffffffffffffffffffffffffffffffffffffff160217905550565b6000600254905090565b610ac061218c565b73ffffffffffffffffffffffffffffffffffffffff1660008054906101000a900473ffffffffffffffffffffffffffffffffffffffff1673ffffffffffffffffffffffffffffffffffffffff1614610b4d576040517f08c379a0000000000000000000000000000000000000000000000000000000008152600401610b449061292b565b60405180910390fd5b6008600084815260200190815260200160002060009054906101000a900460ff1615610bae576040517f08c379a0000000000000000000000000000000000000000000000000000000008152600401610ba59061290b565b60405180910390fd5b6000600760008581526020019081526020016000206003015414610c07576040517f08c379a0000000000000000000000000000000000000000000000000000000008152600401610bfe9061296b565b60405180910390fd5b816007600085815260200190815260200160002060030181905550600360009054906101000a900473ffffffffffffffffffffffffffffffffffffffff1673ffffffffffffffffffffffffffffffffffffffff166323b872dd610c686108b1565b30856040518463ffffffff1660e01b8152600401610c889392919061283e565b602060405180830381600087803b158015610ca257600080fd5b505af1158015610cb6573d6000803e3d6000fd5b505050506040513d601f19601f82011682018060405250810190610cda91906124b6565b610d0d577f4e487b7100000000000000000000000000000000000000000000000000000000600052600160045260246000fd5b806007600085815260200190815260200160002060040181905550610d3183612194565b505050565b60066020528060005260406000206000915090505481565b60086020528060005260406000206000915054906101000a900460ff1681565b60056020528160005260406000208160068110610d8a57600080fd5b01600091509150505481565b610d9e61218c565b73ffffffffffffffffffffffffffffffffffffffff1660008054906101000a900473ffffffffffffffffffffffffffffffffffffffff1673ffffffffffffffffffffffffffffffffffffffff1614610e2b576040517f08c379a0000000000000000000000000000000000000000000000000000000008152600401610e229061292b565b60405180910390fd5b600360009054906101000a900473ffffffffffffffffffffffffffffffffffffffff1673ffffffffffffffffffffffffffffffffffffffff166323b872dd30610e726108b1565b600360009054906101000a900473ffffffffffffffffffffffffffffffffffffffff1673ffffffffffffffffffffffffffffffffffffffff166370a08231306040518263ffffffff1660e01b8152600401610ecd9190612823565b60206040518083038186803b158015610ee557600080fd5b505afa158015610ef9573d6000803e3d6000fd5b505050506040513d601f19601f82011682018060405250810190610f1d9190612531565b6040518463ffffffff1660e01b8152600401610f3b9392919061283e565b602060405180830381600087803b158015610f5557600080fd5b505af1158015610f69573d6000803e3d6000fd5b505050506040513d601f19601f82011682018060405250810190610f8d91906124b6565b610fc0577f4e487b7100000000000000000000000000000000000000000000000000000000600052600160045260246000fd5b565b610fca61218c565b73ffffffffffffffffffffffffffffffffffffffff1660008054906101000a900473ffffffffffffffffffffffffffffffffffffffff1673ffffffffffffffffffffffffffffffffffffffff1614611057576040517f08c379a000000000000000000000000000000000000000000000000000000000815260040161104e9061292b565b60405180910390fd5b60008054906101000a900473ffffffffffffffffffffffffffffffffffffffff16600160006101000a81548173ffffffffffffffffffffffffffffffffffffffff021916908373ffffffffffffffffffffffffffffffffffffffff16021790555060008060006101000a81548173ffffffffffffffffffffffffffffffffffffffff021916908373ffffffffffffffffffffffffffffffffffffffff16021790555080426111059190612afe565b600281905550600073ffffffffffffffffffffffffffffffffffffffff1660008054906101000a900473ffffffffffffffffffffffffffffffffffffffff1673ffffffffffffffffffffffffffffffffffffffff167f8be0079c531659141344cd1fd0a4f28419497f9722a3daafe3b4186f6b6457e060405160405180910390a350565b61119161218c565b73ffffffffffffffffffffffffffffffffffffffff1660008054906101000a900473ffffffffffffffffffffffffffffffffffffffff1673ffffffffffffffffffffffffffffffffffffffff161461121e576040517f08c379a00000000000000000000000000000000000000000000000000000000081526004016112159061292b565b60405180910390fd5b600073ffffffffffffffffffffffffffffffffffffffff168173ffffffffffffffffffffffffffffffffffffffff16141561128e576040517f08c379a0000000000000000000000000000000000000000000000000000000008152600401611285906128ab565b60405180910390fd5b8073ffffffffffffffffffffffffffffffffffffffff1660008054906101000a900473ffffffffffffffffffffffffffffffffffffffff1673ffffffffffffffffffffffffffffffffffffffff167f8be0079c531659141344cd1fd0a4f28419497f9722a3daafe3b4186f6b6457e060405160405180910390a3806000806101000a81548173ffffffffffffffffffffffffffffffffffffffff021916908373ffffffffffffffffffffffffffffffffffffffff16021790555050565b600080600660008681526020019081526020016000205414156113a3576040517f08c379a000000000000000000000000000000000000000000000000000000000815260040161139a9061294b565b60405180910390fd5b60006113ad6108b1565b73ffffffffffffffffffffffffffffffffffffffff1663261dc98986856040518363ffffffff1660e01b81526004016113e7929190612a46565b60206040518083038186803b1580156113ff57600080fd5b505afa158015611413573d6000803e3d6000fd5b505050506040513d601f19601f820116820180604052508101906114379190612531565b905060006114436108b1565b73ffffffffffffffffffffffffffffffffffffffff16636209a58b87866040518363ffffffff1660e01b815260040161147d929190612a46565b60206040518083038186803b15801561149557600080fd5b505afa1580156114a9573d6000803e3d6000fd5b505050506040513d601f19601f820116820180604052508101906114cd9190612531565b90508185101580156114ea575080826114e69190612afe565b8511155b611529576040517f08c379a00000000000000000000000000000000000000000000000000000000081526004016115209061298b565b60405180910390fd5b60006007600088815260200190815260200160002060080160008781526020019081526020016000205414611593576040517f08c379a000000000000000000000000000000000000000000000000000000000815260040161158a906128eb565b60405180910390fd5b60006007600088815260200190815260200160002060040154905060006002826115bd9190612c87565b14156115d25780806115ce90612c3e565b9150505b60008187600660008b8152602001908152602001600020546115f49190612afe565b6115fe9190612c87565b90506000828261160e9190612b54565b6103e861161b9190612b85565b905080600760008b815260200190815260200160002060080160008a8152602001908152602001600020819055506001811015611819576001600560008b81526020019081526020016000206000600681106116a0577f4e487b7100000000000000000000000000000000000000000000000000000000600052603260045260246000fd5b01541015611814576000600a6002600760008d8152602001908152602001600020600301546116cf9190612b85565b6116d99190612b54565b90506001600560008c8152602001908152602001600020600060068110611729577f4e487b7100000000000000000000000000000000000000000000000000000000600052603260045260246000fd5b0181905550600360009054906101000a900473ffffffffffffffffffffffffffffffffffffffff1673ffffffffffffffffffffffffffffffffffffffff166323b872dd308a846040518463ffffffff1660e01b815260040161178d9392919061283e565b602060405180830381600087803b1580156117a757600080fd5b505af11580156117bb573d6000803e3d6000fd5b505050506040513d601f19601f820116820180604052508101906117df91906124b6565b611812577f4e487b7100000000000000000000000000000000000000000000000000000000600052600160045260246000fd5b505b61217d565b60028110156119f9576002600560008b8152602001908152602001600020600160068110611870577f4e487b7100000000000000000000000000000000000000000000000000000000600052603260045260246000fd5b015410156119f457600060646005600760008d81526020019081526020016000206003015461189f9190612b85565b6118a99190612b54565b9050600560008b81526020019081526020016000206001600681106118f7577f4e487b7100000000000000000000000000000000000000000000000000000000600052603260045260246000fd5b01600081548092919061190990612c3e565b9190505550600360009054906101000a900473ffffffffffffffffffffffffffffffffffffffff1673ffffffffffffffffffffffffffffffffffffffff166323b872dd308a846040518463ffffffff1660e01b815260040161196d9392919061283e565b602060405180830381600087803b15801561198757600080fd5b505af115801561199b573d6000803e3d6000fd5b505050506040513d601f19601f820116820180604052508101906119bf91906124b6565b6119f2577f4e487b7100000000000000000000000000000000000000000000000000000000600052600160045260246000fd5b505b61217c565b600a811015611bd957600a600560008b8152602001908152602001600020600260068110611a50577f4e487b7100000000000000000000000000000000000000000000000000000000600052603260045260246000fd5b01541015611bd457600060646001600760008d815260200190815260200160002060030154611a7f9190612b85565b611a899190612b54565b9050600560008b8152602001908152602001600020600260068110611ad7577f4e487b7100000000000000000000000000000000000000000000000000000000600052603260045260246000fd5b016000815480929190611ae990612c3e565b9190505550600360009054906101000a900473ffffffffffffffffffffffffffffffffffffffff1673ffffffffffffffffffffffffffffffffffffffff166323b872dd308a846040518463ffffffff1660e01b8152600401611b4d9392919061283e565b602060405180830381600087803b158015611b6757600080fd5b505af1158015611b7b573d6000803e3d6000fd5b505050506040513d601f19601f82011682018060405250810190611b9f91906124b6565b611bd2577f4e487b7100000000000000000000000000000000000000000000000000000000600052600160045260246000fd5b505b61217b565b6014811015611dba576014600560008b8152602001908152602001600020600360068110611c30577f4e487b7100000000000000000000000000000000000000000000000000000000600052603260045260246000fd5b01541015611db55760006103e86005600760008d815260200190815260200160002060030154611c609190612b85565b611c6a9190612b54565b9050600560008b8152602001908152602001600020600360068110611cb8577f4e487b7100000000000000000000000000000000000000000000000000000000600052603260045260246000fd5b016000815480929190611cca90612c3e565b9190505550600360009054906101000a900473ffffffffffffffffffffffffffffffffffffffff1673ffffffffffffffffffffffffffffffffffffffff166323b872dd308a846040518463ffffffff1660e01b8152600401611d2e9392919061283e565b602060405180830381600087803b158015611d4857600080fd5b505af1158015611d5c573d6000803e3d6000fd5b505050506040513d601f19601f82011682018060405250810190611d8091906124b6565b611db3577f4e487b7100000000000000000000000000000000000000000000000000000000600052600160045260246000fd5b505b61217a565b6032811015611f9b576032600560008b8152602001908152602001600020600460068110611e11577f4e487b7100000000000000000000000000000000000000000000000000000000600052603260045260246000fd5b01541015611f965760006103e86002600760008d815260200190815260200160002060030154611e419190612b85565b611e4b9190612b54565b9050600560008b8152602001908152602001600020600460068110611e99577f4e487b7100000000000000000000000000000000000000000000000000000000600052603260045260246000fd5b016000815480929190611eab90612c3e565b9190505550600360009054906101000a900473ffffffffffffffffffffffffffffffffffffffff1673ffffffffffffffffffffffffffffffffffffffff166323b872dd308a846040518463ffffffff1660e01b8152600401611f0f9392919061283e565b602060405180830381600087803b158015611f2957600080fd5b505af1158015611f3d573d6000803e3d6000fd5b505050506040513d601f19601f82011682018060405250810190611f6191906124b6565b611f94577f4e487b7100000000000000000000000000000000000000000000000000000000600052600160045260246000fd5b505b612179565b6064811015612178576064600560008b8152602001908152602001600020600560068110611ff2577f4e487b7100000000000000000000000000000000000000000000000000000000600052603260045260246000fd5b015410156121775760006103e86001600760008d8152602001908152602001600020600301546120229190612b85565b61202c9190612b54565b9050600560008b815260200190815260200160002060056006811061207a577f4e487b7100000000000000000000000000000000000000000000000000000000600052603260045260246000fd5b01600081548092919061208c90612c3e565b9190505550600360009054906101000a900473ffffffffffffffffffffffffffffffffffffffff1673ffffffffffffffffffffffffffffffffffffffff166323b872dd308a846040518463ffffffff1660e01b81526004016120f09392919061283e565b602060405180830381600087803b15801561210a57600080fd5b505af115801561211e573d6000803e3d6000fd5b505050506040513d601f19601f8201168201806040525081019061214291906124b6565b612175577f4e487b7100000000000000000000000000000000000000000000000000000000600052600160045260246000fd5b505b5b5b5b5b5b5b81955050505050509392505050565b600033905090565b60006007600083815260200190815260200160002060030154116121ed576040517f08c379a00000000000000000000000000000000000000000000000000000000081526004016121e4906128cb565b60405180910390fd5b6008600082815260200190815260200160002060009054906101000a900460ff161561224e576040517f08c379a00000000000000000000000000000000000000000000000000000000081526004016122459061290b565b60405180910390fd5b60016008600083815260200190815260200160002060006101000a81548160ff021916908315150217905550600460009054906101000a900473ffffffffffffffffffffffffffffffffffffffff1673ffffffffffffffffffffffffffffffffffffffff1663e0c862896040518163ffffffff1660e01b8152600401600060405180830381600087803b1580156122e457600080fd5b505af11580156122f8573d6000803e3d6000fd5b50505050600460009054906101000a900473ffffffffffffffffffffffffffffffffffffffff1673ffffffffffffffffffffffffffffffffffffffff1663e89e106a6040518163ffffffff1660e01b8152600401602060405180830381600087803b15801561236657600080fd5b505af115801561237a573d6000803e3d6000fd5b505050506040513d601f19601f8201168201806040525081019061239e91906124df565b6007600083815260200190815260200160002060060181905550436007600083815260200190815260200160002060000181905550807fbd51e5a352fab6e096017c2be9f26b900b8615c0353bc652a3f429c6e56c4e1260076000848152602001908152602001600020600601546040516124199190612890565b60405180910390a250565b60008135905061243381612f4e565b92915050565b60008151905061244881612f65565b92915050565b60008151905061245d81612f7c565b92915050565b60008135905061247281612f93565b92915050565b60008151905061248781612f93565b92915050565b60006020828403121561249f57600080fd5b60006124ad84828501612424565b91505092915050565b6000602082840312156124c857600080fd5b60006124d684828501612439565b91505092915050565b6000602082840312156124f157600080fd5b60006124ff8482850161244e565b91505092915050565b60006020828403121561251a57600080fd5b600061252884828501612463565b91505092915050565b60006020828403121561254357600080fd5b600061255184828501612478565b91505092915050565b6000806040838503121561256d57600080fd5b600061257b85828601612463565b925050602061258c85828601612463565b9150509250929050565b6000806000606084860312156125ab57600080fd5b60006125b986828701612463565b93505060206125ca86828701612463565b92505060406125db86828701612424565b9150509250925092565b6000806000606084860312156125fa57600080fd5b600061260886828701612463565b935050602061261986828701612463565b925050604061262a86828701612463565b9150509250925092565b61263d81612bdf565b82525050565b61264c81612bf1565b82525050565b61265b81612bfd565b82525050565b600061266e602683612aed565b915061267982612d16565b604082019050919050565b6000612691601583612aed565b915061269c82612d65565b602082019050919050565b60006126b4601583612aed565b91506126bf82612d8e565b602082019050919050565b60006126d7601583612aed565b91506126e282612db7565b602082019050919050565b60006126fa602083612aed565b915061270582612de0565b602082019050919050565b600061271d601283612aed565b915061272882612e09565b602082019050919050565b6000612740600e83612aed565b915061274b82612e32565b602082019050919050565b6000612763600e83612aed565b915061276e82612e5b565b602082019050919050565b6000612786601f83612aed565b915061279182612e84565b602082019050919050565b60006127a9601383612aed565b91506127b482612ead565b602082019050919050565b60006127cc601383612aed565b91506127d782612ed6565b602082019050919050565b60006127ef602383612aed565b91506127fa82612eff565b604082019050919050565b61280e81612c27565b82525050565b61281d81612c31565b82525050565b60006020820190506128386000830184612634565b92915050565b60006060820190506128536000830186612634565b6128606020830185612634565b61286d6040830184612805565b949350505050565b600060208201905061288a6000830184612643565b92915050565b60006020820190506128a56000830184612652565b92915050565b600060208201905081810360008301526128c481612661565b9050919050565b600060208201905081810360008301526128e481612684565b9050919050565b60006020820190508181036000830152612904816126a7565b9050919050565b60006020820190508181036000830152612924816126ca565b9050919050565b60006020820190508181036000830152612944816126ed565b9050919050565b6000602082019050818103600083015261296481612710565b9050919050565b6000602082019050818103600083015261298481612733565b9050919050565b600060208201905081810360008301526129a481612756565b9050919050565b600060208201905081810360008301526129c481612779565b9050919050565b600060208201905081810360008301526129e48161279c565b9050919050565b60006020820190508181036000830152612a04816127bf565b9050919050565b60006020820190508181036000830152612a24816127e2565b9050919050565b6000602082019050612a406000830184612805565b92915050565b6000604082019050612a5b6000830185612805565b612a686020830184612634565b9392505050565b600061010082019050612a85600083018b612805565b612a92602083018a612805565b612a9f6040830189612805565b612aac6060830188612805565b612ab96080830187612805565b612ac660a0830186612805565b612ad360c0830185612652565b612ae060e0830184612814565b9998505050505050505050565b600082825260208201905092915050565b6000612b0982612c27565b9150612b1483612c27565b9250827fffffffffffffffffffffffffffffffffffffffffffffffffffffffffffffffff03821115612b4957612b48612cb8565b5b828201905092915050565b6000612b5f82612c27565b9150612b6a83612c27565b925082612b7a57612b79612ce7565b5b828204905092915050565b6000612b9082612c27565b9150612b9b83612c27565b9250817fffffffffffffffffffffffffffffffffffffffffffffffffffffffffffffffff0483118215151615612bd457612bd3612cb8565b5b828202905092915050565b6000612bea82612c07565b9050919050565b60008115159050919050565b6000819050919050565b600073ffffffffffffffffffffffffffffffffffffffff82169050919050565b6000819050919050565b600060ff82169050919050565b6000612c4982612c27565b91507fffffffffffffffffffffffffffffffffffffffffffffffffffffffffffffffff821415612c7c57612c7b612cb8565b5b600182019050919050565b6000612c9282612c27565b9150612c9d83612c27565b925082612cad57612cac612ce7565b5b828206905092915050565b7f4e487b7100000000000000000000000000000000000000000000000000000000600052601160045260246000fd5b7f4e487b7100000000000000000000000000000000000000000000000000000000600052601260045260246000fd5b7f4f776e61626c653a206e6577206f776e657220697320746865207a65726f206160008201527f6464726573730000000000000000000000000000000000000000000000000000602082015250565b7f50524f504f53414c5f444f45534e545f45584953540000000000000000000000600082015250565b7f524553554c545f414c52454144595f4558495354530000000000000000000000600082015250565b7f52414e444f4d5f524551554553545f4558495354530000000000000000000000600082015250565b7f4f776e61626c653a2063616c6c6572206973206e6f7420746865206f776e6572600082015250565b7f524553554c545f49535f4e4f545f444f4e450000000000000000000000000000600082015250565b7f50524f504f53414c5f4558495354000000000000000000000000000000000000600082015250565b7f4e4f545f564f54455f4f574e4552000000000000000000000000000000000000600082015250565b7f436f6e7472616374206973206c6f636b656420756e74696c2037206461797300600082015250565b7f524551554553545f4e4f545f43555252454e5400000000000000000000000000600082015250565b7f524553554c545f414c52454144595f444f4e4500000000000000000000000000600082015250565b7f596f7520646f6e27742068617665207065726d697373696f6e20746f20756e6c60008201527f6f636b0000000000000000000000000000000000000000000000000000000000602082015250565b612f5781612bdf565b8114612f6257600080fd5b50565b612f6e81612bf1565b8114612f7957600080fd5b50565b612f8581612bfd565b8114612f9057600080fd5b50565b612f9c81612c27565b8114612fa757600080fd5b5056fea26469706673582212205ea63886cdaed71006d5f15dd818a08d4cc8bdfc0341814f7e73872d270c38e964736f6c63430008040033",
  "linkReferences": {},
  "deployedLinkReferences": {}
}