{
  "_format": "hh-sol-artifact-1",
  "contractName": "TheOpenFarmDAOsLotto",
  "sourceName": "contracts/FarmDAOsLotto.sol",
  "abi": [
    {
      "anonymous": false,
      "inputs": [
        {
          "indexed": true,
          "internalType": "uint256",
          "name": "_proposalIndex",
          "type": "uint256"
        },
        {
          "indexed": false,
          "internalType": "bytes32",
          "name": "requestId",
          "type": "bytes32"
        }
      ],
      "name": "NewRandomRequest",
      "type": "event"
    },
    {
      "anonymous": false,
      "inputs": [
        {
          "indexed": true,
          "internalType": "address",
          "name": "previousOwner",
          "type": "address"
        },
        {
          "indexed": true,
          "internalType": "address",
          "name": "newOwner",
          "type": "address"
        }
      ],
      "name": "OwnershipTransferred",
      "type": "event"
    },
    {
      "inputs": [
        {
          "internalType": "uint256",
          "name": "_proposalIndex",
          "type": "uint256"
        },
        {
          "internalType": "uint256",
          "name": "_votePos",
          "type": "uint256"
        },
        {
          "internalType": "address",
          "name": "_voter",
          "type": "address"
        }
      ],
      "name": "_getVoteResult",
      "outputs": [
        {
          "internalType": "uint256",
          "name": "",
          "type": "uint256"
        }
      ],
      "stateMutability": "nonpayable",
      "type": "function"
    },
    {
      "inputs": [],
      "name": "emergencyWithdraw",
      "outputs": [],
      "stateMutability": "nonpayable",
      "type": "function"
    },
    {
      "inputs": [
        {
          "internalType": "uint256",
          "name": "",
          "type": "uint256"
        }
      ],
      "name": "gameRounds",
      "outputs": [
        {
          "internalType": "uint256",
          "name": "randomRequestBlock",
          "type": "uint256"
        },
        {
          "internalType": "uint256",
          "name": "randomResult",
          "type": "uint256"
        },
        {
          "internalType": "uint256",
          "name": "randomResultBlock",
          "type": "uint256"
        },
        {
          "internalType": "uint256",
          "name": "lockedFunds",
          "type": "uint256"
        },
        {
          "internalType": "uint256",
          "name": "amountRaised",
          "type": "uint256"
        },
        {
          "internalType": "uint256",
          "name": "votes",
          "type": "uint256"
        },
        {
          "internalType": "bytes32",
          "name": "randomRequestId",
          "type": "bytes32"
        },
        {
          "internalType": "uint8",
          "name": "lastResult",
          "type": "uint8"
        }
      ],
      "stateMutability": "view",
      "type": "function"
    },
    {
      "inputs": [],
      "name": "geUnlockTime",
      "outputs": [
        {
          "internalType": "uint256",
          "name": "",
          "type": "uint256"
        }
      ],
      "stateMutability": "view",
      "type": "function"
    },
    {
      "inputs": [
        {
          "internalType": "uint256",
          "name": "_proposalIndex",
          "type": "uint256"
        },
        {
          "internalType": "uint256",
          "name": "_votePos",
          "type": "uint256"
        }
      ],
      "name": "getVoteRedeemd",
      "outputs": [
        {
          "internalType": "uint256",
          "name": "",
          "type": "uint256"
        }
      ],
      "stateMutability": "view",
      "type": "function"
    },
    {
      "inputs": [
        {
          "internalType": "uint256",
          "name": "_proposalIndex",
          "type": "uint256"
        },
        {
          "internalType": "uint256",
          "name": "_votePos",
          "type": "uint256"
        },
        {
          "internalType": "address",
          "name": "_voter",
          "type": "address"
        }
      ],
      "name": "getVoteResult",
      "outputs": [
        {
          "internalType": "uint256",
          "name": "",
          "type": "uint256"
        }
      ],
      "stateMutability": "nonpayable",
      "type": "function"
    },
    {
      "inputs": [
        {
          "internalType": "uint256",
          "name": "_proposalIndex",
          "type": "uint256"
        },
        {
          "internalType": "uint256",
          "name": "_votePos",
          "type": "uint256"
        }
      ],
      "name": "getVoteScratchedNumber",
      "outputs": [
        {
          "internalType": "uint256",
          "name": "",
          "type": "uint256"
        }
      ],
      "stateMutability": "view",
      "type": "function"
    },
    {
      "inputs": [
        {
          "internalType": "uint256",
          "name": "_proposalIndex",
          "type": "uint256"
        },
        {
          "internalType": "uint256",
          "name": "_votePos",
          "type": "uint256"
        }
      ],
      "name": "getWonAmount",
      "outputs": [
        {
          "internalType": "uint256",
          "name": "",
          "type": "uint256"
        }
      ],
      "stateMutability": "view",
      "type": "function"
    },
    {
      "inputs": [
        {
          "internalType": "uint256",
          "name": "",
          "type": "uint256"
        }
      ],
      "name": "hasRequestedRandom",
      "outputs": [
        {
          "internalType": "bool",
          "name": "",
          "type": "bool"
        }
      ],
      "stateMutability": "view",
      "type": "function"
    },
    {
      "inputs": [
        {
          "internalType": "uint256",
          "name": "time",
          "type": "uint256"
        }
      ],
      "name": "lock",
      "outputs": [],
      "stateMutability": "nonpayable",
      "type": "function"
    },
    {
      "inputs": [
        {
          "internalType": "uint256",
          "name": "_proposalIndex",
          "type": "uint256"
        },
        {
          "internalType": "uint256",
          "name": "_amount",
          "type": "uint256"
        },
        {
          "internalType": "uint256",
          "name": "_votes",
          "type": "uint256"
        }
      ],
      "name": "newRound",
      "outputs": [],
      "stateMutability": "nonpayable",
      "type": "function"
    },
    {
      "inputs": [],
      "name": "owner",
      "outputs": [
        {
          "internalType": "address",
          "name": "",
          "type": "address"
        }
      ],
      "stateMutability": "view",
      "type": "function"
    },
    {
      "inputs": [
        {
          "internalType": "uint256",
          "name": "",
          "type": "uint256"
        }
      ],
      "name": "randomRequests",
      "outputs": [
        {
          "internalType": "uint256",
          "name": "",
          "type": "uint256"
        }
      ],
      "stateMutability": "view",
      "type": "function"
    },
    {
      "inputs": [
        {
          "internalType": "uint256",
          "name": "",
          "type": "uint256"
        },
        {
          "internalType": "uint256",
          "name": "",
          "type": "uint256"
        }
      ],
      "name": "redeemHistory",
      "outputs": [
        {
          "internalType": "uint256",
          "name": "",
          "type": "uint256"
        }
      ],
      "stateMutability": "view",
      "type": "function"
    },
    {
      "inputs": [],
      "name": "renounceOwnership",
      "outputs": [],
      "stateMutability": "nonpayable",
      "type": "function"
    },
    {
      "inputs": [
        {
          "internalType": "uint256",
          "name": "_proposalIndex",
          "type": "uint256"
        }
      ],
      "name": "requestResolveRound",
      "outputs": [],
      "stateMutability": "nonpayable",
      "type": "function"
    },
    {
      "inputs": [
        {
          "internalType": "uint256",
          "name": "_proposalIndex",
          "type": "uint256"
        }
      ],
      "name": "resolveBet",
      "outputs": [
        {
          "internalType": "bool",
          "name": "",
          "type": "bool"
        }
      ],
      "stateMutability": "nonpayable",
      "type": "function"
    },
    {
      "inputs": [
        {
          "internalType": "address",
          "name": "newOwner",
          "type": "address"
        }
      ],
      "name": "transferOwnership",
      "outputs": [],
      "stateMutability": "nonpayable",
      "type": "function"
    },
    {
      "inputs": [],
      "name": "unlock",
      "outputs": [],
      "stateMutability": "nonpayable",
      "type": "function"
    },
    {
      "inputs": [
        {
          "internalType": "uint256",
          "name": "_proposalIndex",
          "type": "uint256"
        },
        {
          "internalType": "uint256",
          "name": "_voteIndex",
          "type": "uint256"
        },
        {
          "internalType": "address",
          "name": "_voter",
          "type": "address"
        },
        {
          "internalType": "uint256",
          "name": "_voteDistance",
          "type": "uint256"
        }
      ],
      "name": "withdrawAll",
      "outputs": [
        {
          "internalType": "uint256",
          "name": "",
          "type": "uint256"
        }
      ],
      "stateMutability": "nonpayable",
      "type": "function"
    },
    {
      "inputs": [
        {
          "internalType": "uint256",
          "name": "_proposalIndex",
          "type": "uint256"
        },
        {
          "internalType": "uint256",
          "name": "_votePos",
          "type": "uint256"
        },
        {
          "internalType": "address",
          "name": "_voter",
          "type": "address"
        }
      ],
      "name": "withdrawAmount",
      "outputs": [
        {
          "internalType": "uint256",
          "name": "",
          "type": "uint256"
        }
      ],
      "stateMutability": "nonpayable",
      "type": "function"
    }
  ],
  "bytecode": "0x6080604052738f3cf7ad23cd3cadbd9735aff958023239c6a063600360006101000a81548173ffffffffffffffffffffffffffffffffffffffff021916908373ffffffffffffffffffffffffffffffffffffffff160217905550734c5f09d239e11896ed4b21e5beba0de9d777eebd600460006101000a81548173ffffffffffffffffffffffffffffffffffffffff021916908373ffffffffffffffffffffffffffffffffffffffff160217905550348015620000bb57600080fd5b506000620000ce6200017260201b60201c565b9050806000806101000a81548173ffffffffffffffffffffffffffffffffffffffff021916908373ffffffffffffffffffffffffffffffffffffffff1602179055508073ffffffffffffffffffffffffffffffffffffffff16600073ffffffffffffffffffffffffffffffffffffffff167f8be0079c531659141344cd1fd0a4f28419497f9722a3daafe3b4186f6b6457e060405160405180910390a3506200017a565b600033905090565b613db9806200018a6000396000f3fe608060405234801561001057600080fd5b50600436106101365760003560e01c80638da5cb5b116100b8578063ca067ad01161007c578063ca067ad01461037a578063d212dcea146103aa578063db2e21bc146103da578063dd467064146103e4578063f2fde38b14610400578063f84e6d911461041c57610136565b80638da5cb5b146102fc578063a69df4b51461031a578063b6c5232414610324578063c36aea4714610342578063c71bf91a1461035e57610136565b80634c36c36e116100ff5780634c36c36e146102325780635fafaf0614610262578063673efa69146102925780636abbee82146102c2578063715018a6146102f257610136565b806219e6371461013b578063122197cc1461016b5780631398b3cb1461019b57806325f3c1bd146101cb5780632ecdc14f14610202575b600080fd5b61015560048036038101906101509190613078565b61044c565b6040516101629190613725565b60405180910390f35b61018560048036038101906101809190613078565b61047e565b6040516101929190613725565b60405180910390f35b6101b560048036038101906101b09190613103565b6104b0565b6040516101c29190613725565b60405180910390f35b6101e560048036038101906101e09190613026565b610910565b6040516101f9989796959493929190613769565b60405180910390f35b61021c600480360381019061021791906130b4565b610965565b6040516102299190613725565b60405180910390f35b61024c60048036038101906102479190613026565b610cc3565b60405161025991906134b4565b60405180910390f35b61027c60048036038101906102779190613078565b61101d565b6040516102899190613725565b60405180910390f35b6102ac60048036038101906102a79190613078565b61104f565b6040516102b99190613725565b60405180910390f35b6102dc60048036038101906102d791906130b4565b611077565b6040516102e99190613725565b60405180910390f35b6102fa61187a565b005b6103046119cd565b6040516103119190613462565b60405180910390f35b6103226119f6565b005b61032c611bca565b6040516103399190613725565b60405180910390f35b61035c60048036038101906103579190613026565b611bd4565b005b61037860048036038101906103739190613166565b611e6a565b005b610394600480360381019061038f9190613026565b61203c565b6040516103a19190613725565b60405180910390f35b6103c460048036038101906103bf9190613026565b612054565b6040516103d191906134b4565b60405180910390f35b6103e2612074565b005b6103fe60048036038101906103f99190613026565b6122a0565b005b61041a60048036038101906104159190612fab565b612467565b005b610436600480360381019061043191906130b4565b612629565b6040516104439190613725565b60405180910390f35b600060076000848152602001908152602001600020600801600083815260200190815260200160002054905092915050565b600060076000848152602001908152602001600020600901600083815260200190815260200160002054905092915050565b6000806104bb6119cd565b73ffffffffffffffffffffffffffffffffffffffff1663261dc98987866040518363ffffffff1660e01b81526004016104f5929190613740565b60206040518083038186803b15801561050d57600080fd5b505afa158015610521573d6000803e3d6000fd5b505050506040513d601f19601f82011682018060405250810190610545919061304f565b905060006105516119cd565b73ffffffffffffffffffffffffffffffffffffffff16636209a58b88876040518363ffffffff1660e01b815260040161058b929190613740565b60206040518083038186803b1580156105a357600080fd5b505afa1580156105b7573d6000803e3d6000fd5b505050506040513d601f19601f820116820180604052508101906105db919061304f565b905080826105e991906137f8565b86111561062b576040517f08c379a0000000000000000000000000000000000000000000000000000000008152600401610622906136e5565b60405180910390fd5b6000841161066e576040517f08c379a000000000000000000000000000000000000000000000000000000000815260040161066590613605565b60405180910390fd5b808261067a91906137f8565b848761068691906137f8565b11156106c7576040517f08c379a00000000000000000000000000000000000000000000000000000000081526004016106be90613705565b60405180910390fd5b808410156106d3578390505b6000805b8281101561080c576000600760008b8152602001908152602001600020600a0160008a8461070591906137f8565b815260200190815260200160002054905060008114610759576040517f08c379a000000000000000000000000000000000000000000000000000000000815260040161075090613545565b60405180910390fd5b61076f8a8a8461076991906137f8565b8a612629565b506000600760008c8152602001908152602001600020600a0160008b8561079691906137f8565b815260200190815260200160002054905060018111156107f75780846107bc91906137f8565b93506001600760008d8152602001908152602001600020600a0160008c866107e491906137f8565b8152602001908152602001600020819055505b505080806108049061394a565b9150506106d7565b50600081111561090257600360009054906101000a900473ffffffffffffffffffffffffffffffffffffffff1673ffffffffffffffffffffffffffffffffffffffff166323b872dd61085c6119cd565b88846040518463ffffffff1660e01b815260040161087c9392919061347d565b602060405180830381600087803b15801561089657600080fd5b505af11580156108aa573d6000803e3d6000fd5b505050506040513d601f19601f820116820180604052508101906108ce9190612fd4565b610901577f4e487b7100000000000000000000000000000000000000000000000000000000600052600160045260246000fd5b5b809350505050949350505050565b60076020528060005260406000206000915090508060000154908060010154908060020154908060030154908060040154908060050154908060060154908060070160009054906101000a900460ff16905088565b6000806109706119cd565b73ffffffffffffffffffffffffffffffffffffffff1663261dc98986856040518363ffffffff1660e01b81526004016109aa929190613740565b60206040518083038186803b1580156109c257600080fd5b505afa1580156109d6573d6000803e3d6000fd5b505050506040513d601f19601f820116820180604052508101906109fa919061304f565b90506000610a066119cd565b73ffffffffffffffffffffffffffffffffffffffff16636209a58b87866040518363ffffffff1660e01b8152600401610a40929190613740565b60206040518083038186803b158015610a5857600080fd5b505afa158015610a6c573d6000803e3d6000fd5b505050506040513d601f19601f82011682018060405250810190610a90919061304f565b9050818510158015610aad57508082610aa991906137f8565b8511155b610aec576040517f08c379a0000000000000000000000000000000000000000000000000000000008152600401610ae390613645565b60405180910390fd5b600060076000888152602001908152602001600020600a01600087815260200190815260200160002054905060008111610b5b576040517f08c379a0000000000000000000000000000000000000000000000000000000008152600401610b5290613505565b60405180910390fd5b60018111610b9e576040517f08c379a0000000000000000000000000000000000000000000000000000000008152600401610b9590613545565b60405180910390fd5b600360009054906101000a900473ffffffffffffffffffffffffffffffffffffffff1673ffffffffffffffffffffffffffffffffffffffff166323b872dd610be46119cd565b87846040518463ffffffff1660e01b8152600401610c049392919061347d565b602060405180830381600087803b158015610c1e57600080fd5b505af1158015610c32573d6000803e3d6000fd5b505050506040513d601f19601f82011682018060405250810190610c569190612fd4565b610c89577f4e487b7100000000000000000000000000000000000000000000000000000000600052600160045260246000fd5b600160076000898152602001908152602001600020600a016000888152602001908152602001600020819055508093505050509392505050565b600080600760008481526020019081526020016000206004015411610d1d576040517f08c379a0000000000000000000000000000000000000000000000000000000008152600401610d1490613565565b60405180910390fd5b600060076000848152602001908152602001600020600601549050600460009054906101000a900473ffffffffffffffffffffffffffffffffffffffff1673ffffffffffffffffffffffffffffffffffffffff1663e89e106a6040518163ffffffff1660e01b8152600401602060405180830381600087803b158015610da257600080fd5b505af1158015610db6573d6000803e3d6000fd5b505050506040513d601f19601f82011682018060405250810190610dda9190612ffd565b8114610e1b576040517f08c379a0000000000000000000000000000000000000000000000000000000008152600401610e1290613685565b60405180910390fd5b6000600660008581526020019081526020016000205414610e71576040517f08c379a0000000000000000000000000000000000000000000000000000000008152600401610e68906136a5565b60405180910390fd5b436007600085815260200190815260200160002060020181905550600460009054906101000a900473ffffffffffffffffffffffffffffffffffffffff1673ffffffffffffffffffffffffffffffffffffffff1663db61e87b6040518163ffffffff1660e01b8152600401602060405180830381600087803b158015610ef657600080fd5b505af1158015610f0a573d6000803e3d6000fd5b505050506040513d601f19601f82011682018060405250810190610f2e919061304f565b6006600085815260200190815260200160002081905550600460009054906101000a900473ffffffffffffffffffffffffffffffffffffffff1673ffffffffffffffffffffffffffffffffffffffff1663f6eaffc860006040518263ffffffff1660e01b8152600401610fa191906134ea565b602060405180830381600087803b158015610fbb57600080fd5b505af1158015610fcf573d6000803e3d6000fd5b505050506040513d601f19601f82011682018060405250810190610ff3919061304f565b60076000858152602001908152602001600020600101819055506000600190508092505050919050565b600060076000848152602001908152602001600020600a01600083815260200190815260200160002054905092915050565b6005602052816000526040600020816006811061106b57600080fd5b01600091509150505481565b600080600660008681526020019081526020016000205414156110cf576040517f08c379a00000000000000000000000000000000000000000000000000000000081526004016110c6906135e5565b60405180910390fd5b60006110d96119cd565b73ffffffffffffffffffffffffffffffffffffffff1663261dc98986856040518363ffffffff1660e01b8152600401611113929190613740565b60206040518083038186803b15801561112b57600080fd5b505afa15801561113f573d6000803e3d6000fd5b505050506040513d601f19601f82011682018060405250810190611163919061304f565b9050600061116f6119cd565b73ffffffffffffffffffffffffffffffffffffffff16636209a58b87866040518363ffffffff1660e01b81526004016111a9929190613740565b60206040518083038186803b1580156111c157600080fd5b505afa1580156111d5573d6000803e3d6000fd5b505050506040513d601f19601f820116820180604052508101906111f9919061304f565b90508185101580156112165750808261121291906137f8565b8511155b611255576040517f08c379a000000000000000000000000000000000000000000000000000000000815260040161124c90613645565b60405180910390fd5b600060076000888152602001908152602001600020600801600087815260200190815260200160002054146112bf576040517f08c379a00000000000000000000000000000000000000000000000000000000081526004016112b690613585565b60405180910390fd5b60006007600088815260200190815260200160002060050154905060006002826112e99190613993565b14156112fe5780806112fa9061394a565b9150505b60008187600660008b815260200190815260200160002054611320919061387f565b61132a9190613993565b905060008288600660008c81526020019081526020016000205461134e919061387f565b6113589190613993565b9050600083826103e861136b919061387f565b611375919061384e565b905080600760008c815260200190815260200160002060080160008b81526020019081526020016000208190555082600760008c815260200190815260200160002060090160008b81526020019081526020016000208190555060018111611486576001600560008c8152602001908152602001600020600060068110611425577f4e487b7100000000000000000000000000000000000000000000000000000000600052603260045260246000fd5b01541015611481576001600560008c815260200190815260200160002060006006811061147b577f4e487b7100000000000000000000000000000000000000000000000000000000600052603260045260246000fd5b01819055505b61186a565b6002811161154d576002600560008c81526020019081526020016000206001600681106114dc577f4e487b7100000000000000000000000000000000000000000000000000000000600052603260045260246000fd5b0154101561154857600560008b8152602001908152602001600020600160068110611530577f4e487b7100000000000000000000000000000000000000000000000000000000600052603260045260246000fd5b0160008154809291906115429061394a565b91905055505b611869565b600a811161161457600a600560008c81526020019081526020016000206002600681106115a3577f4e487b7100000000000000000000000000000000000000000000000000000000600052603260045260246000fd5b0154101561160f57600560008b81526020019081526020016000206002600681106115f7577f4e487b7100000000000000000000000000000000000000000000000000000000600052603260045260246000fd5b0160008154809291906116099061394a565b91905055505b611868565b601481116116db576014600560008c815260200190815260200160002060036006811061166a577f4e487b7100000000000000000000000000000000000000000000000000000000600052603260045260246000fd5b015410156116d657600560008b81526020019081526020016000206003600681106116be577f4e487b7100000000000000000000000000000000000000000000000000000000600052603260045260246000fd5b0160008154809291906116d09061394a565b91905055505b611867565b603281116117a2576032600560008c8152602001908152602001600020600460068110611731577f4e487b7100000000000000000000000000000000000000000000000000000000600052603260045260246000fd5b0154101561179d57600560008b8152602001908152602001600020600460068110611785577f4e487b7100000000000000000000000000000000000000000000000000000000600052603260045260246000fd5b0160008154809291906117979061394a565b91905055505b611866565b60648111611865576064600560008c81526020019081526020016000206005600681106117f8577f4e487b7100000000000000000000000000000000000000000000000000000000600052603260045260246000fd5b0154101561186457600560008b815260200190815260200160002060056006811061184c577f4e487b7100000000000000000000000000000000000000000000000000000000600052603260045260246000fd5b01600081548092919061185e9061394a565b91905055505b5b5b5b5b5b5b8296505050505050509392505050565b611882612f3a565b73ffffffffffffffffffffffffffffffffffffffff1660008054906101000a900473ffffffffffffffffffffffffffffffffffffffff1673ffffffffffffffffffffffffffffffffffffffff161461190f576040517f08c379a0000000000000000000000000000000000000000000000000000000008152600401611906906135c5565b60405180910390fd5b600073ffffffffffffffffffffffffffffffffffffffff1660008054906101000a900473ffffffffffffffffffffffffffffffffffffffff1673ffffffffffffffffffffffffffffffffffffffff167f8be0079c531659141344cd1fd0a4f28419497f9722a3daafe3b4186f6b6457e060405160405180910390a360008060006101000a81548173ffffffffffffffffffffffffffffffffffffffff021916908373ffffffffffffffffffffffffffffffffffffffff160217905550565b60008060009054906101000a900473ffffffffffffffffffffffffffffffffffffffff16905090565b3373ffffffffffffffffffffffffffffffffffffffff16600160009054906101000a900473ffffffffffffffffffffffffffffffffffffffff1673ffffffffffffffffffffffffffffffffffffffff1614611a86576040517f08c379a0000000000000000000000000000000000000000000000000000000008152600401611a7d906136c5565b60405180910390fd5b6002544211611aca576040517f08c379a0000000000000000000000000000000000000000000000000000000008152600401611ac190613665565b60405180910390fd5b600160009054906101000a900473ffffffffffffffffffffffffffffffffffffffff1673ffffffffffffffffffffffffffffffffffffffff1660008054906101000a900473ffffffffffffffffffffffffffffffffffffffff1673ffffffffffffffffffffffffffffffffffffffff167f8be0079c531659141344cd1fd0a4f28419497f9722a3daafe3b4186f6b6457e060405160405180910390a3600160009054906101000a900473ffffffffffffffffffffffffffffffffffffffff166000806101000a81548173ffffffffffffffffffffffffffffffffffffffff021916908373ffffffffffffffffffffffffffffffffffffffff160217905550565b6000600254905090565b6000600760008381526020019081526020016000206004015411611c2d576040517f08c379a0000000000000000000000000000000000000000000000000000000008152600401611c2490613565565b60405180910390fd5b600015156008600083815260200190815260200160002060009054906101000a900460ff16151514611c94576040517f08c379a0000000000000000000000000000000000000000000000000000000008152600401611c8b906135a5565b60405180910390fd5b60016008600083815260200190815260200160002060006101000a81548160ff021916908315150217905550600460009054906101000a900473ffffffffffffffffffffffffffffffffffffffff1673ffffffffffffffffffffffffffffffffffffffff1663e0c862896040518163ffffffff1660e01b8152600401600060405180830381600087803b158015611d2a57600080fd5b505af1158015611d3e573d6000803e3d6000fd5b50505050600460009054906101000a900473ffffffffffffffffffffffffffffffffffffffff1673ffffffffffffffffffffffffffffffffffffffff1663e89e106a6040518163ffffffff1660e01b8152600401602060405180830381600087803b158015611dac57600080fd5b505af1158015611dc0573d6000803e3d6000fd5b505050506040513d601f19601f82011682018060405250810190611de49190612ffd565b6007600083815260200190815260200160002060060181905550436007600083815260200190815260200160002060000181905550807fbd51e5a352fab6e096017c2be9f26b900b8615c0353bc652a3f429c6e56c4e126007600084815260200190815260200160002060060154604051611e5f91906134cf565b60405180910390a250565b611e72612f3a565b73ffffffffffffffffffffffffffffffffffffffff1660008054906101000a900473ffffffffffffffffffffffffffffffffffffffff1673ffffffffffffffffffffffffffffffffffffffff1614611eff576040517f08c379a0000000000000000000000000000000000000000000000000000000008152600401611ef6906135c5565b60405180910390fd5b6008600084815260200190815260200160002060009054906101000a900460ff1615611f60576040517f08c379a0000000000000000000000000000000000000000000000000000000008152600401611f57906135a5565b60405180910390fd5b6000600760008581526020019081526020016000206004015414611fb9576040517f08c379a0000000000000000000000000000000000000000000000000000000008152600401611fb090613625565b60405180910390fd5b816007600085815260200190815260200160002060040181905550600a600780600086815260200190815260200160002060040154611ff8919061387f565b612002919061384e565b6007600085815260200190815260200160002060030181905550806007600085815260200190815260200160002060050181905550505050565b60066020528060005260406000206000915090505481565b60086020528060005260406000206000915054906101000a900460ff1681565b61207c612f3a565b73ffffffffffffffffffffffffffffffffffffffff1660008054906101000a900473ffffffffffffffffffffffffffffffffffffffff1673ffffffffffffffffffffffffffffffffffffffff1614612109576040517f08c379a0000000000000000000000000000000000000000000000000000000008152600401612100906135c5565b60405180910390fd5b600360009054906101000a900473ffffffffffffffffffffffffffffffffffffffff1673ffffffffffffffffffffffffffffffffffffffff166323b872dd306121506119cd565b600360009054906101000a900473ffffffffffffffffffffffffffffffffffffffff1673ffffffffffffffffffffffffffffffffffffffff166370a08231306040518263ffffffff1660e01b81526004016121ab9190613462565b60206040518083038186803b1580156121c357600080fd5b505afa1580156121d7573d6000803e3d6000fd5b505050506040513d601f19601f820116820180604052508101906121fb919061304f565b6040518463ffffffff1660e01b81526004016122199392919061347d565b602060405180830381600087803b15801561223357600080fd5b505af1158015612247573d6000803e3d6000fd5b505050506040513d601f19601f8201168201806040525081019061226b9190612fd4565b61229e577f4e487b7100000000000000000000000000000000000000000000000000000000600052600160045260246000fd5b565b6122a8612f3a565b73ffffffffffffffffffffffffffffffffffffffff1660008054906101000a900473ffffffffffffffffffffffffffffffffffffffff1673ffffffffffffffffffffffffffffffffffffffff1614612335576040517f08c379a000000000000000000000000000000000000000000000000000000000815260040161232c906135c5565b60405180910390fd5b60008054906101000a900473ffffffffffffffffffffffffffffffffffffffff16600160006101000a81548173ffffffffffffffffffffffffffffffffffffffff021916908373ffffffffffffffffffffffffffffffffffffffff16021790555060008060006101000a81548173ffffffffffffffffffffffffffffffffffffffff021916908373ffffffffffffffffffffffffffffffffffffffff16021790555080426123e391906137f8565b600281905550600073ffffffffffffffffffffffffffffffffffffffff1660008054906101000a900473ffffffffffffffffffffffffffffffffffffffff1673ffffffffffffffffffffffffffffffffffffffff167f8be0079c531659141344cd1fd0a4f28419497f9722a3daafe3b4186f6b6457e060405160405180910390a350565b61246f612f3a565b73ffffffffffffffffffffffffffffffffffffffff1660008054906101000a900473ffffffffffffffffffffffffffffffffffffffff1673ffffffffffffffffffffffffffffffffffffffff16146124fc576040517f08c379a00000000000000000000000000000000000000000000000000000000081526004016124f3906135c5565b60405180910390fd5b600073ffffffffffffffffffffffffffffffffffffffff168173ffffffffffffffffffffffffffffffffffffffff16141561256c576040517f08c379a000000000000000000000000000000000000000000000000000000000815260040161256390613525565b60405180910390fd5b8073ffffffffffffffffffffffffffffffffffffffff1660008054906101000a900473ffffffffffffffffffffffffffffffffffffffff1673ffffffffffffffffffffffffffffffffffffffff167f8be0079c531659141344cd1fd0a4f28419497f9722a3daafe3b4186f6b6457e060405160405180910390a3806000806101000a81548173ffffffffffffffffffffffffffffffffffffffff021916908373ffffffffffffffffffffffffffffffffffffffff16021790555050565b60008060066000868152602001908152602001600020541415612681576040517f08c379a0000000000000000000000000000000000000000000000000000000008152600401612678906135e5565b60405180910390fd5b600061268b6119cd565b73ffffffffffffffffffffffffffffffffffffffff1663261dc98986856040518363ffffffff1660e01b81526004016126c5929190613740565b60206040518083038186803b1580156126dd57600080fd5b505afa1580156126f1573d6000803e3d6000fd5b505050506040513d601f19601f82011682018060405250810190612715919061304f565b905060006127216119cd565b73ffffffffffffffffffffffffffffffffffffffff16636209a58b87866040518363ffffffff1660e01b815260040161275b929190613740565b60206040518083038186803b15801561277357600080fd5b505afa158015612787573d6000803e3d6000fd5b505050506040513d601f19601f820116820180604052508101906127ab919061304f565b90508185101580156127c8575080826127c491906137f8565b8511155b612807576040517f08c379a00000000000000000000000000000000000000000000000000000000081526004016127fe90613645565b60405180910390fd5b60006007600088815260200190815260200160002060080160008781526020019081526020016000205414612871576040517f08c379a000000000000000000000000000000000000000000000000000000000815260040161286890613585565b60405180910390fd5b6007600087815260200190815260200160002060050154856007600089815260200190815260200160002060050154600660008a8152602001908152602001600020546128be9190613993565b6128c8919061387f565b6128d29190613993565b60076000888152602001908152602001600020600801600087815260200190815260200160002081905550600060076000888152602001908152602001600020600501546103e8600760008a815260200190815260200160002060080160008981526020019081526020016000205461294b919061387f565b612955919061384e565b90508060076000898152602001908152602001600020600901600088815260200190815260200160002081905550600060028211612a99576001600560008a81526020019081526020016000206000600681106129db577f4e487b7100000000000000000000000000000000000000000000000000000000600052603260045260246000fd5b01541015612a9457600a6002600760008b815260200190815260200160002060040154612a08919061387f565b612a12919061384e565b90506001600560008a8152602001908152602001600020600060068110612a62577f4e487b7100000000000000000000000000000000000000000000000000000000600052603260045260246000fd5b018190555080600760008a8152602001908152602001600020600a016000898152602001908152602001600020819055505b612f2c565b600d8211612bbd57600a600560008a8152602001908152602001600020600260068110612aef577f4e487b7100000000000000000000000000000000000000000000000000000000600052603260045260246000fd5b01541015612bb85760646001600760008b815260200190815260200160002060040154612b1c919061387f565b612b26919061384e565b905060056000898152602001908152602001600020600260068110612b74577f4e487b7100000000000000000000000000000000000000000000000000000000600052603260045260246000fd5b016000815480929190612b869061394a565b919050555080600760008a8152602001908152602001600020600a016000898152602001908152602001600020819055505b612f2b565b60218211612ce2576014600560008a8152602001908152602001600020600360068110612c13577f4e487b7100000000000000000000000000000000000000000000000000000000600052603260045260246000fd5b01541015612cdd576103e86005600760008b815260200190815260200160002060040154612c41919061387f565b612c4b919061384e565b905060056000898152602001908152602001600020600360068110612c99577f4e487b7100000000000000000000000000000000000000000000000000000000600052603260045260246000fd5b016000815480929190612cab9061394a565b919050555080600760008a8152602001908152602001600020600a016000898152602001908152602001600020819055505b612f2a565b60538211612e07576032600560008a8152602001908152602001600020600460068110612d38577f4e487b7100000000000000000000000000000000000000000000000000000000600052603260045260246000fd5b01541015612e02576103e86002600760008b815260200190815260200160002060040154612d66919061387f565b612d70919061384e565b905060056000898152602001908152602001600020600460068110612dbe577f4e487b7100000000000000000000000000000000000000000000000000000000600052603260045260246000fd5b016000815480929190612dd09061394a565b919050555080600760008a8152602001908152602001600020600a016000898152602001908152602001600020819055505b612f29565b60b78211612f28576064600560008a8152602001908152602001600020600560068110612e5d577f4e487b7100000000000000000000000000000000000000000000000000000000600052603260045260246000fd5b01541015612f27576103e86001600760008b815260200190815260200160002060040154612e8b919061387f565b612e95919061384e565b905060056000898152602001908152602001600020600560068110612ee3577f4e487b7100000000000000000000000000000000000000000000000000000000600052603260045260246000fd5b016000815480929190612ef59061394a565b919050555080600760008a8152602001908152602001600020600a016000898152602001908152602001600020819055505b5b5b5b5b5b819450505050509392505050565b600033905090565b600081359050612f5181613d27565b92915050565b600081519050612f6681613d3e565b92915050565b600081519050612f7b81613d55565b92915050565b600081359050612f9081613d6c565b92915050565b600081519050612fa581613d6c565b92915050565b600060208284031215612fbd57600080fd5b6000612fcb84828501612f42565b91505092915050565b600060208284031215612fe657600080fd5b6000612ff484828501612f57565b91505092915050565b60006020828403121561300f57600080fd5b600061301d84828501612f6c565b91505092915050565b60006020828403121561303857600080fd5b600061304684828501612f81565b91505092915050565b60006020828403121561306157600080fd5b600061306f84828501612f96565b91505092915050565b6000806040838503121561308b57600080fd5b600061309985828601612f81565b92505060206130aa85828601612f81565b9150509250929050565b6000806000606084860312156130c957600080fd5b60006130d786828701612f81565b93505060206130e886828701612f81565b92505060406130f986828701612f42565b9150509250925092565b6000806000806080858703121561311957600080fd5b600061312787828801612f81565b945050602061313887828801612f81565b935050604061314987828801612f42565b925050606061315a87828801612f81565b91505092959194509250565b60008060006060848603121561317b57600080fd5b600061318986828701612f81565b935050602061319a86828701612f81565b92505060406131ab86828701612f81565b9150509250925092565b6131be816138d9565b82525050565b6131cd816138eb565b82525050565b6131dc816138f7565b82525050565b6131eb81613938565b82525050565b60006131fe600b836137e7565b915061320982613a22565b602082019050919050565b60006132216026836137e7565b915061322c82613a4b565b604082019050919050565b60006132446010836137e7565b915061324f82613a9a565b602082019050919050565b60006132676015836137e7565b915061327282613ac3565b602082019050919050565b600061328a6015836137e7565b915061329582613aec565b602082019050919050565b60006132ad6015836137e7565b91506132b882613b15565b602082019050919050565b60006132d06020836137e7565b91506132db82613b3e565b602082019050919050565b60006132f36012836137e7565b91506132fe82613b67565b602082019050919050565b6000613316600c836137e7565b915061332182613b90565b602082019050919050565b6000613339600e836137e7565b915061334482613bb9565b602082019050919050565b600061335c600e836137e7565b915061336782613be2565b602082019050919050565b600061337f601f836137e7565b915061338a82613c0b565b602082019050919050565b60006133a26013836137e7565b91506133ad82613c34565b602082019050919050565b60006133c56013836137e7565b91506133d082613c5d565b602082019050919050565b60006133e86023836137e7565b91506133f382613c86565b604082019050919050565b600061340b600f836137e7565b915061341682613cd5565b602082019050919050565b600061342e600f836137e7565b915061343982613cfe565b602082019050919050565b61344d81613921565b82525050565b61345c8161392b565b82525050565b600060208201905061347760008301846131b5565b92915050565b600060608201905061349260008301866131b5565b61349f60208301856131b5565b6134ac6040830184613444565b949350505050565b60006020820190506134c960008301846131c4565b92915050565b60006020820190506134e460008301846131d3565b92915050565b60006020820190506134ff60008301846131e2565b92915050565b6000602082019050818103600083015261351e816131f1565b9050919050565b6000602082019050818103600083015261353e81613214565b9050919050565b6000602082019050818103600083015261355e81613237565b9050919050565b6000602082019050818103600083015261357e8161325a565b9050919050565b6000602082019050818103600083015261359e8161327d565b9050919050565b600060208201905081810360008301526135be816132a0565b9050919050565b600060208201905081810360008301526135de816132c3565b9050919050565b600060208201905081810360008301526135fe816132e6565b9050919050565b6000602082019050818103600083015261361e81613309565b9050919050565b6000602082019050818103600083015261363e8161332c565b9050919050565b6000602082019050818103600083015261365e8161334f565b9050919050565b6000602082019050818103600083015261367e81613372565b9050919050565b6000602082019050818103600083015261369e81613395565b9050919050565b600060208201905081810360008301526136be816133b8565b9050919050565b600060208201905081810360008301526136de816133db565b9050919050565b600060208201905081810360008301526136fe816133fe565b9050919050565b6000602082019050818103600083015261371e81613421565b9050919050565b600060208201905061373a6000830184613444565b92915050565b60006040820190506137556000830185613444565b61376260208301846131b5565b9392505050565b60006101008201905061377f600083018b613444565b61378c602083018a613444565b6137996040830189613444565b6137a66060830188613444565b6137b36080830187613444565b6137c060a0830186613444565b6137cd60c08301856131d3565b6137da60e0830184613453565b9998505050505050505050565b600082825260208201905092915050565b600061380382613921565b915061380e83613921565b9250827fffffffffffffffffffffffffffffffffffffffffffffffffffffffffffffffff03821115613843576138426139c4565b5b828201905092915050565b600061385982613921565b915061386483613921565b925082613874576138736139f3565b5b828204905092915050565b600061388a82613921565b915061389583613921565b9250817fffffffffffffffffffffffffffffffffffffffffffffffffffffffffffffffff04831182151516156138ce576138cd6139c4565b5b828202905092915050565b60006138e482613901565b9050919050565b60008115159050919050565b6000819050919050565b600073ffffffffffffffffffffffffffffffffffffffff82169050919050565b6000819050919050565b600060ff82169050919050565b600061394382613921565b9050919050565b600061395582613921565b91507fffffffffffffffffffffffffffffffffffffffffffffffffffffffffffffffff821415613988576139876139c4565b5b600182019050919050565b600061399e82613921565b91506139a983613921565b9250826139b9576139b86139f3565b5b828206905092915050565b7f4e487b7100000000000000000000000000000000000000000000000000000000600052601160045260246000fd5b7f4e487b7100000000000000000000000000000000000000000000000000000000600052601260045260246000fd5b7f494e56414c49445f57494e000000000000000000000000000000000000000000600082015250565b7f4f776e61626c653a206e6577206f776e657220697320746865207a65726f206160008201527f6464726573730000000000000000000000000000000000000000000000000000602082015250565b7f414c52454144595f52454445454d454400000000000000000000000000000000600082015250565b7f50524f504f53414c5f444f45534e545f45584953540000000000000000000000600082015250565b7f524553554c545f414c52454144595f4558495354530000000000000000000000600082015250565b7f52414e444f4d5f524551554553545f4558495354530000000000000000000000600082015250565b7f4f776e61626c653a2063616c6c6572206973206e6f7420746865206f776e6572600082015250565b7f524553554c545f49535f4e4f545f444f4e450000000000000000000000000000600082015250565b7f4d494e5f44495354414e43450000000000000000000000000000000000000000600082015250565b7f50524f504f53414c5f4558495354000000000000000000000000000000000000600082015250565b7f4e4f545f564f54455f4f574e4552000000000000000000000000000000000000600082015250565b7f436f6e7472616374206973206c6f636b656420756e74696c2037206461797300600082015250565b7f524551554553545f4e4f545f43555252454e5400000000000000000000000000600082015250565b7f524553554c545f414c52454144595f444f4e4500000000000000000000000000600082015250565b7f596f7520646f6e27742068617665207065726d697373696f6e20746f20756e6c60008201527f6f636b0000000000000000000000000000000000000000000000000000000000602082015250565b7f4e4f545f56414c49445f494e4445580000000000000000000000000000000000600082015250565b7f4f55545f4f465f424f554e444152590000000000000000000000000000000000600082015250565b613d30816138d9565b8114613d3b57600080fd5b50565b613d47816138eb565b8114613d5257600080fd5b50565b613d5e816138f7565b8114613d6957600080fd5b50565b613d7581613921565b8114613d8057600080fd5b5056fea2646970667358221220b6a4a3c0c7221f1f79eb0f3c8fc3068833c278247c276ba4cc110ae8a4d24f1664736f6c63430008040033",
  "linkReferences": {},
  "deployedLinkReferences": {}
}