{
  "_format": "hh-sol-artifact-1",
  "contractName": "TheOpenFarmDAOsLotto",
  "sourceName": "contracts/FarmDAOsLotto.sol",
  "abi": [
    {
      "anonymous": false,
      "inputs": [
        {
          "indexed": true,
          "internalType": "uint256",
          "name": "_proposalIndex",
          "type": "uint256"
        },
        {
          "indexed": false,
          "internalType": "bytes32",
          "name": "requestId",
          "type": "bytes32"
        }
      ],
      "name": "NewRandomRequest",
      "type": "event"
    },
    {
      "anonymous": false,
      "inputs": [
        {
          "indexed": true,
          "internalType": "address",
          "name": "previousOwner",
          "type": "address"
        },
        {
          "indexed": true,
          "internalType": "address",
          "name": "newOwner",
          "type": "address"
        }
      ],
      "name": "OwnershipTransferred",
      "type": "event"
    },
    {
      "inputs": [
        {
          "internalType": "uint256",
          "name": "_proposalIndex",
          "type": "uint256"
        },
        {
          "internalType": "uint256",
          "name": "_votePos",
          "type": "uint256"
        },
        {
          "internalType": "address",
          "name": "_voter",
          "type": "address"
        }
      ],
      "name": "_getVoteResult",
      "outputs": [
        {
          "internalType": "uint256",
          "name": "",
          "type": "uint256"
        }
      ],
      "stateMutability": "nonpayable",
      "type": "function"
    },
    {
      "inputs": [],
      "name": "emergencyWithdraw",
      "outputs": [],
      "stateMutability": "nonpayable",
      "type": "function"
    },
    {
      "inputs": [
        {
          "internalType": "uint256",
          "name": "",
          "type": "uint256"
        }
      ],
      "name": "gameRounds",
      "outputs": [
        {
          "internalType": "uint256",
          "name": "randomRequestBlock",
          "type": "uint256"
        },
        {
          "internalType": "uint256",
          "name": "randomResult",
          "type": "uint256"
        },
        {
          "internalType": "uint256",
          "name": "randomResultBlock",
          "type": "uint256"
        },
        {
          "internalType": "uint256",
          "name": "lockedFunds",
          "type": "uint256"
        },
        {
          "internalType": "uint256",
          "name": "amountRaised",
          "type": "uint256"
        },
        {
          "internalType": "uint256",
          "name": "votes",
          "type": "uint256"
        },
        {
          "internalType": "bytes32",
          "name": "randomRequestId",
          "type": "bytes32"
        },
        {
          "internalType": "uint8",
          "name": "lastResult",
          "type": "uint8"
        }
      ],
      "stateMutability": "view",
      "type": "function"
    },
    {
      "inputs": [],
      "name": "geUnlockTime",
      "outputs": [
        {
          "internalType": "uint256",
          "name": "",
          "type": "uint256"
        }
      ],
      "stateMutability": "view",
      "type": "function"
    },
    {
      "inputs": [
        {
          "internalType": "uint256",
          "name": "_proposalIndex",
          "type": "uint256"
        },
        {
          "internalType": "uint256",
          "name": "_votePos",
          "type": "uint256"
        }
      ],
      "name": "getVoteRedeemd",
      "outputs": [
        {
          "internalType": "uint256",
          "name": "",
          "type": "uint256"
        }
      ],
      "stateMutability": "view",
      "type": "function"
    },
    {
      "inputs": [
        {
          "internalType": "uint256",
          "name": "_proposalIndex",
          "type": "uint256"
        },
        {
          "internalType": "uint256",
          "name": "_votePos",
          "type": "uint256"
        },
        {
          "internalType": "address",
          "name": "_voter",
          "type": "address"
        }
      ],
      "name": "getVoteResult",
      "outputs": [
        {
          "internalType": "uint256",
          "name": "",
          "type": "uint256"
        }
      ],
      "stateMutability": "nonpayable",
      "type": "function"
    },
    {
      "inputs": [
        {
          "internalType": "uint256",
          "name": "_proposalIndex",
          "type": "uint256"
        },
        {
          "internalType": "uint256",
          "name": "_votePos",
          "type": "uint256"
        }
      ],
      "name": "getVoteScratchedNumber",
      "outputs": [
        {
          "internalType": "uint256",
          "name": "",
          "type": "uint256"
        }
      ],
      "stateMutability": "view",
      "type": "function"
    },
    {
      "inputs": [
        {
          "internalType": "uint256",
          "name": "_proposalIndex",
          "type": "uint256"
        },
        {
          "internalType": "uint256",
          "name": "_votePos",
          "type": "uint256"
        }
      ],
      "name": "getWonAmount",
      "outputs": [
        {
          "internalType": "uint256",
          "name": "",
          "type": "uint256"
        }
      ],
      "stateMutability": "view",
      "type": "function"
    },
    {
      "inputs": [
        {
          "internalType": "uint256",
          "name": "",
          "type": "uint256"
        }
      ],
      "name": "hasRequestedRandom",
      "outputs": [
        {
          "internalType": "bool",
          "name": "",
          "type": "bool"
        }
      ],
      "stateMutability": "view",
      "type": "function"
    },
    {
      "inputs": [
        {
          "internalType": "uint256",
          "name": "time",
          "type": "uint256"
        }
      ],
      "name": "lock",
      "outputs": [],
      "stateMutability": "nonpayable",
      "type": "function"
    },
    {
      "inputs": [
        {
          "internalType": "uint256",
          "name": "_proposalIndex",
          "type": "uint256"
        },
        {
          "internalType": "uint256",
          "name": "_amount",
          "type": "uint256"
        },
        {
          "internalType": "uint256",
          "name": "_votes",
          "type": "uint256"
        }
      ],
      "name": "newRound",
      "outputs": [],
      "stateMutability": "nonpayable",
      "type": "function"
    },
    {
      "inputs": [],
      "name": "owner",
      "outputs": [
        {
          "internalType": "address",
          "name": "",
          "type": "address"
        }
      ],
      "stateMutability": "view",
      "type": "function"
    },
    {
      "inputs": [
        {
          "internalType": "uint256",
          "name": "",
          "type": "uint256"
        }
      ],
      "name": "randomRequests",
      "outputs": [
        {
          "internalType": "uint256",
          "name": "",
          "type": "uint256"
        }
      ],
      "stateMutability": "view",
      "type": "function"
    },
    {
      "inputs": [
        {
          "internalType": "uint256",
          "name": "",
          "type": "uint256"
        },
        {
          "internalType": "uint256",
          "name": "",
          "type": "uint256"
        }
      ],
      "name": "redeemHistory",
      "outputs": [
        {
          "internalType": "uint256",
          "name": "",
          "type": "uint256"
        }
      ],
      "stateMutability": "view",
      "type": "function"
    },
    {
      "inputs": [],
      "name": "renounceOwnership",
      "outputs": [],
      "stateMutability": "nonpayable",
      "type": "function"
    },
    {
      "inputs": [
        {
          "internalType": "uint256",
          "name": "_proposalIndex",
          "type": "uint256"
        }
      ],
      "name": "requestResolveRound",
      "outputs": [],
      "stateMutability": "nonpayable",
      "type": "function"
    },
    {
      "inputs": [
        {
          "internalType": "uint256",
          "name": "_proposalIndex",
          "type": "uint256"
        }
      ],
      "name": "resolveBet",
      "outputs": [
        {
          "internalType": "bool",
          "name": "",
          "type": "bool"
        }
      ],
      "stateMutability": "nonpayable",
      "type": "function"
    },
    {
      "inputs": [
        {
          "internalType": "address",
          "name": "newOwner",
          "type": "address"
        }
      ],
      "name": "transferOwnership",
      "outputs": [],
      "stateMutability": "nonpayable",
      "type": "function"
    },
    {
      "inputs": [],
      "name": "unlock",
      "outputs": [],
      "stateMutability": "nonpayable",
      "type": "function"
    },
    {
      "inputs": [
        {
          "internalType": "uint256",
          "name": "_proposalIndex",
          "type": "uint256"
        },
        {
          "internalType": "uint256",
          "name": "_votePos",
          "type": "uint256"
        },
        {
          "internalType": "address",
          "name": "_voter",
          "type": "address"
        }
      ],
      "name": "withdrawAmount",
      "outputs": [
        {
          "internalType": "uint256",
          "name": "",
          "type": "uint256"
        }
      ],
      "stateMutability": "nonpayable",
      "type": "function"
    }
  ],
  "bytecode": "0x6080604052738f3cf7ad23cd3cadbd9735aff958023239c6a063600360006101000a81548173ffffffffffffffffffffffffffffffffffffffff021916908373ffffffffffffffffffffffffffffffffffffffff160217905550734c5f09d239e11896ed4b21e5beba0de9d777eebd600460006101000a81548173ffffffffffffffffffffffffffffffffffffffff021916908373ffffffffffffffffffffffffffffffffffffffff160217905550348015620000bb57600080fd5b506000620000ce6200017260201b60201c565b9050806000806101000a81548173ffffffffffffffffffffffffffffffffffffffff021916908373ffffffffffffffffffffffffffffffffffffffff1602179055508073ffffffffffffffffffffffffffffffffffffffff16600073ffffffffffffffffffffffffffffffffffffffff167f8be0079c531659141344cd1fd0a4f28419497f9722a3daafe3b4186f6b6457e060405160405180910390a3506200017a565b600033905090565b613357806200018a6000396000f3fe608060405234801561001057600080fd5b506004361061012b5760003560e01c8063a69df4b5116100ad578063d212dcea11610071578063d212dcea1461036f578063db2e21bc1461039f578063dd467064146103a9578063f2fde38b146103c5578063f84e6d91146103e15761012b565b8063a69df4b5146102df578063b6c52324146102e9578063c36aea4714610307578063c71bf91a14610323578063ca067ad01461033f5761012b565b80635fafaf06116100f45780635fafaf0614610227578063673efa69146102575780636abbee8214610287578063715018a6146102b75780638da5cb5b146102c15761012b565b806219e63714610130578063122197cc1461016057806325f3c1bd146101905780632ecdc14f146101c75780634c36c36e146101f7575b600080fd5b61014a60048036038101906101459190612829565b610411565b6040516101579190612d67565b60405180910390f35b61017a60048036038101906101759190612829565b610443565b6040516101879190612d67565b60405180910390f35b6101aa60048036038101906101a591906127d7565b610475565b6040516101be989796959493929190612dab565b60405180910390f35b6101e160048036038101906101dc9190612865565b6104ca565b6040516101ee9190612d67565b60405180910390f35b610211600480360381019061020c91906127d7565b6107e5565b60405161021e9190612b76565b60405180910390f35b610241600480360381019061023c9190612829565b610b3f565b60405161024e9190612d67565b60405180910390f35b610271600480360381019061026c9190612829565b610b71565b60405161027e9190612d67565b60405180910390f35b6102a1600480360381019061029c9190612865565b610b99565b6040516102ae9190612d67565b60405180910390f35b6102bf61139c565b005b6102c96114ef565b6040516102d69190612b24565b60405180910390f35b6102e7611518565b005b6102f16116ec565b6040516102fe9190612d67565b60405180910390f35b610321600480360381019061031c91906127d7565b6116f6565b005b61033d600480360381019061033891906128b4565b61198c565b005b610359600480360381019061035491906127d7565b611b5e565b6040516103669190612d67565b60405180910390f35b610389600480360381019061038491906127d7565b611b76565b6040516103969190612b76565b60405180910390f35b6103a7611b96565b005b6103c360048036038101906103be91906127d7565b611dc2565b005b6103df60048036038101906103da919061275c565b611f89565b005b6103fb60048036038101906103f69190612865565b61214b565b6040516104089190612d67565b60405180910390f35b600060076000848152602001908152602001600020600801600083815260200190815260200160002054905092915050565b600060076000848152602001908152602001600020600901600083815260200190815260200160002054905092915050565b60076020528060005260406000206000915090508060000154908060010154908060020154908060030154908060040154908060050154908060060154908060070160009054906101000a900460ff16905088565b6000806104d56114ef565b73ffffffffffffffffffffffffffffffffffffffff1663261dc98986856040518363ffffffff1660e01b815260040161050f929190612d82565b60206040518083038186803b15801561052757600080fd5b505afa15801561053b573d6000803e3d6000fd5b505050506040513d601f19601f8201168201806040525081019061055f9190612800565b9050600061056b6114ef565b73ffffffffffffffffffffffffffffffffffffffff16636209a58b87866040518363ffffffff1660e01b81526004016105a5929190612d82565b60206040518083038186803b1580156105bd57600080fd5b505afa1580156105d1573d6000803e3d6000fd5b505050506040513d601f19601f820116820180604052508101906105f59190612800565b90508185101580156106125750808261060e9190612e3a565b8511155b610651576040517f08c379a000000000000000000000000000000000000000000000000000000000815260040161064890612cc7565b60405180910390fd5b600060076000888152602001908152602001600020600a016000878152602001908152602001600020549050600181116106c0576040517f08c379a00000000000000000000000000000000000000000000000000000000081526004016106b790612c87565b60405180910390fd5b600360009054906101000a900473ffffffffffffffffffffffffffffffffffffffff1673ffffffffffffffffffffffffffffffffffffffff166323b872dd6107066114ef565b87846040518463ffffffff1660e01b815260040161072693929190612b3f565b602060405180830381600087803b15801561074057600080fd5b505af1158015610754573d6000803e3d6000fd5b505050506040513d601f19601f820116820180604052508101906107789190612785565b6107ab577f4e487b7100000000000000000000000000000000000000000000000000000000600052600160045260246000fd5b600160076000898152602001908152602001600020600a016000888152602001908152602001600020819055508093505050509392505050565b60008060076000848152602001908152602001600020600401541161083f576040517f08c379a000000000000000000000000000000000000000000000000000000000815260040161083690612be7565b60405180910390fd5b600060076000848152602001908152602001600020600601549050600460009054906101000a900473ffffffffffffffffffffffffffffffffffffffff1673ffffffffffffffffffffffffffffffffffffffff1663e89e106a6040518163ffffffff1660e01b8152600401602060405180830381600087803b1580156108c457600080fd5b505af11580156108d8573d6000803e3d6000fd5b505050506040513d601f19601f820116820180604052508101906108fc91906127ae565b811461093d576040517f08c379a000000000000000000000000000000000000000000000000000000000815260040161093490612d07565b60405180910390fd5b6000600660008581526020019081526020016000205414610993576040517f08c379a000000000000000000000000000000000000000000000000000000000815260040161098a90612d27565b60405180910390fd5b436007600085815260200190815260200160002060020181905550600460009054906101000a900473ffffffffffffffffffffffffffffffffffffffff1673ffffffffffffffffffffffffffffffffffffffff1663db61e87b6040518163ffffffff1660e01b8152600401602060405180830381600087803b158015610a1857600080fd5b505af1158015610a2c573d6000803e3d6000fd5b505050506040513d601f19601f82011682018060405250810190610a509190612800565b6006600085815260200190815260200160002081905550600460009054906101000a900473ffffffffffffffffffffffffffffffffffffffff1673ffffffffffffffffffffffffffffffffffffffff1663f6eaffc860006040518263ffffffff1660e01b8152600401610ac39190612bac565b602060405180830381600087803b158015610add57600080fd5b505af1158015610af1573d6000803e3d6000fd5b505050506040513d601f19601f82011682018060405250810190610b159190612800565b60076000858152602001908152602001600020600101819055506000600190508092505050919050565b600060076000848152602001908152602001600020600a01600083815260200190815260200160002054905092915050565b60056020528160005260406000208160068110610b8d57600080fd5b01600091509150505481565b60008060066000868152602001908152602001600020541415610bf1576040517f08c379a0000000000000000000000000000000000000000000000000000000008152600401610be890612c67565b60405180910390fd5b6000610bfb6114ef565b73ffffffffffffffffffffffffffffffffffffffff1663261dc98986856040518363ffffffff1660e01b8152600401610c35929190612d82565b60206040518083038186803b158015610c4d57600080fd5b505afa158015610c61573d6000803e3d6000fd5b505050506040513d601f19601f82011682018060405250810190610c859190612800565b90506000610c916114ef565b73ffffffffffffffffffffffffffffffffffffffff16636209a58b87866040518363ffffffff1660e01b8152600401610ccb929190612d82565b60206040518083038186803b158015610ce357600080fd5b505afa158015610cf7573d6000803e3d6000fd5b505050506040513d601f19601f82011682018060405250810190610d1b9190612800565b9050818510158015610d3857508082610d349190612e3a565b8511155b610d77576040517f08c379a0000000000000000000000000000000000000000000000000000000008152600401610d6e90612cc7565b60405180910390fd5b60006007600088815260200190815260200160002060080160008781526020019081526020016000205414610de1576040517f08c379a0000000000000000000000000000000000000000000000000000000008152600401610dd890612c07565b60405180910390fd5b6000600760008881526020019081526020016000206005015490506000600282610e0b9190612fd5565b1415610e20578080610e1c90612f8c565b9150505b60008187600660008b815260200190815260200160002054610e429190612ec1565b610e4c9190612fd5565b905060008288600660008c815260200190815260200160002054610e709190612ec1565b610e7a9190612fd5565b9050600083826103e8610e8d9190612ec1565b610e979190612e90565b905080600760008c815260200190815260200160002060080160008b81526020019081526020016000208190555082600760008c815260200190815260200160002060090160008b81526020019081526020016000208190555060018111610fa8576001600560008c8152602001908152602001600020600060068110610f47577f4e487b7100000000000000000000000000000000000000000000000000000000600052603260045260246000fd5b01541015610fa3576001600560008c8152602001908152602001600020600060068110610f9d577f4e487b7100000000000000000000000000000000000000000000000000000000600052603260045260246000fd5b01819055505b61138c565b6002811161106f576002600560008c8152602001908152602001600020600160068110610ffe577f4e487b7100000000000000000000000000000000000000000000000000000000600052603260045260246000fd5b0154101561106a57600560008b8152602001908152602001600020600160068110611052577f4e487b7100000000000000000000000000000000000000000000000000000000600052603260045260246000fd5b01600081548092919061106490612f8c565b91905055505b61138b565b600a811161113657600a600560008c81526020019081526020016000206002600681106110c5577f4e487b7100000000000000000000000000000000000000000000000000000000600052603260045260246000fd5b0154101561113157600560008b8152602001908152602001600020600260068110611119577f4e487b7100000000000000000000000000000000000000000000000000000000600052603260045260246000fd5b01600081548092919061112b90612f8c565b91905055505b61138a565b601481116111fd576014600560008c815260200190815260200160002060036006811061118c577f4e487b7100000000000000000000000000000000000000000000000000000000600052603260045260246000fd5b015410156111f857600560008b81526020019081526020016000206003600681106111e0577f4e487b7100000000000000000000000000000000000000000000000000000000600052603260045260246000fd5b0160008154809291906111f290612f8c565b91905055505b611389565b603281116112c4576032600560008c8152602001908152602001600020600460068110611253577f4e487b7100000000000000000000000000000000000000000000000000000000600052603260045260246000fd5b015410156112bf57600560008b81526020019081526020016000206004600681106112a7577f4e487b7100000000000000000000000000000000000000000000000000000000600052603260045260246000fd5b0160008154809291906112b990612f8c565b91905055505b611388565b60648111611387576064600560008c815260200190815260200160002060056006811061131a577f4e487b7100000000000000000000000000000000000000000000000000000000600052603260045260246000fd5b0154101561138657600560008b815260200190815260200160002060056006811061136e577f4e487b7100000000000000000000000000000000000000000000000000000000600052603260045260246000fd5b01600081548092919061138090612f8c565b91905055505b5b5b5b5b5b5b8296505050505050509392505050565b6113a46126eb565b73ffffffffffffffffffffffffffffffffffffffff1660008054906101000a900473ffffffffffffffffffffffffffffffffffffffff1673ffffffffffffffffffffffffffffffffffffffff1614611431576040517f08c379a000000000000000000000000000000000000000000000000000000000815260040161142890612c47565b60405180910390fd5b600073ffffffffffffffffffffffffffffffffffffffff1660008054906101000a900473ffffffffffffffffffffffffffffffffffffffff1673ffffffffffffffffffffffffffffffffffffffff167f8be0079c531659141344cd1fd0a4f28419497f9722a3daafe3b4186f6b6457e060405160405180910390a360008060006101000a81548173ffffffffffffffffffffffffffffffffffffffff021916908373ffffffffffffffffffffffffffffffffffffffff160217905550565b60008060009054906101000a900473ffffffffffffffffffffffffffffffffffffffff16905090565b3373ffffffffffffffffffffffffffffffffffffffff16600160009054906101000a900473ffffffffffffffffffffffffffffffffffffffff1673ffffffffffffffffffffffffffffffffffffffff16146115a8576040517f08c379a000000000000000000000000000000000000000000000000000000000815260040161159f90612d47565b60405180910390fd5b60025442116115ec576040517f08c379a00000000000000000000000000000000000000000000000000000000081526004016115e390612ce7565b60405180910390fd5b600160009054906101000a900473ffffffffffffffffffffffffffffffffffffffff1673ffffffffffffffffffffffffffffffffffffffff1660008054906101000a900473ffffffffffffffffffffffffffffffffffffffff1673ffffffffffffffffffffffffffffffffffffffff167f8be0079c531659141344cd1fd0a4f28419497f9722a3daafe3b4186f6b6457e060405160405180910390a3600160009054906101000a900473ffffffffffffffffffffffffffffffffffffffff166000806101000a81548173ffffffffffffffffffffffffffffffffffffffff021916908373ffffffffffffffffffffffffffffffffffffffff160217905550565b6000600254905090565b600060076000838152602001908152602001600020600401541161174f576040517f08c379a000000000000000000000000000000000000000000000000000000000815260040161174690612be7565b60405180910390fd5b600015156008600083815260200190815260200160002060009054906101000a900460ff161515146117b6576040517f08c379a00000000000000000000000000000000000000000000000000000000081526004016117ad90612c27565b60405180910390fd5b60016008600083815260200190815260200160002060006101000a81548160ff021916908315150217905550600460009054906101000a900473ffffffffffffffffffffffffffffffffffffffff1673ffffffffffffffffffffffffffffffffffffffff1663e0c862896040518163ffffffff1660e01b8152600401600060405180830381600087803b15801561184c57600080fd5b505af1158015611860573d6000803e3d6000fd5b50505050600460009054906101000a900473ffffffffffffffffffffffffffffffffffffffff1673ffffffffffffffffffffffffffffffffffffffff1663e89e106a6040518163ffffffff1660e01b8152600401602060405180830381600087803b1580156118ce57600080fd5b505af11580156118e2573d6000803e3d6000fd5b505050506040513d601f19601f8201168201806040525081019061190691906127ae565b6007600083815260200190815260200160002060060181905550436007600083815260200190815260200160002060000181905550807fbd51e5a352fab6e096017c2be9f26b900b8615c0353bc652a3f429c6e56c4e1260076000848152602001908152602001600020600601546040516119819190612b91565b60405180910390a250565b6119946126eb565b73ffffffffffffffffffffffffffffffffffffffff1660008054906101000a900473ffffffffffffffffffffffffffffffffffffffff1673ffffffffffffffffffffffffffffffffffffffff1614611a21576040517f08c379a0000000000000000000000000000000000000000000000000000000008152600401611a1890612c47565b60405180910390fd5b6008600084815260200190815260200160002060009054906101000a900460ff1615611a82576040517f08c379a0000000000000000000000000000000000000000000000000000000008152600401611a7990612c27565b60405180910390fd5b6000600760008581526020019081526020016000206004015414611adb576040517f08c379a0000000000000000000000000000000000000000000000000000000008152600401611ad290612ca7565b60405180910390fd5b816007600085815260200190815260200160002060040181905550600a600780600086815260200190815260200160002060040154611b1a9190612ec1565b611b249190612e90565b6007600085815260200190815260200160002060030181905550806007600085815260200190815260200160002060050181905550505050565b60066020528060005260406000206000915090505481565b60086020528060005260406000206000915054906101000a900460ff1681565b611b9e6126eb565b73ffffffffffffffffffffffffffffffffffffffff1660008054906101000a900473ffffffffffffffffffffffffffffffffffffffff1673ffffffffffffffffffffffffffffffffffffffff1614611c2b576040517f08c379a0000000000000000000000000000000000000000000000000000000008152600401611c2290612c47565b60405180910390fd5b600360009054906101000a900473ffffffffffffffffffffffffffffffffffffffff1673ffffffffffffffffffffffffffffffffffffffff166323b872dd30611c726114ef565b600360009054906101000a900473ffffffffffffffffffffffffffffffffffffffff1673ffffffffffffffffffffffffffffffffffffffff166370a08231306040518263ffffffff1660e01b8152600401611ccd9190612b24565b60206040518083038186803b158015611ce557600080fd5b505afa158015611cf9573d6000803e3d6000fd5b505050506040513d601f19601f82011682018060405250810190611d1d9190612800565b6040518463ffffffff1660e01b8152600401611d3b93929190612b3f565b602060405180830381600087803b158015611d5557600080fd5b505af1158015611d69573d6000803e3d6000fd5b505050506040513d601f19601f82011682018060405250810190611d8d9190612785565b611dc0577f4e487b7100000000000000000000000000000000000000000000000000000000600052600160045260246000fd5b565b611dca6126eb565b73ffffffffffffffffffffffffffffffffffffffff1660008054906101000a900473ffffffffffffffffffffffffffffffffffffffff1673ffffffffffffffffffffffffffffffffffffffff1614611e57576040517f08c379a0000000000000000000000000000000000000000000000000000000008152600401611e4e90612c47565b60405180910390fd5b60008054906101000a900473ffffffffffffffffffffffffffffffffffffffff16600160006101000a81548173ffffffffffffffffffffffffffffffffffffffff021916908373ffffffffffffffffffffffffffffffffffffffff16021790555060008060006101000a81548173ffffffffffffffffffffffffffffffffffffffff021916908373ffffffffffffffffffffffffffffffffffffffff1602179055508042611f059190612e3a565b600281905550600073ffffffffffffffffffffffffffffffffffffffff1660008054906101000a900473ffffffffffffffffffffffffffffffffffffffff1673ffffffffffffffffffffffffffffffffffffffff167f8be0079c531659141344cd1fd0a4f28419497f9722a3daafe3b4186f6b6457e060405160405180910390a350565b611f916126eb565b73ffffffffffffffffffffffffffffffffffffffff1660008054906101000a900473ffffffffffffffffffffffffffffffffffffffff1673ffffffffffffffffffffffffffffffffffffffff161461201e576040517f08c379a000000000000000000000000000000000000000000000000000000000815260040161201590612c47565b60405180910390fd5b600073ffffffffffffffffffffffffffffffffffffffff168173ffffffffffffffffffffffffffffffffffffffff16141561208e576040517f08c379a000000000000000000000000000000000000000000000000000000000815260040161208590612bc7565b60405180910390fd5b8073ffffffffffffffffffffffffffffffffffffffff1660008054906101000a900473ffffffffffffffffffffffffffffffffffffffff1673ffffffffffffffffffffffffffffffffffffffff167f8be0079c531659141344cd1fd0a4f28419497f9722a3daafe3b4186f6b6457e060405160405180910390a3806000806101000a81548173ffffffffffffffffffffffffffffffffffffffff021916908373ffffffffffffffffffffffffffffffffffffffff16021790555050565b600080600660008681526020019081526020016000205414156121a3576040517f08c379a000000000000000000000000000000000000000000000000000000000815260040161219a90612c67565b60405180910390fd5b60006121ad6114ef565b73ffffffffffffffffffffffffffffffffffffffff1663261dc98986856040518363ffffffff1660e01b81526004016121e7929190612d82565b60206040518083038186803b1580156121ff57600080fd5b505afa158015612213573d6000803e3d6000fd5b505050506040513d601f19601f820116820180604052508101906122379190612800565b905060006122436114ef565b73ffffffffffffffffffffffffffffffffffffffff16636209a58b87866040518363ffffffff1660e01b815260040161227d929190612d82565b60206040518083038186803b15801561229557600080fd5b505afa1580156122a9573d6000803e3d6000fd5b505050506040513d601f19601f820116820180604052508101906122cd9190612800565b90508185101580156122ea575080826122e69190612e3a565b8511155b612329576040517f08c379a000000000000000000000000000000000000000000000000000000000815260040161232090612cc7565b60405180910390fd5b60006007600088815260200190815260200160002060080160008781526020019081526020016000205414612393576040517f08c379a000000000000000000000000000000000000000000000000000000000815260040161238a90612c07565b60405180910390fd5b6007600087815260200190815260200160002060050154856007600089815260200190815260200160002060050154600660008a8152602001908152602001600020546123e09190612fd5565b6123ea9190612ec1565b6123f49190612fd5565b60076000888152602001908152602001600020600801600087815260200190815260200160002081905550600060076000888152602001908152602001600020600501546103e8600760008a815260200190815260200160002060080160008981526020019081526020016000205461246d9190612ec1565b6124779190612e90565b905080600760008981526020019081526020016000206009016000888152602001908152602001600020819055506000600282116125bb576001600560008a81526020019081526020016000206000600681106124fd577f4e487b7100000000000000000000000000000000000000000000000000000000600052603260045260246000fd5b015410156125b657600a6002600760008b81526020019081526020016000206004015461252a9190612ec1565b6125349190612e90565b90506001600560008a8152602001908152602001600020600060068110612584577f4e487b7100000000000000000000000000000000000000000000000000000000600052603260045260246000fd5b018190555080600760008a8152602001908152602001600020600a016000898152602001908152602001600020819055505b6126dd565b60b782116126dc576064600560008a8152602001908152602001600020600560068110612611577f4e487b7100000000000000000000000000000000000000000000000000000000600052603260045260246000fd5b015410156126db576103e86001600760008b81526020019081526020016000206004015461263f9190612ec1565b6126499190612e90565b905060056000898152602001908152602001600020600560068110612697577f4e487b7100000000000000000000000000000000000000000000000000000000600052603260045260246000fd5b0160008154809291906126a990612f8c565b919050555080600760008a8152602001908152602001600020600a016000898152602001908152602001600020819055505b5b5b819450505050509392505050565b600033905090565b600081359050612702816132c5565b92915050565b600081519050612717816132dc565b92915050565b60008151905061272c816132f3565b92915050565b6000813590506127418161330a565b92915050565b6000815190506127568161330a565b92915050565b60006020828403121561276e57600080fd5b600061277c848285016126f3565b91505092915050565b60006020828403121561279757600080fd5b60006127a584828501612708565b91505092915050565b6000602082840312156127c057600080fd5b60006127ce8482850161271d565b91505092915050565b6000602082840312156127e957600080fd5b60006127f784828501612732565b91505092915050565b60006020828403121561281257600080fd5b600061282084828501612747565b91505092915050565b6000806040838503121561283c57600080fd5b600061284a85828601612732565b925050602061285b85828601612732565b9150509250929050565b60008060006060848603121561287a57600080fd5b600061288886828701612732565b935050602061289986828701612732565b92505060406128aa868287016126f3565b9150509250925092565b6000806000606084860312156128c957600080fd5b60006128d786828701612732565b93505060206128e886828701612732565b92505060406128f986828701612732565b9150509250925092565b61290c81612f1b565b82525050565b61291b81612f2d565b82525050565b61292a81612f39565b82525050565b61293981612f7a565b82525050565b600061294c602683612e29565b915061295782613064565b604082019050919050565b600061296f601583612e29565b915061297a826130b3565b602082019050919050565b6000612992601583612e29565b915061299d826130dc565b602082019050919050565b60006129b5601583612e29565b91506129c082613105565b602082019050919050565b60006129d8602083612e29565b91506129e38261312e565b602082019050919050565b60006129fb601283612e29565b9150612a0682613157565b602082019050919050565b6000612a1e601083612e29565b9150612a2982613180565b602082019050919050565b6000612a41600e83612e29565b9150612a4c826131a9565b602082019050919050565b6000612a64600e83612e29565b9150612a6f826131d2565b602082019050919050565b6000612a87601f83612e29565b9150612a92826131fb565b602082019050919050565b6000612aaa601383612e29565b9150612ab582613224565b602082019050919050565b6000612acd601383612e29565b9150612ad88261324d565b602082019050919050565b6000612af0602383612e29565b9150612afb82613276565b604082019050919050565b612b0f81612f63565b82525050565b612b1e81612f6d565b82525050565b6000602082019050612b396000830184612903565b92915050565b6000606082019050612b546000830186612903565b612b616020830185612903565b612b6e6040830184612b06565b949350505050565b6000602082019050612b8b6000830184612912565b92915050565b6000602082019050612ba66000830184612921565b92915050565b6000602082019050612bc16000830184612930565b92915050565b60006020820190508181036000830152612be08161293f565b9050919050565b60006020820190508181036000830152612c0081612962565b9050919050565b60006020820190508181036000830152612c2081612985565b9050919050565b60006020820190508181036000830152612c40816129a8565b9050919050565b60006020820190508181036000830152612c60816129cb565b9050919050565b60006020820190508181036000830152612c80816129ee565b9050919050565b60006020820190508181036000830152612ca081612a11565b9050919050565b60006020820190508181036000830152612cc081612a34565b9050919050565b60006020820190508181036000830152612ce081612a57565b9050919050565b60006020820190508181036000830152612d0081612a7a565b9050919050565b60006020820190508181036000830152612d2081612a9d565b9050919050565b60006020820190508181036000830152612d4081612ac0565b9050919050565b60006020820190508181036000830152612d6081612ae3565b9050919050565b6000602082019050612d7c6000830184612b06565b92915050565b6000604082019050612d976000830185612b06565b612da46020830184612903565b9392505050565b600061010082019050612dc1600083018b612b06565b612dce602083018a612b06565b612ddb6040830189612b06565b612de86060830188612b06565b612df56080830187612b06565b612e0260a0830186612b06565b612e0f60c0830185612921565b612e1c60e0830184612b15565b9998505050505050505050565b600082825260208201905092915050565b6000612e4582612f63565b9150612e5083612f63565b9250827fffffffffffffffffffffffffffffffffffffffffffffffffffffffffffffffff03821115612e8557612e84613006565b5b828201905092915050565b6000612e9b82612f63565b9150612ea683612f63565b925082612eb657612eb5613035565b5b828204905092915050565b6000612ecc82612f63565b9150612ed783612f63565b9250817fffffffffffffffffffffffffffffffffffffffffffffffffffffffffffffffff0483118215151615612f1057612f0f613006565b5b828202905092915050565b6000612f2682612f43565b9050919050565b60008115159050919050565b6000819050919050565b600073ffffffffffffffffffffffffffffffffffffffff82169050919050565b6000819050919050565b600060ff82169050919050565b6000612f8582612f63565b9050919050565b6000612f9782612f63565b91507fffffffffffffffffffffffffffffffffffffffffffffffffffffffffffffffff821415612fca57612fc9613006565b5b600182019050919050565b6000612fe082612f63565b9150612feb83612f63565b925082612ffb57612ffa613035565b5b828206905092915050565b7f4e487b7100000000000000000000000000000000000000000000000000000000600052601160045260246000fd5b7f4e487b7100000000000000000000000000000000000000000000000000000000600052601260045260246000fd5b7f4f776e61626c653a206e6577206f776e657220697320746865207a65726f206160008201527f6464726573730000000000000000000000000000000000000000000000000000602082015250565b7f50524f504f53414c5f444f45534e545f45584953540000000000000000000000600082015250565b7f524553554c545f414c52454144595f4558495354530000000000000000000000600082015250565b7f52414e444f4d5f524551554553545f4558495354530000000000000000000000600082015250565b7f4f776e61626c653a2063616c6c6572206973206e6f7420746865206f776e6572600082015250565b7f524553554c545f49535f4e4f545f444f4e450000000000000000000000000000600082015250565b7f416c72656164792052656465656d656400000000000000000000000000000000600082015250565b7f50524f504f53414c5f4558495354000000000000000000000000000000000000600082015250565b7f4e4f545f564f54455f4f574e4552000000000000000000000000000000000000600082015250565b7f436f6e7472616374206973206c6f636b656420756e74696c2037206461797300600082015250565b7f524551554553545f4e4f545f43555252454e5400000000000000000000000000600082015250565b7f524553554c545f414c52454144595f444f4e4500000000000000000000000000600082015250565b7f596f7520646f6e27742068617665207065726d697373696f6e20746f20756e6c60008201527f6f636b0000000000000000000000000000000000000000000000000000000000602082015250565b6132ce81612f1b565b81146132d957600080fd5b50565b6132e581612f2d565b81146132f057600080fd5b50565b6132fc81612f39565b811461330757600080fd5b50565b61331381612f63565b811461331e57600080fd5b5056fea2646970667358221220c36577a0f9d47b9123420a290f0b2008afdcd5ec638d11993018c5f9c0fce09d64736f6c63430008040033",
  "linkReferences": {},
  "deployedLinkReferences": {}
}