{
  "_format": "hh-sol-artifact-1",
  "contractName": "TheOpenFarmDAO",
  "sourceName": "contracts/FarmDAO.sol",
  "abi": [
    {
      "anonymous": false,
      "inputs": [
        {
          "indexed": true,
          "internalType": "address",
          "name": "previousOwner",
          "type": "address"
        },
        {
          "indexed": true,
          "internalType": "address",
          "name": "newOwner",
          "type": "address"
        }
      ],
      "name": "OwnershipTransferred",
      "type": "event"
    },
    {
      "stateMutability": "payable",
      "type": "fallback"
    },
    {
      "inputs": [],
      "name": "VOTE_COST",
      "outputs": [
        {
          "internalType": "uint256",
          "name": "",
          "type": "uint256"
        }
      ],
      "stateMutability": "view",
      "type": "function"
    },
    {
      "inputs": [
        {
          "internalType": "uint256",
          "name": "_proposalIndex",
          "type": "uint256"
        }
      ],
      "name": "amountVotes",
      "outputs": [
        {
          "internalType": "uint256",
          "name": "",
          "type": "uint256"
        }
      ],
      "stateMutability": "view",
      "type": "function"
    },
    {
      "inputs": [
        {
          "internalType": "uint256",
          "name": "_amount",
          "type": "uint256"
        }
      ],
      "name": "createProposal",
      "outputs": [
        {
          "internalType": "uint256",
          "name": "",
          "type": "uint256"
        }
      ],
      "stateMutability": "nonpayable",
      "type": "function"
    },
    {
      "inputs": [
        {
          "internalType": "uint256",
          "name": "_proposalIndex",
          "type": "uint256"
        }
      ],
      "name": "executeProposal",
      "outputs": [],
      "stateMutability": "nonpayable",
      "type": "function"
    },
    {
      "inputs": [],
      "name": "geUnlockTime",
      "outputs": [
        {
          "internalType": "uint256",
          "name": "",
          "type": "uint256"
        }
      ],
      "stateMutability": "view",
      "type": "function"
    },
    {
      "inputs": [
        {
          "internalType": "uint256",
          "name": "_proposalIndex",
          "type": "uint256"
        },
        {
          "internalType": "address",
          "name": "_voter",
          "type": "address"
        }
      ],
      "name": "getAmount",
      "outputs": [
        {
          "internalType": "uint256",
          "name": "",
          "type": "uint256"
        }
      ],
      "stateMutability": "view",
      "type": "function"
    },
    {
      "inputs": [
        {
          "internalType": "uint256",
          "name": "_proposalIndex",
          "type": "uint256"
        },
        {
          "internalType": "address",
          "name": "_voter",
          "type": "address"
        }
      ],
      "name": "getVotes",
      "outputs": [
        {
          "internalType": "uint256",
          "name": "",
          "type": "uint256"
        }
      ],
      "stateMutability": "view",
      "type": "function"
    },
    {
      "inputs": [
        {
          "internalType": "uint256",
          "name": "time",
          "type": "uint256"
        }
      ],
      "name": "lock",
      "outputs": [],
      "stateMutability": "nonpayable",
      "type": "function"
    },
    {
      "inputs": [],
      "name": "numProposals",
      "outputs": [
        {
          "internalType": "uint256",
          "name": "",
          "type": "uint256"
        }
      ],
      "stateMutability": "view",
      "type": "function"
    },
    {
      "inputs": [],
      "name": "owner",
      "outputs": [
        {
          "internalType": "address",
          "name": "",
          "type": "address"
        }
      ],
      "stateMutability": "view",
      "type": "function"
    },
    {
      "inputs": [
        {
          "internalType": "uint256",
          "name": "",
          "type": "uint256"
        }
      ],
      "name": "proposals",
      "outputs": [
        {
          "internalType": "uint256",
          "name": "amount",
          "type": "uint256"
        },
        {
          "internalType": "uint256",
          "name": "amountVotes",
          "type": "uint256"
        },
        {
          "internalType": "uint256",
          "name": "deadline",
          "type": "uint256"
        },
        {
          "internalType": "bool",
          "name": "executed",
          "type": "bool"
        }
      ],
      "stateMutability": "view",
      "type": "function"
    },
    {
      "inputs": [],
      "name": "renounceOwnership",
      "outputs": [],
      "stateMutability": "nonpayable",
      "type": "function"
    },
    {
      "inputs": [
        {
          "internalType": "address",
          "name": "newOwner",
          "type": "address"
        }
      ],
      "name": "transferOwnership",
      "outputs": [],
      "stateMutability": "nonpayable",
      "type": "function"
    },
    {
      "inputs": [],
      "name": "unlock",
      "outputs": [],
      "stateMutability": "nonpayable",
      "type": "function"
    },
    {
      "inputs": [
        {
          "internalType": "uint256",
          "name": "_proposalIndex",
          "type": "uint256"
        },
        {
          "internalType": "uint256",
          "name": "_amount",
          "type": "uint256"
        }
      ],
      "name": "voteOnProposal",
      "outputs": [],
      "stateMutability": "nonpayable",
      "type": "function"
    },
    {
      "inputs": [],
      "name": "withdrawBalance",
      "outputs": [],
      "stateMutability": "nonpayable",
      "type": "function"
    },
    {
      "inputs": [],
      "name": "withdrawEther",
      "outputs": [],
      "stateMutability": "nonpayable",
      "type": "function"
    },
    {
      "inputs": [
        {
          "internalType": "uint256",
          "name": "_proposalIndex",
          "type": "uint256"
        }
      ],
      "name": "withdrawFromProposal",
      "outputs": [],
      "stateMutability": "nonpayable",
      "type": "function"
    },
    {
      "stateMutability": "payable",
      "type": "receive"
    }
  ],
  "bytecode": "0x6080604052655af3107a400060035573adf19b38d80bb3f59acc3170476afb4b1de3f0b4600660006101000a81548173ffffffffffffffffffffffffffffffffffffffff021916908373ffffffffffffffffffffffffffffffffffffffff160217905550738f3cf7ad23cd3cadbd9735aff958023239c6a063600760006101000a81548173ffffffffffffffffffffffffffffffffffffffff021916908373ffffffffffffffffffffffffffffffffffffffff1602179055503480156100c457600080fd5b5060006100d561017860201b60201c565b9050806000806101000a81548173ffffffffffffffffffffffffffffffffffffffff021916908373ffffffffffffffffffffffffffffffffffffffff1602179055508073ffffffffffffffffffffffffffffffffffffffff16600073ffffffffffffffffffffffffffffffffffffffff167f8be0079c531659141344cd1fd0a4f28419497f9722a3daafe3b4186f6b6457e060405160405180910390a350610180565b600033905090565b612a2b8061018f6000396000f3fe60806040526004361061010d5760003560e01c80637107a6b911610095578063a69df4b511610064578063a69df4b514610360578063b6c5232414610377578063dd467064146103a2578063f2fde38b146103cb578063fe71b8ba146103f457610114565b80637107a6b9146102ca578063715018a6146103075780637362377b1461031e5780638da5cb5b1461033557610114565b806342da3b6b116100dc57806342da3b6b146101d3578063556f6cc0146102105780635a43dc00146102395780635fd8c71014610276578063681973601461028d57610114565b8063013cf08b146101165780630d61b519146101565780632f94dfa31461017f578063400e3949146101a857610114565b3661011457005b005b34801561012257600080fd5b5061013d60048036038101906101389190611f52565b61041f565b60405161014d9493929190612503565b60405180910390f35b34801561016257600080fd5b5061017d60048036038101906101789190611f52565b61045c565b005b34801561018b57600080fd5b506101a660048036038101906101a19190611f52565b61081d565b005b3480156101b457600080fd5b506101bd610c97565b6040516101ca91906124b1565b60405180910390f35b3480156101df57600080fd5b506101fa60048036038101906101f59190611fa4565b610c9d565b60405161020791906124b1565b60405180910390f35b34801561021c57600080fd5b5061023760048036038101906102329190611fe0565b610d85565b005b34801561024557600080fd5b50610260600480360381019061025b9190611f52565b611246565b60405161026d91906124b1565b60405180910390f35b34801561028257600080fd5b5061028b61139d565b005b34801561029957600080fd5b506102b460048036038101906102af9190611fa4565b6115c9565b6040516102c191906124b1565b60405180910390f35b3480156102d657600080fd5b506102f160048036038101906102ec9190611f52565b6116b1565b6040516102fe91906124b1565b60405180910390f35b34801561031357600080fd5b5061031c6116d6565b005b34801561032a57600080fd5b50610333611829565b005b34801561034157600080fd5b5061034a61190e565b6040516103579190612256565b60405180910390f35b34801561036c57600080fd5b50610375611937565b005b34801561038357600080fd5b5061038c611b0b565b60405161039991906124b1565b60405180910390f35b3480156103ae57600080fd5b506103c960048036038101906103c49190611f52565b611b15565b005b3480156103d757600080fd5b506103f260048036038101906103ed9190611f00565b611cdc565b005b34801561040057600080fd5b50610409611e9e565b60405161041691906124b1565b60405180910390f35b60046020528060005260406000206000915090508060000154908060010154908060020154908060030160009054906101000a900460ff16905084565b6000600760009054906101000a900473ffffffffffffffffffffffffffffffffffffffff1673ffffffffffffffffffffffffffffffffffffffff1663dd62ed3e33306040518363ffffffff1660e01b81526004016104bb929190612271565b60206040518083038186803b1580156104d357600080fd5b505afa1580156104e7573d6000803e3d6000fd5b505050506040513d601f19601f8201168201806040525081019061050b9190611f7b565b1161054b576040517f08c379a0000000000000000000000000000000000000000000000000000000008152600401610542906123b1565b60405180910390fd5b8042600460008381526020019081526020016000206002015411156105a5576040517f08c379a000000000000000000000000000000000000000000000000000000000815260040161059c906122d1565b60405180910390fd5b600015156004600083815260200190815260200160002060030160009054906101000a900460ff1615151461060f576040517f08c379a000000000000000000000000000000000000000000000000000000000815260040161060690612331565b60405180910390fd5b6000600460008481526020019081526020016000209050806000015481600101541015610671576040517f08c379a0000000000000000000000000000000000000000000000000000000008152600401610668906123f1565b60405180910390fd5b8060000154600760009054906101000a900473ffffffffffffffffffffffffffffffffffffffff1673ffffffffffffffffffffffffffffffffffffffff166370a08231306040518263ffffffff1660e01b81526004016106d19190612256565b60206040518083038186803b1580156106e957600080fd5b505afa1580156106fd573d6000803e3d6000fd5b505050506040513d601f19601f820116820180604052508101906107219190611f7b565b1015610762576040517f08c379a000000000000000000000000000000000000000000000000000000000815260040161075990612311565b60405180910390fd5b600660009054906101000a900473ffffffffffffffffffffffffffffffffffffffff1673ffffffffffffffffffffffffffffffffffffffff1663c71bf91a84836000015484600101546040518463ffffffff1660e01b81526004016107c9939291906124cc565b600060405180830381600087803b1580156107e357600080fd5b505af11580156107f7573d6000803e3d6000fd5b5050505060018160030160006101000a81548160ff021916908315150217905550505050565b6000600760009054906101000a900473ffffffffffffffffffffffffffffffffffffffff1673ffffffffffffffffffffffffffffffffffffffff1663dd62ed3e33306040518363ffffffff1660e01b815260040161087c929190612271565b60206040518083038186803b15801561089457600080fd5b505afa1580156108a8573d6000803e3d6000fd5b505050506040513d601f19601f820116820180604052508101906108cc9190611f7b565b1161090c576040517f08c379a0000000000000000000000000000000000000000000000000000000008152600401610903906123b1565b60405180910390fd5b804260046000838152602001908152602001600020600201541115610966576040517f08c379a000000000000000000000000000000000000000000000000000000000815260040161095d906122d1565b60405180910390fd5b600015156004600083815260200190815260200160002060030160009054906101000a900460ff161515146109d0576040517f08c379a00000000000000000000000000000000000000000000000000000000081526004016109c790612331565b60405180910390fd5b6000600460008481526020019081526020016000209050600115158160030160009054906101000a900460ff16151514610a3f576040517f08c379a0000000000000000000000000000000000000000000000000000000008152600401610a3690612411565b60405180910390fd5b8060050160003373ffffffffffffffffffffffffffffffffffffffff1673ffffffffffffffffffffffffffffffffffffffff16815260200190815260200160002054600760009054906101000a900473ffffffffffffffffffffffffffffffffffffffff1673ffffffffffffffffffffffffffffffffffffffff166370a08231306040518263ffffffff1660e01b8152600401610adc9190612256565b60206040518083038186803b158015610af457600080fd5b505afa158015610b08573d6000803e3d6000fd5b505050506040513d601f19601f82011682018060405250810190610b2c9190611f7b565b1015610b6d576040517f08c379a0000000000000000000000000000000000000000000000000000000008152600401610b6490612311565b60405180910390fd5b600760009054906101000a900473ffffffffffffffffffffffffffffffffffffffff1673ffffffffffffffffffffffffffffffffffffffff166323b872dd30338460050160003373ffffffffffffffffffffffffffffffffffffffff1673ffffffffffffffffffffffffffffffffffffffff168152602001908152602001600020546040518463ffffffff1660e01b8152600401610c0d9392919061229a565b602060405180830381600087803b158015610c2757600080fd5b505af1158015610c3b573d6000803e3d6000fd5b505050506040513d601f19601f82011682018060405250810190610c5f9190611f29565b610c92577f4e487b7100000000000000000000000000000000000000000000000000000000600052600160045260246000fd5b505050565b60055481565b60008060046000858152602001908152602001600020905060008160040160008573ffffffffffffffffffffffffffffffffffffffff1673ffffffffffffffffffffffffffffffffffffffff168152602001908152602001600020541415610d3a576040517f08c379a0000000000000000000000000000000000000000000000000000000008152600401610d3190612391565b60405180910390fd5b8060040160008473ffffffffffffffffffffffffffffffffffffffff1673ffffffffffffffffffffffffffffffffffffffff1681526020019081526020016000205491505092915050565b6000600760009054906101000a900473ffffffffffffffffffffffffffffffffffffffff1673ffffffffffffffffffffffffffffffffffffffff1663dd62ed3e33306040518363ffffffff1660e01b8152600401610de4929190612271565b60206040518083038186803b158015610dfc57600080fd5b505afa158015610e10573d6000803e3d6000fd5b505050506040513d601f19601f82011682018060405250810190610e349190611f7b565b11610e74576040517f08c379a0000000000000000000000000000000000000000000000000000000008152600401610e6b906123b1565b60405180910390fd5b8142600460008381526020019081526020016000206002015411610ecd576040517f08c379a0000000000000000000000000000000000000000000000000000000008152600401610ec490612351565b60405180910390fd5b60006004600085815260200190815260200160002090506000600760009054906101000a900473ffffffffffffffffffffffffffffffffffffffff1673ffffffffffffffffffffffffffffffffffffffff166370a08231336040518263ffffffff1660e01b8152600401610f419190612256565b60206040518083038186803b158015610f5957600080fd5b505afa158015610f6d573d6000803e3d6000fd5b505050506040513d601f19601f82011682018060405250810190610f919190611f7b565b9050600084600354610fa391906125af565b905080821015610fe8576040517f08c379a0000000000000000000000000000000000000000000000000000000008152600401610fdf90612451565b60405180910390fd5b60008360050160003373ffffffffffffffffffffffffffffffffffffffff1673ffffffffffffffffffffffffffffffffffffffff168152602001908152602001600020541461106c576040517f08c379a000000000000000000000000000000000000000000000000000000000815260040161106390612371565b60405180910390fd5b600085116110af576040517f08c379a00000000000000000000000000000000000000000000000000000000081526004016110a690612491565b60405180910390fd5b848360050160003373ffffffffffffffffffffffffffffffffffffffff1673ffffffffffffffffffffffffffffffffffffffff1681526020019081526020016000208190555082600101548360040160003373ffffffffffffffffffffffffffffffffffffffff1673ffffffffffffffffffffffffffffffffffffffff16815260200190815260200160002081905550848360010160008282546111539190612559565b92505081905550600760009054906101000a900473ffffffffffffffffffffffffffffffffffffffff1673ffffffffffffffffffffffffffffffffffffffff166323b872dd3330846040518463ffffffff1660e01b81526004016111b99392919061229a565b602060405180830381600087803b1580156111d357600080fd5b505af11580156111e7573d6000803e3d6000fd5b505050506040513d601f19601f8201168201806040525081019061120b9190611f29565b61123e577f4e487b7100000000000000000000000000000000000000000000000000000000600052600160045260246000fd5b505050505050565b600080600760009054906101000a900473ffffffffffffffffffffffffffffffffffffffff1673ffffffffffffffffffffffffffffffffffffffff1663dd62ed3e33306040518363ffffffff1660e01b81526004016112a6929190612271565b60206040518083038186803b1580156112be57600080fd5b505afa1580156112d2573d6000803e3d6000fd5b505050506040513d601f19601f820116820180604052508101906112f69190611f7b565b11611336576040517f08c379a000000000000000000000000000000000000000000000000000000000815260040161132d906123b1565b60405180910390fd5b6000600460006005548152602001908152602001600020905082816000018190555061012c426113669190612559565b81600201819055506005600081548092919061138190612685565b919050555060016005546113959190612609565b915050919050565b6113a5611ea4565b73ffffffffffffffffffffffffffffffffffffffff1660008054906101000a900473ffffffffffffffffffffffffffffffffffffffff1673ffffffffffffffffffffffffffffffffffffffff1614611432576040517f08c379a0000000000000000000000000000000000000000000000000000000008152600401611429906123d1565b60405180910390fd5b600760009054906101000a900473ffffffffffffffffffffffffffffffffffffffff1673ffffffffffffffffffffffffffffffffffffffff166323b872dd3061147961190e565b600760009054906101000a900473ffffffffffffffffffffffffffffffffffffffff1673ffffffffffffffffffffffffffffffffffffffff166370a08231306040518263ffffffff1660e01b81526004016114d49190612256565b60206040518083038186803b1580156114ec57600080fd5b505afa158015611500573d6000803e3d6000fd5b505050506040513d601f19601f820116820180604052508101906115249190611f7b565b6040518463ffffffff1660e01b81526004016115429392919061229a565b602060405180830381600087803b15801561155c57600080fd5b505af1158015611570573d6000803e3d6000fd5b505050506040513d601f19601f820116820180604052508101906115949190611f29565b6115c7577f4e487b7100000000000000000000000000000000000000000000000000000000600052600160045260246000fd5b565b60008060046000858152602001908152602001600020905060008160050160008573ffffffffffffffffffffffffffffffffffffffff1673ffffffffffffffffffffffffffffffffffffffff168152602001908152602001600020541415611666576040517f08c379a000000000000000000000000000000000000000000000000000000000815260040161165d90612391565b60405180910390fd5b8060050160008473ffffffffffffffffffffffffffffffffffffffff1673ffffffffffffffffffffffffffffffffffffffff1681526020019081526020016000205491505092915050565b6000806004600084815260200190815260200160002090508060010154915050919050565b6116de611ea4565b73ffffffffffffffffffffffffffffffffffffffff1660008054906101000a900473ffffffffffffffffffffffffffffffffffffffff1673ffffffffffffffffffffffffffffffffffffffff161461176b576040517f08c379a0000000000000000000000000000000000000000000000000000000008152600401611762906123d1565b60405180910390fd5b600073ffffffffffffffffffffffffffffffffffffffff1660008054906101000a900473ffffffffffffffffffffffffffffffffffffffff1673ffffffffffffffffffffffffffffffffffffffff167f8be0079c531659141344cd1fd0a4f28419497f9722a3daafe3b4186f6b6457e060405160405180910390a360008060006101000a81548173ffffffffffffffffffffffffffffffffffffffff021916908373ffffffffffffffffffffffffffffffffffffffff160217905550565b611831611ea4565b73ffffffffffffffffffffffffffffffffffffffff1660008054906101000a900473ffffffffffffffffffffffffffffffffffffffff1673ffffffffffffffffffffffffffffffffffffffff16146118be576040517f08c379a00000000000000000000000000000000000000000000000000000000081526004016118b5906123d1565b60405180910390fd5b6118c661190e565b73ffffffffffffffffffffffffffffffffffffffff166108fc479081150290604051600060405180830381858888f1935050505015801561190b573d6000803e3d6000fd5b50565b60008060009054906101000a900473ffffffffffffffffffffffffffffffffffffffff16905090565b3373ffffffffffffffffffffffffffffffffffffffff16600160009054906101000a900473ffffffffffffffffffffffffffffffffffffffff1673ffffffffffffffffffffffffffffffffffffffff16146119c7576040517f08c379a00000000000000000000000000000000000000000000000000000000081526004016119be90612471565b60405180910390fd5b6002544211611a0b576040517f08c379a0000000000000000000000000000000000000000000000000000000008152600401611a0290612431565b60405180910390fd5b600160009054906101000a900473ffffffffffffffffffffffffffffffffffffffff1673ffffffffffffffffffffffffffffffffffffffff1660008054906101000a900473ffffffffffffffffffffffffffffffffffffffff1673ffffffffffffffffffffffffffffffffffffffff167f8be0079c531659141344cd1fd0a4f28419497f9722a3daafe3b4186f6b6457e060405160405180910390a3600160009054906101000a900473ffffffffffffffffffffffffffffffffffffffff166000806101000a81548173ffffffffffffffffffffffffffffffffffffffff021916908373ffffffffffffffffffffffffffffffffffffffff160217905550565b6000600254905090565b611b1d611ea4565b73ffffffffffffffffffffffffffffffffffffffff1660008054906101000a900473ffffffffffffffffffffffffffffffffffffffff1673ffffffffffffffffffffffffffffffffffffffff1614611baa576040517f08c379a0000000000000000000000000000000000000000000000000000000008152600401611ba1906123d1565b60405180910390fd5b60008054906101000a900473ffffffffffffffffffffffffffffffffffffffff16600160006101000a81548173ffffffffffffffffffffffffffffffffffffffff021916908373ffffffffffffffffffffffffffffffffffffffff16021790555060008060006101000a81548173ffffffffffffffffffffffffffffffffffffffff021916908373ffffffffffffffffffffffffffffffffffffffff1602179055508042611c589190612559565b600281905550600073ffffffffffffffffffffffffffffffffffffffff1660008054906101000a900473ffffffffffffffffffffffffffffffffffffffff1673ffffffffffffffffffffffffffffffffffffffff167f8be0079c531659141344cd1fd0a4f28419497f9722a3daafe3b4186f6b6457e060405160405180910390a350565b611ce4611ea4565b73ffffffffffffffffffffffffffffffffffffffff1660008054906101000a900473ffffffffffffffffffffffffffffffffffffffff1673ffffffffffffffffffffffffffffffffffffffff1614611d71576040517f08c379a0000000000000000000000000000000000000000000000000000000008152600401611d68906123d1565b60405180910390fd5b600073ffffffffffffffffffffffffffffffffffffffff168173ffffffffffffffffffffffffffffffffffffffff161415611de1576040517f08c379a0000000000000000000000000000000000000000000000000000000008152600401611dd8906122f1565b60405180910390fd5b8073ffffffffffffffffffffffffffffffffffffffff1660008054906101000a900473ffffffffffffffffffffffffffffffffffffffff1673ffffffffffffffffffffffffffffffffffffffff167f8be0079c531659141344cd1fd0a4f28419497f9722a3daafe3b4186f6b6457e060405160405180910390a3806000806101000a81548173ffffffffffffffffffffffffffffffffffffffff021916908373ffffffffffffffffffffffffffffffffffffffff16021790555050565b60035481565b600033905090565b600081359050611ebb816129b0565b92915050565b600081519050611ed0816129c7565b92915050565b600081359050611ee5816129de565b92915050565b600081519050611efa816129de565b92915050565b600060208284031215611f1257600080fd5b6000611f2084828501611eac565b91505092915050565b600060208284031215611f3b57600080fd5b6000611f4984828501611ec1565b91505092915050565b600060208284031215611f6457600080fd5b6000611f7284828501611ed6565b91505092915050565b600060208284031215611f8d57600080fd5b6000611f9b84828501611eeb565b91505092915050565b60008060408385031215611fb757600080fd5b6000611fc585828601611ed6565b9250506020611fd685828601611eac565b9150509250929050565b60008060408385031215611ff357600080fd5b600061200185828601611ed6565b925050602061201285828601611ed6565b9150509250929050565b6120258161263d565b82525050565b6120348161264f565b82525050565b6000612047601583612548565b9150612052826126fd565b602082019050919050565b600061206a602683612548565b915061207582612726565b604082019050919050565b600061208d601483612548565b915061209882612775565b602082019050919050565b60006120b0601983612548565b91506120bb8261279e565b602082019050919050565b60006120d3601183612548565b91506120de826127c7565b602082019050919050565b60006120f6600d83612548565b9150612101826127f0565b602082019050919050565b6000612119600983612548565b915061212482612819565b602082019050919050565b600061213c601083612548565b915061214782612842565b602082019050919050565b600061215f602083612548565b915061216a8261286b565b602082019050919050565b6000612182601083612548565b915061218d82612894565b602082019050919050565b60006121a5600c83612548565b91506121b0826128bd565b602082019050919050565b60006121c8601f83612548565b91506121d3826128e6565b602082019050919050565b60006121eb601283612548565b91506121f68261290f565b602082019050919050565b600061220e602383612548565b915061221982612938565b604082019050919050565b6000612231601283612548565b915061223c82612987565b602082019050919050565b6122508161267b565b82525050565b600060208201905061226b600083018461201c565b92915050565b6000604082019050612286600083018561201c565b612293602083018461201c565b9392505050565b60006060820190506122af600083018661201c565b6122bc602083018561201c565b6122c96040830184612247565b949350505050565b600060208201905081810360008301526122ea8161203a565b9050919050565b6000602082019050818103600083015261230a8161205d565b9050919050565b6000602082019050818103600083015261232a81612080565b9050919050565b6000602082019050818103600083015261234a816120a3565b9050919050565b6000602082019050818103600083015261236a816120c6565b9050919050565b6000602082019050818103600083015261238a816120e9565b9050919050565b600060208201905081810360008301526123aa8161210c565b9050919050565b600060208201905081810360008301526123ca8161212f565b9050919050565b600060208201905081810360008301526123ea81612152565b9050919050565b6000602082019050818103600083015261240a81612175565b9050919050565b6000602082019050818103600083015261242a81612198565b9050919050565b6000602082019050818103600083015261244a816121bb565b9050919050565b6000602082019050818103600083015261246a816121de565b9050919050565b6000602082019050818103600083015261248a81612201565b9050919050565b600060208201905081810360008301526124aa81612224565b9050919050565b60006020820190506124c66000830184612247565b92915050565b60006060820190506124e16000830186612247565b6124ee6020830185612247565b6124fb6040830184612247565b949350505050565b60006080820190506125186000830187612247565b6125256020830186612247565b6125326040830185612247565b61253f606083018461202b565b95945050505050565b600082825260208201905092915050565b60006125648261267b565b915061256f8361267b565b9250827fffffffffffffffffffffffffffffffffffffffffffffffffffffffffffffffff038211156125a4576125a36126ce565b5b828201905092915050565b60006125ba8261267b565b91506125c58361267b565b9250817fffffffffffffffffffffffffffffffffffffffffffffffffffffffffffffffff04831182151516156125fe576125fd6126ce565b5b828202905092915050565b60006126148261267b565b915061261f8361267b565b925082821015612632576126316126ce565b5b828203905092915050565b60006126488261265b565b9050919050565b60008115159050919050565b600073ffffffffffffffffffffffffffffffffffffffff82169050919050565b6000819050919050565b60006126908261267b565b91507fffffffffffffffffffffffffffffffffffffffffffffffffffffffffffffffff8214156126c3576126c26126ce565b5b600182019050919050565b7f4e487b7100000000000000000000000000000000000000000000000000000000600052601160045260246000fd5b7f444541444c494e455f4e4f545f45584345454445440000000000000000000000600082015250565b7f4f776e61626c653a206e6577206f776e657220697320746865207a65726f206160008201527f6464726573730000000000000000000000000000000000000000000000000000602082015250565b7f4e4f545f454e4f5547485f44414f5f46554e4453000000000000000000000000600082015250565b7f50524f504f53414c5f414c52454144595f455845435554454400000000000000600082015250565b7f444541444c494e455f4558434545444544000000000000000000000000000000600082015250565b7f414c52454144595f564f54454400000000000000000000000000000000000000600082015250565b7f4e4f545f464f554e440000000000000000000000000000000000000000000000600082015250565b7f4e4f545f415f44414f5f4d454d42455200000000000000000000000000000000600082015250565b7f4f776e61626c653a2063616c6c6572206973206e6f7420746865206f776e6572600082015250565b7f4e4f545f454e4f5547485f564f54455300000000000000000000000000000000600082015250565b7f4e4f545f45584543555445440000000000000000000000000000000000000000600082015250565b7f436f6e7472616374206973206c6f636b656420756e74696c2037206461797300600082015250565b7f4e4f545f454e4f5547485f42414c414e43450000000000000000000000000000600082015250565b7f596f7520646f6e27742068617665207065726d697373696f6e20746f20756e6c60008201527f6f636b0000000000000000000000000000000000000000000000000000000000602082015250565b7f494e56414c49445f564f54455f434f554e540000000000000000000000000000600082015250565b6129b98161263d565b81146129c457600080fd5b50565b6129d08161264f565b81146129db57600080fd5b50565b6129e78161267b565b81146129f257600080fd5b5056fea2646970667358221220005db3b91346df1a053c59c2aedbaf5e7021dedecadd15a1074decca01d0ebd964736f6c63430008040033",
  "linkReferences": {},
  "deployedLinkReferences": {}
}