{
  "_format": "hh-sol-artifact-1",
  "contractName": "TheOpenFarmDAO",
  "sourceName": "contracts/FarmDAO.sol",
  "abi": [
    {
      "anonymous": false,
      "inputs": [
        {
          "indexed": true,
          "internalType": "address",
          "name": "previousOwner",
          "type": "address"
        },
        {
          "indexed": true,
          "internalType": "address",
          "name": "newOwner",
          "type": "address"
        }
      ],
      "name": "OwnershipTransferred",
      "type": "event"
    },
    {
      "stateMutability": "payable",
      "type": "fallback"
    },
    {
      "inputs": [],
      "name": "VOTE_COST",
      "outputs": [
        {
          "internalType": "uint256",
          "name": "",
          "type": "uint256"
        }
      ],
      "stateMutability": "view",
      "type": "function"
    },
    {
      "inputs": [
        {
          "internalType": "uint256",
          "name": "_proposalIndex",
          "type": "uint256"
        }
      ],
      "name": "amountOfVotesRequired",
      "outputs": [
        {
          "internalType": "uint256",
          "name": "",
          "type": "uint256"
        }
      ],
      "stateMutability": "view",
      "type": "function"
    },
    {
      "inputs": [
        {
          "internalType": "uint256",
          "name": "_amountOfVotesRequired",
          "type": "uint256"
        }
      ],
      "name": "createProposal",
      "outputs": [
        {
          "internalType": "uint256",
          "name": "",
          "type": "uint256"
        }
      ],
      "stateMutability": "nonpayable",
      "type": "function"
    },
    {
      "inputs": [
        {
          "internalType": "uint256",
          "name": "_proposalIndex",
          "type": "uint256"
        }
      ],
      "name": "executeProposal",
      "outputs": [],
      "stateMutability": "nonpayable",
      "type": "function"
    },
    {
      "inputs": [
        {
          "internalType": "uint256",
          "name": "_proposalIndex",
          "type": "uint256"
        }
      ],
      "name": "executeTest",
      "outputs": [],
      "stateMutability": "nonpayable",
      "type": "function"
    },
    {
      "inputs": [],
      "name": "geUnlockTime",
      "outputs": [
        {
          "internalType": "uint256",
          "name": "",
          "type": "uint256"
        }
      ],
      "stateMutability": "view",
      "type": "function"
    },
    {
      "inputs": [
        {
          "internalType": "uint256",
          "name": "_proposalIndex",
          "type": "uint256"
        },
        {
          "internalType": "address",
          "name": "_voter",
          "type": "address"
        }
      ],
      "name": "getVoterAmountOfTokens",
      "outputs": [
        {
          "internalType": "uint256",
          "name": "",
          "type": "uint256"
        }
      ],
      "stateMutability": "view",
      "type": "function"
    },
    {
      "inputs": [
        {
          "internalType": "uint256",
          "name": "_proposalIndex",
          "type": "uint256"
        },
        {
          "internalType": "address",
          "name": "_voter",
          "type": "address"
        }
      ],
      "name": "getVoterAmountOfVotes",
      "outputs": [
        {
          "internalType": "uint256",
          "name": "",
          "type": "uint256"
        }
      ],
      "stateMutability": "view",
      "type": "function"
    },
    {
      "inputs": [
        {
          "internalType": "uint256",
          "name": "_proposalIndex",
          "type": "uint256"
        },
        {
          "internalType": "address",
          "name": "_voter",
          "type": "address"
        }
      ],
      "name": "getVoterVoteIndex",
      "outputs": [
        {
          "internalType": "uint256",
          "name": "",
          "type": "uint256"
        }
      ],
      "stateMutability": "view",
      "type": "function"
    },
    {
      "inputs": [
        {
          "internalType": "uint256",
          "name": "time",
          "type": "uint256"
        }
      ],
      "name": "lock",
      "outputs": [],
      "stateMutability": "nonpayable",
      "type": "function"
    },
    {
      "inputs": [],
      "name": "numProposals",
      "outputs": [
        {
          "internalType": "uint256",
          "name": "",
          "type": "uint256"
        }
      ],
      "stateMutability": "view",
      "type": "function"
    },
    {
      "inputs": [],
      "name": "owner",
      "outputs": [
        {
          "internalType": "address",
          "name": "",
          "type": "address"
        }
      ],
      "stateMutability": "view",
      "type": "function"
    },
    {
      "inputs": [
        {
          "internalType": "uint256",
          "name": "",
          "type": "uint256"
        }
      ],
      "name": "proposals",
      "outputs": [
        {
          "internalType": "uint256",
          "name": "amountOfVotes",
          "type": "uint256"
        },
        {
          "internalType": "uint256",
          "name": "amountOfVotesRequired",
          "type": "uint256"
        },
        {
          "internalType": "uint256",
          "name": "amountOfTokens",
          "type": "uint256"
        },
        {
          "internalType": "uint256",
          "name": "amountOfTokensRequired",
          "type": "uint256"
        },
        {
          "internalType": "uint256",
          "name": "deadline",
          "type": "uint256"
        },
        {
          "internalType": "bool",
          "name": "executed",
          "type": "bool"
        }
      ],
      "stateMutability": "view",
      "type": "function"
    },
    {
      "inputs": [],
      "name": "renounceOwnership",
      "outputs": [],
      "stateMutability": "nonpayable",
      "type": "function"
    },
    {
      "inputs": [
        {
          "internalType": "address",
          "name": "newOwner",
          "type": "address"
        }
      ],
      "name": "transferOwnership",
      "outputs": [],
      "stateMutability": "nonpayable",
      "type": "function"
    },
    {
      "inputs": [],
      "name": "unlock",
      "outputs": [],
      "stateMutability": "nonpayable",
      "type": "function"
    },
    {
      "inputs": [
        {
          "internalType": "uint256",
          "name": "_proposalIndex",
          "type": "uint256"
        },
        {
          "internalType": "uint256",
          "name": "_amountOfVotes",
          "type": "uint256"
        }
      ],
      "name": "voteOnProposal",
      "outputs": [],
      "stateMutability": "nonpayable",
      "type": "function"
    },
    {
      "inputs": [],
      "name": "withdrawBalance",
      "outputs": [],
      "stateMutability": "nonpayable",
      "type": "function"
    },
    {
      "inputs": [],
      "name": "withdrawEther",
      "outputs": [],
      "stateMutability": "nonpayable",
      "type": "function"
    },
    {
      "inputs": [
        {
          "internalType": "uint256",
          "name": "_proposalIndex",
          "type": "uint256"
        }
      ],
      "name": "withdrawFromFailedProposal",
      "outputs": [],
      "stateMutability": "nonpayable",
      "type": "function"
    },
    {
      "stateMutability": "payable",
      "type": "receive"
    }
  ],
  "bytecode": "0x6080604052655af3107a40006003557331a6dca98b864333b7fa8aad8982b29e3af1c02f600660006101000a81548173ffffffffffffffffffffffffffffffffffffffff021916908373ffffffffffffffffffffffffffffffffffffffff160217905550738f3cf7ad23cd3cadbd9735aff958023239c6a063600760006101000a81548173ffffffffffffffffffffffffffffffffffffffff021916908373ffffffffffffffffffffffffffffffffffffffff1602179055503480156100c457600080fd5b5060006100d561017860201b60201c565b9050806000806101000a81548173ffffffffffffffffffffffffffffffffffffffff021916908373ffffffffffffffffffffffffffffffffffffffff1602179055508073ffffffffffffffffffffffffffffffffffffffff16600073ffffffffffffffffffffffffffffffffffffffff167f8be0079c531659141344cd1fd0a4f28419497f9722a3daafe3b4186f6b6457e060405160405180910390a350610180565b600033905090565b61329380620001906000396000f3fe6080604052600436106101225760003560e01c80636209a58b116100a0578063b6c5232411610064578063b6c52324146103cb578063d5892b55146103f6578063dd4670641461041f578063f2fde38b14610448578063fe71b8ba1461047157610129565b80636209a58b1461031e578063715018a61461035b5780637362377b146103725780638da5cb5b14610389578063a69df4b5146103b457610129565b8063400e3949116100e7578063400e394914610239578063556f6cc014610264578063572614871461028d5780635a43dc00146102ca5780635fd8c7101461030757610129565b806209ee391461012b578063013cf08b146101545780630d61b5191461019657806314c12703146101bf578063261dc989146101fc57610129565b3661012957005b005b34801561013757600080fd5b50610152600480360381019061014d9190612709565b61049c565b005b34801561016057600080fd5b5061017b60048036038101906101769190612709565b6108fa565b60405161018d96959493929190612d26565b60405180910390f35b3480156101a257600080fd5b506101bd60048036038101906101b89190612709565b610943565b005b3480156101cb57600080fd5b506101e660048036038101906101e19190612709565b610e57565b6040516101f39190612cd4565b60405180910390f35b34801561020857600080fd5b50610223600480360381019061021e919061275b565b610e7c565b6040516102309190612cd4565b60405180910390f35b34801561024557600080fd5b5061024e610f64565b60405161025b9190612cd4565b60405180910390f35b34801561027057600080fd5b5061028b60048036038101906102869190612797565b610f6a565b005b34801561029957600080fd5b506102b460048036038101906102af919061275b565b61148c565b6040516102c19190612cd4565b60405180910390f35b3480156102d657600080fd5b506102f160048036038101906102ec9190612709565b611574565b6040516102fe9190612cd4565b60405180910390f35b34801561031357600080fd5b5061031c611757565b005b34801561032a57600080fd5b506103456004803603810190610340919061275b565b611983565b6040516103529190612cd4565b60405180910390f35b34801561036757600080fd5b50610370611a6b565b005b34801561037e57600080fd5b50610387611bbe565b005b34801561039557600080fd5b5061039e611ca3565b6040516103ab9190612a30565b60405180910390f35b3480156103c057600080fd5b506103c9611ccc565b005b3480156103d757600080fd5b506103e0611ea0565b6040516103ed9190612cd4565b60405180910390f35b34801561040257600080fd5b5061041d60048036038101906104189190612709565b611eaa565b005b34801561042b57600080fd5b5061044660048036038101906104419190612709565b6122cc565b005b34801561045457600080fd5b5061046f600480360381019061046a91906126b7565b612493565b005b34801561047d57600080fd5b50610486612655565b6040516104939190612cd4565b60405180910390f35b6000600760009054906101000a900473ffffffffffffffffffffffffffffffffffffffff1673ffffffffffffffffffffffffffffffffffffffff1663dd62ed3e33306040518363ffffffff1660e01b81526004016104fb929190612a4b565b60206040518083038186803b15801561051357600080fd5b505afa158015610527573d6000803e3d6000fd5b505050506040513d601f19601f8201168201806040525081019061054b9190612732565b1161058b576040517f08c379a000000000000000000000000000000000000000000000000000000000815260040161058290612bd4565b60405180910390fd5b8042600460008381526020019081526020016000206004015411156105e5576040517f08c379a00000000000000000000000000000000000000000000000000000000081526004016105dc90612ad4565b60405180910390fd5b600015156004600083815260200190815260200160002060050160009054906101000a900460ff1615151461064f576040517f08c379a000000000000000000000000000000000000000000000000000000000815260040161064690612b54565b60405180910390fd5b60006004600084815260200190815260200160002090508060030154816002015410156106b1576040517f08c379a00000000000000000000000000000000000000000000000000000000081526004016106a890612c34565b60405180910390fd5b8060010154816000015410156106fc576040517f08c379a00000000000000000000000000000000000000000000000000000000081526004016106f390612c14565b60405180910390fd5b8060020154600760009054906101000a900473ffffffffffffffffffffffffffffffffffffffff1673ffffffffffffffffffffffffffffffffffffffff166370a08231306040518263ffffffff1660e01b815260040161075c9190612a30565b60206040518083038186803b15801561077457600080fd5b505afa158015610788573d6000803e3d6000fd5b505050506040513d601f19601f820116820180604052508101906107ac9190612732565b10156107ed576040517f08c379a00000000000000000000000000000000000000000000000000000000081526004016107e490612b34565b60405180910390fd5b600760009054906101000a900473ffffffffffffffffffffffffffffffffffffffff1673ffffffffffffffffffffffffffffffffffffffff1663095ea7b3600660009054906101000a900473ffffffffffffffffffffffffffffffffffffffff1683600201546040518363ffffffff1660e01b8152600401610870929190612aab565b602060405180830381600087803b15801561088a57600080fd5b505af115801561089e573d6000803e3d6000fd5b505050506040513d601f19601f820116820180604052508101906108c291906126e0565b6108f5577f4e487b7100000000000000000000000000000000000000000000000000000000600052600160045260246000fd5b505050565b60046020528060005260406000206000915090508060000154908060010154908060020154908060030154908060040154908060050160009054906101000a900460ff16905086565b6000600760009054906101000a900473ffffffffffffffffffffffffffffffffffffffff1673ffffffffffffffffffffffffffffffffffffffff1663dd62ed3e33306040518363ffffffff1660e01b81526004016109a2929190612a4b565b60206040518083038186803b1580156109ba57600080fd5b505afa1580156109ce573d6000803e3d6000fd5b505050506040513d601f19601f820116820180604052508101906109f29190612732565b11610a32576040517f08c379a0000000000000000000000000000000000000000000000000000000008152600401610a2990612bd4565b60405180910390fd5b804260046000838152602001908152602001600020600401541115610a8c576040517f08c379a0000000000000000000000000000000000000000000000000000000008152600401610a8390612ad4565b60405180910390fd5b600015156004600083815260200190815260200160002060050160009054906101000a900460ff16151514610af6576040517f08c379a0000000000000000000000000000000000000000000000000000000008152600401610aed90612b54565b60405180910390fd5b6000600460008481526020019081526020016000209050806003015481600201541015610b58576040517f08c379a0000000000000000000000000000000000000000000000000000000008152600401610b4f90612c34565b60405180910390fd5b806001015481600001541015610ba3576040517f08c379a0000000000000000000000000000000000000000000000000000000008152600401610b9a90612c14565b60405180910390fd5b8060020154600760009054906101000a900473ffffffffffffffffffffffffffffffffffffffff1673ffffffffffffffffffffffffffffffffffffffff166370a08231306040518263ffffffff1660e01b8152600401610c039190612a30565b60206040518083038186803b158015610c1b57600080fd5b505afa158015610c2f573d6000803e3d6000fd5b505050506040513d601f19601f82011682018060405250810190610c539190612732565b1015610c94576040517f08c379a0000000000000000000000000000000000000000000000000000000008152600401610c8b90612b34565b60405180910390fd5b600760009054906101000a900473ffffffffffffffffffffffffffffffffffffffff1673ffffffffffffffffffffffffffffffffffffffff1663095ea7b3600660009054906101000a900473ffffffffffffffffffffffffffffffffffffffff1683600201546040518363ffffffff1660e01b8152600401610d17929190612aab565b602060405180830381600087803b158015610d3157600080fd5b505af1158015610d45573d6000803e3d6000fd5b505050506040513d601f19601f82011682018060405250810190610d6991906126e0565b610d9c577f4e487b7100000000000000000000000000000000000000000000000000000000600052600160045260246000fd5b600660009054906101000a900473ffffffffffffffffffffffffffffffffffffffff1673ffffffffffffffffffffffffffffffffffffffff1663c71bf91a84836002015484600101546040518463ffffffff1660e01b8152600401610e0393929190612cef565b600060405180830381600087803b158015610e1d57600080fd5b505af1158015610e31573d6000803e3d6000fd5b5050505060018160050160006101000a81548160ff021916908315150217905550505050565b6000806004600084815260200190815260200160002090508060010154915050919050565b60008060046000858152602001908152602001600020905060008160060160008573ffffffffffffffffffffffffffffffffffffffff1673ffffffffffffffffffffffffffffffffffffffff168152602001908152602001600020541415610f19576040517f08c379a0000000000000000000000000000000000000000000000000000000008152600401610f1090612bb4565b60405180910390fd5b8060060160008473ffffffffffffffffffffffffffffffffffffffff1673ffffffffffffffffffffffffffffffffffffffff1681526020019081526020016000205491505092915050565b60055481565b6000600760009054906101000a900473ffffffffffffffffffffffffffffffffffffffff1673ffffffffffffffffffffffffffffffffffffffff1663dd62ed3e33306040518363ffffffff1660e01b8152600401610fc9929190612a4b565b60206040518083038186803b158015610fe157600080fd5b505afa158015610ff5573d6000803e3d6000fd5b505050506040513d601f19601f820116820180604052508101906110199190612732565b11611059576040517f08c379a000000000000000000000000000000000000000000000000000000000815260040161105090612bd4565b60405180910390fd5b81426004600083815260200190815260200160002060040154116110b2576040517f08c379a00000000000000000000000000000000000000000000000000000000081526004016110a990612b74565b60405180910390fd5b60006004600085815260200190815260200160002090506000600760009054906101000a900473ffffffffffffffffffffffffffffffffffffffff1673ffffffffffffffffffffffffffffffffffffffff166370a08231336040518263ffffffff1660e01b81526004016111269190612a30565b60206040518083038186803b15801561113e57600080fd5b505afa158015611152573d6000803e3d6000fd5b505050506040513d601f19601f820116820180604052508101906111769190612732565b90506000846003546111889190612dee565b9050808210156111cd576040517f08c379a00000000000000000000000000000000000000000000000000000000081526004016111c490612c74565b60405180910390fd5b60008360080160003373ffffffffffffffffffffffffffffffffffffffff1673ffffffffffffffffffffffffffffffffffffffff1681526020019081526020016000205414611251576040517f08c379a000000000000000000000000000000000000000000000000000000000815260040161124890612b94565b60405180910390fd5b60008511611294576040517f08c379a000000000000000000000000000000000000000000000000000000000815260040161128b90612cb4565b60405180910390fd5b82600001548360060160003373ffffffffffffffffffffffffffffffffffffffff1673ffffffffffffffffffffffffffffffffffffffff16815260200190815260200160002081905550848360070160003373ffffffffffffffffffffffffffffffffffffffff1673ffffffffffffffffffffffffffffffffffffffff16815260200190815260200160002081905550808360080160003373ffffffffffffffffffffffffffffffffffffffff1673ffffffffffffffffffffffffffffffffffffffff168152602001908152602001600020819055508083600201600082825461137e9190612d98565b92505081905550848360000160008282546113999190612d98565b92505081905550600760009054906101000a900473ffffffffffffffffffffffffffffffffffffffff1673ffffffffffffffffffffffffffffffffffffffff166323b872dd3330846040518463ffffffff1660e01b81526004016113ff93929190612a74565b602060405180830381600087803b15801561141957600080fd5b505af115801561142d573d6000803e3d6000fd5b505050506040513d601f19601f8201168201806040525081019061145191906126e0565b611484577f4e487b7100000000000000000000000000000000000000000000000000000000600052600160045260246000fd5b505050505050565b60008060046000858152602001908152602001600020905060008160080160008573ffffffffffffffffffffffffffffffffffffffff1673ffffffffffffffffffffffffffffffffffffffff168152602001908152602001600020541415611529576040517f08c379a000000000000000000000000000000000000000000000000000000000815260040161152090612bb4565b60405180910390fd5b8060080160008473ffffffffffffffffffffffffffffffffffffffff1673ffffffffffffffffffffffffffffffffffffffff1681526020019081526020016000205491505092915050565b600080600760009054906101000a900473ffffffffffffffffffffffffffffffffffffffff1673ffffffffffffffffffffffffffffffffffffffff1663dd62ed3e33306040518363ffffffff1660e01b81526004016115d4929190612a4b565b60206040518083038186803b1580156115ec57600080fd5b505afa158015611600573d6000803e3d6000fd5b505050506040513d601f19601f820116820180604052508101906116249190612732565b11611664576040517f08c379a000000000000000000000000000000000000000000000000000000000815260040161165b90612bd4565b60405180910390fd5b600060046000600554815260200190815260200160002090506000600554146116f457600060046000600160055461169c9190612e48565b81526020019081526020016000209050806004015442116116f2576040517f08c379a00000000000000000000000000000000000000000000000000000000081526004016116e990612b14565b60405180910390fd5b505b8281600101819055508260035461170b9190612dee565b8160030181905550603c426117209190612d98565b81600401819055506005600081548092919061173b90612ec4565b9190505550600160055461174f9190612e48565b915050919050565b61175f61265b565b73ffffffffffffffffffffffffffffffffffffffff1660008054906101000a900473ffffffffffffffffffffffffffffffffffffffff1673ffffffffffffffffffffffffffffffffffffffff16146117ec576040517f08c379a00000000000000000000000000000000000000000000000000000000081526004016117e390612bf4565b60405180910390fd5b600760009054906101000a900473ffffffffffffffffffffffffffffffffffffffff1673ffffffffffffffffffffffffffffffffffffffff166323b872dd30611833611ca3565b600760009054906101000a900473ffffffffffffffffffffffffffffffffffffffff1673ffffffffffffffffffffffffffffffffffffffff166370a08231306040518263ffffffff1660e01b815260040161188e9190612a30565b60206040518083038186803b1580156118a657600080fd5b505afa1580156118ba573d6000803e3d6000fd5b505050506040513d601f19601f820116820180604052508101906118de9190612732565b6040518463ffffffff1660e01b81526004016118fc93929190612a74565b602060405180830381600087803b15801561191657600080fd5b505af115801561192a573d6000803e3d6000fd5b505050506040513d601f19601f8201168201806040525081019061194e91906126e0565b611981577f4e487b7100000000000000000000000000000000000000000000000000000000600052600160045260246000fd5b565b60008060046000858152602001908152602001600020905060008160070160008573ffffffffffffffffffffffffffffffffffffffff1673ffffffffffffffffffffffffffffffffffffffff168152602001908152602001600020541415611a20576040517f08c379a0000000000000000000000000000000000000000000000000000000008152600401611a1790612bb4565b60405180910390fd5b8060070160008473ffffffffffffffffffffffffffffffffffffffff1673ffffffffffffffffffffffffffffffffffffffff1681526020019081526020016000205491505092915050565b611a7361265b565b73ffffffffffffffffffffffffffffffffffffffff1660008054906101000a900473ffffffffffffffffffffffffffffffffffffffff1673ffffffffffffffffffffffffffffffffffffffff1614611b00576040517f08c379a0000000000000000000000000000000000000000000000000000000008152600401611af790612bf4565b60405180910390fd5b600073ffffffffffffffffffffffffffffffffffffffff1660008054906101000a900473ffffffffffffffffffffffffffffffffffffffff1673ffffffffffffffffffffffffffffffffffffffff167f8be0079c531659141344cd1fd0a4f28419497f9722a3daafe3b4186f6b6457e060405160405180910390a360008060006101000a81548173ffffffffffffffffffffffffffffffffffffffff021916908373ffffffffffffffffffffffffffffffffffffffff160217905550565b611bc661265b565b73ffffffffffffffffffffffffffffffffffffffff1660008054906101000a900473ffffffffffffffffffffffffffffffffffffffff1673ffffffffffffffffffffffffffffffffffffffff1614611c53576040517f08c379a0000000000000000000000000000000000000000000000000000000008152600401611c4a90612bf4565b60405180910390fd5b611c5b611ca3565b73ffffffffffffffffffffffffffffffffffffffff166108fc479081150290604051600060405180830381858888f19350505050158015611ca0573d6000803e3d6000fd5b50565b60008060009054906101000a900473ffffffffffffffffffffffffffffffffffffffff16905090565b3373ffffffffffffffffffffffffffffffffffffffff16600160009054906101000a900473ffffffffffffffffffffffffffffffffffffffff1673ffffffffffffffffffffffffffffffffffffffff1614611d5c576040517f08c379a0000000000000000000000000000000000000000000000000000000008152600401611d5390612c94565b60405180910390fd5b6002544211611da0576040517f08c379a0000000000000000000000000000000000000000000000000000000008152600401611d9790612c54565b60405180910390fd5b600160009054906101000a900473ffffffffffffffffffffffffffffffffffffffff1673ffffffffffffffffffffffffffffffffffffffff1660008054906101000a900473ffffffffffffffffffffffffffffffffffffffff1673ffffffffffffffffffffffffffffffffffffffff167f8be0079c531659141344cd1fd0a4f28419497f9722a3daafe3b4186f6b6457e060405160405180910390a3600160009054906101000a900473ffffffffffffffffffffffffffffffffffffffff166000806101000a81548173ffffffffffffffffffffffffffffffffffffffff021916908373ffffffffffffffffffffffffffffffffffffffff160217905550565b6000600254905090565b6000600760009054906101000a900473ffffffffffffffffffffffffffffffffffffffff1673ffffffffffffffffffffffffffffffffffffffff1663dd62ed3e33306040518363ffffffff1660e01b8152600401611f09929190612a4b565b60206040518083038186803b158015611f2157600080fd5b505afa158015611f35573d6000803e3d6000fd5b505050506040513d601f19601f82011682018060405250810190611f599190612732565b11611f99576040517f08c379a0000000000000000000000000000000000000000000000000000000008152600401611f9090612bd4565b60405180910390fd5b804260046000838152602001908152602001600020600401541115611ff3576040517f08c379a0000000000000000000000000000000000000000000000000000000008152600401611fea90612ad4565b60405180910390fd5b600015156004600083815260200190815260200160002060050160009054906101000a900460ff1615151461205d576040517f08c379a000000000000000000000000000000000000000000000000000000000815260040161205490612b54565b60405180910390fd5b60006004600084815260200190815260200160002090508060080160003373ffffffffffffffffffffffffffffffffffffffff1673ffffffffffffffffffffffffffffffffffffffff16815260200190815260200160002054600760009054906101000a900473ffffffffffffffffffffffffffffffffffffffff1673ffffffffffffffffffffffffffffffffffffffff166370a08231306040518263ffffffff1660e01b81526004016121119190612a30565b60206040518083038186803b15801561212957600080fd5b505afa15801561213d573d6000803e3d6000fd5b505050506040513d601f19601f820116820180604052508101906121619190612732565b10156121a2576040517f08c379a000000000000000000000000000000000000000000000000000000000815260040161219990612b34565b60405180910390fd5b600760009054906101000a900473ffffffffffffffffffffffffffffffffffffffff1673ffffffffffffffffffffffffffffffffffffffff166323b872dd30338460080160003373ffffffffffffffffffffffffffffffffffffffff1673ffffffffffffffffffffffffffffffffffffffff168152602001908152602001600020546040518463ffffffff1660e01b815260040161224293929190612a74565b602060405180830381600087803b15801561225c57600080fd5b505af1158015612270573d6000803e3d6000fd5b505050506040513d601f19601f8201168201806040525081019061229491906126e0565b6122c7577f4e487b7100000000000000000000000000000000000000000000000000000000600052600160045260246000fd5b505050565b6122d461265b565b73ffffffffffffffffffffffffffffffffffffffff1660008054906101000a900473ffffffffffffffffffffffffffffffffffffffff1673ffffffffffffffffffffffffffffffffffffffff1614612361576040517f08c379a000000000000000000000000000000000000000000000000000000000815260040161235890612bf4565b60405180910390fd5b60008054906101000a900473ffffffffffffffffffffffffffffffffffffffff16600160006101000a81548173ffffffffffffffffffffffffffffffffffffffff021916908373ffffffffffffffffffffffffffffffffffffffff16021790555060008060006101000a81548173ffffffffffffffffffffffffffffffffffffffff021916908373ffffffffffffffffffffffffffffffffffffffff160217905550804261240f9190612d98565b600281905550600073ffffffffffffffffffffffffffffffffffffffff1660008054906101000a900473ffffffffffffffffffffffffffffffffffffffff1673ffffffffffffffffffffffffffffffffffffffff167f8be0079c531659141344cd1fd0a4f28419497f9722a3daafe3b4186f6b6457e060405160405180910390a350565b61249b61265b565b73ffffffffffffffffffffffffffffffffffffffff1660008054906101000a900473ffffffffffffffffffffffffffffffffffffffff1673ffffffffffffffffffffffffffffffffffffffff1614612528576040517f08c379a000000000000000000000000000000000000000000000000000000000815260040161251f90612bf4565b60405180910390fd5b600073ffffffffffffffffffffffffffffffffffffffff168173ffffffffffffffffffffffffffffffffffffffff161415612598576040517f08c379a000000000000000000000000000000000000000000000000000000000815260040161258f90612af4565b60405180910390fd5b8073ffffffffffffffffffffffffffffffffffffffff1660008054906101000a900473ffffffffffffffffffffffffffffffffffffffff1673ffffffffffffffffffffffffffffffffffffffff167f8be0079c531659141344cd1fd0a4f28419497f9722a3daafe3b4186f6b6457e060405160405180910390a3806000806101000a81548173ffffffffffffffffffffffffffffffffffffffff021916908373ffffffffffffffffffffffffffffffffffffffff16021790555050565b60035481565b600033905090565b60008135905061267281613218565b92915050565b6000815190506126878161322f565b92915050565b60008135905061269c81613246565b92915050565b6000815190506126b181613246565b92915050565b6000602082840312156126c957600080fd5b60006126d784828501612663565b91505092915050565b6000602082840312156126f257600080fd5b600061270084828501612678565b91505092915050565b60006020828403121561271b57600080fd5b60006127298482850161268d565b91505092915050565b60006020828403121561274457600080fd5b6000612752848285016126a2565b91505092915050565b6000806040838503121561276e57600080fd5b600061277c8582860161268d565b925050602061278d85828601612663565b9150509250929050565b600080604083850312156127aa57600080fd5b60006127b88582860161268d565b92505060206127c98582860161268d565b9150509250929050565b6127dc81612e7c565b82525050565b6127eb81612e8e565b82525050565b60006127fe601583612d87565b915061280982612f3c565b602082019050919050565b6000612821602683612d87565b915061282c82612f65565b604082019050919050565b6000612844601683612d87565b915061284f82612fb4565b602082019050919050565b6000612867601483612d87565b915061287282612fdd565b602082019050919050565b600061288a601983612d87565b915061289582613006565b602082019050919050565b60006128ad601183612d87565b91506128b88261302f565b602082019050919050565b60006128d0600d83612d87565b91506128db82613058565b602082019050919050565b60006128f3600983612d87565b91506128fe82613081565b602082019050919050565b6000612916601083612d87565b9150612921826130aa565b602082019050919050565b6000612939602083612d87565b9150612944826130d3565b602082019050919050565b600061295c601083612d87565b9150612967826130fc565b602082019050919050565b600061297f601183612d87565b915061298a82613125565b602082019050919050565b60006129a2601f83612d87565b91506129ad8261314e565b602082019050919050565b60006129c5601283612d87565b91506129d082613177565b602082019050919050565b60006129e8602383612d87565b91506129f3826131a0565b604082019050919050565b6000612a0b601283612d87565b9150612a16826131ef565b602082019050919050565b612a2a81612eba565b82525050565b6000602082019050612a4560008301846127d3565b92915050565b6000604082019050612a6060008301856127d3565b612a6d60208301846127d3565b9392505050565b6000606082019050612a8960008301866127d3565b612a9660208301856127d3565b612aa36040830184612a21565b949350505050565b6000604082019050612ac060008301856127d3565b612acd6020830184612a21565b9392505050565b60006020820190508181036000830152612aed816127f1565b9050919050565b60006020820190508181036000830152612b0d81612814565b9050919050565b60006020820190508181036000830152612b2d81612837565b9050919050565b60006020820190508181036000830152612b4d8161285a565b9050919050565b60006020820190508181036000830152612b6d8161287d565b9050919050565b60006020820190508181036000830152612b8d816128a0565b9050919050565b60006020820190508181036000830152612bad816128c3565b9050919050565b60006020820190508181036000830152612bcd816128e6565b9050919050565b60006020820190508181036000830152612bed81612909565b9050919050565b60006020820190508181036000830152612c0d8161292c565b9050919050565b60006020820190508181036000830152612c2d8161294f565b9050919050565b60006020820190508181036000830152612c4d81612972565b9050919050565b60006020820190508181036000830152612c6d81612995565b9050919050565b60006020820190508181036000830152612c8d816129b8565b9050919050565b60006020820190508181036000830152612cad816129db565b9050919050565b60006020820190508181036000830152612ccd816129fe565b9050919050565b6000602082019050612ce96000830184612a21565b92915050565b6000606082019050612d046000830186612a21565b612d116020830185612a21565b612d1e6040830184612a21565b949350505050565b600060c082019050612d3b6000830189612a21565b612d486020830188612a21565b612d556040830187612a21565b612d626060830186612a21565b612d6f6080830185612a21565b612d7c60a08301846127e2565b979650505050505050565b600082825260208201905092915050565b6000612da382612eba565b9150612dae83612eba565b9250827fffffffffffffffffffffffffffffffffffffffffffffffffffffffffffffffff03821115612de357612de2612f0d565b5b828201905092915050565b6000612df982612eba565b9150612e0483612eba565b9250817fffffffffffffffffffffffffffffffffffffffffffffffffffffffffffffffff0483118215151615612e3d57612e3c612f0d565b5b828202905092915050565b6000612e5382612eba565b9150612e5e83612eba565b925082821015612e7157612e70612f0d565b5b828203905092915050565b6000612e8782612e9a565b9050919050565b60008115159050919050565b600073ffffffffffffffffffffffffffffffffffffffff82169050919050565b6000819050919050565b6000612ecf82612eba565b91507fffffffffffffffffffffffffffffffffffffffffffffffffffffffffffffffff821415612f0257612f01612f0d565b5b600182019050919050565b7f4e487b7100000000000000000000000000000000000000000000000000000000600052601160045260246000fd5b7f444541444c494e455f4e4f545f45584345454445440000000000000000000000600082015250565b7f4f776e61626c653a206e6577206f776e657220697320746865207a65726f206160008201527f6464726573730000000000000000000000000000000000000000000000000000602082015250565b7f4143544956455f50524f504f53414c5f45584953545300000000000000000000600082015250565b7f4e4f545f454e4f5547485f44414f5f46554e4453000000000000000000000000600082015250565b7f50524f504f53414c5f414c52454144595f455845435554454400000000000000600082015250565b7f444541444c494e455f4558434545444544000000000000000000000000000000600082015250565b7f414c52454144595f564f54454400000000000000000000000000000000000000600082015250565b7f4e4f545f464f554e440000000000000000000000000000000000000000000000600082015250565b7f4e4f545f415f44414f5f4d454d42455200000000000000000000000000000000600082015250565b7f4f776e61626c653a2063616c6c6572206973206e6f7420746865206f776e6572600082015250565b7f4e4f545f454e4f5547485f564f54455300000000000000000000000000000000600082015250565b7f4e4f545f454e4f5547485f544f4b454e53000000000000000000000000000000600082015250565b7f436f6e7472616374206973206c6f636b656420756e74696c2037206461797300600082015250565b7f4e4f545f454e4f5547485f42414c414e43450000000000000000000000000000600082015250565b7f596f7520646f6e27742068617665207065726d697373696f6e20746f20756e6c60008201527f6f636b0000000000000000000000000000000000000000000000000000000000602082015250565b7f494e56414c49445f564f54455f434f554e540000000000000000000000000000600082015250565b61322181612e7c565b811461322c57600080fd5b50565b61323881612e8e565b811461324357600080fd5b50565b61324f81612eba565b811461325a57600080fd5b5056fea2646970667358221220e487e8799f4ff98470e15b742180eae5ce85c264d68962b0434807c534706b8764736f6c63430008040033",
  "linkReferences": {},
  "deployedLinkReferences": {}
}