{
  "_format": "hh-sol-artifact-1",
  "contractName": "TheOpenFarmDAO",
  "sourceName": "contracts/FarmDAO.sol",
  "abi": [
    {
      "anonymous": false,
      "inputs": [
        {
          "indexed": true,
          "internalType": "address",
          "name": "previousOwner",
          "type": "address"
        },
        {
          "indexed": true,
          "internalType": "address",
          "name": "newOwner",
          "type": "address"
        }
      ],
      "name": "OwnershipTransferred",
      "type": "event"
    },
    {
      "stateMutability": "payable",
      "type": "fallback"
    },
    {
      "inputs": [],
      "name": "MAX_INT_TYPE",
      "outputs": [
        {
          "internalType": "uint256",
          "name": "",
          "type": "uint256"
        }
      ],
      "stateMutability": "view",
      "type": "function"
    },
    {
      "inputs": [],
      "name": "VOTE_COST",
      "outputs": [
        {
          "internalType": "uint256",
          "name": "",
          "type": "uint256"
        }
      ],
      "stateMutability": "view",
      "type": "function"
    },
    {
      "inputs": [
        {
          "internalType": "uint256",
          "name": "_proposalIndex",
          "type": "uint256"
        }
      ],
      "name": "amountOfVotesRequired",
      "outputs": [
        {
          "internalType": "uint256",
          "name": "",
          "type": "uint256"
        }
      ],
      "stateMutability": "view",
      "type": "function"
    },
    {
      "inputs": [
        {
          "internalType": "uint256",
          "name": "_amountOfVotesRequired",
          "type": "uint256"
        },
        {
          "internalType": "uint256",
          "name": "_minutes",
          "type": "uint256"
        }
      ],
      "name": "createProposal",
      "outputs": [
        {
          "internalType": "uint256",
          "name": "",
          "type": "uint256"
        }
      ],
      "stateMutability": "nonpayable",
      "type": "function"
    },
    {
      "inputs": [
        {
          "internalType": "uint256",
          "name": "_proposalIndex",
          "type": "uint256"
        }
      ],
      "name": "executeProposal",
      "outputs": [],
      "stateMutability": "nonpayable",
      "type": "function"
    },
    {
      "inputs": [],
      "name": "geUnlockTime",
      "outputs": [
        {
          "internalType": "uint256",
          "name": "",
          "type": "uint256"
        }
      ],
      "stateMutability": "view",
      "type": "function"
    },
    {
      "inputs": [
        {
          "internalType": "uint256",
          "name": "_proposalIndex",
          "type": "uint256"
        },
        {
          "internalType": "address",
          "name": "_voter",
          "type": "address"
        }
      ],
      "name": "getVoterAmountOfTokens",
      "outputs": [
        {
          "internalType": "uint256",
          "name": "",
          "type": "uint256"
        }
      ],
      "stateMutability": "view",
      "type": "function"
    },
    {
      "inputs": [
        {
          "internalType": "uint256",
          "name": "_proposalIndex",
          "type": "uint256"
        },
        {
          "internalType": "address",
          "name": "_voter",
          "type": "address"
        }
      ],
      "name": "getVoterAmountOfVotes",
      "outputs": [
        {
          "internalType": "uint256",
          "name": "",
          "type": "uint256"
        }
      ],
      "stateMutability": "view",
      "type": "function"
    },
    {
      "inputs": [
        {
          "internalType": "uint256",
          "name": "_proposalIndex",
          "type": "uint256"
        },
        {
          "internalType": "address",
          "name": "_voter",
          "type": "address"
        }
      ],
      "name": "getVoterVoteIndex",
      "outputs": [
        {
          "internalType": "uint256",
          "name": "",
          "type": "uint256"
        }
      ],
      "stateMutability": "view",
      "type": "function"
    },
    {
      "inputs": [
        {
          "internalType": "uint256",
          "name": "time",
          "type": "uint256"
        }
      ],
      "name": "lock",
      "outputs": [],
      "stateMutability": "nonpayable",
      "type": "function"
    },
    {
      "inputs": [],
      "name": "numProposals",
      "outputs": [
        {
          "internalType": "uint256",
          "name": "",
          "type": "uint256"
        }
      ],
      "stateMutability": "view",
      "type": "function"
    },
    {
      "inputs": [],
      "name": "owner",
      "outputs": [
        {
          "internalType": "address",
          "name": "",
          "type": "address"
        }
      ],
      "stateMutability": "view",
      "type": "function"
    },
    {
      "inputs": [
        {
          "internalType": "uint256",
          "name": "",
          "type": "uint256"
        }
      ],
      "name": "proposals",
      "outputs": [
        {
          "internalType": "uint256",
          "name": "amountOfVotes",
          "type": "uint256"
        },
        {
          "internalType": "uint256",
          "name": "amountOfVotesRequired",
          "type": "uint256"
        },
        {
          "internalType": "uint256",
          "name": "amountOfTokens",
          "type": "uint256"
        },
        {
          "internalType": "uint256",
          "name": "amountOfTokensRequired",
          "type": "uint256"
        },
        {
          "internalType": "uint256",
          "name": "deadline",
          "type": "uint256"
        },
        {
          "internalType": "bool",
          "name": "executed",
          "type": "bool"
        }
      ],
      "stateMutability": "view",
      "type": "function"
    },
    {
      "inputs": [],
      "name": "renounceOwnership",
      "outputs": [],
      "stateMutability": "nonpayable",
      "type": "function"
    },
    {
      "inputs": [
        {
          "internalType": "address",
          "name": "_lotto",
          "type": "address"
        }
      ],
      "name": "setLotto",
      "outputs": [],
      "stateMutability": "nonpayable",
      "type": "function"
    },
    {
      "inputs": [],
      "name": "theLotto",
      "outputs": [
        {
          "internalType": "address",
          "name": "",
          "type": "address"
        }
      ],
      "stateMutability": "view",
      "type": "function"
    },
    {
      "inputs": [
        {
          "internalType": "address",
          "name": "newOwner",
          "type": "address"
        }
      ],
      "name": "transferOwnership",
      "outputs": [],
      "stateMutability": "nonpayable",
      "type": "function"
    },
    {
      "inputs": [],
      "name": "unlock",
      "outputs": [],
      "stateMutability": "nonpayable",
      "type": "function"
    },
    {
      "inputs": [
        {
          "internalType": "uint256",
          "name": "_proposalIndex",
          "type": "uint256"
        },
        {
          "internalType": "uint256",
          "name": "_amountOfVotes",
          "type": "uint256"
        }
      ],
      "name": "voteOnProposal",
      "outputs": [],
      "stateMutability": "nonpayable",
      "type": "function"
    },
    {
      "inputs": [],
      "name": "withdrawBalance",
      "outputs": [],
      "stateMutability": "nonpayable",
      "type": "function"
    },
    {
      "inputs": [],
      "name": "withdrawEther",
      "outputs": [],
      "stateMutability": "nonpayable",
      "type": "function"
    },
    {
      "inputs": [
        {
          "internalType": "uint256",
          "name": "_proposalIndex",
          "type": "uint256"
        }
      ],
      "name": "withdrawFromFailedProposal",
      "outputs": [],
      "stateMutability": "nonpayable",
      "type": "function"
    },
    {
      "stateMutability": "payable",
      "type": "receive"
    }
  ],
  "bytecode": "0x60806040526509184e72a00060035573f5cc52c98cfd9c7e42653a7ccf67b285ef097b5e600660006101000a81548173ffffffffffffffffffffffffffffffffffffffff021916908373ffffffffffffffffffffffffffffffffffffffff160217905550738f3cf7ad23cd3cadbd9735aff958023239c6a063600760006101000a81548173ffffffffffffffffffffffffffffffffffffffff021916908373ffffffffffffffffffffffffffffffffffffffff1602179055503480156100c457600080fd5b5060006100d561017860201b60201c565b9050806000806101000a81548173ffffffffffffffffffffffffffffffffffffffff021916908373ffffffffffffffffffffffffffffffffffffffff1602179055508073ffffffffffffffffffffffffffffffffffffffff16600073ffffffffffffffffffffffffffffffffffffffff167f8be0079c531659141344cd1fd0a4f28419497f9722a3daafe3b4186f6b6457e060405160405180910390a350610180565b600033905090565b6132c280620001906000396000f3fe6080604052600436106101395760003560e01c80636935bda6116100ab578063a69df4b51161006f578063a69df4b514610421578063b6c5232414610438578063d5892b5514610463578063dd4670641461048c578063f2fde38b146104b5578063fe71b8ba146104de57610140565b80636935bda614610362578063708878f11461039f578063715018a6146103c85780637362377b146103df5780638da5cb5b146103f657610140565b806329ad9402116100fd57806329ad940214610252578063400e39491461027d578063556f6cc0146102a857806357261487146102d15780635fd8c7101461030e5780636209a58b1461032557610140565b8063013cf08b146101425780630d61b5191461018457806314c12703146101ad578063261dc989146101ea5780632934261a1461022757610140565b3661014057005b005b34801561014e57600080fd5b50610169600480360381019061016491906125f4565b610509565b60405161017b96959493929190612cda565b60405180910390f35b34801561019057600080fd5b506101ab60048036038101906101a691906125f4565b610552565b005b3480156101b957600080fd5b506101d460048036038101906101cf91906125f4565b610a18565b6040516101e19190612c88565b60405180910390f35b3480156101f657600080fd5b50610211600480360381019061020c9190612646565b610a3d565b60405161021e9190612c88565b60405180910390f35b34801561023357600080fd5b5061023c610b25565b6040516102499190612984565b60405180910390f35b34801561025e57600080fd5b50610267610b4b565b6040516102749190612c88565b60405180910390f35b34801561028957600080fd5b50610292610b6f565b60405161029f9190612c88565b60405180910390f35b3480156102b457600080fd5b506102cf60048036038101906102ca9190612682565b610b75565b005b3480156102dd57600080fd5b506102f860048036038101906102f39190612646565b6111a5565b6040516103059190612c88565b60405180910390f35b34801561031a57600080fd5b5061032361128d565b005b34801561033157600080fd5b5061034c60048036038101906103479190612646565b6114b7565b6040516103599190612c88565b60405180910390f35b34801561036e57600080fd5b5061038960048036038101906103849190612682565b61159f565b6040516103969190612c88565b60405180910390f35b3480156103ab57600080fd5b506103c660048036038101906103c191906125a2565b61178e565b005b3480156103d457600080fd5b506103dd611867565b005b3480156103eb57600080fd5b506103f46119ba565b005b34801561040257600080fd5b5061040b611a9f565b6040516104189190612984565b60405180910390f35b34801561042d57600080fd5b50610436611ac8565b005b34801561044457600080fd5b5061044d611c9c565b60405161045a9190612c88565b60405180910390f35b34801561046f57600080fd5b5061048a600480360381019061048591906125f4565b611ca6565b005b34801561049857600080fd5b506104b360048036038101906104ae91906125f4565b6121b7565b005b3480156104c157600080fd5b506104dc60048036038101906104d791906125a2565b61237e565b005b3480156104ea57600080fd5b506104f3612540565b6040516105009190612c88565b60405180910390f35b60046020528060005260406000206000915090508060000154908060010154908060020154908060030154908060040154908060050160009054906101000a900460ff16905086565b6000600760009054906101000a900473ffffffffffffffffffffffffffffffffffffffff1673ffffffffffffffffffffffffffffffffffffffff1663dd62ed3e33306040518363ffffffff1660e01b81526004016105b192919061299f565b60206040518083038186803b1580156105c957600080fd5b505afa1580156105dd573d6000803e3d6000fd5b505050506040513d601f19601f82011682018060405250810190610601919061261d565b11610641576040517f08c379a000000000000000000000000000000000000000000000000000000000815260040161063890612b48565b60405180910390fd5b80426004600083815260200190815260200160002060040154111561069b576040517f08c379a000000000000000000000000000000000000000000000000000000000815260040161069290612a28565b60405180910390fd5b60006004600084815260200190815260200160002090508060030154816002015410156106fd576040517f08c379a00000000000000000000000000000000000000000000000000000000081526004016106f490612be8565b60405180910390fd5b806001015481600001541015610748576040517f08c379a000000000000000000000000000000000000000000000000000000000815260040161073f90612ba8565b60405180910390fd5b8060020154600760009054906101000a900473ffffffffffffffffffffffffffffffffffffffff1673ffffffffffffffffffffffffffffffffffffffff166370a08231306040518263ffffffff1660e01b81526004016107a89190612984565b60206040518083038186803b1580156107c057600080fd5b505afa1580156107d4573d6000803e3d6000fd5b505050506040513d601f19601f820116820180604052508101906107f8919061261d565b1015610839576040517f08c379a000000000000000000000000000000000000000000000000000000000815260040161083090612aa8565b60405180910390fd5b600760009054906101000a900473ffffffffffffffffffffffffffffffffffffffff1673ffffffffffffffffffffffffffffffffffffffff1663095ea7b3600660009054906101000a900473ffffffffffffffffffffffffffffffffffffffff167fffffffffffffffffffffffffffffffffffffffffffffffffffffffffffffffff6040518363ffffffff1660e01b81526004016108d89291906129ff565b602060405180830381600087803b1580156108f257600080fd5b505af1158015610906573d6000803e3d6000fd5b505050506040513d601f19601f8201168201806040525081019061092a91906125cb565b61095d577f4e487b7100000000000000000000000000000000000000000000000000000000600052600160045260246000fd5b600660009054906101000a900473ffffffffffffffffffffffffffffffffffffffff1673ffffffffffffffffffffffffffffffffffffffff1663c71bf91a84836002015484600001546040518463ffffffff1660e01b81526004016109c493929190612ca3565b600060405180830381600087803b1580156109de57600080fd5b505af11580156109f2573d6000803e3d6000fd5b5050505060018160050160006101000a81548160ff021916908315150217905550505050565b6000806004600084815260200190815260200160002090508060010154915050919050565b60008060046000858152602001908152602001600020905060008160060160008573ffffffffffffffffffffffffffffffffffffffff1673ffffffffffffffffffffffffffffffffffffffff168152602001908152602001600020541415610ada576040517f08c379a0000000000000000000000000000000000000000000000000000000008152600401610ad190612b68565b60405180910390fd5b8060060160008473ffffffffffffffffffffffffffffffffffffffff1673ffffffffffffffffffffffffffffffffffffffff1681526020019081526020016000205491505092915050565b600660009054906101000a900473ffffffffffffffffffffffffffffffffffffffff1681565b7fffffffffffffffffffffffffffffffffffffffffffffffffffffffffffffffff81565b60055481565b6000600760009054906101000a900473ffffffffffffffffffffffffffffffffffffffff1673ffffffffffffffffffffffffffffffffffffffff1663dd62ed3e33306040518363ffffffff1660e01b8152600401610bd492919061299f565b60206040518083038186803b158015610bec57600080fd5b505afa158015610c00573d6000803e3d6000fd5b505050506040513d601f19601f82011682018060405250810190610c24919061261d565b11610c64576040517f08c379a0000000000000000000000000000000000000000000000000000000008152600401610c5b90612b48565b60405180910390fd5b8142600460008381526020019081526020016000206004015411610cbd576040517f08c379a0000000000000000000000000000000000000000000000000000000008152600401610cb490612ae8565b60405180910390fd5b60006004600085815260200190815260200160002090506000600760009054906101000a900473ffffffffffffffffffffffffffffffffffffffff1673ffffffffffffffffffffffffffffffffffffffff166370a08231336040518263ffffffff1660e01b8152600401610d319190612984565b60206040518083038186803b158015610d4957600080fd5b505afa158015610d5d573d6000803e3d6000fd5b505050506040513d601f19601f82011682018060405250810190610d81919061261d565b9050600084600354610d939190612da2565b905080821015610dd8576040517f08c379a0000000000000000000000000000000000000000000000000000000008152600401610dcf90612c28565b60405180910390fd5b60008360080160003373ffffffffffffffffffffffffffffffffffffffff1673ffffffffffffffffffffffffffffffffffffffff1681526020019081526020016000205414610e5c576040517f08c379a0000000000000000000000000000000000000000000000000000000008152600401610e5390612b28565b60405180910390fd5b60008511610e9f576040517f08c379a0000000000000000000000000000000000000000000000000000000008152600401610e9690612c68565b60405180910390fd5b60018360000154610eb09190612d4c565b8360060160003373ffffffffffffffffffffffffffffffffffffffff1673ffffffffffffffffffffffffffffffffffffffff16815260200190815260200160002081905550848360070160003373ffffffffffffffffffffffffffffffffffffffff1673ffffffffffffffffffffffffffffffffffffffff16815260200190815260200160002081905550808360080160003373ffffffffffffffffffffffffffffffffffffffff1673ffffffffffffffffffffffffffffffffffffffff1681526020019081526020016000208190555080836002016000828254610f959190612d4c565b9250508190555084836000016000828254610fb09190612d4c565b92505081905550600760009054906101000a900473ffffffffffffffffffffffffffffffffffffffff1673ffffffffffffffffffffffffffffffffffffffff166323b872dd3330846040518463ffffffff1660e01b8152600401611016939291906129c8565b602060405180830381600087803b15801561103057600080fd5b505af1158015611044573d6000803e3d6000fd5b505050506040513d601f19601f8201168201806040525081019061106891906125cb565b61109b577f4e487b7100000000000000000000000000000000000000000000000000000000600052600160045260246000fd5b600760009054906101000a900473ffffffffffffffffffffffffffffffffffffffff1673ffffffffffffffffffffffffffffffffffffffff1663095ea7b3337fffffffffffffffffffffffffffffffffffffffffffffffffffffffffffffffff6040518363ffffffff1660e01b81526004016111189291906129ff565b602060405180830381600087803b15801561113257600080fd5b505af1158015611146573d6000803e3d6000fd5b505050506040513d601f19601f8201168201806040525081019061116a91906125cb565b61119d577f4e487b7100000000000000000000000000000000000000000000000000000000600052600160045260246000fd5b505050505050565b60008060046000858152602001908152602001600020905060008160080160008573ffffffffffffffffffffffffffffffffffffffff1673ffffffffffffffffffffffffffffffffffffffff168152602001908152602001600020541415611242576040517f08c379a000000000000000000000000000000000000000000000000000000000815260040161123990612b68565b60405180910390fd5b8060080160008473ffffffffffffffffffffffffffffffffffffffff1673ffffffffffffffffffffffffffffffffffffffff1681526020019081526020016000205491505092915050565b611295612546565b73ffffffffffffffffffffffffffffffffffffffff1660008054906101000a900473ffffffffffffffffffffffffffffffffffffffff1673ffffffffffffffffffffffffffffffffffffffff1614611322576040517f08c379a000000000000000000000000000000000000000000000000000000000815260040161131990612b88565b60405180910390fd5b600760009054906101000a900473ffffffffffffffffffffffffffffffffffffffff1673ffffffffffffffffffffffffffffffffffffffff1663a9059cbb611368611a9f565b600760009054906101000a900473ffffffffffffffffffffffffffffffffffffffff1673ffffffffffffffffffffffffffffffffffffffff166370a08231306040518263ffffffff1660e01b81526004016113c39190612984565b60206040518083038186803b1580156113db57600080fd5b505afa1580156113ef573d6000803e3d6000fd5b505050506040513d601f19601f82011682018060405250810190611413919061261d565b6040518363ffffffff1660e01b81526004016114309291906129ff565b602060405180830381600087803b15801561144a57600080fd5b505af115801561145e573d6000803e3d6000fd5b505050506040513d601f19601f8201168201806040525081019061148291906125cb565b6114b5577f4e487b7100000000000000000000000000000000000000000000000000000000600052600160045260246000fd5b565b60008060046000858152602001908152602001600020905060008160070160008573ffffffffffffffffffffffffffffffffffffffff1673ffffffffffffffffffffffffffffffffffffffff168152602001908152602001600020541415611554576040517f08c379a000000000000000000000000000000000000000000000000000000000815260040161154b90612b68565b60405180910390fd5b8060070160008473ffffffffffffffffffffffffffffffffffffffff1673ffffffffffffffffffffffffffffffffffffffff1681526020019081526020016000205491505092915050565b600080600760009054906101000a900473ffffffffffffffffffffffffffffffffffffffff1673ffffffffffffffffffffffffffffffffffffffff1663dd62ed3e33306040518363ffffffff1660e01b81526004016115ff92919061299f565b60206040518083038186803b15801561161757600080fd5b505afa15801561162b573d6000803e3d6000fd5b505050506040513d601f19601f8201168201806040525081019061164f919061261d565b1161168f576040517f08c379a000000000000000000000000000000000000000000000000000000000815260040161168690612b48565b60405180910390fd5b6000600460006005548152602001908152602001600020905060006005541461171f5760006004600060016005546116c79190612dfc565b815260200190815260200160002090508060040154421161171d576040517f08c379a000000000000000000000000000000000000000000000000000000000815260040161171490612a88565b60405180910390fd5b505b838160010181905550836003546117369190612da2565b8160030181905550603c8361174b9190612da2565b426117569190612d4c565b81600401819055506005600081548092919061177190612e78565b919050555060016005546117859190612dfc565b91505092915050565b611796612546565b73ffffffffffffffffffffffffffffffffffffffff1660008054906101000a900473ffffffffffffffffffffffffffffffffffffffff1673ffffffffffffffffffffffffffffffffffffffff1614611823576040517f08c379a000000000000000000000000000000000000000000000000000000000815260040161181a90612b88565b60405180910390fd5b80600660006101000a81548173ffffffffffffffffffffffffffffffffffffffff021916908373ffffffffffffffffffffffffffffffffffffffff16021790555050565b61186f612546565b73ffffffffffffffffffffffffffffffffffffffff1660008054906101000a900473ffffffffffffffffffffffffffffffffffffffff1673ffffffffffffffffffffffffffffffffffffffff16146118fc576040517f08c379a00000000000000000000000000000000000000000000000000000000081526004016118f390612b88565b60405180910390fd5b600073ffffffffffffffffffffffffffffffffffffffff1660008054906101000a900473ffffffffffffffffffffffffffffffffffffffff1673ffffffffffffffffffffffffffffffffffffffff167f8be0079c531659141344cd1fd0a4f28419497f9722a3daafe3b4186f6b6457e060405160405180910390a360008060006101000a81548173ffffffffffffffffffffffffffffffffffffffff021916908373ffffffffffffffffffffffffffffffffffffffff160217905550565b6119c2612546565b73ffffffffffffffffffffffffffffffffffffffff1660008054906101000a900473ffffffffffffffffffffffffffffffffffffffff1673ffffffffffffffffffffffffffffffffffffffff1614611a4f576040517f08c379a0000000000000000000000000000000000000000000000000000000008152600401611a4690612b88565b60405180910390fd5b611a57611a9f565b73ffffffffffffffffffffffffffffffffffffffff166108fc479081150290604051600060405180830381858888f19350505050158015611a9c573d6000803e3d6000fd5b50565b60008060009054906101000a900473ffffffffffffffffffffffffffffffffffffffff16905090565b3373ffffffffffffffffffffffffffffffffffffffff16600160009054906101000a900473ffffffffffffffffffffffffffffffffffffffff1673ffffffffffffffffffffffffffffffffffffffff1614611b58576040517f08c379a0000000000000000000000000000000000000000000000000000000008152600401611b4f90612c48565b60405180910390fd5b6002544211611b9c576040517f08c379a0000000000000000000000000000000000000000000000000000000008152600401611b9390612c08565b60405180910390fd5b600160009054906101000a900473ffffffffffffffffffffffffffffffffffffffff1673ffffffffffffffffffffffffffffffffffffffff1660008054906101000a900473ffffffffffffffffffffffffffffffffffffffff1673ffffffffffffffffffffffffffffffffffffffff167f8be0079c531659141344cd1fd0a4f28419497f9722a3daafe3b4186f6b6457e060405160405180910390a3600160009054906101000a900473ffffffffffffffffffffffffffffffffffffffff166000806101000a81548173ffffffffffffffffffffffffffffffffffffffff021916908373ffffffffffffffffffffffffffffffffffffffff160217905550565b6000600254905090565b6000600760009054906101000a900473ffffffffffffffffffffffffffffffffffffffff1673ffffffffffffffffffffffffffffffffffffffff1663dd62ed3e33306040518363ffffffff1660e01b8152600401611d0592919061299f565b60206040518083038186803b158015611d1d57600080fd5b505afa158015611d31573d6000803e3d6000fd5b505050506040513d601f19601f82011682018060405250810190611d55919061261d565b11611d95576040517f08c379a0000000000000000000000000000000000000000000000000000000008152600401611d8c90612b48565b60405180910390fd5b804260046000838152602001908152602001600020600401541115611def576040517f08c379a0000000000000000000000000000000000000000000000000000000008152600401611de690612a28565b60405180910390fd5b600015156004600083815260200190815260200160002060050160009054906101000a900460ff16151514611e59576040517f08c379a0000000000000000000000000000000000000000000000000000000008152600401611e5090612ac8565b60405180910390fd5b600060046000848152602001908152602001600020905080600301548160020154108015611e8e575080600101548160000154105b611ecd576040517f08c379a0000000000000000000000000000000000000000000000000000000008152600401611ec490612a48565b60405180910390fd5b60008160080160003373ffffffffffffffffffffffffffffffffffffffff1673ffffffffffffffffffffffffffffffffffffffff1681526020019081526020016000205490506001811415611f57576040517f08c379a0000000000000000000000000000000000000000000000000000000008152600401611f4e90612b08565b60405180910390fd5b6000811415611f9b576040517f08c379a0000000000000000000000000000000000000000000000000000000008152600401611f9290612bc8565b60405180910390fd5b80600760009054906101000a900473ffffffffffffffffffffffffffffffffffffffff1673ffffffffffffffffffffffffffffffffffffffff166370a08231306040518263ffffffff1660e01b8152600401611ff79190612984565b60206040518083038186803b15801561200f57600080fd5b505afa158015612023573d6000803e3d6000fd5b505050506040513d601f19601f82011682018060405250810190612047919061261d565b1015612088576040517f08c379a000000000000000000000000000000000000000000000000000000000815260040161207f90612aa8565b60405180910390fd5b600760009054906101000a900473ffffffffffffffffffffffffffffffffffffffff1673ffffffffffffffffffffffffffffffffffffffff1663a9059cbb33836040518363ffffffff1660e01b81526004016120e59291906129ff565b602060405180830381600087803b1580156120ff57600080fd5b505af1158015612113573d6000803e3d6000fd5b505050506040513d601f19601f8201168201806040525081019061213791906125cb565b61216a577f4e487b7100000000000000000000000000000000000000000000000000000000600052600160045260246000fd5b60018260080160003373ffffffffffffffffffffffffffffffffffffffff1673ffffffffffffffffffffffffffffffffffffffff1681526020019081526020016000208190555050505050565b6121bf612546565b73ffffffffffffffffffffffffffffffffffffffff1660008054906101000a900473ffffffffffffffffffffffffffffffffffffffff1673ffffffffffffffffffffffffffffffffffffffff161461224c576040517f08c379a000000000000000000000000000000000000000000000000000000000815260040161224390612b88565b60405180910390fd5b60008054906101000a900473ffffffffffffffffffffffffffffffffffffffff16600160006101000a81548173ffffffffffffffffffffffffffffffffffffffff021916908373ffffffffffffffffffffffffffffffffffffffff16021790555060008060006101000a81548173ffffffffffffffffffffffffffffffffffffffff021916908373ffffffffffffffffffffffffffffffffffffffff16021790555080426122fa9190612d4c565b600281905550600073ffffffffffffffffffffffffffffffffffffffff1660008054906101000a900473ffffffffffffffffffffffffffffffffffffffff1673ffffffffffffffffffffffffffffffffffffffff167f8be0079c531659141344cd1fd0a4f28419497f9722a3daafe3b4186f6b6457e060405160405180910390a350565b612386612546565b73ffffffffffffffffffffffffffffffffffffffff1660008054906101000a900473ffffffffffffffffffffffffffffffffffffffff1673ffffffffffffffffffffffffffffffffffffffff1614612413576040517f08c379a000000000000000000000000000000000000000000000000000000000815260040161240a90612b88565b60405180910390fd5b600073ffffffffffffffffffffffffffffffffffffffff168173ffffffffffffffffffffffffffffffffffffffff161415612483576040517f08c379a000000000000000000000000000000000000000000000000000000000815260040161247a90612a68565b60405180910390fd5b8073ffffffffffffffffffffffffffffffffffffffff1660008054906101000a900473ffffffffffffffffffffffffffffffffffffffff1673ffffffffffffffffffffffffffffffffffffffff167f8be0079c531659141344cd1fd0a4f28419497f9722a3daafe3b4186f6b6457e060405160405180910390a3806000806101000a81548173ffffffffffffffffffffffffffffffffffffffff021916908373ffffffffffffffffffffffffffffffffffffffff16021790555050565b60035481565b600033905090565b60008135905061255d81613247565b92915050565b6000815190506125728161325e565b92915050565b60008135905061258781613275565b92915050565b60008151905061259c81613275565b92915050565b6000602082840312156125b457600080fd5b60006125c28482850161254e565b91505092915050565b6000602082840312156125dd57600080fd5b60006125eb84828501612563565b91505092915050565b60006020828403121561260657600080fd5b600061261484828501612578565b91505092915050565b60006020828403121561262f57600080fd5b600061263d8482850161258d565b91505092915050565b6000806040838503121561265957600080fd5b600061266785828601612578565b92505060206126788582860161254e565b9150509250929050565b6000806040838503121561269557600080fd5b60006126a385828601612578565b92505060206126b485828601612578565b9150509250929050565b6126c781612e30565b82525050565b6126d681612e42565b82525050565b60006126e9601583612d3b565b91506126f482612ef0565b602082019050919050565b600061270c600e83612d3b565b915061271782612f19565b602082019050919050565b600061272f602683612d3b565b915061273a82612f42565b604082019050919050565b6000612752601683612d3b565b915061275d82612f91565b602082019050919050565b6000612775601483612d3b565b915061278082612fba565b602082019050919050565b6000612798601983612d3b565b91506127a382612fe3565b602082019050919050565b60006127bb601183612d3b565b91506127c68261300c565b602082019050919050565b60006127de601083612d3b565b91506127e982613035565b602082019050919050565b6000612801600d83612d3b565b915061280c8261305e565b602082019050919050565b6000612824601083612d3b565b915061282f82613087565b602082019050919050565b6000612847600f83612d3b565b9150612852826130b0565b602082019050919050565b600061286a602083612d3b565b9150612875826130d9565b602082019050919050565b600061288d601083612d3b565b915061289882613102565b602082019050919050565b60006128b0600d83612d3b565b91506128bb8261312b565b602082019050919050565b60006128d3601183612d3b565b91506128de82613154565b602082019050919050565b60006128f6601f83612d3b565b91506129018261317d565b602082019050919050565b6000612919601283612d3b565b9150612924826131a6565b602082019050919050565b600061293c602383612d3b565b9150612947826131cf565b604082019050919050565b600061295f601283612d3b565b915061296a8261321e565b602082019050919050565b61297e81612e6e565b82525050565b600060208201905061299960008301846126be565b92915050565b60006040820190506129b460008301856126be565b6129c160208301846126be565b9392505050565b60006060820190506129dd60008301866126be565b6129ea60208301856126be565b6129f76040830184612975565b949350505050565b6000604082019050612a1460008301856126be565b612a216020830184612975565b9392505050565b60006020820190508181036000830152612a41816126dc565b9050919050565b60006020820190508181036000830152612a61816126ff565b9050919050565b60006020820190508181036000830152612a8181612722565b9050919050565b60006020820190508181036000830152612aa181612745565b9050919050565b60006020820190508181036000830152612ac181612768565b9050919050565b60006020820190508181036000830152612ae18161278b565b9050919050565b60006020820190508181036000830152612b01816127ae565b9050919050565b60006020820190508181036000830152612b21816127d1565b9050919050565b60006020820190508181036000830152612b41816127f4565b9050919050565b60006020820190508181036000830152612b6181612817565b9050919050565b60006020820190508181036000830152612b818161283a565b9050919050565b60006020820190508181036000830152612ba18161285d565b9050919050565b60006020820190508181036000830152612bc181612880565b9050919050565b60006020820190508181036000830152612be1816128a3565b9050919050565b60006020820190508181036000830152612c01816128c6565b9050919050565b60006020820190508181036000830152612c21816128e9565b9050919050565b60006020820190508181036000830152612c418161290c565b9050919050565b60006020820190508181036000830152612c618161292f565b9050919050565b60006020820190508181036000830152612c8181612952565b9050919050565b6000602082019050612c9d6000830184612975565b92915050565b6000606082019050612cb86000830186612975565b612cc56020830185612975565b612cd26040830184612975565b949350505050565b600060c082019050612cef6000830189612975565b612cfc6020830188612975565b612d096040830187612975565b612d166060830186612975565b612d236080830185612975565b612d3060a08301846126cd565b979650505050505050565b600082825260208201905092915050565b6000612d5782612e6e565b9150612d6283612e6e565b9250827fffffffffffffffffffffffffffffffffffffffffffffffffffffffffffffffff03821115612d9757612d96612ec1565b5b828201905092915050565b6000612dad82612e6e565b9150612db883612e6e565b9250817fffffffffffffffffffffffffffffffffffffffffffffffffffffffffffffffff0483118215151615612df157612df0612ec1565b5b828202905092915050565b6000612e0782612e6e565b9150612e1283612e6e565b925082821015612e2557612e24612ec1565b5b828203905092915050565b6000612e3b82612e4e565b9050919050565b60008115159050919050565b600073ffffffffffffffffffffffffffffffffffffffff82169050919050565b6000819050919050565b6000612e8382612e6e565b91507fffffffffffffffffffffffffffffffffffffffffffffffffffffffffffffffff821415612eb657612eb5612ec1565b5b600182019050919050565b7f4e487b7100000000000000000000000000000000000000000000000000000000600052601160045260246000fd5b7f444541444c494e455f4e4f545f45584345454445440000000000000000000000600082015250565b7f56414c49445f50524f504f53414c000000000000000000000000000000000000600082015250565b7f4f776e61626c653a206e6577206f776e657220697320746865207a65726f206160008201527f6464726573730000000000000000000000000000000000000000000000000000602082015250565b7f4143544956455f50524f504f53414c5f45584953545300000000000000000000600082015250565b7f4e4f545f454e4f5547485f44414f5f46554e4453000000000000000000000000600082015250565b7f50524f504f53414c5f414c52454144595f455845435554454400000000000000600082015250565b7f444541444c494e455f4558434545444544000000000000000000000000000000600082015250565b7f414c52454144595f574954484452455700000000000000000000000000000000600082015250565b7f414c52454144595f564f54454400000000000000000000000000000000000000600082015250565b7f4e4f545f415f44414f5f4d454d42455200000000000000000000000000000000600082015250565b7f564f5445525f4e4f545f464f554e440000000000000000000000000000000000600082015250565b7f4f776e61626c653a2063616c6c6572206973206e6f7420746865206f776e6572600082015250565b7f4e4f545f454e4f5547485f564f54455300000000000000000000000000000000600082015250565b7f4449445f4e4f545f564f54454400000000000000000000000000000000000000600082015250565b7f4e4f545f454e4f5547485f544f4b454e53000000000000000000000000000000600082015250565b7f436f6e7472616374206973206c6f636b656420756e74696c2037206461797300600082015250565b7f4e4f545f454e4f5547485f42414c414e43450000000000000000000000000000600082015250565b7f596f7520646f6e27742068617665207065726d697373696f6e20746f20756e6c60008201527f6f636b0000000000000000000000000000000000000000000000000000000000602082015250565b7f494e56414c49445f564f54455f434f554e540000000000000000000000000000600082015250565b61325081612e30565b811461325b57600080fd5b50565b61326781612e42565b811461327257600080fd5b50565b61327e81612e6e565b811461328957600080fd5b5056fea26469706673582212206b53cc965731a9895e595f50eaca42954e682271c4ec7971a1ee8bf0961fc22864736f6c63430008040033",
  "linkReferences": {},
  "deployedLinkReferences": {}
}