{
  "_format": "hh-sol-artifact-1",
  "contractName": "TheOpenFarmDAOsLotto",
  "sourceName": "contracts/FarmDAOsLotto.sol",
  "abi": [
    {
      "anonymous": false,
      "inputs": [
        {
          "indexed": true,
          "internalType": "uint256",
          "name": "_proposalIndex",
          "type": "uint256"
        },
        {
          "indexed": false,
          "internalType": "bytes32",
          "name": "requestId",
          "type": "bytes32"
        }
      ],
      "name": "NewRandomRequest",
      "type": "event"
    },
    {
      "anonymous": false,
      "inputs": [
        {
          "indexed": true,
          "internalType": "address",
          "name": "previousOwner",
          "type": "address"
        },
        {
          "indexed": true,
          "internalType": "address",
          "name": "newOwner",
          "type": "address"
        }
      ],
      "name": "OwnershipTransferred",
      "type": "event"
    },
    {
      "inputs": [
        {
          "internalType": "uint256",
          "name": "_proposalIndex",
          "type": "uint256"
        },
        {
          "internalType": "uint256",
          "name": "_votePos",
          "type": "uint256"
        },
        {
          "internalType": "address",
          "name": "_voter",
          "type": "address"
        }
      ],
      "name": "_getVoteResult",
      "outputs": [
        {
          "internalType": "uint256",
          "name": "",
          "type": "uint256"
        }
      ],
      "stateMutability": "nonpayable",
      "type": "function"
    },
    {
      "inputs": [],
      "name": "emergencyWithdraw",
      "outputs": [],
      "stateMutability": "nonpayable",
      "type": "function"
    },
    {
      "inputs": [
        {
          "internalType": "uint256",
          "name": "",
          "type": "uint256"
        }
      ],
      "name": "gameRounds",
      "outputs": [
        {
          "internalType": "uint256",
          "name": "randomRequestBlock",
          "type": "uint256"
        },
        {
          "internalType": "uint256",
          "name": "randomResult",
          "type": "uint256"
        },
        {
          "internalType": "uint256",
          "name": "randomResultBlock",
          "type": "uint256"
        },
        {
          "internalType": "uint256",
          "name": "lockedFunds",
          "type": "uint256"
        },
        {
          "internalType": "uint256",
          "name": "amountRaised",
          "type": "uint256"
        },
        {
          "internalType": "uint256",
          "name": "votes",
          "type": "uint256"
        },
        {
          "internalType": "bytes32",
          "name": "randomRequestId",
          "type": "bytes32"
        },
        {
          "internalType": "uint8",
          "name": "lastResult",
          "type": "uint8"
        }
      ],
      "stateMutability": "view",
      "type": "function"
    },
    {
      "inputs": [],
      "name": "geUnlockTime",
      "outputs": [
        {
          "internalType": "uint256",
          "name": "",
          "type": "uint256"
        }
      ],
      "stateMutability": "view",
      "type": "function"
    },
    {
      "inputs": [
        {
          "internalType": "uint256",
          "name": "_proposalIndex",
          "type": "uint256"
        },
        {
          "internalType": "uint256",
          "name": "_votePos",
          "type": "uint256"
        }
      ],
      "name": "getVoteRedeemd",
      "outputs": [
        {
          "internalType": "uint256",
          "name": "",
          "type": "uint256"
        }
      ],
      "stateMutability": "view",
      "type": "function"
    },
    {
      "inputs": [
        {
          "internalType": "uint256",
          "name": "_proposalIndex",
          "type": "uint256"
        },
        {
          "internalType": "uint256",
          "name": "_votePos",
          "type": "uint256"
        },
        {
          "internalType": "address",
          "name": "_voter",
          "type": "address"
        }
      ],
      "name": "getVoteResult",
      "outputs": [
        {
          "internalType": "uint256",
          "name": "",
          "type": "uint256"
        }
      ],
      "stateMutability": "nonpayable",
      "type": "function"
    },
    {
      "inputs": [
        {
          "internalType": "uint256",
          "name": "_proposalIndex",
          "type": "uint256"
        },
        {
          "internalType": "uint256",
          "name": "_votePos",
          "type": "uint256"
        }
      ],
      "name": "getVoteScratchedNumber",
      "outputs": [
        {
          "internalType": "uint256",
          "name": "",
          "type": "uint256"
        }
      ],
      "stateMutability": "view",
      "type": "function"
    },
    {
      "inputs": [
        {
          "internalType": "uint256",
          "name": "_proposalIndex",
          "type": "uint256"
        },
        {
          "internalType": "uint256",
          "name": "_votePos",
          "type": "uint256"
        }
      ],
      "name": "getWonAmount",
      "outputs": [
        {
          "internalType": "uint256",
          "name": "",
          "type": "uint256"
        }
      ],
      "stateMutability": "view",
      "type": "function"
    },
    {
      "inputs": [
        {
          "internalType": "uint256",
          "name": "",
          "type": "uint256"
        }
      ],
      "name": "hasRequestedRandom",
      "outputs": [
        {
          "internalType": "bool",
          "name": "",
          "type": "bool"
        }
      ],
      "stateMutability": "view",
      "type": "function"
    },
    {
      "inputs": [
        {
          "internalType": "uint256",
          "name": "time",
          "type": "uint256"
        }
      ],
      "name": "lock",
      "outputs": [],
      "stateMutability": "nonpayable",
      "type": "function"
    },
    {
      "inputs": [
        {
          "internalType": "uint256",
          "name": "_proposalIndex",
          "type": "uint256"
        },
        {
          "internalType": "uint256",
          "name": "_amount",
          "type": "uint256"
        },
        {
          "internalType": "uint256",
          "name": "_votes",
          "type": "uint256"
        }
      ],
      "name": "newRound",
      "outputs": [],
      "stateMutability": "nonpayable",
      "type": "function"
    },
    {
      "inputs": [],
      "name": "owner",
      "outputs": [
        {
          "internalType": "address",
          "name": "",
          "type": "address"
        }
      ],
      "stateMutability": "view",
      "type": "function"
    },
    {
      "inputs": [
        {
          "internalType": "uint256",
          "name": "",
          "type": "uint256"
        }
      ],
      "name": "randomRequests",
      "outputs": [
        {
          "internalType": "uint256",
          "name": "",
          "type": "uint256"
        }
      ],
      "stateMutability": "view",
      "type": "function"
    },
    {
      "inputs": [
        {
          "internalType": "uint256",
          "name": "",
          "type": "uint256"
        },
        {
          "internalType": "uint256",
          "name": "",
          "type": "uint256"
        }
      ],
      "name": "redeemHistory",
      "outputs": [
        {
          "internalType": "uint256",
          "name": "",
          "type": "uint256"
        }
      ],
      "stateMutability": "view",
      "type": "function"
    },
    {
      "inputs": [],
      "name": "renounceOwnership",
      "outputs": [],
      "stateMutability": "nonpayable",
      "type": "function"
    },
    {
      "inputs": [
        {
          "internalType": "uint256",
          "name": "_proposalIndex",
          "type": "uint256"
        }
      ],
      "name": "requestResolveRound",
      "outputs": [],
      "stateMutability": "nonpayable",
      "type": "function"
    },
    {
      "inputs": [
        {
          "internalType": "uint256",
          "name": "_proposalIndex",
          "type": "uint256"
        }
      ],
      "name": "resolveBet",
      "outputs": [
        {
          "internalType": "bool",
          "name": "",
          "type": "bool"
        }
      ],
      "stateMutability": "nonpayable",
      "type": "function"
    },
    {
      "inputs": [
        {
          "internalType": "address",
          "name": "newOwner",
          "type": "address"
        }
      ],
      "name": "transferOwnership",
      "outputs": [],
      "stateMutability": "nonpayable",
      "type": "function"
    },
    {
      "inputs": [],
      "name": "unlock",
      "outputs": [],
      "stateMutability": "nonpayable",
      "type": "function"
    },
    {
      "inputs": [
        {
          "internalType": "uint256",
          "name": "_proposalIndex",
          "type": "uint256"
        },
        {
          "internalType": "uint256",
          "name": "_voteIndex",
          "type": "uint256"
        },
        {
          "internalType": "address",
          "name": "_voter",
          "type": "address"
        }
      ],
      "name": "withdrawAll",
      "outputs": [
        {
          "internalType": "uint256",
          "name": "",
          "type": "uint256"
        }
      ],
      "stateMutability": "nonpayable",
      "type": "function"
    },
    {
      "inputs": [
        {
          "internalType": "uint256",
          "name": "_proposalIndex",
          "type": "uint256"
        },
        {
          "internalType": "uint256",
          "name": "_votePos",
          "type": "uint256"
        },
        {
          "internalType": "address",
          "name": "_voter",
          "type": "address"
        }
      ],
      "name": "withdrawAmount",
      "outputs": [
        {
          "internalType": "uint256",
          "name": "",
          "type": "uint256"
        }
      ],
      "stateMutability": "nonpayable",
      "type": "function"
    }
  ],
  "bytecode": "0x6080604052738f3cf7ad23cd3cadbd9735aff958023239c6a063600360006101000a81548173ffffffffffffffffffffffffffffffffffffffff021916908373ffffffffffffffffffffffffffffffffffffffff160217905550734c5f09d239e11896ed4b21e5beba0de9d777eebd600460006101000a81548173ffffffffffffffffffffffffffffffffffffffff021916908373ffffffffffffffffffffffffffffffffffffffff160217905550348015620000bb57600080fd5b506000620000ce6200017260201b60201c565b9050806000806101000a81548173ffffffffffffffffffffffffffffffffffffffff021916908373ffffffffffffffffffffffffffffffffffffffff1602179055508073ffffffffffffffffffffffffffffffffffffffff16600073ffffffffffffffffffffffffffffffffffffffff167f8be0079c531659141344cd1fd0a4f28419497f9722a3daafe3b4186f6b6457e060405160405180910390a3506200017a565b600033905090565b6137c6806200018a6000396000f3fe608060405234801561001057600080fd5b50600436106101365760003560e01c80638da5cb5b116100b8578063ca067ad01161007c578063ca067ad01461037a578063d212dcea146103aa578063db2e21bc146103da578063dd467064146103e4578063f2fde38b14610400578063f84e6d911461041c57610136565b80638da5cb5b146102fc578063a69df4b51461031a578063b6c5232414610324578063c36aea4714610342578063c71bf91a1461035e57610136565b80634c36c36e116100ff5780634c36c36e146102325780635fafaf0614610262578063673efa69146102925780636abbee82146102c2578063715018a6146102f257610136565b806219e6371461013b578063035ece681461016b578063122197cc1461019b57806325f3c1bd146101cb5780632ecdc14f14610202575b600080fd5b61015560048036038101906101509190612bc0565b61044c565b6040516101629190613184565b60405180910390f35b61018560048036038101906101809190612bfc565b61047e565b6040516101929190613184565b60405180910390f35b6101b560048036038101906101b09190612bc0565b610797565b6040516101c29190613184565b60405180910390f35b6101e560048036038101906101e09190612b6e565b6107c9565b6040516101f99897969594939291906131c8565b60405180910390f35b61021c60048036038101906102179190612bfc565b61081e565b6040516102299190613184565b60405180910390f35b61024c60048036038101906102479190612b6e565b610b7c565b6040516102599190612f53565b60405180910390f35b61027c60048036038101906102779190612bc0565b610ed6565b6040516102899190613184565b60405180910390f35b6102ac60048036038101906102a79190612bc0565b610f08565b6040516102b99190613184565b60405180910390f35b6102dc60048036038101906102d79190612bfc565b610f30565b6040516102e99190613184565b60405180910390f35b6102fa611733565b005b610304611886565b6040516103119190612f01565b60405180910390f35b6103226118af565b005b61032c611a83565b6040516103399190613184565b60405180910390f35b61035c60048036038101906103579190612b6e565b611a8d565b005b61037860048036038101906103739190612c4b565b611d23565b005b610394600480360381019061038f9190612b6e565b611ef5565b6040516103a19190613184565b60405180910390f35b6103c460048036038101906103bf9190612b6e565b611f0d565b6040516103d19190612f53565b60405180910390f35b6103e2611f2d565b005b6103fe60048036038101906103f99190612b6e565b612159565b005b61041a60048036038101906104159190612af3565b612320565b005b61043660048036038101906104319190612bfc565b6124e2565b6040516104439190613184565b60405180910390f35b600060076000848152602001908152602001600020600801600083815260200190815260200160002054905092915050565b600080610489611886565b73ffffffffffffffffffffffffffffffffffffffff1663261dc98986856040518363ffffffff1660e01b81526004016104c392919061319f565b60206040518083038186803b1580156104db57600080fd5b505afa1580156104ef573d6000803e3d6000fd5b505050506040513d601f19601f820116820180604052508101906105139190612b97565b9050808414610557576040517f08c379a000000000000000000000000000000000000000000000000000000000815260040161054e90613164565b60405180910390fd5b6000610561611886565b73ffffffffffffffffffffffffffffffffffffffff16636209a58b87866040518363ffffffff1660e01b815260040161059b92919061319f565b60206040518083038186803b1580156105b357600080fd5b505afa1580156105c7573d6000803e3d6000fd5b505050506040513d601f19601f820116820180604052508101906105eb9190612b97565b90506000805b82811015610694576000600760008a8152602001908152602001600020600a016000868461061f9190613257565b815260200190815260200160002054905060018111156106805780836106459190613257565b92506001600760008b8152602001908152602001600020600a016000878561066d9190613257565b8152602001908152602001600020819055505b50808061068c906133a9565b9150506105f1565b50600081111561078a57600360009054906101000a900473ffffffffffffffffffffffffffffffffffffffff1673ffffffffffffffffffffffffffffffffffffffff166323b872dd6106e4611886565b87846040518463ffffffff1660e01b815260040161070493929190612f1c565b602060405180830381600087803b15801561071e57600080fd5b505af1158015610732573d6000803e3d6000fd5b505050506040513d601f19601f820116820180604052508101906107569190612b1c565b610789577f4e487b7100000000000000000000000000000000000000000000000000000000600052600160045260246000fd5b5b8093505050509392505050565b600060076000848152602001908152602001600020600901600083815260200190815260200160002054905092915050565b60076020528060005260406000206000915090508060000154908060010154908060020154908060030154908060040154908060050154908060060154908060070160009054906101000a900460ff16905088565b600080610829611886565b73ffffffffffffffffffffffffffffffffffffffff1663261dc98986856040518363ffffffff1660e01b815260040161086392919061319f565b60206040518083038186803b15801561087b57600080fd5b505afa15801561088f573d6000803e3d6000fd5b505050506040513d601f19601f820116820180604052508101906108b39190612b97565b905060006108bf611886565b73ffffffffffffffffffffffffffffffffffffffff16636209a58b87866040518363ffffffff1660e01b81526004016108f992919061319f565b60206040518083038186803b15801561091157600080fd5b505afa158015610925573d6000803e3d6000fd5b505050506040513d601f19601f820116820180604052508101906109499190612b97565b9050818510158015610966575080826109629190613257565b8511155b6109a5576040517f08c379a000000000000000000000000000000000000000000000000000000000815260040161099c906130c4565b60405180910390fd5b600060076000888152602001908152602001600020600a01600087815260200190815260200160002054905060008111610a14576040517f08c379a0000000000000000000000000000000000000000000000000000000008152600401610a0b90612fa4565b60405180910390fd5b60018111610a57576040517f08c379a0000000000000000000000000000000000000000000000000000000008152600401610a4e90612fe4565b60405180910390fd5b600360009054906101000a900473ffffffffffffffffffffffffffffffffffffffff1673ffffffffffffffffffffffffffffffffffffffff166323b872dd610a9d611886565b87846040518463ffffffff1660e01b8152600401610abd93929190612f1c565b602060405180830381600087803b158015610ad757600080fd5b505af1158015610aeb573d6000803e3d6000fd5b505050506040513d601f19601f82011682018060405250810190610b0f9190612b1c565b610b42577f4e487b7100000000000000000000000000000000000000000000000000000000600052600160045260246000fd5b600160076000898152602001908152602001600020600a016000888152602001908152602001600020819055508093505050509392505050565b600080600760008481526020019081526020016000206004015411610bd6576040517f08c379a0000000000000000000000000000000000000000000000000000000008152600401610bcd90613004565b60405180910390fd5b600060076000848152602001908152602001600020600601549050600460009054906101000a900473ffffffffffffffffffffffffffffffffffffffff1673ffffffffffffffffffffffffffffffffffffffff1663e89e106a6040518163ffffffff1660e01b8152600401602060405180830381600087803b158015610c5b57600080fd5b505af1158015610c6f573d6000803e3d6000fd5b505050506040513d601f19601f82011682018060405250810190610c939190612b45565b8114610cd4576040517f08c379a0000000000000000000000000000000000000000000000000000000008152600401610ccb90613104565b60405180910390fd5b6000600660008581526020019081526020016000205414610d2a576040517f08c379a0000000000000000000000000000000000000000000000000000000008152600401610d2190613124565b60405180910390fd5b436007600085815260200190815260200160002060020181905550600460009054906101000a900473ffffffffffffffffffffffffffffffffffffffff1673ffffffffffffffffffffffffffffffffffffffff1663db61e87b6040518163ffffffff1660e01b8152600401602060405180830381600087803b158015610daf57600080fd5b505af1158015610dc3573d6000803e3d6000fd5b505050506040513d601f19601f82011682018060405250810190610de79190612b97565b6006600085815260200190815260200160002081905550600460009054906101000a900473ffffffffffffffffffffffffffffffffffffffff1673ffffffffffffffffffffffffffffffffffffffff1663f6eaffc860006040518263ffffffff1660e01b8152600401610e5a9190612f89565b602060405180830381600087803b158015610e7457600080fd5b505af1158015610e88573d6000803e3d6000fd5b505050506040513d601f19601f82011682018060405250810190610eac9190612b97565b60076000858152602001908152602001600020600101819055506000600190508092505050919050565b600060076000848152602001908152602001600020600a01600083815260200190815260200160002054905092915050565b60056020528160005260406000208160068110610f2457600080fd5b01600091509150505481565b60008060066000868152602001908152602001600020541415610f88576040517f08c379a0000000000000000000000000000000000000000000000000000000008152600401610f7f90613084565b60405180910390fd5b6000610f92611886565b73ffffffffffffffffffffffffffffffffffffffff1663261dc98986856040518363ffffffff1660e01b8152600401610fcc92919061319f565b60206040518083038186803b158015610fe457600080fd5b505afa158015610ff8573d6000803e3d6000fd5b505050506040513d601f19601f8201168201806040525081019061101c9190612b97565b90506000611028611886565b73ffffffffffffffffffffffffffffffffffffffff16636209a58b87866040518363ffffffff1660e01b815260040161106292919061319f565b60206040518083038186803b15801561107a57600080fd5b505afa15801561108e573d6000803e3d6000fd5b505050506040513d601f19601f820116820180604052508101906110b29190612b97565b90508185101580156110cf575080826110cb9190613257565b8511155b61110e576040517f08c379a0000000000000000000000000000000000000000000000000000000008152600401611105906130c4565b60405180910390fd5b60006007600088815260200190815260200160002060080160008781526020019081526020016000205414611178576040517f08c379a000000000000000000000000000000000000000000000000000000000815260040161116f90613024565b60405180910390fd5b60006007600088815260200190815260200160002060050154905060006002826111a291906133f2565b14156111b75780806111b3906133a9565b9150505b60008187600660008b8152602001908152602001600020546111d991906132de565b6111e391906133f2565b905060008288600660008c81526020019081526020016000205461120791906132de565b61121191906133f2565b9050600083826103e861122491906132de565b61122e91906132ad565b905080600760008c815260200190815260200160002060080160008b81526020019081526020016000208190555082600760008c815260200190815260200160002060090160008b8152602001908152602001600020819055506001811161133f576001600560008c81526020019081526020016000206000600681106112de577f4e487b7100000000000000000000000000000000000000000000000000000000600052603260045260246000fd5b0154101561133a576001600560008c8152602001908152602001600020600060068110611334577f4e487b7100000000000000000000000000000000000000000000000000000000600052603260045260246000fd5b01819055505b611723565b60028111611406576002600560008c8152602001908152602001600020600160068110611395577f4e487b7100000000000000000000000000000000000000000000000000000000600052603260045260246000fd5b0154101561140157600560008b81526020019081526020016000206001600681106113e9577f4e487b7100000000000000000000000000000000000000000000000000000000600052603260045260246000fd5b0160008154809291906113fb906133a9565b91905055505b611722565b600a81116114cd57600a600560008c815260200190815260200160002060026006811061145c577f4e487b7100000000000000000000000000000000000000000000000000000000600052603260045260246000fd5b015410156114c857600560008b81526020019081526020016000206002600681106114b0577f4e487b7100000000000000000000000000000000000000000000000000000000600052603260045260246000fd5b0160008154809291906114c2906133a9565b91905055505b611721565b60148111611594576014600560008c8152602001908152602001600020600360068110611523577f4e487b7100000000000000000000000000000000000000000000000000000000600052603260045260246000fd5b0154101561158f57600560008b8152602001908152602001600020600360068110611577577f4e487b7100000000000000000000000000000000000000000000000000000000600052603260045260246000fd5b016000815480929190611589906133a9565b91905055505b611720565b6032811161165b576032600560008c81526020019081526020016000206004600681106115ea577f4e487b7100000000000000000000000000000000000000000000000000000000600052603260045260246000fd5b0154101561165657600560008b815260200190815260200160002060046006811061163e577f4e487b7100000000000000000000000000000000000000000000000000000000600052603260045260246000fd5b016000815480929190611650906133a9565b91905055505b61171f565b6064811161171e576064600560008c81526020019081526020016000206005600681106116b1577f4e487b7100000000000000000000000000000000000000000000000000000000600052603260045260246000fd5b0154101561171d57600560008b8152602001908152602001600020600560068110611705577f4e487b7100000000000000000000000000000000000000000000000000000000600052603260045260246000fd5b016000815480929190611717906133a9565b91905055505b5b5b5b5b5b5b8296505050505050509392505050565b61173b612a82565b73ffffffffffffffffffffffffffffffffffffffff1660008054906101000a900473ffffffffffffffffffffffffffffffffffffffff1673ffffffffffffffffffffffffffffffffffffffff16146117c8576040517f08c379a00000000000000000000000000000000000000000000000000000000081526004016117bf90613064565b60405180910390fd5b600073ffffffffffffffffffffffffffffffffffffffff1660008054906101000a900473ffffffffffffffffffffffffffffffffffffffff1673ffffffffffffffffffffffffffffffffffffffff167f8be0079c531659141344cd1fd0a4f28419497f9722a3daafe3b4186f6b6457e060405160405180910390a360008060006101000a81548173ffffffffffffffffffffffffffffffffffffffff021916908373ffffffffffffffffffffffffffffffffffffffff160217905550565b60008060009054906101000a900473ffffffffffffffffffffffffffffffffffffffff16905090565b3373ffffffffffffffffffffffffffffffffffffffff16600160009054906101000a900473ffffffffffffffffffffffffffffffffffffffff1673ffffffffffffffffffffffffffffffffffffffff161461193f576040517f08c379a000000000000000000000000000000000000000000000000000000000815260040161193690613144565b60405180910390fd5b6002544211611983576040517f08c379a000000000000000000000000000000000000000000000000000000000815260040161197a906130e4565b60405180910390fd5b600160009054906101000a900473ffffffffffffffffffffffffffffffffffffffff1673ffffffffffffffffffffffffffffffffffffffff1660008054906101000a900473ffffffffffffffffffffffffffffffffffffffff1673ffffffffffffffffffffffffffffffffffffffff167f8be0079c531659141344cd1fd0a4f28419497f9722a3daafe3b4186f6b6457e060405160405180910390a3600160009054906101000a900473ffffffffffffffffffffffffffffffffffffffff166000806101000a81548173ffffffffffffffffffffffffffffffffffffffff021916908373ffffffffffffffffffffffffffffffffffffffff160217905550565b6000600254905090565b6000600760008381526020019081526020016000206004015411611ae6576040517f08c379a0000000000000000000000000000000000000000000000000000000008152600401611add90613004565b60405180910390fd5b600015156008600083815260200190815260200160002060009054906101000a900460ff16151514611b4d576040517f08c379a0000000000000000000000000000000000000000000000000000000008152600401611b4490613044565b60405180910390fd5b60016008600083815260200190815260200160002060006101000a81548160ff021916908315150217905550600460009054906101000a900473ffffffffffffffffffffffffffffffffffffffff1673ffffffffffffffffffffffffffffffffffffffff1663e0c862896040518163ffffffff1660e01b8152600401600060405180830381600087803b158015611be357600080fd5b505af1158015611bf7573d6000803e3d6000fd5b50505050600460009054906101000a900473ffffffffffffffffffffffffffffffffffffffff1673ffffffffffffffffffffffffffffffffffffffff1663e89e106a6040518163ffffffff1660e01b8152600401602060405180830381600087803b158015611c6557600080fd5b505af1158015611c79573d6000803e3d6000fd5b505050506040513d601f19601f82011682018060405250810190611c9d9190612b45565b6007600083815260200190815260200160002060060181905550436007600083815260200190815260200160002060000181905550807fbd51e5a352fab6e096017c2be9f26b900b8615c0353bc652a3f429c6e56c4e126007600084815260200190815260200160002060060154604051611d189190612f6e565b60405180910390a250565b611d2b612a82565b73ffffffffffffffffffffffffffffffffffffffff1660008054906101000a900473ffffffffffffffffffffffffffffffffffffffff1673ffffffffffffffffffffffffffffffffffffffff1614611db8576040517f08c379a0000000000000000000000000000000000000000000000000000000008152600401611daf90613064565b60405180910390fd5b6008600084815260200190815260200160002060009054906101000a900460ff1615611e19576040517f08c379a0000000000000000000000000000000000000000000000000000000008152600401611e1090613044565b60405180910390fd5b6000600760008581526020019081526020016000206004015414611e72576040517f08c379a0000000000000000000000000000000000000000000000000000000008152600401611e69906130a4565b60405180910390fd5b816007600085815260200190815260200160002060040181905550600a600780600086815260200190815260200160002060040154611eb191906132de565b611ebb91906132ad565b6007600085815260200190815260200160002060030181905550806007600085815260200190815260200160002060050181905550505050565b60066020528060005260406000206000915090505481565b60086020528060005260406000206000915054906101000a900460ff1681565b611f35612a82565b73ffffffffffffffffffffffffffffffffffffffff1660008054906101000a900473ffffffffffffffffffffffffffffffffffffffff1673ffffffffffffffffffffffffffffffffffffffff1614611fc2576040517f08c379a0000000000000000000000000000000000000000000000000000000008152600401611fb990613064565b60405180910390fd5b600360009054906101000a900473ffffffffffffffffffffffffffffffffffffffff1673ffffffffffffffffffffffffffffffffffffffff166323b872dd30612009611886565b600360009054906101000a900473ffffffffffffffffffffffffffffffffffffffff1673ffffffffffffffffffffffffffffffffffffffff166370a08231306040518263ffffffff1660e01b81526004016120649190612f01565b60206040518083038186803b15801561207c57600080fd5b505afa158015612090573d6000803e3d6000fd5b505050506040513d601f19601f820116820180604052508101906120b49190612b97565b6040518463ffffffff1660e01b81526004016120d293929190612f1c565b602060405180830381600087803b1580156120ec57600080fd5b505af1158015612100573d6000803e3d6000fd5b505050506040513d601f19601f820116820180604052508101906121249190612b1c565b612157577f4e487b7100000000000000000000000000000000000000000000000000000000600052600160045260246000fd5b565b612161612a82565b73ffffffffffffffffffffffffffffffffffffffff1660008054906101000a900473ffffffffffffffffffffffffffffffffffffffff1673ffffffffffffffffffffffffffffffffffffffff16146121ee576040517f08c379a00000000000000000000000000000000000000000000000000000000081526004016121e590613064565b60405180910390fd5b60008054906101000a900473ffffffffffffffffffffffffffffffffffffffff16600160006101000a81548173ffffffffffffffffffffffffffffffffffffffff021916908373ffffffffffffffffffffffffffffffffffffffff16021790555060008060006101000a81548173ffffffffffffffffffffffffffffffffffffffff021916908373ffffffffffffffffffffffffffffffffffffffff160217905550804261229c9190613257565b600281905550600073ffffffffffffffffffffffffffffffffffffffff1660008054906101000a900473ffffffffffffffffffffffffffffffffffffffff1673ffffffffffffffffffffffffffffffffffffffff167f8be0079c531659141344cd1fd0a4f28419497f9722a3daafe3b4186f6b6457e060405160405180910390a350565b612328612a82565b73ffffffffffffffffffffffffffffffffffffffff1660008054906101000a900473ffffffffffffffffffffffffffffffffffffffff1673ffffffffffffffffffffffffffffffffffffffff16146123b5576040517f08c379a00000000000000000000000000000000000000000000000000000000081526004016123ac90613064565b60405180910390fd5b600073ffffffffffffffffffffffffffffffffffffffff168173ffffffffffffffffffffffffffffffffffffffff161415612425576040517f08c379a000000000000000000000000000000000000000000000000000000000815260040161241c90612fc4565b60405180910390fd5b8073ffffffffffffffffffffffffffffffffffffffff1660008054906101000a900473ffffffffffffffffffffffffffffffffffffffff1673ffffffffffffffffffffffffffffffffffffffff167f8be0079c531659141344cd1fd0a4f28419497f9722a3daafe3b4186f6b6457e060405160405180910390a3806000806101000a81548173ffffffffffffffffffffffffffffffffffffffff021916908373ffffffffffffffffffffffffffffffffffffffff16021790555050565b6000806006600086815260200190815260200160002054141561253a576040517f08c379a000000000000000000000000000000000000000000000000000000000815260040161253190613084565b60405180910390fd5b6000612544611886565b73ffffffffffffffffffffffffffffffffffffffff1663261dc98986856040518363ffffffff1660e01b815260040161257e92919061319f565b60206040518083038186803b15801561259657600080fd5b505afa1580156125aa573d6000803e3d6000fd5b505050506040513d601f19601f820116820180604052508101906125ce9190612b97565b905060006125da611886565b73ffffffffffffffffffffffffffffffffffffffff16636209a58b87866040518363ffffffff1660e01b815260040161261492919061319f565b60206040518083038186803b15801561262c57600080fd5b505afa158015612640573d6000803e3d6000fd5b505050506040513d601f19601f820116820180604052508101906126649190612b97565b90508185101580156126815750808261267d9190613257565b8511155b6126c0576040517f08c379a00000000000000000000000000000000000000000000000000000000081526004016126b7906130c4565b60405180910390fd5b6000600760008881526020019081526020016000206008016000878152602001908152602001600020541461272a576040517f08c379a000000000000000000000000000000000000000000000000000000000815260040161272190613024565b60405180910390fd5b6007600087815260200190815260200160002060050154856007600089815260200190815260200160002060050154600660008a81526020019081526020016000205461277791906133f2565b61278191906132de565b61278b91906133f2565b60076000888152602001908152602001600020600801600087815260200190815260200160002081905550600060076000888152602001908152602001600020600501546103e8600760008a815260200190815260200160002060080160008981526020019081526020016000205461280491906132de565b61280e91906132ad565b90508060076000898152602001908152602001600020600901600088815260200190815260200160002081905550600060028211612952576001600560008a8152602001908152602001600020600060068110612894577f4e487b7100000000000000000000000000000000000000000000000000000000600052603260045260246000fd5b0154101561294d57600a6002600760008b8152602001908152602001600020600401546128c191906132de565b6128cb91906132ad565b90506001600560008a815260200190815260200160002060006006811061291b577f4e487b7100000000000000000000000000000000000000000000000000000000600052603260045260246000fd5b018190555080600760008a8152602001908152602001600020600a016000898152602001908152602001600020819055505b612a74565b60b78211612a73576064600560008a81526020019081526020016000206005600681106129a8577f4e487b7100000000000000000000000000000000000000000000000000000000600052603260045260246000fd5b01541015612a72576103e86001600760008b8152602001908152602001600020600401546129d691906132de565b6129e091906132ad565b905060056000898152602001908152602001600020600560068110612a2e577f4e487b7100000000000000000000000000000000000000000000000000000000600052603260045260246000fd5b016000815480929190612a40906133a9565b919050555080600760008a8152602001908152602001600020600a016000898152602001908152602001600020819055505b5b5b819450505050509392505050565b600033905090565b600081359050612a9981613734565b92915050565b600081519050612aae8161374b565b92915050565b600081519050612ac381613762565b92915050565b600081359050612ad881613779565b92915050565b600081519050612aed81613779565b92915050565b600060208284031215612b0557600080fd5b6000612b1384828501612a8a565b91505092915050565b600060208284031215612b2e57600080fd5b6000612b3c84828501612a9f565b91505092915050565b600060208284031215612b5757600080fd5b6000612b6584828501612ab4565b91505092915050565b600060208284031215612b8057600080fd5b6000612b8e84828501612ac9565b91505092915050565b600060208284031215612ba957600080fd5b6000612bb784828501612ade565b91505092915050565b60008060408385031215612bd357600080fd5b6000612be185828601612ac9565b9250506020612bf285828601612ac9565b9150509250929050565b600080600060608486031215612c1157600080fd5b6000612c1f86828701612ac9565b9350506020612c3086828701612ac9565b9250506040612c4186828701612a8a565b9150509250925092565b600080600060608486031215612c6057600080fd5b6000612c6e86828701612ac9565b9350506020612c7f86828701612ac9565b9250506040612c9086828701612ac9565b9150509250925092565b612ca381613338565b82525050565b612cb28161334a565b82525050565b612cc181613356565b82525050565b612cd081613397565b82525050565b6000612ce3600b83613246565b9150612cee82613481565b602082019050919050565b6000612d06602683613246565b9150612d11826134aa565b604082019050919050565b6000612d29601083613246565b9150612d34826134f9565b602082019050919050565b6000612d4c601583613246565b9150612d5782613522565b602082019050919050565b6000612d6f601583613246565b9150612d7a8261354b565b602082019050919050565b6000612d92601583613246565b9150612d9d82613574565b602082019050919050565b6000612db5602083613246565b9150612dc08261359d565b602082019050919050565b6000612dd8601283613246565b9150612de3826135c6565b602082019050919050565b6000612dfb600e83613246565b9150612e06826135ef565b602082019050919050565b6000612e1e600e83613246565b9150612e2982613618565b602082019050919050565b6000612e41601f83613246565b9150612e4c82613641565b602082019050919050565b6000612e64601383613246565b9150612e6f8261366a565b602082019050919050565b6000612e87601383613246565b9150612e9282613693565b602082019050919050565b6000612eaa602383613246565b9150612eb5826136bc565b604082019050919050565b6000612ecd600f83613246565b9150612ed88261370b565b602082019050919050565b612eec81613380565b82525050565b612efb8161338a565b82525050565b6000602082019050612f166000830184612c9a565b92915050565b6000606082019050612f316000830186612c9a565b612f3e6020830185612c9a565b612f4b6040830184612ee3565b949350505050565b6000602082019050612f686000830184612ca9565b92915050565b6000602082019050612f836000830184612cb8565b92915050565b6000602082019050612f9e6000830184612cc7565b92915050565b60006020820190508181036000830152612fbd81612cd6565b9050919050565b60006020820190508181036000830152612fdd81612cf9565b9050919050565b60006020820190508181036000830152612ffd81612d1c565b9050919050565b6000602082019050818103600083015261301d81612d3f565b9050919050565b6000602082019050818103600083015261303d81612d62565b9050919050565b6000602082019050818103600083015261305d81612d85565b9050919050565b6000602082019050818103600083015261307d81612da8565b9050919050565b6000602082019050818103600083015261309d81612dcb565b9050919050565b600060208201905081810360008301526130bd81612dee565b9050919050565b600060208201905081810360008301526130dd81612e11565b9050919050565b600060208201905081810360008301526130fd81612e34565b9050919050565b6000602082019050818103600083015261311d81612e57565b9050919050565b6000602082019050818103600083015261313d81612e7a565b9050919050565b6000602082019050818103600083015261315d81612e9d565b9050919050565b6000602082019050818103600083015261317d81612ec0565b9050919050565b60006020820190506131996000830184612ee3565b92915050565b60006040820190506131b46000830185612ee3565b6131c16020830184612c9a565b9392505050565b6000610100820190506131de600083018b612ee3565b6131eb602083018a612ee3565b6131f86040830189612ee3565b6132056060830188612ee3565b6132126080830187612ee3565b61321f60a0830186612ee3565b61322c60c0830185612cb8565b61323960e0830184612ef2565b9998505050505050505050565b600082825260208201905092915050565b600061326282613380565b915061326d83613380565b9250827fffffffffffffffffffffffffffffffffffffffffffffffffffffffffffffffff038211156132a2576132a1613423565b5b828201905092915050565b60006132b882613380565b91506132c383613380565b9250826132d3576132d2613452565b5b828204905092915050565b60006132e982613380565b91506132f483613380565b9250817fffffffffffffffffffffffffffffffffffffffffffffffffffffffffffffffff048311821515161561332d5761332c613423565b5b828202905092915050565b600061334382613360565b9050919050565b60008115159050919050565b6000819050919050565b600073ffffffffffffffffffffffffffffffffffffffff82169050919050565b6000819050919050565b600060ff82169050919050565b60006133a282613380565b9050919050565b60006133b482613380565b91507fffffffffffffffffffffffffffffffffffffffffffffffffffffffffffffffff8214156133e7576133e6613423565b5b600182019050919050565b60006133fd82613380565b915061340883613380565b92508261341857613417613452565b5b828206905092915050565b7f4e487b7100000000000000000000000000000000000000000000000000000000600052601160045260246000fd5b7f4e487b7100000000000000000000000000000000000000000000000000000000600052601260045260246000fd5b7f494e56414c49445f57494e000000000000000000000000000000000000000000600082015250565b7f4f776e61626c653a206e6577206f776e657220697320746865207a65726f206160008201527f6464726573730000000000000000000000000000000000000000000000000000602082015250565b7f414c52454144595f52454445454d454400000000000000000000000000000000600082015250565b7f50524f504f53414c5f444f45534e545f45584953540000000000000000000000600082015250565b7f524553554c545f414c52454144595f4558495354530000000000000000000000600082015250565b7f52414e444f4d5f524551554553545f4558495354530000000000000000000000600082015250565b7f4f776e61626c653a2063616c6c6572206973206e6f7420746865206f776e6572600082015250565b7f524553554c545f49535f4e4f545f444f4e450000000000000000000000000000600082015250565b7f50524f504f53414c5f4558495354000000000000000000000000000000000000600082015250565b7f4e4f545f564f54455f4f574e4552000000000000000000000000000000000000600082015250565b7f436f6e7472616374206973206c6f636b656420756e74696c2037206461797300600082015250565b7f524551554553545f4e4f545f43555252454e5400000000000000000000000000600082015250565b7f524553554c545f414c52454144595f444f4e4500000000000000000000000000600082015250565b7f596f7520646f6e27742068617665207065726d697373696f6e20746f20756e6c60008201527f6f636b0000000000000000000000000000000000000000000000000000000000602082015250565b7f4e4f545f56414c49445f494e4445580000000000000000000000000000000000600082015250565b61373d81613338565b811461374857600080fd5b50565b6137548161334a565b811461375f57600080fd5b50565b61376b81613356565b811461377657600080fd5b50565b61378281613380565b811461378d57600080fd5b5056fea2646970667358221220771feafbb83518a2de7510ce001c9d8ce0c1a85e83b30021a128bff37bb2e18d64736f6c63430008040033",
  "linkReferences": {},
  "deployedLinkReferences": {}
}