{
  "_format": "hh-sol-artifact-1",
  "contractName": "TheOpenFarmDAO",
  "sourceName": "contracts/FarmDAO.sol",
  "abi": [
    {
      "anonymous": false,
      "inputs": [
        {
          "indexed": true,
          "internalType": "address",
          "name": "previousOwner",
          "type": "address"
        },
        {
          "indexed": true,
          "internalType": "address",
          "name": "newOwner",
          "type": "address"
        }
      ],
      "name": "OwnershipTransferred",
      "type": "event"
    },
    {
      "stateMutability": "payable",
      "type": "fallback"
    },
    {
      "inputs": [],
      "name": "MAX_INT_TYPE",
      "outputs": [
        {
          "internalType": "uint256",
          "name": "",
          "type": "uint256"
        }
      ],
      "stateMutability": "view",
      "type": "function"
    },
    {
      "inputs": [],
      "name": "VOTE_COST",
      "outputs": [
        {
          "internalType": "uint256",
          "name": "",
          "type": "uint256"
        }
      ],
      "stateMutability": "view",
      "type": "function"
    },
    {
      "inputs": [
        {
          "internalType": "uint256",
          "name": "_proposalIndex",
          "type": "uint256"
        }
      ],
      "name": "amountOfVotesRequired",
      "outputs": [
        {
          "internalType": "uint256",
          "name": "",
          "type": "uint256"
        }
      ],
      "stateMutability": "view",
      "type": "function"
    },
    {
      "inputs": [
        {
          "internalType": "uint256",
          "name": "_amountOfVotesRequired",
          "type": "uint256"
        },
        {
          "internalType": "uint256",
          "name": "_minutes",
          "type": "uint256"
        }
      ],
      "name": "createProposal",
      "outputs": [
        {
          "internalType": "uint256",
          "name": "",
          "type": "uint256"
        }
      ],
      "stateMutability": "nonpayable",
      "type": "function"
    },
    {
      "inputs": [
        {
          "internalType": "uint256",
          "name": "_proposalIndex",
          "type": "uint256"
        }
      ],
      "name": "executeProposal",
      "outputs": [],
      "stateMutability": "nonpayable",
      "type": "function"
    },
    {
      "inputs": [],
      "name": "geUnlockTime",
      "outputs": [
        {
          "internalType": "uint256",
          "name": "",
          "type": "uint256"
        }
      ],
      "stateMutability": "view",
      "type": "function"
    },
    {
      "inputs": [
        {
          "internalType": "uint256",
          "name": "_proposalIndex",
          "type": "uint256"
        },
        {
          "internalType": "address",
          "name": "_voter",
          "type": "address"
        }
      ],
      "name": "getVoterAmountOfTokens",
      "outputs": [
        {
          "internalType": "uint256",
          "name": "",
          "type": "uint256"
        }
      ],
      "stateMutability": "view",
      "type": "function"
    },
    {
      "inputs": [
        {
          "internalType": "uint256",
          "name": "_proposalIndex",
          "type": "uint256"
        },
        {
          "internalType": "address",
          "name": "_voter",
          "type": "address"
        }
      ],
      "name": "getVoterAmountOfVotes",
      "outputs": [
        {
          "internalType": "uint256",
          "name": "",
          "type": "uint256"
        }
      ],
      "stateMutability": "view",
      "type": "function"
    },
    {
      "inputs": [
        {
          "internalType": "uint256",
          "name": "_proposalIndex",
          "type": "uint256"
        },
        {
          "internalType": "address",
          "name": "_voter",
          "type": "address"
        }
      ],
      "name": "getVoterVoteIndex",
      "outputs": [
        {
          "internalType": "uint256",
          "name": "",
          "type": "uint256"
        }
      ],
      "stateMutability": "view",
      "type": "function"
    },
    {
      "inputs": [
        {
          "internalType": "uint256",
          "name": "time",
          "type": "uint256"
        }
      ],
      "name": "lock",
      "outputs": [],
      "stateMutability": "nonpayable",
      "type": "function"
    },
    {
      "inputs": [],
      "name": "numProposals",
      "outputs": [
        {
          "internalType": "uint256",
          "name": "",
          "type": "uint256"
        }
      ],
      "stateMutability": "view",
      "type": "function"
    },
    {
      "inputs": [],
      "name": "owner",
      "outputs": [
        {
          "internalType": "address",
          "name": "",
          "type": "address"
        }
      ],
      "stateMutability": "view",
      "type": "function"
    },
    {
      "inputs": [
        {
          "internalType": "uint256",
          "name": "",
          "type": "uint256"
        }
      ],
      "name": "proposals",
      "outputs": [
        {
          "internalType": "uint256",
          "name": "amountOfVotes",
          "type": "uint256"
        },
        {
          "internalType": "uint256",
          "name": "amountOfVotesRequired",
          "type": "uint256"
        },
        {
          "internalType": "uint256",
          "name": "amountOfTokens",
          "type": "uint256"
        },
        {
          "internalType": "uint256",
          "name": "amountOfTokensRequired",
          "type": "uint256"
        },
        {
          "internalType": "uint256",
          "name": "deadline",
          "type": "uint256"
        },
        {
          "internalType": "bool",
          "name": "executed",
          "type": "bool"
        }
      ],
      "stateMutability": "view",
      "type": "function"
    },
    {
      "inputs": [],
      "name": "renounceOwnership",
      "outputs": [],
      "stateMutability": "nonpayable",
      "type": "function"
    },
    {
      "inputs": [
        {
          "internalType": "address",
          "name": "_lotto",
          "type": "address"
        }
      ],
      "name": "setLotto",
      "outputs": [],
      "stateMutability": "nonpayable",
      "type": "function"
    },
    {
      "inputs": [],
      "name": "theLotto",
      "outputs": [
        {
          "internalType": "address",
          "name": "",
          "type": "address"
        }
      ],
      "stateMutability": "view",
      "type": "function"
    },
    {
      "inputs": [
        {
          "internalType": "address",
          "name": "newOwner",
          "type": "address"
        }
      ],
      "name": "transferOwnership",
      "outputs": [],
      "stateMutability": "nonpayable",
      "type": "function"
    },
    {
      "inputs": [],
      "name": "unlock",
      "outputs": [],
      "stateMutability": "nonpayable",
      "type": "function"
    },
    {
      "inputs": [
        {
          "internalType": "uint256",
          "name": "_proposalIndex",
          "type": "uint256"
        },
        {
          "internalType": "uint256",
          "name": "_amountOfVotes",
          "type": "uint256"
        },
        {
          "internalType": "address",
          "name": "_ref",
          "type": "address"
        }
      ],
      "name": "voteOnProposal",
      "outputs": [],
      "stateMutability": "nonpayable",
      "type": "function"
    },
    {
      "inputs": [],
      "name": "withdrawBalance",
      "outputs": [],
      "stateMutability": "nonpayable",
      "type": "function"
    },
    {
      "inputs": [],
      "name": "withdrawEther",
      "outputs": [],
      "stateMutability": "nonpayable",
      "type": "function"
    },
    {
      "inputs": [
        {
          "internalType": "uint256",
          "name": "_proposalIndex",
          "type": "uint256"
        }
      ],
      "name": "withdrawFromFailedProposal",
      "outputs": [],
      "stateMutability": "nonpayable",
      "type": "function"
    },
    {
      "inputs": [
        {
          "internalType": "uint256",
          "name": "_proposalIndex",
          "type": "uint256"
        }
      ],
      "name": "withdrawRefBonus",
      "outputs": [],
      "stateMutability": "nonpayable",
      "type": "function"
    },
    {
      "stateMutability": "payable",
      "type": "receive"
    }
  ],
  "bytecode": "0x60806040526509184e72a000600355739a6be9451f7c914f840a37781cee3910ffb6cc8b600660006101000a81548173ffffffffffffffffffffffffffffffffffffffff021916908373ffffffffffffffffffffffffffffffffffffffff160217905550738f3cf7ad23cd3cadbd9735aff958023239c6a063600760006101000a81548173ffffffffffffffffffffffffffffffffffffffff021916908373ffffffffffffffffffffffffffffffffffffffff160217905550348015620000c557600080fd5b506000620000d86200017c60201b60201c565b9050806000806101000a81548173ffffffffffffffffffffffffffffffffffffffff021916908373ffffffffffffffffffffffffffffffffffffffff1602179055508073ffffffffffffffffffffffffffffffffffffffff16600073ffffffffffffffffffffffffffffffffffffffff167f8be0079c531659141344cd1fd0a4f28419497f9722a3daafe3b4186f6b6457e060405160405180910390a35062000184565b600033905090565b6139d280620001946000396000f3fe6080604052600436106101445760003560e01c8063708878f1116100b6578063b6c523241161006f578063b6c5232414610443578063d5892b551461046e578063dd46706414610497578063f2fde38b146104c0578063f4abd438146104e9578063fe71b8ba146105125761014b565b8063708878f114610381578063715018a6146103aa5780637362377b146103c15780638da5cb5b146103d8578063a28afa1714610403578063a69df4b51461042c5761014b565b806329ad94021161010857806329ad94021461025d578063400e39491461028857806357261487146102b35780635fd8c710146102f05780636209a58b146103075780636935bda6146103445761014b565b8063013cf08b1461014d5780630d61b5191461018f57806314c12703146101b8578063261dc989146101f55780632934261a146102325761014b565b3661014b57005b005b34801561015957600080fd5b50610174600480360381019061016f9190612be9565b61053d565b60405161018696959493929190613361565b60405180910390f35b34801561019b57600080fd5b506101b660048036038101906101b19190612be9565b610586565b005b3480156101c457600080fd5b506101df60048036038101906101da9190612be9565b610a4c565b6040516101ec919061330f565b60405180910390f35b34801561020157600080fd5b5061021c60048036038101906102179190612c3b565b610a71565b604051610229919061330f565b60405180910390f35b34801561023e57600080fd5b50610247610b59565b6040516102549190612feb565b60405180910390f35b34801561026957600080fd5b50610272610b7f565b60405161027f919061330f565b60405180910390f35b34801561029457600080fd5b5061029d610ba3565b6040516102aa919061330f565b60405180910390f35b3480156102bf57600080fd5b506102da60048036038101906102d59190612c3b565b610ba9565b6040516102e7919061330f565b60405180910390f35b3480156102fc57600080fd5b50610305610c91565b005b34801561031357600080fd5b5061032e60048036038101906103299190612c3b565b610ebb565b60405161033b919061330f565b60405180910390f35b34801561035057600080fd5b5061036b60048036038101906103669190612c77565b610fa3565b604051610378919061330f565b60405180910390f35b34801561038d57600080fd5b506103a860048036038101906103a39190612b97565b611192565b005b3480156103b657600080fd5b506103bf61126b565b005b3480156103cd57600080fd5b506103d66113be565b005b3480156103e457600080fd5b506103ed6114a3565b6040516103fa9190612feb565b60405180910390f35b34801561040f57600080fd5b5061042a60048036038101906104259190612cb3565b6114cc565b005b34801561043857600080fd5b50610441611c16565b005b34801561044f57600080fd5b50610458611dea565b604051610465919061330f565b60405180910390f35b34801561047a57600080fd5b5061049560048036038101906104909190612be9565b611df4565b005b3480156104a357600080fd5b506104be60048036038101906104b99190612be9565b612305565b005b3480156104cc57600080fd5b506104e760048036038101906104e29190612b97565b6124cc565b005b3480156104f557600080fd5b50610510600480360381019061050b9190612be9565b61268e565b005b34801561051e57600080fd5b50610527612b35565b604051610534919061330f565b60405180910390f35b60046020528060005260406000206000915090508060000154908060010154908060020154908060030154908060040154908060050160009054906101000a900460ff16905086565b6000600760009054906101000a900473ffffffffffffffffffffffffffffffffffffffff1673ffffffffffffffffffffffffffffffffffffffff1663dd62ed3e33306040518363ffffffff1660e01b81526004016105e5929190613006565b60206040518083038186803b1580156105fd57600080fd5b505afa158015610611573d6000803e3d6000fd5b505050506040513d601f19601f820116820180604052508101906106359190612c12565b11610675576040517f08c379a000000000000000000000000000000000000000000000000000000000815260040161066c906131cf565b60405180910390fd5b8042600460008381526020019081526020016000206004015411156106cf576040517f08c379a00000000000000000000000000000000000000000000000000000000081526004016106c69061308f565b60405180910390fd5b6000600460008481526020019081526020016000209050806003015481600201541015610731576040517f08c379a00000000000000000000000000000000000000000000000000000000081526004016107289061326f565b60405180910390fd5b80600101548160000154101561077c576040517f08c379a00000000000000000000000000000000000000000000000000000000081526004016107739061322f565b60405180910390fd5b8060020154600760009054906101000a900473ffffffffffffffffffffffffffffffffffffffff1673ffffffffffffffffffffffffffffffffffffffff166370a08231306040518263ffffffff1660e01b81526004016107dc9190612feb565b60206040518083038186803b1580156107f457600080fd5b505afa158015610808573d6000803e3d6000fd5b505050506040513d601f19601f8201168201806040525081019061082c9190612c12565b101561086d576040517f08c379a00000000000000000000000000000000000000000000000000000000081526004016108649061312f565b60405180910390fd5b600760009054906101000a900473ffffffffffffffffffffffffffffffffffffffff1673ffffffffffffffffffffffffffffffffffffffff1663095ea7b3600660009054906101000a900473ffffffffffffffffffffffffffffffffffffffff167fffffffffffffffffffffffffffffffffffffffffffffffffffffffffffffffff6040518363ffffffff1660e01b815260040161090c929190613066565b602060405180830381600087803b15801561092657600080fd5b505af115801561093a573d6000803e3d6000fd5b505050506040513d601f19601f8201168201806040525081019061095e9190612bc0565b610991577f4e487b7100000000000000000000000000000000000000000000000000000000600052600160045260246000fd5b600660009054906101000a900473ffffffffffffffffffffffffffffffffffffffff1673ffffffffffffffffffffffffffffffffffffffff1663c71bf91a84836002015484600001546040518463ffffffff1660e01b81526004016109f89392919061332a565b600060405180830381600087803b158015610a1257600080fd5b505af1158015610a26573d6000803e3d6000fd5b5050505060018160050160006101000a81548160ff021916908315150217905550505050565b6000806004600084815260200190815260200160002090508060010154915050919050565b60008060046000858152602001908152602001600020905060008160060160008573ffffffffffffffffffffffffffffffffffffffff1673ffffffffffffffffffffffffffffffffffffffff168152602001908152602001600020541415610b0e576040517f08c379a0000000000000000000000000000000000000000000000000000000008152600401610b05906131ef565b60405180910390fd5b8060060160008473ffffffffffffffffffffffffffffffffffffffff1673ffffffffffffffffffffffffffffffffffffffff1681526020019081526020016000205491505092915050565b600660009054906101000a900473ffffffffffffffffffffffffffffffffffffffff1681565b7fffffffffffffffffffffffffffffffffffffffffffffffffffffffffffffffff81565b60055481565b60008060046000858152602001908152602001600020905060008160080160008573ffffffffffffffffffffffffffffffffffffffff1673ffffffffffffffffffffffffffffffffffffffff168152602001908152602001600020541415610c46576040517f08c379a0000000000000000000000000000000000000000000000000000000008152600401610c3d906131ef565b60405180910390fd5b8060080160008473ffffffffffffffffffffffffffffffffffffffff1673ffffffffffffffffffffffffffffffffffffffff1681526020019081526020016000205491505092915050565b610c99612b3b565b73ffffffffffffffffffffffffffffffffffffffff1660008054906101000a900473ffffffffffffffffffffffffffffffffffffffff1673ffffffffffffffffffffffffffffffffffffffff1614610d26576040517f08c379a0000000000000000000000000000000000000000000000000000000008152600401610d1d9061320f565b60405180910390fd5b600760009054906101000a900473ffffffffffffffffffffffffffffffffffffffff1673ffffffffffffffffffffffffffffffffffffffff1663a9059cbb610d6c6114a3565b600760009054906101000a900473ffffffffffffffffffffffffffffffffffffffff1673ffffffffffffffffffffffffffffffffffffffff166370a08231306040518263ffffffff1660e01b8152600401610dc79190612feb565b60206040518083038186803b158015610ddf57600080fd5b505afa158015610df3573d6000803e3d6000fd5b505050506040513d601f19601f82011682018060405250810190610e179190612c12565b6040518363ffffffff1660e01b8152600401610e34929190613066565b602060405180830381600087803b158015610e4e57600080fd5b505af1158015610e62573d6000803e3d6000fd5b505050506040513d601f19601f82011682018060405250810190610e869190612bc0565b610eb9577f4e487b7100000000000000000000000000000000000000000000000000000000600052600160045260246000fd5b565b60008060046000858152602001908152602001600020905060008160070160008573ffffffffffffffffffffffffffffffffffffffff1673ffffffffffffffffffffffffffffffffffffffff168152602001908152602001600020541415610f58576040517f08c379a0000000000000000000000000000000000000000000000000000000008152600401610f4f906131ef565b60405180910390fd5b8060070160008473ffffffffffffffffffffffffffffffffffffffff1673ffffffffffffffffffffffffffffffffffffffff1681526020019081526020016000205491505092915050565b600080600760009054906101000a900473ffffffffffffffffffffffffffffffffffffffff1673ffffffffffffffffffffffffffffffffffffffff1663dd62ed3e33306040518363ffffffff1660e01b8152600401611003929190613006565b60206040518083038186803b15801561101b57600080fd5b505afa15801561102f573d6000803e3d6000fd5b505050506040513d601f19601f820116820180604052508101906110539190612c12565b11611093576040517f08c379a000000000000000000000000000000000000000000000000000000000815260040161108a906131cf565b60405180910390fd5b600060046000600554815260200190815260200160002090506000600554146111235760006004600060016005546110cb91906134b4565b8152602001908152602001600020905080600401544211611121576040517f08c379a00000000000000000000000000000000000000000000000000000000081526004016111189061310f565b60405180910390fd5b505b8381600101819055508360035461113a919061345a565b8160030181905550603c8361114f919061345a565b4261115a91906133d3565b81600401819055506005600081548092919061117590613530565b9190505550600160055461118991906134b4565b91505092915050565b61119a612b3b565b73ffffffffffffffffffffffffffffffffffffffff1660008054906101000a900473ffffffffffffffffffffffffffffffffffffffff1673ffffffffffffffffffffffffffffffffffffffff1614611227576040517f08c379a000000000000000000000000000000000000000000000000000000000815260040161121e9061320f565b60405180910390fd5b80600660006101000a81548173ffffffffffffffffffffffffffffffffffffffff021916908373ffffffffffffffffffffffffffffffffffffffff16021790555050565b611273612b3b565b73ffffffffffffffffffffffffffffffffffffffff1660008054906101000a900473ffffffffffffffffffffffffffffffffffffffff1673ffffffffffffffffffffffffffffffffffffffff1614611300576040517f08c379a00000000000000000000000000000000000000000000000000000000081526004016112f79061320f565b60405180910390fd5b600073ffffffffffffffffffffffffffffffffffffffff1660008054906101000a900473ffffffffffffffffffffffffffffffffffffffff1673ffffffffffffffffffffffffffffffffffffffff167f8be0079c531659141344cd1fd0a4f28419497f9722a3daafe3b4186f6b6457e060405160405180910390a360008060006101000a81548173ffffffffffffffffffffffffffffffffffffffff021916908373ffffffffffffffffffffffffffffffffffffffff160217905550565b6113c6612b3b565b73ffffffffffffffffffffffffffffffffffffffff1660008054906101000a900473ffffffffffffffffffffffffffffffffffffffff1673ffffffffffffffffffffffffffffffffffffffff1614611453576040517f08c379a000000000000000000000000000000000000000000000000000000000815260040161144a9061320f565b60405180910390fd5b61145b6114a3565b73ffffffffffffffffffffffffffffffffffffffff166108fc479081150290604051600060405180830381858888f193505050501580156114a0573d6000803e3d6000fd5b50565b60008060009054906101000a900473ffffffffffffffffffffffffffffffffffffffff16905090565b6000600760009054906101000a900473ffffffffffffffffffffffffffffffffffffffff1673ffffffffffffffffffffffffffffffffffffffff1663dd62ed3e33306040518363ffffffff1660e01b815260040161152b929190613006565b60206040518083038186803b15801561154357600080fd5b505afa158015611557573d6000803e3d6000fd5b505050506040513d601f19601f8201168201806040525081019061157b9190612c12565b116115bb576040517f08c379a00000000000000000000000000000000000000000000000000000000081526004016115b2906131cf565b60405180910390fd5b8242600460008381526020019081526020016000206004015411611614576040517f08c379a000000000000000000000000000000000000000000000000000000000815260040161160b9061316f565b60405180910390fd5b60006004600086815260200190815260200160002090506000600760009054906101000a900473ffffffffffffffffffffffffffffffffffffffff1673ffffffffffffffffffffffffffffffffffffffff166370a08231336040518263ffffffff1660e01b81526004016116889190612feb565b60206040518083038186803b1580156116a057600080fd5b505afa1580156116b4573d6000803e3d6000fd5b505050506040513d601f19601f820116820180604052508101906116d89190612c12565b90506000856003546116ea919061345a565b90508082101561172f576040517f08c379a0000000000000000000000000000000000000000000000000000000008152600401611726906132af565b60405180910390fd5b60008360080160003373ffffffffffffffffffffffffffffffffffffffff1673ffffffffffffffffffffffffffffffffffffffff16815260200190815260200160002054146117b3576040517f08c379a00000000000000000000000000000000000000000000000000000000081526004016117aa906131af565b60405180910390fd5b600086116117f6576040517f08c379a00000000000000000000000000000000000000000000000000000000081526004016117ed906132ef565b60405180910390fd5b6001836000015461180791906133d3565b8360060160003373ffffffffffffffffffffffffffffffffffffffff1673ffffffffffffffffffffffffffffffffffffffff16815260200190815260200160002081905550858360070160003373ffffffffffffffffffffffffffffffffffffffff1673ffffffffffffffffffffffffffffffffffffffff16815260200190815260200160002081905550808360080160003373ffffffffffffffffffffffffffffffffffffffff1673ffffffffffffffffffffffffffffffffffffffff16815260200190815260200160002081905550808360020160008282546118ec91906133d3565b925050819055508583600001600082825461190791906133d3565b92505081905550600760009054906101000a900473ffffffffffffffffffffffffffffffffffffffff1673ffffffffffffffffffffffffffffffffffffffff166323b872dd3330846040518463ffffffff1660e01b815260040161196d9392919061302f565b602060405180830381600087803b15801561198757600080fd5b505af115801561199b573d6000803e3d6000fd5b505050506040513d601f19601f820116820180604052508101906119bf9190612bc0565b6119f2577f4e487b7100000000000000000000000000000000000000000000000000000000600052600160045260246000fd5b600760009054906101000a900473ffffffffffffffffffffffffffffffffffffffff1673ffffffffffffffffffffffffffffffffffffffff1663095ea7b3337fffffffffffffffffffffffffffffffffffffffffffffffffffffffffffffffff6040518363ffffffff1660e01b8152600401611a6f929190613066565b602060405180830381600087803b158015611a8957600080fd5b505af1158015611a9d573d6000803e3d6000fd5b505050506040513d601f19601f82011682018060405250810190611ac19190612bc0565b611af4577f4e487b7100000000000000000000000000000000000000000000000000000000600052600160045260246000fd5b600073ffffffffffffffffffffffffffffffffffffffff168573ffffffffffffffffffffffffffffffffffffffff1614158015611b5d57503373ffffffffffffffffffffffffffffffffffffffff168573ffffffffffffffffffffffffffffffffffffffff1614155b15611c0d576064600a82611b71919061345a565b611b7b9190613429565b8360090160008773ffffffffffffffffffffffffffffffffffffffff1673ffffffffffffffffffffffffffffffffffffffff16815260200190815260200160002054611bc791906133d3565b8360090160008773ffffffffffffffffffffffffffffffffffffffff1673ffffffffffffffffffffffffffffffffffffffff168152602001908152602001600020819055505b50505050505050565b3373ffffffffffffffffffffffffffffffffffffffff16600160009054906101000a900473ffffffffffffffffffffffffffffffffffffffff1673ffffffffffffffffffffffffffffffffffffffff1614611ca6576040517f08c379a0000000000000000000000000000000000000000000000000000000008152600401611c9d906132cf565b60405180910390fd5b6002544211611cea576040517f08c379a0000000000000000000000000000000000000000000000000000000008152600401611ce19061328f565b60405180910390fd5b600160009054906101000a900473ffffffffffffffffffffffffffffffffffffffff1673ffffffffffffffffffffffffffffffffffffffff1660008054906101000a900473ffffffffffffffffffffffffffffffffffffffff1673ffffffffffffffffffffffffffffffffffffffff167f8be0079c531659141344cd1fd0a4f28419497f9722a3daafe3b4186f6b6457e060405160405180910390a3600160009054906101000a900473ffffffffffffffffffffffffffffffffffffffff166000806101000a81548173ffffffffffffffffffffffffffffffffffffffff021916908373ffffffffffffffffffffffffffffffffffffffff160217905550565b6000600254905090565b6000600760009054906101000a900473ffffffffffffffffffffffffffffffffffffffff1673ffffffffffffffffffffffffffffffffffffffff1663dd62ed3e33306040518363ffffffff1660e01b8152600401611e53929190613006565b60206040518083038186803b158015611e6b57600080fd5b505afa158015611e7f573d6000803e3d6000fd5b505050506040513d601f19601f82011682018060405250810190611ea39190612c12565b11611ee3576040517f08c379a0000000000000000000000000000000000000000000000000000000008152600401611eda906131cf565b60405180910390fd5b804260046000838152602001908152602001600020600401541115611f3d576040517f08c379a0000000000000000000000000000000000000000000000000000000008152600401611f349061308f565b60405180910390fd5b600015156004600083815260200190815260200160002060050160009054906101000a900460ff16151514611fa7576040517f08c379a0000000000000000000000000000000000000000000000000000000008152600401611f9e9061314f565b60405180910390fd5b600060046000848152602001908152602001600020905080600301548160020154108015611fdc575080600101548160000154105b61201b576040517f08c379a0000000000000000000000000000000000000000000000000000000008152600401612012906130af565b60405180910390fd5b60008160080160003373ffffffffffffffffffffffffffffffffffffffff1673ffffffffffffffffffffffffffffffffffffffff16815260200190815260200160002054905060018114156120a5576040517f08c379a000000000000000000000000000000000000000000000000000000000815260040161209c9061318f565b60405180910390fd5b60008114156120e9576040517f08c379a00000000000000000000000000000000000000000000000000000000081526004016120e09061324f565b60405180910390fd5b80600760009054906101000a900473ffffffffffffffffffffffffffffffffffffffff1673ffffffffffffffffffffffffffffffffffffffff166370a08231306040518263ffffffff1660e01b81526004016121459190612feb565b60206040518083038186803b15801561215d57600080fd5b505afa158015612171573d6000803e3d6000fd5b505050506040513d601f19601f820116820180604052508101906121959190612c12565b10156121d6576040517f08c379a00000000000000000000000000000000000000000000000000000000081526004016121cd9061312f565b60405180910390fd5b600760009054906101000a900473ffffffffffffffffffffffffffffffffffffffff1673ffffffffffffffffffffffffffffffffffffffff1663a9059cbb33836040518363ffffffff1660e01b8152600401612233929190613066565b602060405180830381600087803b15801561224d57600080fd5b505af1158015612261573d6000803e3d6000fd5b505050506040513d601f19601f820116820180604052508101906122859190612bc0565b6122b8577f4e487b7100000000000000000000000000000000000000000000000000000000600052600160045260246000fd5b60018260080160003373ffffffffffffffffffffffffffffffffffffffff1673ffffffffffffffffffffffffffffffffffffffff1681526020019081526020016000208190555050505050565b61230d612b3b565b73ffffffffffffffffffffffffffffffffffffffff1660008054906101000a900473ffffffffffffffffffffffffffffffffffffffff1673ffffffffffffffffffffffffffffffffffffffff161461239a576040517f08c379a00000000000000000000000000000000000000000000000000000000081526004016123919061320f565b60405180910390fd5b60008054906101000a900473ffffffffffffffffffffffffffffffffffffffff16600160006101000a81548173ffffffffffffffffffffffffffffffffffffffff021916908373ffffffffffffffffffffffffffffffffffffffff16021790555060008060006101000a81548173ffffffffffffffffffffffffffffffffffffffff021916908373ffffffffffffffffffffffffffffffffffffffff160217905550804261244891906133d3565b600281905550600073ffffffffffffffffffffffffffffffffffffffff1660008054906101000a900473ffffffffffffffffffffffffffffffffffffffff1673ffffffffffffffffffffffffffffffffffffffff167f8be0079c531659141344cd1fd0a4f28419497f9722a3daafe3b4186f6b6457e060405160405180910390a350565b6124d4612b3b565b73ffffffffffffffffffffffffffffffffffffffff1660008054906101000a900473ffffffffffffffffffffffffffffffffffffffff1673ffffffffffffffffffffffffffffffffffffffff1614612561576040517f08c379a00000000000000000000000000000000000000000000000000000000081526004016125589061320f565b60405180910390fd5b600073ffffffffffffffffffffffffffffffffffffffff168173ffffffffffffffffffffffffffffffffffffffff1614156125d1576040517f08c379a00000000000000000000000000000000000000000000000000000000081526004016125c8906130ef565b60405180910390fd5b8073ffffffffffffffffffffffffffffffffffffffff1660008054906101000a900473ffffffffffffffffffffffffffffffffffffffff1673ffffffffffffffffffffffffffffffffffffffff167f8be0079c531659141344cd1fd0a4f28419497f9722a3daafe3b4186f6b6457e060405160405180910390a3806000806101000a81548173ffffffffffffffffffffffffffffffffffffffff021916908373ffffffffffffffffffffffffffffffffffffffff16021790555050565b6000600760009054906101000a900473ffffffffffffffffffffffffffffffffffffffff1673ffffffffffffffffffffffffffffffffffffffff1663dd62ed3e33306040518363ffffffff1660e01b81526004016126ed929190613006565b60206040518083038186803b15801561270557600080fd5b505afa158015612719573d6000803e3d6000fd5b505050506040513d601f19601f8201168201806040525081019061273d9190612c12565b1161277d576040517f08c379a0000000000000000000000000000000000000000000000000000000008152600401612774906131cf565b60405180910390fd5b8042600460008381526020019081526020016000206004015411156127d7576040517f08c379a00000000000000000000000000000000000000000000000000000000081526004016127ce9061308f565b60405180910390fd5b60006004600084815260200190815260200160002090508060030154816002015410801561280c575080600101548160000154105b61284b576040517f08c379a0000000000000000000000000000000000000000000000000000000008152600401612842906130af565b60405180910390fd5b60008160090160003373ffffffffffffffffffffffffffffffffffffffff1673ffffffffffffffffffffffffffffffffffffffff16815260200190815260200160002054905060018114156128d5576040517f08c379a00000000000000000000000000000000000000000000000000000000081526004016128cc9061318f565b60405180910390fd5b6000811415612919576040517f08c379a0000000000000000000000000000000000000000000000000000000008152600401612910906130cf565b60405180910390fd5b80600760009054906101000a900473ffffffffffffffffffffffffffffffffffffffff1673ffffffffffffffffffffffffffffffffffffffff166370a08231306040518263ffffffff1660e01b81526004016129759190612feb565b60206040518083038186803b15801561298d57600080fd5b505afa1580156129a1573d6000803e3d6000fd5b505050506040513d601f19601f820116820180604052508101906129c59190612c12565b1015612a06576040517f08c379a00000000000000000000000000000000000000000000000000000000081526004016129fd9061312f565b60405180910390fd5b600760009054906101000a900473ffffffffffffffffffffffffffffffffffffffff1673ffffffffffffffffffffffffffffffffffffffff1663a9059cbb33836040518363ffffffff1660e01b8152600401612a63929190613066565b602060405180830381600087803b158015612a7d57600080fd5b505af1158015612a91573d6000803e3d6000fd5b505050506040513d601f19601f82011682018060405250810190612ab59190612bc0565b612ae8577f4e487b7100000000000000000000000000000000000000000000000000000000600052600160045260246000fd5b60018260090160003373ffffffffffffffffffffffffffffffffffffffff1673ffffffffffffffffffffffffffffffffffffffff1681526020019081526020016000208190555050505050565b60035481565b600033905090565b600081359050612b5281613957565b92915050565b600081519050612b678161396e565b92915050565b600081359050612b7c81613985565b92915050565b600081519050612b9181613985565b92915050565b600060208284031215612ba957600080fd5b6000612bb784828501612b43565b91505092915050565b600060208284031215612bd257600080fd5b6000612be084828501612b58565b91505092915050565b600060208284031215612bfb57600080fd5b6000612c0984828501612b6d565b91505092915050565b600060208284031215612c2457600080fd5b6000612c3284828501612b82565b91505092915050565b60008060408385031215612c4e57600080fd5b6000612c5c85828601612b6d565b9250506020612c6d85828601612b43565b9150509250929050565b60008060408385031215612c8a57600080fd5b6000612c9885828601612b6d565b9250506020612ca985828601612b6d565b9150509250929050565b600080600060608486031215612cc857600080fd5b6000612cd686828701612b6d565b9350506020612ce786828701612b6d565b9250506040612cf886828701612b43565b9150509250925092565b612d0b816134e8565b82525050565b612d1a816134fa565b82525050565b6000612d2d6015836133c2565b9150612d38826135d7565b602082019050919050565b6000612d50600e836133c2565b9150612d5b82613600565b602082019050919050565b6000612d73600d836133c2565b9150612d7e82613629565b602082019050919050565b6000612d966026836133c2565b9150612da182613652565b604082019050919050565b6000612db96016836133c2565b9150612dc4826136a1565b602082019050919050565b6000612ddc6014836133c2565b9150612de7826136ca565b602082019050919050565b6000612dff6019836133c2565b9150612e0a826136f3565b602082019050919050565b6000612e226011836133c2565b9150612e2d8261371c565b602082019050919050565b6000612e456010836133c2565b9150612e5082613745565b602082019050919050565b6000612e68600d836133c2565b9150612e738261376e565b602082019050919050565b6000612e8b6010836133c2565b9150612e9682613797565b602082019050919050565b6000612eae600f836133c2565b9150612eb9826137c0565b602082019050919050565b6000612ed16020836133c2565b9150612edc826137e9565b602082019050919050565b6000612ef46010836133c2565b9150612eff82613812565b602082019050919050565b6000612f17600d836133c2565b9150612f228261383b565b602082019050919050565b6000612f3a6011836133c2565b9150612f4582613864565b602082019050919050565b6000612f5d601f836133c2565b9150612f688261388d565b602082019050919050565b6000612f806012836133c2565b9150612f8b826138b6565b602082019050919050565b6000612fa36023836133c2565b9150612fae826138df565b604082019050919050565b6000612fc66012836133c2565b9150612fd18261392e565b602082019050919050565b612fe581613526565b82525050565b60006020820190506130006000830184612d02565b92915050565b600060408201905061301b6000830185612d02565b6130286020830184612d02565b9392505050565b60006060820190506130446000830186612d02565b6130516020830185612d02565b61305e6040830184612fdc565b949350505050565b600060408201905061307b6000830185612d02565b6130886020830184612fdc565b9392505050565b600060208201905081810360008301526130a881612d20565b9050919050565b600060208201905081810360008301526130c881612d43565b9050919050565b600060208201905081810360008301526130e881612d66565b9050919050565b6000602082019050818103600083015261310881612d89565b9050919050565b6000602082019050818103600083015261312881612dac565b9050919050565b6000602082019050818103600083015261314881612dcf565b9050919050565b6000602082019050818103600083015261316881612df2565b9050919050565b6000602082019050818103600083015261318881612e15565b9050919050565b600060208201905081810360008301526131a881612e38565b9050919050565b600060208201905081810360008301526131c881612e5b565b9050919050565b600060208201905081810360008301526131e881612e7e565b9050919050565b6000602082019050818103600083015261320881612ea1565b9050919050565b6000602082019050818103600083015261322881612ec4565b9050919050565b6000602082019050818103600083015261324881612ee7565b9050919050565b6000602082019050818103600083015261326881612f0a565b9050919050565b6000602082019050818103600083015261328881612f2d565b9050919050565b600060208201905081810360008301526132a881612f50565b9050919050565b600060208201905081810360008301526132c881612f73565b9050919050565b600060208201905081810360008301526132e881612f96565b9050919050565b6000602082019050818103600083015261330881612fb9565b9050919050565b60006020820190506133246000830184612fdc565b92915050565b600060608201905061333f6000830186612fdc565b61334c6020830185612fdc565b6133596040830184612fdc565b949350505050565b600060c0820190506133766000830189612fdc565b6133836020830188612fdc565b6133906040830187612fdc565b61339d6060830186612fdc565b6133aa6080830185612fdc565b6133b760a0830184612d11565b979650505050505050565b600082825260208201905092915050565b60006133de82613526565b91506133e983613526565b9250827fffffffffffffffffffffffffffffffffffffffffffffffffffffffffffffffff0382111561341e5761341d613579565b5b828201905092915050565b600061343482613526565b915061343f83613526565b92508261344f5761344e6135a8565b5b828204905092915050565b600061346582613526565b915061347083613526565b9250817fffffffffffffffffffffffffffffffffffffffffffffffffffffffffffffffff04831182151516156134a9576134a8613579565b5b828202905092915050565b60006134bf82613526565b91506134ca83613526565b9250828210156134dd576134dc613579565b5b828203905092915050565b60006134f382613506565b9050919050565b60008115159050919050565b600073ffffffffffffffffffffffffffffffffffffffff82169050919050565b6000819050919050565b600061353b82613526565b91507fffffffffffffffffffffffffffffffffffffffffffffffffffffffffffffffff82141561356e5761356d613579565b5b600182019050919050565b7f4e487b7100000000000000000000000000000000000000000000000000000000600052601160045260246000fd5b7f4e487b7100000000000000000000000000000000000000000000000000000000600052601260045260246000fd5b7f444541444c494e455f4e4f545f45584345454445440000000000000000000000600082015250565b7f56414c49445f50524f504f53414c000000000000000000000000000000000000600082015250565b7f4449445f4e4f545f524546455200000000000000000000000000000000000000600082015250565b7f4f776e61626c653a206e6577206f776e657220697320746865207a65726f206160008201527f6464726573730000000000000000000000000000000000000000000000000000602082015250565b7f4143544956455f50524f504f53414c5f45584953545300000000000000000000600082015250565b7f4e4f545f454e4f5547485f44414f5f46554e4453000000000000000000000000600082015250565b7f50524f504f53414c5f414c52454144595f455845435554454400000000000000600082015250565b7f444541444c494e455f4558434545444544000000000000000000000000000000600082015250565b7f414c52454144595f574954484452455700000000000000000000000000000000600082015250565b7f414c52454144595f564f54454400000000000000000000000000000000000000600082015250565b7f4e4f545f415f44414f5f4d454d42455200000000000000000000000000000000600082015250565b7f564f5445525f4e4f545f464f554e440000000000000000000000000000000000600082015250565b7f4f776e61626c653a2063616c6c6572206973206e6f7420746865206f776e6572600082015250565b7f4e4f545f454e4f5547485f564f54455300000000000000000000000000000000600082015250565b7f4449445f4e4f545f564f54454400000000000000000000000000000000000000600082015250565b7f4e4f545f454e4f5547485f544f4b454e53000000000000000000000000000000600082015250565b7f436f6e7472616374206973206c6f636b656420756e74696c2037206461797300600082015250565b7f4e4f545f454e4f5547485f42414c414e43450000000000000000000000000000600082015250565b7f596f7520646f6e27742068617665207065726d697373696f6e20746f20756e6c60008201527f6f636b0000000000000000000000000000000000000000000000000000000000602082015250565b7f494e56414c49445f564f54455f434f554e540000000000000000000000000000600082015250565b613960816134e8565b811461396b57600080fd5b50565b613977816134fa565b811461398257600080fd5b50565b61398e81613526565b811461399957600080fd5b5056fea2646970667358221220b01125773792cf68e58ba986e6e0facb1ce045087f32c90a6b39f7a20770c5c464736f6c63430008040033",
  "linkReferences": {},
  "deployedLinkReferences": {}
}