{
  "_format": "hh-sol-artifact-1",
  "contractName": "TheOpenFarmDAOsLotto",
  "sourceName": "contracts/FarmDAOsLotto.sol",
  "abi": [
    {
      "anonymous": false,
      "inputs": [
        {
          "indexed": true,
          "internalType": "uint256",
          "name": "_proposalIndex",
          "type": "uint256"
        },
        {
          "indexed": false,
          "internalType": "bytes32",
          "name": "requestId",
          "type": "bytes32"
        }
      ],
      "name": "NewRandomRequest",
      "type": "event"
    },
    {
      "anonymous": false,
      "inputs": [
        {
          "indexed": true,
          "internalType": "address",
          "name": "previousOwner",
          "type": "address"
        },
        {
          "indexed": true,
          "internalType": "address",
          "name": "newOwner",
          "type": "address"
        }
      ],
      "name": "OwnershipTransferred",
      "type": "event"
    },
    {
      "inputs": [
        {
          "internalType": "uint256",
          "name": "_proposalIndex",
          "type": "uint256"
        },
        {
          "internalType": "uint256",
          "name": "_votePos",
          "type": "uint256"
        },
        {
          "internalType": "address",
          "name": "_voter",
          "type": "address"
        }
      ],
      "name": "_getVoteResult",
      "outputs": [
        {
          "internalType": "uint256",
          "name": "",
          "type": "uint256"
        }
      ],
      "stateMutability": "nonpayable",
      "type": "function"
    },
    {
      "inputs": [],
      "name": "emergencyWithdraw",
      "outputs": [],
      "stateMutability": "nonpayable",
      "type": "function"
    },
    {
      "inputs": [
        {
          "internalType": "uint256",
          "name": "",
          "type": "uint256"
        }
      ],
      "name": "gameRounds",
      "outputs": [
        {
          "internalType": "uint256",
          "name": "randomRequestBlock",
          "type": "uint256"
        },
        {
          "internalType": "uint256",
          "name": "randomResult",
          "type": "uint256"
        },
        {
          "internalType": "uint256",
          "name": "randomResultBlock",
          "type": "uint256"
        },
        {
          "internalType": "uint256",
          "name": "lockedFunds",
          "type": "uint256"
        },
        {
          "internalType": "uint256",
          "name": "amountRaised",
          "type": "uint256"
        },
        {
          "internalType": "uint256",
          "name": "votes",
          "type": "uint256"
        },
        {
          "internalType": "bytes32",
          "name": "randomRequestId",
          "type": "bytes32"
        },
        {
          "internalType": "uint8",
          "name": "lastResult",
          "type": "uint8"
        }
      ],
      "stateMutability": "view",
      "type": "function"
    },
    {
      "inputs": [],
      "name": "geUnlockTime",
      "outputs": [
        {
          "internalType": "uint256",
          "name": "",
          "type": "uint256"
        }
      ],
      "stateMutability": "view",
      "type": "function"
    },
    {
      "inputs": [
        {
          "internalType": "uint256",
          "name": "_proposalIndex",
          "type": "uint256"
        },
        {
          "internalType": "uint256",
          "name": "_votePos",
          "type": "uint256"
        }
      ],
      "name": "getVoteRedeemd",
      "outputs": [
        {
          "internalType": "uint256",
          "name": "",
          "type": "uint256"
        }
      ],
      "stateMutability": "view",
      "type": "function"
    },
    {
      "inputs": [
        {
          "internalType": "uint256",
          "name": "_proposalIndex",
          "type": "uint256"
        },
        {
          "internalType": "uint256",
          "name": "_votePos",
          "type": "uint256"
        },
        {
          "internalType": "address",
          "name": "_voter",
          "type": "address"
        }
      ],
      "name": "getVoteResult",
      "outputs": [
        {
          "internalType": "uint256",
          "name": "",
          "type": "uint256"
        }
      ],
      "stateMutability": "nonpayable",
      "type": "function"
    },
    {
      "inputs": [
        {
          "internalType": "uint256",
          "name": "_proposalIndex",
          "type": "uint256"
        },
        {
          "internalType": "uint256",
          "name": "_votePos",
          "type": "uint256"
        }
      ],
      "name": "getVoteScratchedNumber",
      "outputs": [
        {
          "internalType": "uint256",
          "name": "",
          "type": "uint256"
        }
      ],
      "stateMutability": "view",
      "type": "function"
    },
    {
      "inputs": [
        {
          "internalType": "uint256",
          "name": "_proposalIndex",
          "type": "uint256"
        },
        {
          "internalType": "uint256",
          "name": "_votePos",
          "type": "uint256"
        }
      ],
      "name": "getWonAmount",
      "outputs": [
        {
          "internalType": "uint256",
          "name": "",
          "type": "uint256"
        }
      ],
      "stateMutability": "view",
      "type": "function"
    },
    {
      "inputs": [
        {
          "internalType": "uint256",
          "name": "",
          "type": "uint256"
        }
      ],
      "name": "hasRequestedRandom",
      "outputs": [
        {
          "internalType": "bool",
          "name": "",
          "type": "bool"
        }
      ],
      "stateMutability": "view",
      "type": "function"
    },
    {
      "inputs": [
        {
          "internalType": "uint256",
          "name": "time",
          "type": "uint256"
        }
      ],
      "name": "lock",
      "outputs": [],
      "stateMutability": "nonpayable",
      "type": "function"
    },
    {
      "inputs": [
        {
          "internalType": "uint256",
          "name": "_proposalIndex",
          "type": "uint256"
        },
        {
          "internalType": "uint256",
          "name": "_amount",
          "type": "uint256"
        },
        {
          "internalType": "uint256",
          "name": "_votes",
          "type": "uint256"
        }
      ],
      "name": "newRound",
      "outputs": [],
      "stateMutability": "nonpayable",
      "type": "function"
    },
    {
      "inputs": [],
      "name": "owner",
      "outputs": [
        {
          "internalType": "address",
          "name": "",
          "type": "address"
        }
      ],
      "stateMutability": "view",
      "type": "function"
    },
    {
      "inputs": [
        {
          "internalType": "uint256",
          "name": "",
          "type": "uint256"
        }
      ],
      "name": "randomRequests",
      "outputs": [
        {
          "internalType": "uint256",
          "name": "",
          "type": "uint256"
        }
      ],
      "stateMutability": "view",
      "type": "function"
    },
    {
      "inputs": [
        {
          "internalType": "uint256",
          "name": "",
          "type": "uint256"
        },
        {
          "internalType": "uint256",
          "name": "",
          "type": "uint256"
        }
      ],
      "name": "redeemHistory",
      "outputs": [
        {
          "internalType": "uint256",
          "name": "",
          "type": "uint256"
        }
      ],
      "stateMutability": "view",
      "type": "function"
    },
    {
      "inputs": [],
      "name": "renounceOwnership",
      "outputs": [],
      "stateMutability": "nonpayable",
      "type": "function"
    },
    {
      "inputs": [
        {
          "internalType": "uint256",
          "name": "_proposalIndex",
          "type": "uint256"
        }
      ],
      "name": "requestResolveRound",
      "outputs": [],
      "stateMutability": "nonpayable",
      "type": "function"
    },
    {
      "inputs": [
        {
          "internalType": "uint256",
          "name": "_proposalIndex",
          "type": "uint256"
        }
      ],
      "name": "resolveBet",
      "outputs": [
        {
          "internalType": "bool",
          "name": "",
          "type": "bool"
        }
      ],
      "stateMutability": "nonpayable",
      "type": "function"
    },
    {
      "inputs": [
        {
          "internalType": "address",
          "name": "newOwner",
          "type": "address"
        }
      ],
      "name": "transferOwnership",
      "outputs": [],
      "stateMutability": "nonpayable",
      "type": "function"
    },
    {
      "inputs": [],
      "name": "unlock",
      "outputs": [],
      "stateMutability": "nonpayable",
      "type": "function"
    }
  ],
  "bytecode": "0x6080604052738f3cf7ad23cd3cadbd9735aff958023239c6a063600360006101000a81548173ffffffffffffffffffffffffffffffffffffffff021916908373ffffffffffffffffffffffffffffffffffffffff160217905550734c5f09d239e11896ed4b21e5beba0de9d777eebd600460006101000a81548173ffffffffffffffffffffffffffffffffffffffff021916908373ffffffffffffffffffffffffffffffffffffffff1602179055503480156100ba57600080fd5b5060006100cb61016e60201b60201c565b9050806000806101000a81548173ffffffffffffffffffffffffffffffffffffffff021916908373ffffffffffffffffffffffffffffffffffffffff1602179055508073ffffffffffffffffffffffffffffffffffffffff16600073ffffffffffffffffffffffffffffffffffffffff167f8be0079c531659141344cd1fd0a4f28419497f9722a3daafe3b4186f6b6457e060405160405180910390a350610176565b600033905090565b61309980620001866000396000f3fe608060405234801561001057600080fd5b50600436106101205760003560e01c8063a69df4b5116100ad578063d212dcea11610071578063d212dcea14610334578063db2e21bc14610364578063dd4670641461036e578063f2fde38b1461038a578063f84e6d91146103a657610120565b8063a69df4b5146102a4578063b6c52324146102ae578063c36aea47146102cc578063c71bf91a146102e8578063ca067ad01461030457610120565b80635fafaf06116100f45780635fafaf06146101ec578063673efa691461021c5780636abbee821461024c578063715018a61461027c5780638da5cb5b1461028657610120565b806219e63714610125578063122197cc1461015557806325f3c1bd146101855780634c36c36e146101bc575b600080fd5b61013f600480360381019061013a91906125d7565b6103d6565b60405161014c9190612ad2565b60405180910390f35b61016f600480360381019061016a91906125d7565b610408565b60405161017c9190612ad2565b60405180910390f35b61019f600480360381019061019a9190612585565b61043a565b6040516101b3989796959493929190612b16565b60405180910390f35b6101d660048036038101906101d19190612585565b61048f565b6040516101e39190612901565b60405180910390f35b610206600480360381019061020191906125d7565b6107e9565b6040516102139190612ad2565b60405180910390f35b610236600480360381019061023191906125d7565b61081b565b6040516102439190612ad2565b60405180910390f35b61026660048036038101906102619190612613565b610843565b6040516102739190612ad2565b60405180910390f35b610284611046565b005b61028e611199565b60405161029b91906128af565b60405180910390f35b6102ac6111c2565b005b6102b6611396565b6040516102c39190612ad2565b60405180910390f35b6102e660048036038101906102e19190612585565b6113a0565b005b61030260048036038101906102fd9190612662565b611636565b005b61031e60048036038101906103199190612585565b611909565b60405161032b9190612ad2565b60405180910390f35b61034e60048036038101906103499190612585565b611921565b60405161035b9190612901565b60405180910390f35b61036c611941565b005b61038860048036038101906103839190612585565b611b6d565b005b6103a4600480360381019061039f919061250a565b611d34565b005b6103c060048036038101906103bb9190612613565b611ef6565b6040516103cd9190612ad2565b60405180910390f35b600060076000848152602001908152602001600020600801600083815260200190815260200160002054905092915050565b600060076000848152602001908152602001600020600901600083815260200190815260200160002054905092915050565b60076020528060005260406000206000915090508060000154908060010154908060020154908060030154908060040154908060050154908060060154908060070160009054906101000a900460ff16905088565b6000806007600084815260200190815260200160002060040154116104e9576040517f08c379a00000000000000000000000000000000000000000000000000000000081526004016104e090612972565b60405180910390fd5b600060076000848152602001908152602001600020600601549050600460009054906101000a900473ffffffffffffffffffffffffffffffffffffffff1673ffffffffffffffffffffffffffffffffffffffff1663e89e106a6040518163ffffffff1660e01b8152600401602060405180830381600087803b15801561056e57600080fd5b505af1158015610582573d6000803e3d6000fd5b505050506040513d601f19601f820116820180604052508101906105a6919061255c565b81146105e7576040517f08c379a00000000000000000000000000000000000000000000000000000000081526004016105de90612a72565b60405180910390fd5b600060066000858152602001908152602001600020541461063d576040517f08c379a000000000000000000000000000000000000000000000000000000000815260040161063490612a92565b60405180910390fd5b436007600085815260200190815260200160002060020181905550600460009054906101000a900473ffffffffffffffffffffffffffffffffffffffff1673ffffffffffffffffffffffffffffffffffffffff1663db61e87b6040518163ffffffff1660e01b8152600401602060405180830381600087803b1580156106c257600080fd5b505af11580156106d6573d6000803e3d6000fd5b505050506040513d601f19601f820116820180604052508101906106fa91906125ae565b6006600085815260200190815260200160002081905550600460009054906101000a900473ffffffffffffffffffffffffffffffffffffffff1673ffffffffffffffffffffffffffffffffffffffff1663f6eaffc860006040518263ffffffff1660e01b815260040161076d9190612937565b602060405180830381600087803b15801561078757600080fd5b505af115801561079b573d6000803e3d6000fd5b505050506040513d601f19601f820116820180604052508101906107bf91906125ae565b60076000858152602001908152602001600020600101819055506000600190508092505050919050565b600060076000848152602001908152602001600020600a01600083815260200190815260200160002054905092915050565b6005602052816000526040600020816006811061083757600080fd5b01600091509150505481565b6000806006600086815260200190815260200160002054141561089b576040517f08c379a0000000000000000000000000000000000000000000000000000000008152600401610892906129f2565b60405180910390fd5b60006108a5611199565b73ffffffffffffffffffffffffffffffffffffffff1663261dc98986856040518363ffffffff1660e01b81526004016108df929190612aed565b60206040518083038186803b1580156108f757600080fd5b505afa15801561090b573d6000803e3d6000fd5b505050506040513d601f19601f8201168201806040525081019061092f91906125ae565b9050600061093b611199565b73ffffffffffffffffffffffffffffffffffffffff16636209a58b87866040518363ffffffff1660e01b8152600401610975929190612aed565b60206040518083038186803b15801561098d57600080fd5b505afa1580156109a1573d6000803e3d6000fd5b505050506040513d601f19601f820116820180604052508101906109c591906125ae565b90508185101580156109e2575080826109de9190612ba5565b8511155b610a21576040517f08c379a0000000000000000000000000000000000000000000000000000000008152600401610a1890612a32565b60405180910390fd5b60006007600088815260200190815260200160002060080160008781526020019081526020016000205414610a8b576040517f08c379a0000000000000000000000000000000000000000000000000000000008152600401610a8290612992565b60405180910390fd5b6000600760008881526020019081526020016000206005015490506000600282610ab59190612d40565b1415610aca578080610ac690612cf7565b9150505b60008187600660008b815260200190815260200160002054610aec9190612c2c565b610af69190612d40565b905060008288600660008c815260200190815260200160002054610b1a9190612c2c565b610b249190612d40565b9050600083826103e8610b379190612c2c565b610b419190612bfb565b905080600760008c815260200190815260200160002060080160008b81526020019081526020016000208190555082600760008c815260200190815260200160002060090160008b81526020019081526020016000208190555060018111610c52576001600560008c8152602001908152602001600020600060068110610bf1577f4e487b7100000000000000000000000000000000000000000000000000000000600052603260045260246000fd5b01541015610c4d576001600560008c8152602001908152602001600020600060068110610c47577f4e487b7100000000000000000000000000000000000000000000000000000000600052603260045260246000fd5b01819055505b611036565b60028111610d19576002600560008c8152602001908152602001600020600160068110610ca8577f4e487b7100000000000000000000000000000000000000000000000000000000600052603260045260246000fd5b01541015610d1457600560008b8152602001908152602001600020600160068110610cfc577f4e487b7100000000000000000000000000000000000000000000000000000000600052603260045260246000fd5b016000815480929190610d0e90612cf7565b91905055505b611035565b600a8111610de057600a600560008c8152602001908152602001600020600260068110610d6f577f4e487b7100000000000000000000000000000000000000000000000000000000600052603260045260246000fd5b01541015610ddb57600560008b8152602001908152602001600020600260068110610dc3577f4e487b7100000000000000000000000000000000000000000000000000000000600052603260045260246000fd5b016000815480929190610dd590612cf7565b91905055505b611034565b60148111610ea7576014600560008c8152602001908152602001600020600360068110610e36577f4e487b7100000000000000000000000000000000000000000000000000000000600052603260045260246000fd5b01541015610ea257600560008b8152602001908152602001600020600360068110610e8a577f4e487b7100000000000000000000000000000000000000000000000000000000600052603260045260246000fd5b016000815480929190610e9c90612cf7565b91905055505b611033565b60328111610f6e576032600560008c8152602001908152602001600020600460068110610efd577f4e487b7100000000000000000000000000000000000000000000000000000000600052603260045260246000fd5b01541015610f6957600560008b8152602001908152602001600020600460068110610f51577f4e487b7100000000000000000000000000000000000000000000000000000000600052603260045260246000fd5b016000815480929190610f6390612cf7565b91905055505b611032565b60648111611031576064600560008c8152602001908152602001600020600560068110610fc4577f4e487b7100000000000000000000000000000000000000000000000000000000600052603260045260246000fd5b0154101561103057600560008b8152602001908152602001600020600560068110611018577f4e487b7100000000000000000000000000000000000000000000000000000000600052603260045260246000fd5b01600081548092919061102a90612cf7565b91905055505b5b5b5b5b5b5b8296505050505050509392505050565b61104e612499565b73ffffffffffffffffffffffffffffffffffffffff1660008054906101000a900473ffffffffffffffffffffffffffffffffffffffff1673ffffffffffffffffffffffffffffffffffffffff16146110db576040517f08c379a00000000000000000000000000000000000000000000000000000000081526004016110d2906129d2565b60405180910390fd5b600073ffffffffffffffffffffffffffffffffffffffff1660008054906101000a900473ffffffffffffffffffffffffffffffffffffffff1673ffffffffffffffffffffffffffffffffffffffff167f8be0079c531659141344cd1fd0a4f28419497f9722a3daafe3b4186f6b6457e060405160405180910390a360008060006101000a81548173ffffffffffffffffffffffffffffffffffffffff021916908373ffffffffffffffffffffffffffffffffffffffff160217905550565b60008060009054906101000a900473ffffffffffffffffffffffffffffffffffffffff16905090565b3373ffffffffffffffffffffffffffffffffffffffff16600160009054906101000a900473ffffffffffffffffffffffffffffffffffffffff1673ffffffffffffffffffffffffffffffffffffffff1614611252576040517f08c379a000000000000000000000000000000000000000000000000000000000815260040161124990612ab2565b60405180910390fd5b6002544211611296576040517f08c379a000000000000000000000000000000000000000000000000000000000815260040161128d90612a52565b60405180910390fd5b600160009054906101000a900473ffffffffffffffffffffffffffffffffffffffff1673ffffffffffffffffffffffffffffffffffffffff1660008054906101000a900473ffffffffffffffffffffffffffffffffffffffff1673ffffffffffffffffffffffffffffffffffffffff167f8be0079c531659141344cd1fd0a4f28419497f9722a3daafe3b4186f6b6457e060405160405180910390a3600160009054906101000a900473ffffffffffffffffffffffffffffffffffffffff166000806101000a81548173ffffffffffffffffffffffffffffffffffffffff021916908373ffffffffffffffffffffffffffffffffffffffff160217905550565b6000600254905090565b60006007600083815260200190815260200160002060040154116113f9576040517f08c379a00000000000000000000000000000000000000000000000000000000081526004016113f090612972565b60405180910390fd5b600015156008600083815260200190815260200160002060009054906101000a900460ff16151514611460576040517f08c379a0000000000000000000000000000000000000000000000000000000008152600401611457906129b2565b60405180910390fd5b60016008600083815260200190815260200160002060006101000a81548160ff021916908315150217905550600460009054906101000a900473ffffffffffffffffffffffffffffffffffffffff1673ffffffffffffffffffffffffffffffffffffffff1663e0c862896040518163ffffffff1660e01b8152600401600060405180830381600087803b1580156114f657600080fd5b505af115801561150a573d6000803e3d6000fd5b50505050600460009054906101000a900473ffffffffffffffffffffffffffffffffffffffff1673ffffffffffffffffffffffffffffffffffffffff1663e89e106a6040518163ffffffff1660e01b8152600401602060405180830381600087803b15801561157857600080fd5b505af115801561158c573d6000803e3d6000fd5b505050506040513d601f19601f820116820180604052508101906115b0919061255c565b6007600083815260200190815260200160002060060181905550436007600083815260200190815260200160002060000181905550807fbd51e5a352fab6e096017c2be9f26b900b8615c0353bc652a3f429c6e56c4e12600760008481526020019081526020016000206006015460405161162b919061291c565b60405180910390a250565b61163e612499565b73ffffffffffffffffffffffffffffffffffffffff1660008054906101000a900473ffffffffffffffffffffffffffffffffffffffff1673ffffffffffffffffffffffffffffffffffffffff16146116cb576040517f08c379a00000000000000000000000000000000000000000000000000000000081526004016116c2906129d2565b60405180910390fd5b6008600084815260200190815260200160002060009054906101000a900460ff161561172c576040517f08c379a0000000000000000000000000000000000000000000000000000000008152600401611723906129b2565b60405180910390fd5b6000600760008581526020019081526020016000206004015414611785576040517f08c379a000000000000000000000000000000000000000000000000000000000815260040161177c90612a12565b60405180910390fd5b816007600085815260200190815260200160002060040181905550600a6007806000868152602001908152602001600020600401546117c49190612c2c565b6117ce9190612bfb565b6007600085815260200190815260200160002060030181905550600360009054906101000a900473ffffffffffffffffffffffffffffffffffffffff1673ffffffffffffffffffffffffffffffffffffffff166323b872dd61182e611199565b3060076000888152602001908152602001600020600301546040518463ffffffff1660e01b8152600401611864939291906128ca565b602060405180830381600087803b15801561187e57600080fd5b505af1158015611892573d6000803e3d6000fd5b505050506040513d601f19601f820116820180604052508101906118b69190612533565b6118e9577f4e487b7100000000000000000000000000000000000000000000000000000000600052600160045260246000fd5b806007600085815260200190815260200160002060050181905550505050565b60066020528060005260406000206000915090505481565b60086020528060005260406000206000915054906101000a900460ff1681565b611949612499565b73ffffffffffffffffffffffffffffffffffffffff1660008054906101000a900473ffffffffffffffffffffffffffffffffffffffff1673ffffffffffffffffffffffffffffffffffffffff16146119d6576040517f08c379a00000000000000000000000000000000000000000000000000000000081526004016119cd906129d2565b60405180910390fd5b600360009054906101000a900473ffffffffffffffffffffffffffffffffffffffff1673ffffffffffffffffffffffffffffffffffffffff166323b872dd30611a1d611199565b600360009054906101000a900473ffffffffffffffffffffffffffffffffffffffff1673ffffffffffffffffffffffffffffffffffffffff166370a08231306040518263ffffffff1660e01b8152600401611a7891906128af565b60206040518083038186803b158015611a9057600080fd5b505afa158015611aa4573d6000803e3d6000fd5b505050506040513d601f19601f82011682018060405250810190611ac891906125ae565b6040518463ffffffff1660e01b8152600401611ae6939291906128ca565b602060405180830381600087803b158015611b0057600080fd5b505af1158015611b14573d6000803e3d6000fd5b505050506040513d601f19601f82011682018060405250810190611b389190612533565b611b6b577f4e487b7100000000000000000000000000000000000000000000000000000000600052600160045260246000fd5b565b611b75612499565b73ffffffffffffffffffffffffffffffffffffffff1660008054906101000a900473ffffffffffffffffffffffffffffffffffffffff1673ffffffffffffffffffffffffffffffffffffffff1614611c02576040517f08c379a0000000000000000000000000000000000000000000000000000000008152600401611bf9906129d2565b60405180910390fd5b60008054906101000a900473ffffffffffffffffffffffffffffffffffffffff16600160006101000a81548173ffffffffffffffffffffffffffffffffffffffff021916908373ffffffffffffffffffffffffffffffffffffffff16021790555060008060006101000a81548173ffffffffffffffffffffffffffffffffffffffff021916908373ffffffffffffffffffffffffffffffffffffffff1602179055508042611cb09190612ba5565b600281905550600073ffffffffffffffffffffffffffffffffffffffff1660008054906101000a900473ffffffffffffffffffffffffffffffffffffffff1673ffffffffffffffffffffffffffffffffffffffff167f8be0079c531659141344cd1fd0a4f28419497f9722a3daafe3b4186f6b6457e060405160405180910390a350565b611d3c612499565b73ffffffffffffffffffffffffffffffffffffffff1660008054906101000a900473ffffffffffffffffffffffffffffffffffffffff1673ffffffffffffffffffffffffffffffffffffffff1614611dc9576040517f08c379a0000000000000000000000000000000000000000000000000000000008152600401611dc0906129d2565b60405180910390fd5b600073ffffffffffffffffffffffffffffffffffffffff168173ffffffffffffffffffffffffffffffffffffffff161415611e39576040517f08c379a0000000000000000000000000000000000000000000000000000000008152600401611e3090612952565b60405180910390fd5b8073ffffffffffffffffffffffffffffffffffffffff1660008054906101000a900473ffffffffffffffffffffffffffffffffffffffff1673ffffffffffffffffffffffffffffffffffffffff167f8be0079c531659141344cd1fd0a4f28419497f9722a3daafe3b4186f6b6457e060405160405180910390a3806000806101000a81548173ffffffffffffffffffffffffffffffffffffffff021916908373ffffffffffffffffffffffffffffffffffffffff16021790555050565b60008060066000868152602001908152602001600020541415611f4e576040517f08c379a0000000000000000000000000000000000000000000000000000000008152600401611f45906129f2565b60405180910390fd5b6000611f58611199565b73ffffffffffffffffffffffffffffffffffffffff1663261dc98986856040518363ffffffff1660e01b8152600401611f92929190612aed565b60206040518083038186803b158015611faa57600080fd5b505afa158015611fbe573d6000803e3d6000fd5b505050506040513d601f19601f82011682018060405250810190611fe291906125ae565b90506000611fee611199565b73ffffffffffffffffffffffffffffffffffffffff16636209a58b87866040518363ffffffff1660e01b8152600401612028929190612aed565b60206040518083038186803b15801561204057600080fd5b505afa158015612054573d6000803e3d6000fd5b505050506040513d601f19601f8201168201806040525081019061207891906125ae565b9050818510158015612095575080826120919190612ba5565b8511155b6120d4576040517f08c379a00000000000000000000000000000000000000000000000000000000081526004016120cb90612a32565b60405180910390fd5b6000600760008881526020019081526020016000206008016000878152602001908152602001600020541461213e576040517f08c379a000000000000000000000000000000000000000000000000000000000815260040161213590612992565b60405180910390fd5b6007600087815260200190815260200160002060050154856007600089815260200190815260200160002060050154600660008a81526020019081526020016000205461218b9190612d40565b6121959190612c2c565b61219f9190612d40565b60076000888152602001908152602001600020600801600087815260200190815260200160002081905550600060076000888152602001908152602001600020600501546103e8600760008a81526020019081526020016000206008016000898152602001908152602001600020546122189190612c2c565b6122229190612bfb565b9050806007600089815260200190815260200160002060090160008881526020019081526020016000208190555060028111612367576001600560008981526020019081526020016000206000600681106122a6577f4e487b7100000000000000000000000000000000000000000000000000000000600052603260045260246000fd5b01541015612362576000600a6002600760008b8152602001908152602001600020600401546122d59190612c2c565b6122df9190612bfb565b90506001600560008a815260200190815260200160002060006006811061232f577f4e487b7100000000000000000000000000000000000000000000000000000000600052603260045260246000fd5b018190555080600760008a8152602001908152602001600020600a01600089815260200190815260200160002081905550505b61248c565b60b7811161248b576064600560008981526020019081526020016000206005600681106123bd577f4e487b7100000000000000000000000000000000000000000000000000000000600052603260045260246000fd5b0154101561248a5760006103e86001600760008b8152602001908152602001600020600401546123ed9190612c2c565b6123f79190612bfb565b905060056000898152602001908152602001600020600560068110612445577f4e487b7100000000000000000000000000000000000000000000000000000000600052603260045260246000fd5b01600081548092919061245790612cf7565b919050555080600760008a8152602001908152602001600020600a01600089815260200190815260200160002081905550505b5b5b8093505050509392505050565b600033905090565b6000813590506124b081613007565b92915050565b6000815190506124c58161301e565b92915050565b6000815190506124da81613035565b92915050565b6000813590506124ef8161304c565b92915050565b6000815190506125048161304c565b92915050565b60006020828403121561251c57600080fd5b600061252a848285016124a1565b91505092915050565b60006020828403121561254557600080fd5b6000612553848285016124b6565b91505092915050565b60006020828403121561256e57600080fd5b600061257c848285016124cb565b91505092915050565b60006020828403121561259757600080fd5b60006125a5848285016124e0565b91505092915050565b6000602082840312156125c057600080fd5b60006125ce848285016124f5565b91505092915050565b600080604083850312156125ea57600080fd5b60006125f8858286016124e0565b9250506020612609858286016124e0565b9150509250929050565b60008060006060848603121561262857600080fd5b6000612636868287016124e0565b9350506020612647868287016124e0565b9250506040612658868287016124a1565b9150509250925092565b60008060006060848603121561267757600080fd5b6000612685868287016124e0565b9350506020612696868287016124e0565b92505060406126a7868287016124e0565b9150509250925092565b6126ba81612c86565b82525050565b6126c981612c98565b82525050565b6126d881612ca4565b82525050565b6126e781612ce5565b82525050565b60006126fa602683612b94565b915061270582612dcf565b604082019050919050565b600061271d601583612b94565b915061272882612e1e565b602082019050919050565b6000612740601583612b94565b915061274b82612e47565b602082019050919050565b6000612763601583612b94565b915061276e82612e70565b602082019050919050565b6000612786602083612b94565b915061279182612e99565b602082019050919050565b60006127a9601283612b94565b91506127b482612ec2565b602082019050919050565b60006127cc600e83612b94565b91506127d782612eeb565b602082019050919050565b60006127ef600e83612b94565b91506127fa82612f14565b602082019050919050565b6000612812601f83612b94565b915061281d82612f3d565b602082019050919050565b6000612835601383612b94565b915061284082612f66565b602082019050919050565b6000612858601383612b94565b915061286382612f8f565b602082019050919050565b600061287b602383612b94565b915061288682612fb8565b604082019050919050565b61289a81612cce565b82525050565b6128a981612cd8565b82525050565b60006020820190506128c460008301846126b1565b92915050565b60006060820190506128df60008301866126b1565b6128ec60208301856126b1565b6128f96040830184612891565b949350505050565b600060208201905061291660008301846126c0565b92915050565b600060208201905061293160008301846126cf565b92915050565b600060208201905061294c60008301846126de565b92915050565b6000602082019050818103600083015261296b816126ed565b9050919050565b6000602082019050818103600083015261298b81612710565b9050919050565b600060208201905081810360008301526129ab81612733565b9050919050565b600060208201905081810360008301526129cb81612756565b9050919050565b600060208201905081810360008301526129eb81612779565b9050919050565b60006020820190508181036000830152612a0b8161279c565b9050919050565b60006020820190508181036000830152612a2b816127bf565b9050919050565b60006020820190508181036000830152612a4b816127e2565b9050919050565b60006020820190508181036000830152612a6b81612805565b9050919050565b60006020820190508181036000830152612a8b81612828565b9050919050565b60006020820190508181036000830152612aab8161284b565b9050919050565b60006020820190508181036000830152612acb8161286e565b9050919050565b6000602082019050612ae76000830184612891565b92915050565b6000604082019050612b026000830185612891565b612b0f60208301846126b1565b9392505050565b600061010082019050612b2c600083018b612891565b612b39602083018a612891565b612b466040830189612891565b612b536060830188612891565b612b606080830187612891565b612b6d60a0830186612891565b612b7a60c08301856126cf565b612b8760e08301846128a0565b9998505050505050505050565b600082825260208201905092915050565b6000612bb082612cce565b9150612bbb83612cce565b9250827fffffffffffffffffffffffffffffffffffffffffffffffffffffffffffffffff03821115612bf057612bef612d71565b5b828201905092915050565b6000612c0682612cce565b9150612c1183612cce565b925082612c2157612c20612da0565b5b828204905092915050565b6000612c3782612cce565b9150612c4283612cce565b9250817fffffffffffffffffffffffffffffffffffffffffffffffffffffffffffffffff0483118215151615612c7b57612c7a612d71565b5b828202905092915050565b6000612c9182612cae565b9050919050565b60008115159050919050565b6000819050919050565b600073ffffffffffffffffffffffffffffffffffffffff82169050919050565b6000819050919050565b600060ff82169050919050565b6000612cf082612cce565b9050919050565b6000612d0282612cce565b91507fffffffffffffffffffffffffffffffffffffffffffffffffffffffffffffffff821415612d3557612d34612d71565b5b600182019050919050565b6000612d4b82612cce565b9150612d5683612cce565b925082612d6657612d65612da0565b5b828206905092915050565b7f4e487b7100000000000000000000000000000000000000000000000000000000600052601160045260246000fd5b7f4e487b7100000000000000000000000000000000000000000000000000000000600052601260045260246000fd5b7f4f776e61626c653a206e6577206f776e657220697320746865207a65726f206160008201527f6464726573730000000000000000000000000000000000000000000000000000602082015250565b7f50524f504f53414c5f444f45534e545f45584953540000000000000000000000600082015250565b7f524553554c545f414c52454144595f4558495354530000000000000000000000600082015250565b7f52414e444f4d5f524551554553545f4558495354530000000000000000000000600082015250565b7f4f776e61626c653a2063616c6c6572206973206e6f7420746865206f776e6572600082015250565b7f524553554c545f49535f4e4f545f444f4e450000000000000000000000000000600082015250565b7f50524f504f53414c5f4558495354000000000000000000000000000000000000600082015250565b7f4e4f545f564f54455f4f574e4552000000000000000000000000000000000000600082015250565b7f436f6e7472616374206973206c6f636b656420756e74696c2037206461797300600082015250565b7f524551554553545f4e4f545f43555252454e5400000000000000000000000000600082015250565b7f524553554c545f414c52454144595f444f4e4500000000000000000000000000600082015250565b7f596f7520646f6e27742068617665207065726d697373696f6e20746f20756e6c60008201527f6f636b0000000000000000000000000000000000000000000000000000000000602082015250565b61301081612c86565b811461301b57600080fd5b50565b61302781612c98565b811461303257600080fd5b50565b61303e81612ca4565b811461304957600080fd5b50565b61305581612cce565b811461306057600080fd5b5056fea26469706673582212206152bab4148833b7d137aa8d79116a05ccb9300e35c41041b0ceba759d5b497c64736f6c63430008040033",
  "linkReferences": {},
  "deployedLinkReferences": {}
}