{
  "_format": "hh-sol-artifact-1",
  "contractName": "TheOpenFarmDAO",
  "sourceName": "contracts/FarmDAO.sol",
  "abi": [
    {
      "anonymous": false,
      "inputs": [
        {
          "indexed": true,
          "internalType": "address",
          "name": "previousOwner",
          "type": "address"
        },
        {
          "indexed": true,
          "internalType": "address",
          "name": "newOwner",
          "type": "address"
        }
      ],
      "name": "OwnershipTransferred",
      "type": "event"
    },
    {
      "stateMutability": "payable",
      "type": "fallback"
    },
    {
      "inputs": [],
      "name": "MAX_INT_TYPE",
      "outputs": [
        {
          "internalType": "uint256",
          "name": "",
          "type": "uint256"
        }
      ],
      "stateMutability": "view",
      "type": "function"
    },
    {
      "inputs": [],
      "name": "VOTE_COST",
      "outputs": [
        {
          "internalType": "uint256",
          "name": "",
          "type": "uint256"
        }
      ],
      "stateMutability": "view",
      "type": "function"
    },
    {
      "inputs": [
        {
          "internalType": "uint256",
          "name": "_proposalIndex",
          "type": "uint256"
        }
      ],
      "name": "amountOfVotesRequired",
      "outputs": [
        {
          "internalType": "uint256",
          "name": "",
          "type": "uint256"
        }
      ],
      "stateMutability": "view",
      "type": "function"
    },
    {
      "inputs": [
        {
          "internalType": "uint256",
          "name": "_amountOfVotesRequired",
          "type": "uint256"
        },
        {
          "internalType": "uint256",
          "name": "_minutes",
          "type": "uint256"
        }
      ],
      "name": "createProposal",
      "outputs": [
        {
          "internalType": "uint256",
          "name": "",
          "type": "uint256"
        }
      ],
      "stateMutability": "nonpayable",
      "type": "function"
    },
    {
      "inputs": [
        {
          "internalType": "uint256",
          "name": "_proposalIndex",
          "type": "uint256"
        }
      ],
      "name": "executeProposal",
      "outputs": [],
      "stateMutability": "nonpayable",
      "type": "function"
    },
    {
      "inputs": [],
      "name": "geUnlockTime",
      "outputs": [
        {
          "internalType": "uint256",
          "name": "",
          "type": "uint256"
        }
      ],
      "stateMutability": "view",
      "type": "function"
    },
    {
      "inputs": [
        {
          "internalType": "uint256",
          "name": "_proposalIndex",
          "type": "uint256"
        },
        {
          "internalType": "address",
          "name": "_voter",
          "type": "address"
        }
      ],
      "name": "getVoterAmountOfTokens",
      "outputs": [
        {
          "internalType": "uint256",
          "name": "",
          "type": "uint256"
        }
      ],
      "stateMutability": "view",
      "type": "function"
    },
    {
      "inputs": [
        {
          "internalType": "uint256",
          "name": "_proposalIndex",
          "type": "uint256"
        },
        {
          "internalType": "address",
          "name": "_voter",
          "type": "address"
        }
      ],
      "name": "getVoterAmountOfVotes",
      "outputs": [
        {
          "internalType": "uint256",
          "name": "",
          "type": "uint256"
        }
      ],
      "stateMutability": "view",
      "type": "function"
    },
    {
      "inputs": [
        {
          "internalType": "uint256",
          "name": "_proposalIndex",
          "type": "uint256"
        },
        {
          "internalType": "address",
          "name": "_voter",
          "type": "address"
        }
      ],
      "name": "getVoterVoteIndex",
      "outputs": [
        {
          "internalType": "uint256",
          "name": "",
          "type": "uint256"
        }
      ],
      "stateMutability": "view",
      "type": "function"
    },
    {
      "inputs": [
        {
          "internalType": "uint256",
          "name": "time",
          "type": "uint256"
        }
      ],
      "name": "lock",
      "outputs": [],
      "stateMutability": "nonpayable",
      "type": "function"
    },
    {
      "inputs": [],
      "name": "numProposals",
      "outputs": [
        {
          "internalType": "uint256",
          "name": "",
          "type": "uint256"
        }
      ],
      "stateMutability": "view",
      "type": "function"
    },
    {
      "inputs": [],
      "name": "owner",
      "outputs": [
        {
          "internalType": "address",
          "name": "",
          "type": "address"
        }
      ],
      "stateMutability": "view",
      "type": "function"
    },
    {
      "inputs": [
        {
          "internalType": "uint256",
          "name": "",
          "type": "uint256"
        }
      ],
      "name": "proposals",
      "outputs": [
        {
          "internalType": "uint256",
          "name": "amountOfVotes",
          "type": "uint256"
        },
        {
          "internalType": "uint256",
          "name": "amountOfVotesRequired",
          "type": "uint256"
        },
        {
          "internalType": "uint256",
          "name": "amountOfTokens",
          "type": "uint256"
        },
        {
          "internalType": "uint256",
          "name": "amountOfTokensRequired",
          "type": "uint256"
        },
        {
          "internalType": "uint256",
          "name": "deadline",
          "type": "uint256"
        },
        {
          "internalType": "bool",
          "name": "executed",
          "type": "bool"
        }
      ],
      "stateMutability": "view",
      "type": "function"
    },
    {
      "inputs": [],
      "name": "renounceOwnership",
      "outputs": [],
      "stateMutability": "nonpayable",
      "type": "function"
    },
    {
      "inputs": [
        {
          "internalType": "address",
          "name": "newOwner",
          "type": "address"
        }
      ],
      "name": "transferOwnership",
      "outputs": [],
      "stateMutability": "nonpayable",
      "type": "function"
    },
    {
      "inputs": [],
      "name": "unlock",
      "outputs": [],
      "stateMutability": "nonpayable",
      "type": "function"
    },
    {
      "inputs": [
        {
          "internalType": "uint256",
          "name": "_proposalIndex",
          "type": "uint256"
        },
        {
          "internalType": "uint256",
          "name": "_amountOfVotes",
          "type": "uint256"
        }
      ],
      "name": "voteOnProposal",
      "outputs": [],
      "stateMutability": "nonpayable",
      "type": "function"
    },
    {
      "inputs": [],
      "name": "withdrawBalance",
      "outputs": [],
      "stateMutability": "nonpayable",
      "type": "function"
    },
    {
      "inputs": [],
      "name": "withdrawEther",
      "outputs": [],
      "stateMutability": "nonpayable",
      "type": "function"
    },
    {
      "inputs": [
        {
          "internalType": "uint256",
          "name": "_proposalIndex",
          "type": "uint256"
        }
      ],
      "name": "withdrawFromFailedProposal",
      "outputs": [],
      "stateMutability": "nonpayable",
      "type": "function"
    },
    {
      "stateMutability": "payable",
      "type": "receive"
    }
  ],
  "bytecode": "0x60806040526509184e72a000600355735d109451edc8cb509acd589248bfdc06009eb64d600660006101000a81548173ffffffffffffffffffffffffffffffffffffffff021916908373ffffffffffffffffffffffffffffffffffffffff160217905550738f3cf7ad23cd3cadbd9735aff958023239c6a063600760006101000a81548173ffffffffffffffffffffffffffffffffffffffff021916908373ffffffffffffffffffffffffffffffffffffffff1602179055503480156100c457600080fd5b5060006100d561017860201b60201c565b9050806000806101000a81548173ffffffffffffffffffffffffffffffffffffffff021916908373ffffffffffffffffffffffffffffffffffffffff1602179055508073ffffffffffffffffffffffffffffffffffffffff16600073ffffffffffffffffffffffffffffffffffffffff167f8be0079c531659141344cd1fd0a4f28419497f9722a3daafe3b4186f6b6457e060405160405180910390a350610180565b600033905090565b612f8e80620001906000396000f3fe6080604052600436106101235760003560e01c80636935bda6116100a0578063b6c5232411610064578063b6c52324146103ce578063d5892b55146103f9578063dd46706414610422578063f2fde38b1461044b578063fe71b8ba146104745761012a565b80636935bda614610321578063715018a61461035e5780637362377b146103755780638da5cb5b1461038c578063a69df4b5146103b75761012a565b8063400e3949116100e7578063400e39491461023c578063556f6cc01461026757806357261487146102905780635fd8c710146102cd5780636209a58b146102e45761012a565b8063013cf08b1461012c5780630d61b5191461016e57806314c1270314610197578063261dc989146101d457806329ad9402146102115761012a565b3661012a57005b005b34801561013857600080fd5b50610153600480360381019061014e9190612404565b61049f565b60405161016596959493929190612a21565b60405180910390f35b34801561017a57600080fd5b5061019560048036038101906101909190612404565b6104e8565b005b3480156101a357600080fd5b506101be60048036038101906101b99190612404565b610a18565b6040516101cb91906129cf565b60405180910390f35b3480156101e057600080fd5b506101fb60048036038101906101f69190612456565b610a3d565b60405161020891906129cf565b60405180910390f35b34801561021d57600080fd5b50610226610b25565b60405161023391906129cf565b60405180910390f35b34801561024857600080fd5b50610251610b49565b60405161025e91906129cf565b60405180910390f35b34801561027357600080fd5b5061028e60048036038101906102899190612492565b610b4f565b005b34801561029c57600080fd5b506102b760048036038101906102b29190612456565b61117f565b6040516102c491906129cf565b60405180910390f35b3480156102d957600080fd5b506102e2611267565b005b3480156102f057600080fd5b5061030b60048036038101906103069190612456565b611491565b60405161031891906129cf565b60405180910390f35b34801561032d57600080fd5b5061034860048036038101906103439190612492565b611579565b60405161035591906129cf565b60405180910390f35b34801561036a57600080fd5b50610373611768565b005b34801561038157600080fd5b5061038a6118bb565b005b34801561039857600080fd5b506103a16119a0565b6040516103ae919061272b565b60405180910390f35b3480156103c357600080fd5b506103cc6119c9565b005b3480156103da57600080fd5b506103e3611b9d565b6040516103f091906129cf565b60405180910390f35b34801561040557600080fd5b50610420600480360381019061041b9190612404565b611ba7565b005b34801561042e57600080fd5b5061044960048036038101906104449190612404565b611fc7565b005b34801561045757600080fd5b50610472600480360381019061046d91906123b2565b61218e565b005b34801561048057600080fd5b50610489612350565b60405161049691906129cf565b60405180910390f35b60046020528060005260406000206000915090508060000154908060010154908060020154908060030154908060040154908060050160009054906101000a900460ff16905086565b6000600760009054906101000a900473ffffffffffffffffffffffffffffffffffffffff1673ffffffffffffffffffffffffffffffffffffffff1663dd62ed3e33306040518363ffffffff1660e01b8152600401610547929190612746565b60206040518083038186803b15801561055f57600080fd5b505afa158015610573573d6000803e3d6000fd5b505050506040513d601f19601f82011682018060405250810190610597919061242d565b116105d7576040517f08c379a00000000000000000000000000000000000000000000000000000000081526004016105ce906128af565b60405180910390fd5b804260046000838152602001908152602001600020600401541115610631576040517f08c379a0000000000000000000000000000000000000000000000000000000008152600401610628906127cf565b60405180910390fd5b600015156004600083815260200190815260200160002060050160009054906101000a900460ff1615151461069b576040517f08c379a00000000000000000000000000000000000000000000000000000000081526004016106929061284f565b60405180910390fd5b60006004600084815260200190815260200160002090508060030154816002015410156106fd576040517f08c379a00000000000000000000000000000000000000000000000000000000081526004016106f49061292f565b60405180910390fd5b806001015481600001541015610748576040517f08c379a000000000000000000000000000000000000000000000000000000000815260040161073f9061290f565b60405180910390fd5b8060020154600760009054906101000a900473ffffffffffffffffffffffffffffffffffffffff1673ffffffffffffffffffffffffffffffffffffffff166370a08231306040518263ffffffff1660e01b81526004016107a8919061272b565b60206040518083038186803b1580156107c057600080fd5b505afa1580156107d4573d6000803e3d6000fd5b505050506040513d601f19601f820116820180604052508101906107f8919061242d565b1015610839576040517f08c379a00000000000000000000000000000000000000000000000000000000081526004016108309061282f565b60405180910390fd5b600760009054906101000a900473ffffffffffffffffffffffffffffffffffffffff1673ffffffffffffffffffffffffffffffffffffffff1663095ea7b3600660009054906101000a900473ffffffffffffffffffffffffffffffffffffffff167fffffffffffffffffffffffffffffffffffffffffffffffffffffffffffffffff6040518363ffffffff1660e01b81526004016108d89291906127a6565b602060405180830381600087803b1580156108f257600080fd5b505af1158015610906573d6000803e3d6000fd5b505050506040513d601f19601f8201168201806040525081019061092a91906123db565b61095d577f4e487b7100000000000000000000000000000000000000000000000000000000600052600160045260246000fd5b600660009054906101000a900473ffffffffffffffffffffffffffffffffffffffff1673ffffffffffffffffffffffffffffffffffffffff1663c71bf91a84836002015484600001546040518463ffffffff1660e01b81526004016109c4939291906129ea565b600060405180830381600087803b1580156109de57600080fd5b505af11580156109f2573d6000803e3d6000fd5b5050505060018160050160006101000a81548160ff021916908315150217905550505050565b6000806004600084815260200190815260200160002090508060010154915050919050565b60008060046000858152602001908152602001600020905060008160060160008573ffffffffffffffffffffffffffffffffffffffff1673ffffffffffffffffffffffffffffffffffffffff168152602001908152602001600020541415610ada576040517f08c379a0000000000000000000000000000000000000000000000000000000008152600401610ad1906128cf565b60405180910390fd5b8060060160008473ffffffffffffffffffffffffffffffffffffffff1673ffffffffffffffffffffffffffffffffffffffff1681526020019081526020016000205491505092915050565b7fffffffffffffffffffffffffffffffffffffffffffffffffffffffffffffffff81565b60055481565b6000600760009054906101000a900473ffffffffffffffffffffffffffffffffffffffff1673ffffffffffffffffffffffffffffffffffffffff1663dd62ed3e33306040518363ffffffff1660e01b8152600401610bae929190612746565b60206040518083038186803b158015610bc657600080fd5b505afa158015610bda573d6000803e3d6000fd5b505050506040513d601f19601f82011682018060405250810190610bfe919061242d565b11610c3e576040517f08c379a0000000000000000000000000000000000000000000000000000000008152600401610c35906128af565b60405180910390fd5b8142600460008381526020019081526020016000206004015411610c97576040517f08c379a0000000000000000000000000000000000000000000000000000000008152600401610c8e9061286f565b60405180910390fd5b60006004600085815260200190815260200160002090506000600760009054906101000a900473ffffffffffffffffffffffffffffffffffffffff1673ffffffffffffffffffffffffffffffffffffffff166370a08231336040518263ffffffff1660e01b8152600401610d0b919061272b565b60206040518083038186803b158015610d2357600080fd5b505afa158015610d37573d6000803e3d6000fd5b505050506040513d601f19601f82011682018060405250810190610d5b919061242d565b9050600084600354610d6d9190612ae9565b905080821015610db2576040517f08c379a0000000000000000000000000000000000000000000000000000000008152600401610da99061296f565b60405180910390fd5b60008360080160003373ffffffffffffffffffffffffffffffffffffffff1673ffffffffffffffffffffffffffffffffffffffff1681526020019081526020016000205414610e36576040517f08c379a0000000000000000000000000000000000000000000000000000000008152600401610e2d9061288f565b60405180910390fd5b60008511610e79576040517f08c379a0000000000000000000000000000000000000000000000000000000008152600401610e70906129af565b60405180910390fd5b60018360000154610e8a9190612a93565b8360060160003373ffffffffffffffffffffffffffffffffffffffff1673ffffffffffffffffffffffffffffffffffffffff16815260200190815260200160002081905550848360070160003373ffffffffffffffffffffffffffffffffffffffff1673ffffffffffffffffffffffffffffffffffffffff16815260200190815260200160002081905550808360080160003373ffffffffffffffffffffffffffffffffffffffff1673ffffffffffffffffffffffffffffffffffffffff1681526020019081526020016000208190555080836002016000828254610f6f9190612a93565b9250508190555084836000016000828254610f8a9190612a93565b92505081905550600760009054906101000a900473ffffffffffffffffffffffffffffffffffffffff1673ffffffffffffffffffffffffffffffffffffffff166323b872dd3330846040518463ffffffff1660e01b8152600401610ff09392919061276f565b602060405180830381600087803b15801561100a57600080fd5b505af115801561101e573d6000803e3d6000fd5b505050506040513d601f19601f8201168201806040525081019061104291906123db565b611075577f4e487b7100000000000000000000000000000000000000000000000000000000600052600160045260246000fd5b600760009054906101000a900473ffffffffffffffffffffffffffffffffffffffff1673ffffffffffffffffffffffffffffffffffffffff1663095ea7b3337fffffffffffffffffffffffffffffffffffffffffffffffffffffffffffffffff6040518363ffffffff1660e01b81526004016110f29291906127a6565b602060405180830381600087803b15801561110c57600080fd5b505af1158015611120573d6000803e3d6000fd5b505050506040513d601f19601f8201168201806040525081019061114491906123db565b611177577f4e487b7100000000000000000000000000000000000000000000000000000000600052600160045260246000fd5b505050505050565b60008060046000858152602001908152602001600020905060008160080160008573ffffffffffffffffffffffffffffffffffffffff1673ffffffffffffffffffffffffffffffffffffffff16815260200190815260200160002054141561121c576040517f08c379a0000000000000000000000000000000000000000000000000000000008152600401611213906128cf565b60405180910390fd5b8060080160008473ffffffffffffffffffffffffffffffffffffffff1673ffffffffffffffffffffffffffffffffffffffff1681526020019081526020016000205491505092915050565b61126f612356565b73ffffffffffffffffffffffffffffffffffffffff1660008054906101000a900473ffffffffffffffffffffffffffffffffffffffff1673ffffffffffffffffffffffffffffffffffffffff16146112fc576040517f08c379a00000000000000000000000000000000000000000000000000000000081526004016112f3906128ef565b60405180910390fd5b600760009054906101000a900473ffffffffffffffffffffffffffffffffffffffff1673ffffffffffffffffffffffffffffffffffffffff1663a9059cbb6113426119a0565b600760009054906101000a900473ffffffffffffffffffffffffffffffffffffffff1673ffffffffffffffffffffffffffffffffffffffff166370a08231306040518263ffffffff1660e01b815260040161139d919061272b565b60206040518083038186803b1580156113b557600080fd5b505afa1580156113c9573d6000803e3d6000fd5b505050506040513d601f19601f820116820180604052508101906113ed919061242d565b6040518363ffffffff1660e01b815260040161140a9291906127a6565b602060405180830381600087803b15801561142457600080fd5b505af1158015611438573d6000803e3d6000fd5b505050506040513d601f19601f8201168201806040525081019061145c91906123db565b61148f577f4e487b7100000000000000000000000000000000000000000000000000000000600052600160045260246000fd5b565b60008060046000858152602001908152602001600020905060008160070160008573ffffffffffffffffffffffffffffffffffffffff1673ffffffffffffffffffffffffffffffffffffffff16815260200190815260200160002054141561152e576040517f08c379a0000000000000000000000000000000000000000000000000000000008152600401611525906128cf565b60405180910390fd5b8060070160008473ffffffffffffffffffffffffffffffffffffffff1673ffffffffffffffffffffffffffffffffffffffff1681526020019081526020016000205491505092915050565b600080600760009054906101000a900473ffffffffffffffffffffffffffffffffffffffff1673ffffffffffffffffffffffffffffffffffffffff1663dd62ed3e33306040518363ffffffff1660e01b81526004016115d9929190612746565b60206040518083038186803b1580156115f157600080fd5b505afa158015611605573d6000803e3d6000fd5b505050506040513d601f19601f82011682018060405250810190611629919061242d565b11611669576040517f08c379a0000000000000000000000000000000000000000000000000000000008152600401611660906128af565b60405180910390fd5b600060046000600554815260200190815260200160002090506000600554146116f95760006004600060016005546116a19190612b43565b81526020019081526020016000209050806004015442116116f7576040517f08c379a00000000000000000000000000000000000000000000000000000000081526004016116ee9061280f565b60405180910390fd5b505b838160010181905550836003546117109190612ae9565b8160030181905550603c836117259190612ae9565b426117309190612a93565b81600401819055506005600081548092919061174b90612bbf565b9190505550600160055461175f9190612b43565b91505092915050565b611770612356565b73ffffffffffffffffffffffffffffffffffffffff1660008054906101000a900473ffffffffffffffffffffffffffffffffffffffff1673ffffffffffffffffffffffffffffffffffffffff16146117fd576040517f08c379a00000000000000000000000000000000000000000000000000000000081526004016117f4906128ef565b60405180910390fd5b600073ffffffffffffffffffffffffffffffffffffffff1660008054906101000a900473ffffffffffffffffffffffffffffffffffffffff1673ffffffffffffffffffffffffffffffffffffffff167f8be0079c531659141344cd1fd0a4f28419497f9722a3daafe3b4186f6b6457e060405160405180910390a360008060006101000a81548173ffffffffffffffffffffffffffffffffffffffff021916908373ffffffffffffffffffffffffffffffffffffffff160217905550565b6118c3612356565b73ffffffffffffffffffffffffffffffffffffffff1660008054906101000a900473ffffffffffffffffffffffffffffffffffffffff1673ffffffffffffffffffffffffffffffffffffffff1614611950576040517f08c379a0000000000000000000000000000000000000000000000000000000008152600401611947906128ef565b60405180910390fd5b6119586119a0565b73ffffffffffffffffffffffffffffffffffffffff166108fc479081150290604051600060405180830381858888f1935050505015801561199d573d6000803e3d6000fd5b50565b60008060009054906101000a900473ffffffffffffffffffffffffffffffffffffffff16905090565b3373ffffffffffffffffffffffffffffffffffffffff16600160009054906101000a900473ffffffffffffffffffffffffffffffffffffffff1673ffffffffffffffffffffffffffffffffffffffff1614611a59576040517f08c379a0000000000000000000000000000000000000000000000000000000008152600401611a509061298f565b60405180910390fd5b6002544211611a9d576040517f08c379a0000000000000000000000000000000000000000000000000000000008152600401611a949061294f565b60405180910390fd5b600160009054906101000a900473ffffffffffffffffffffffffffffffffffffffff1673ffffffffffffffffffffffffffffffffffffffff1660008054906101000a900473ffffffffffffffffffffffffffffffffffffffff1673ffffffffffffffffffffffffffffffffffffffff167f8be0079c531659141344cd1fd0a4f28419497f9722a3daafe3b4186f6b6457e060405160405180910390a3600160009054906101000a900473ffffffffffffffffffffffffffffffffffffffff166000806101000a81548173ffffffffffffffffffffffffffffffffffffffff021916908373ffffffffffffffffffffffffffffffffffffffff160217905550565b6000600254905090565b6000600760009054906101000a900473ffffffffffffffffffffffffffffffffffffffff1673ffffffffffffffffffffffffffffffffffffffff1663dd62ed3e33306040518363ffffffff1660e01b8152600401611c06929190612746565b60206040518083038186803b158015611c1e57600080fd5b505afa158015611c32573d6000803e3d6000fd5b505050506040513d601f19601f82011682018060405250810190611c56919061242d565b11611c96576040517f08c379a0000000000000000000000000000000000000000000000000000000008152600401611c8d906128af565b60405180910390fd5b804260046000838152602001908152602001600020600401541115611cf0576040517f08c379a0000000000000000000000000000000000000000000000000000000008152600401611ce7906127cf565b60405180910390fd5b600015156004600083815260200190815260200160002060050160009054906101000a900460ff16151514611d5a576040517f08c379a0000000000000000000000000000000000000000000000000000000008152600401611d519061284f565b60405180910390fd5b60006004600084815260200190815260200160002090508060080160003373ffffffffffffffffffffffffffffffffffffffff1673ffffffffffffffffffffffffffffffffffffffff16815260200190815260200160002054600760009054906101000a900473ffffffffffffffffffffffffffffffffffffffff1673ffffffffffffffffffffffffffffffffffffffff166370a08231306040518263ffffffff1660e01b8152600401611e0e919061272b565b60206040518083038186803b158015611e2657600080fd5b505afa158015611e3a573d6000803e3d6000fd5b505050506040513d601f19601f82011682018060405250810190611e5e919061242d565b1015611e9f576040517f08c379a0000000000000000000000000000000000000000000000000000000008152600401611e969061282f565b60405180910390fd5b600760009054906101000a900473ffffffffffffffffffffffffffffffffffffffff1673ffffffffffffffffffffffffffffffffffffffff1663a9059cbb338360080160003373ffffffffffffffffffffffffffffffffffffffff1673ffffffffffffffffffffffffffffffffffffffff168152602001908152602001600020546040518363ffffffff1660e01b8152600401611f3d9291906127a6565b602060405180830381600087803b158015611f5757600080fd5b505af1158015611f6b573d6000803e3d6000fd5b505050506040513d601f19601f82011682018060405250810190611f8f91906123db565b611fc2577f4e487b7100000000000000000000000000000000000000000000000000000000600052600160045260246000fd5b505050565b611fcf612356565b73ffffffffffffffffffffffffffffffffffffffff1660008054906101000a900473ffffffffffffffffffffffffffffffffffffffff1673ffffffffffffffffffffffffffffffffffffffff161461205c576040517f08c379a0000000000000000000000000000000000000000000000000000000008152600401612053906128ef565b60405180910390fd5b60008054906101000a900473ffffffffffffffffffffffffffffffffffffffff16600160006101000a81548173ffffffffffffffffffffffffffffffffffffffff021916908373ffffffffffffffffffffffffffffffffffffffff16021790555060008060006101000a81548173ffffffffffffffffffffffffffffffffffffffff021916908373ffffffffffffffffffffffffffffffffffffffff160217905550804261210a9190612a93565b600281905550600073ffffffffffffffffffffffffffffffffffffffff1660008054906101000a900473ffffffffffffffffffffffffffffffffffffffff1673ffffffffffffffffffffffffffffffffffffffff167f8be0079c531659141344cd1fd0a4f28419497f9722a3daafe3b4186f6b6457e060405160405180910390a350565b612196612356565b73ffffffffffffffffffffffffffffffffffffffff1660008054906101000a900473ffffffffffffffffffffffffffffffffffffffff1673ffffffffffffffffffffffffffffffffffffffff1614612223576040517f08c379a000000000000000000000000000000000000000000000000000000000815260040161221a906128ef565b60405180910390fd5b600073ffffffffffffffffffffffffffffffffffffffff168173ffffffffffffffffffffffffffffffffffffffff161415612293576040517f08c379a000000000000000000000000000000000000000000000000000000000815260040161228a906127ef565b60405180910390fd5b8073ffffffffffffffffffffffffffffffffffffffff1660008054906101000a900473ffffffffffffffffffffffffffffffffffffffff1673ffffffffffffffffffffffffffffffffffffffff167f8be0079c531659141344cd1fd0a4f28419497f9722a3daafe3b4186f6b6457e060405160405180910390a3806000806101000a81548173ffffffffffffffffffffffffffffffffffffffff021916908373ffffffffffffffffffffffffffffffffffffffff16021790555050565b60035481565b600033905090565b60008135905061236d81612f13565b92915050565b60008151905061238281612f2a565b92915050565b60008135905061239781612f41565b92915050565b6000815190506123ac81612f41565b92915050565b6000602082840312156123c457600080fd5b60006123d28482850161235e565b91505092915050565b6000602082840312156123ed57600080fd5b60006123fb84828501612373565b91505092915050565b60006020828403121561241657600080fd5b600061242484828501612388565b91505092915050565b60006020828403121561243f57600080fd5b600061244d8482850161239d565b91505092915050565b6000806040838503121561246957600080fd5b600061247785828601612388565b92505060206124888582860161235e565b9150509250929050565b600080604083850312156124a557600080fd5b60006124b385828601612388565b92505060206124c485828601612388565b9150509250929050565b6124d781612b77565b82525050565b6124e681612b89565b82525050565b60006124f9601583612a82565b915061250482612c37565b602082019050919050565b600061251c602683612a82565b915061252782612c60565b604082019050919050565b600061253f601683612a82565b915061254a82612caf565b602082019050919050565b6000612562601483612a82565b915061256d82612cd8565b602082019050919050565b6000612585601983612a82565b915061259082612d01565b602082019050919050565b60006125a8601183612a82565b91506125b382612d2a565b602082019050919050565b60006125cb600d83612a82565b91506125d682612d53565b602082019050919050565b60006125ee601083612a82565b91506125f982612d7c565b602082019050919050565b6000612611600f83612a82565b915061261c82612da5565b602082019050919050565b6000612634602083612a82565b915061263f82612dce565b602082019050919050565b6000612657601083612a82565b915061266282612df7565b602082019050919050565b600061267a601183612a82565b915061268582612e20565b602082019050919050565b600061269d601f83612a82565b91506126a882612e49565b602082019050919050565b60006126c0601283612a82565b91506126cb82612e72565b602082019050919050565b60006126e3602383612a82565b91506126ee82612e9b565b604082019050919050565b6000612706601283612a82565b915061271182612eea565b602082019050919050565b61272581612bb5565b82525050565b600060208201905061274060008301846124ce565b92915050565b600060408201905061275b60008301856124ce565b61276860208301846124ce565b9392505050565b600060608201905061278460008301866124ce565b61279160208301856124ce565b61279e604083018461271c565b949350505050565b60006040820190506127bb60008301856124ce565b6127c8602083018461271c565b9392505050565b600060208201905081810360008301526127e8816124ec565b9050919050565b600060208201905081810360008301526128088161250f565b9050919050565b6000602082019050818103600083015261282881612532565b9050919050565b6000602082019050818103600083015261284881612555565b9050919050565b6000602082019050818103600083015261286881612578565b9050919050565b600060208201905081810360008301526128888161259b565b9050919050565b600060208201905081810360008301526128a8816125be565b9050919050565b600060208201905081810360008301526128c8816125e1565b9050919050565b600060208201905081810360008301526128e881612604565b9050919050565b6000602082019050818103600083015261290881612627565b9050919050565b600060208201905081810360008301526129288161264a565b9050919050565b600060208201905081810360008301526129488161266d565b9050919050565b6000602082019050818103600083015261296881612690565b9050919050565b60006020820190508181036000830152612988816126b3565b9050919050565b600060208201905081810360008301526129a8816126d6565b9050919050565b600060208201905081810360008301526129c8816126f9565b9050919050565b60006020820190506129e4600083018461271c565b92915050565b60006060820190506129ff600083018661271c565b612a0c602083018561271c565b612a19604083018461271c565b949350505050565b600060c082019050612a36600083018961271c565b612a43602083018861271c565b612a50604083018761271c565b612a5d606083018661271c565b612a6a608083018561271c565b612a7760a08301846124dd565b979650505050505050565b600082825260208201905092915050565b6000612a9e82612bb5565b9150612aa983612bb5565b9250827fffffffffffffffffffffffffffffffffffffffffffffffffffffffffffffffff03821115612ade57612add612c08565b5b828201905092915050565b6000612af482612bb5565b9150612aff83612bb5565b9250817fffffffffffffffffffffffffffffffffffffffffffffffffffffffffffffffff0483118215151615612b3857612b37612c08565b5b828202905092915050565b6000612b4e82612bb5565b9150612b5983612bb5565b925082821015612b6c57612b6b612c08565b5b828203905092915050565b6000612b8282612b95565b9050919050565b60008115159050919050565b600073ffffffffffffffffffffffffffffffffffffffff82169050919050565b6000819050919050565b6000612bca82612bb5565b91507fffffffffffffffffffffffffffffffffffffffffffffffffffffffffffffffff821415612bfd57612bfc612c08565b5b600182019050919050565b7f4e487b7100000000000000000000000000000000000000000000000000000000600052601160045260246000fd5b7f444541444c494e455f4e4f545f45584345454445440000000000000000000000600082015250565b7f4f776e61626c653a206e6577206f776e657220697320746865207a65726f206160008201527f6464726573730000000000000000000000000000000000000000000000000000602082015250565b7f4143544956455f50524f504f53414c5f45584953545300000000000000000000600082015250565b7f4e4f545f454e4f5547485f44414f5f46554e4453000000000000000000000000600082015250565b7f50524f504f53414c5f414c52454144595f455845435554454400000000000000600082015250565b7f444541444c494e455f4558434545444544000000000000000000000000000000600082015250565b7f414c52454144595f564f54454400000000000000000000000000000000000000600082015250565b7f4e4f545f415f44414f5f4d454d42455200000000000000000000000000000000600082015250565b7f564f5445525f4e4f545f464f554e440000000000000000000000000000000000600082015250565b7f4f776e61626c653a2063616c6c6572206973206e6f7420746865206f776e6572600082015250565b7f4e4f545f454e4f5547485f564f54455300000000000000000000000000000000600082015250565b7f4e4f545f454e4f5547485f544f4b454e53000000000000000000000000000000600082015250565b7f436f6e7472616374206973206c6f636b656420756e74696c2037206461797300600082015250565b7f4e4f545f454e4f5547485f42414c414e43450000000000000000000000000000600082015250565b7f596f7520646f6e27742068617665207065726d697373696f6e20746f20756e6c60008201527f6f636b0000000000000000000000000000000000000000000000000000000000602082015250565b7f494e56414c49445f564f54455f434f554e540000000000000000000000000000600082015250565b612f1c81612b77565b8114612f2757600080fd5b50565b612f3381612b89565b8114612f3e57600080fd5b50565b612f4a81612bb5565b8114612f5557600080fd5b5056fea2646970667358221220897d86f920aa65d2501abe01e706ca0456e4db2cda41d02a1f23133debb3a9d064736f6c63430008040033",
  "linkReferences": {},
  "deployedLinkReferences": {}
}