{
  "_format": "hh-sol-artifact-1",
  "contractName": "TheOpenFarmDAOsLotto",
  "sourceName": "contracts/FarmDAOsLotto.sol",
  "abi": [
    {
      "anonymous": false,
      "inputs": [
        {
          "indexed": true,
          "internalType": "uint256",
          "name": "_proposalIndex",
          "type": "uint256"
        },
        {
          "indexed": false,
          "internalType": "bytes32",
          "name": "requestId",
          "type": "bytes32"
        }
      ],
      "name": "NewRandomRequest",
      "type": "event"
    },
    {
      "anonymous": false,
      "inputs": [
        {
          "indexed": true,
          "internalType": "address",
          "name": "previousOwner",
          "type": "address"
        },
        {
          "indexed": true,
          "internalType": "address",
          "name": "newOwner",
          "type": "address"
        }
      ],
      "name": "OwnershipTransferred",
      "type": "event"
    },
    {
      "inputs": [],
      "name": "emergencyWithdraw",
      "outputs": [],
      "stateMutability": "nonpayable",
      "type": "function"
    },
    {
      "inputs": [
        {
          "internalType": "uint256",
          "name": "",
          "type": "uint256"
        }
      ],
      "name": "gameRounds",
      "outputs": [
        {
          "internalType": "uint256",
          "name": "randomRequestBlock",
          "type": "uint256"
        },
        {
          "internalType": "uint256",
          "name": "randomResult",
          "type": "uint256"
        },
        {
          "internalType": "uint256",
          "name": "randomResultBlock",
          "type": "uint256"
        },
        {
          "internalType": "uint256",
          "name": "lockedFunds",
          "type": "uint256"
        },
        {
          "internalType": "uint256",
          "name": "votes",
          "type": "uint256"
        },
        {
          "internalType": "uint256",
          "name": "wonAmount",
          "type": "uint256"
        },
        {
          "internalType": "bytes32",
          "name": "randomRequestId",
          "type": "bytes32"
        },
        {
          "internalType": "uint8",
          "name": "lastResult",
          "type": "uint8"
        }
      ],
      "stateMutability": "view",
      "type": "function"
    },
    {
      "inputs": [],
      "name": "geUnlockTime",
      "outputs": [
        {
          "internalType": "uint256",
          "name": "",
          "type": "uint256"
        }
      ],
      "stateMutability": "view",
      "type": "function"
    },
    {
      "inputs": [
        {
          "internalType": "uint256",
          "name": "_proposalIndex",
          "type": "uint256"
        },
        {
          "internalType": "uint256",
          "name": "_votePos",
          "type": "uint256"
        }
      ],
      "name": "getVoteRedeemd",
      "outputs": [
        {
          "internalType": "uint256",
          "name": "",
          "type": "uint256"
        }
      ],
      "stateMutability": "view",
      "type": "function"
    },
    {
      "inputs": [
        {
          "internalType": "uint256",
          "name": "_proposalIndex",
          "type": "uint256"
        },
        {
          "internalType": "uint256",
          "name": "_votePos",
          "type": "uint256"
        },
        {
          "internalType": "address",
          "name": "_voter",
          "type": "address"
        }
      ],
      "name": "getVoteResult",
      "outputs": [
        {
          "internalType": "uint256",
          "name": "",
          "type": "uint256"
        }
      ],
      "stateMutability": "nonpayable",
      "type": "function"
    },
    {
      "inputs": [
        {
          "internalType": "uint256",
          "name": "",
          "type": "uint256"
        }
      ],
      "name": "hasRequestedRandom",
      "outputs": [
        {
          "internalType": "bool",
          "name": "",
          "type": "bool"
        }
      ],
      "stateMutability": "view",
      "type": "function"
    },
    {
      "inputs": [
        {
          "internalType": "uint256",
          "name": "time",
          "type": "uint256"
        }
      ],
      "name": "lock",
      "outputs": [],
      "stateMutability": "nonpayable",
      "type": "function"
    },
    {
      "inputs": [
        {
          "internalType": "uint256",
          "name": "_proposalIndex",
          "type": "uint256"
        },
        {
          "internalType": "uint256",
          "name": "_amount",
          "type": "uint256"
        },
        {
          "internalType": "uint256",
          "name": "_votes",
          "type": "uint256"
        }
      ],
      "name": "newRound",
      "outputs": [],
      "stateMutability": "nonpayable",
      "type": "function"
    },
    {
      "inputs": [],
      "name": "owner",
      "outputs": [
        {
          "internalType": "address",
          "name": "",
          "type": "address"
        }
      ],
      "stateMutability": "view",
      "type": "function"
    },
    {
      "inputs": [
        {
          "internalType": "uint256",
          "name": "",
          "type": "uint256"
        }
      ],
      "name": "randomRequests",
      "outputs": [
        {
          "internalType": "uint256",
          "name": "",
          "type": "uint256"
        }
      ],
      "stateMutability": "view",
      "type": "function"
    },
    {
      "inputs": [
        {
          "internalType": "uint256",
          "name": "",
          "type": "uint256"
        },
        {
          "internalType": "uint256",
          "name": "",
          "type": "uint256"
        }
      ],
      "name": "redeems",
      "outputs": [
        {
          "internalType": "uint256",
          "name": "",
          "type": "uint256"
        }
      ],
      "stateMutability": "view",
      "type": "function"
    },
    {
      "inputs": [],
      "name": "renounceOwnership",
      "outputs": [],
      "stateMutability": "nonpayable",
      "type": "function"
    },
    {
      "inputs": [
        {
          "internalType": "uint256",
          "name": "_proposalIndex",
          "type": "uint256"
        }
      ],
      "name": "requestResolveRound",
      "outputs": [],
      "stateMutability": "nonpayable",
      "type": "function"
    },
    {
      "inputs": [
        {
          "internalType": "uint256",
          "name": "_proposalIndex",
          "type": "uint256"
        }
      ],
      "name": "resolveBet",
      "outputs": [
        {
          "internalType": "bool",
          "name": "",
          "type": "bool"
        }
      ],
      "stateMutability": "nonpayable",
      "type": "function"
    },
    {
      "inputs": [
        {
          "internalType": "address",
          "name": "newOwner",
          "type": "address"
        }
      ],
      "name": "transferOwnership",
      "outputs": [],
      "stateMutability": "nonpayable",
      "type": "function"
    },
    {
      "inputs": [],
      "name": "unlock",
      "outputs": [],
      "stateMutability": "nonpayable",
      "type": "function"
    }
  ],
  "bytecode": "0x6080604052738f3cf7ad23cd3cadbd9735aff958023239c6a063600360006101000a81548173ffffffffffffffffffffffffffffffffffffffff021916908373ffffffffffffffffffffffffffffffffffffffff160217905550734c5f09d239e11896ed4b21e5beba0de9d777eebd600460006101000a81548173ffffffffffffffffffffffffffffffffffffffff021916908373ffffffffffffffffffffffffffffffffffffffff1602179055503480156100ba57600080fd5b5060006100cb61016e60201b60201c565b9050806000806101000a81548173ffffffffffffffffffffffffffffffffffffffff021916908373ffffffffffffffffffffffffffffffffffffffff1602179055508073ffffffffffffffffffffffffffffffffffffffff16600073ffffffffffffffffffffffffffffffffffffffff167f8be0079c531659141344cd1fd0a4f28419497f9722a3daafe3b4186f6b6457e060405160405180910390a350610176565b600033905090565b61300480620001866000396000f3fe608060405234801561001057600080fd5b50600436106100ff5760003560e01c8063c71bf91a11610097578063db2e21bc11610066578063db2e21bc146102b3578063dd467064146102bd578063f2fde38b146102d9578063f84e6d91146102f5576100ff565b8063c71bf91a14610207578063ca067ad014610223578063d212dcea14610253578063d34b6fbd14610283576100ff565b80638da5cb5b116100d35780638da5cb5b146101a5578063a69df4b5146101c3578063b6c52324146101cd578063c36aea47146101eb576100ff565b806219e6371461010457806325f3c1bd146101345780634c36c36e1461016b578063715018a61461019b575b600080fd5b61011e6004803603810190610119919061257e565b610325565b60405161012b9190612a4f565b60405180910390f35b61014e6004803603810190610149919061252c565b610357565b604051610162989796959493929190612a93565b60405180910390f35b6101856004803603810190610180919061252c565b6103ac565b6040516101929190612899565b60405180910390f35b6101a3610785565b005b6101ad6108d8565b6040516101ba9190612847565b60405180910390f35b6101cb610901565b005b6101d5610ad5565b6040516101e29190612a4f565b60405180910390f35b6102056004803603810190610200919061252c565b610adf565b005b610221600480360381019061021c9190612609565b610d75565b005b61023d6004803603810190610238919061252c565b610fea565b60405161024a9190612a4f565b60405180910390f35b61026d6004803603810190610268919061252c565b611002565b60405161027a9190612899565b60405180910390f35b61029d6004803603810190610298919061257e565b611022565b6040516102aa9190612a4f565b60405180910390f35b6102bb61104a565b005b6102d760048036038101906102d2919061252c565b611276565b005b6102f360048036038101906102ee91906124b1565b61143d565b005b61030f600480360381019061030a91906125ba565b6115ff565b60405161031c9190612a4f565b60405180910390f35b600060076000848152602001908152602001600020600801600083815260200190815260200160002054905092915050565b60076020528060005260406000206000915090508060000154908060010154908060020154908060030154908060040154908060050154908060060154908060070160009054906101000a900460ff16905088565b600080600760008481526020019081526020016000206003015411610406576040517f08c379a00000000000000000000000000000000000000000000000000000000081526004016103fd906128ef565b60405180910390fd5b600060076000848152602001908152602001600020600601549050600460009054906101000a900473ffffffffffffffffffffffffffffffffffffffff1673ffffffffffffffffffffffffffffffffffffffff1663e89e106a6040518163ffffffff1660e01b8152600401602060405180830381600087803b15801561048b57600080fd5b505af115801561049f573d6000803e3d6000fd5b505050506040513d601f19601f820116820180604052508101906104c39190612503565b8114610504576040517f08c379a00000000000000000000000000000000000000000000000000000000081526004016104fb906129ef565b60405180910390fd5b600060066000858152602001908152602001600020541461055a576040517f08c379a000000000000000000000000000000000000000000000000000000000815260040161055190612a0f565b60405180910390fd5b436007600085815260200190815260200160002060020181905550600460009054906101000a900473ffffffffffffffffffffffffffffffffffffffff1673ffffffffffffffffffffffffffffffffffffffff1663db61e87b6040518163ffffffff1660e01b8152600401602060405180830381600087803b1580156105df57600080fd5b505af11580156105f3573d6000803e3d6000fd5b505050506040513d601f19601f820116820180604052508101906106179190612555565b600660008581526020019081526020016000208190555060066000848152602001908152602001600020546007600085815260200190815260200160002060010181905550600360009054906101000a900473ffffffffffffffffffffffffffffffffffffffff1673ffffffffffffffffffffffffffffffffffffffff166323b872dd306106a36108d8565b600a6003600760008a8152602001908152602001600020600301546106c89190612ba9565b6106d29190612b78565b6040518463ffffffff1660e01b81526004016106f093929190612862565b602060405180830381600087803b15801561070a57600080fd5b505af115801561071e573d6000803e3d6000fd5b505050506040513d601f19601f8201168201806040525081019061074291906124da565b610775577f4e487b7100000000000000000000000000000000000000000000000000000000600052600160045260246000fd5b6000600190508092505050919050565b61078d612440565b73ffffffffffffffffffffffffffffffffffffffff1660008054906101000a900473ffffffffffffffffffffffffffffffffffffffff1673ffffffffffffffffffffffffffffffffffffffff161461081a576040517f08c379a00000000000000000000000000000000000000000000000000000000081526004016108119061294f565b60405180910390fd5b600073ffffffffffffffffffffffffffffffffffffffff1660008054906101000a900473ffffffffffffffffffffffffffffffffffffffff1673ffffffffffffffffffffffffffffffffffffffff167f8be0079c531659141344cd1fd0a4f28419497f9722a3daafe3b4186f6b6457e060405160405180910390a360008060006101000a81548173ffffffffffffffffffffffffffffffffffffffff021916908373ffffffffffffffffffffffffffffffffffffffff160217905550565b60008060009054906101000a900473ffffffffffffffffffffffffffffffffffffffff16905090565b3373ffffffffffffffffffffffffffffffffffffffff16600160009054906101000a900473ffffffffffffffffffffffffffffffffffffffff1673ffffffffffffffffffffffffffffffffffffffff1614610991576040517f08c379a000000000000000000000000000000000000000000000000000000000815260040161098890612a2f565b60405180910390fd5b60025442116109d5576040517f08c379a00000000000000000000000000000000000000000000000000000000081526004016109cc906129cf565b60405180910390fd5b600160009054906101000a900473ffffffffffffffffffffffffffffffffffffffff1673ffffffffffffffffffffffffffffffffffffffff1660008054906101000a900473ffffffffffffffffffffffffffffffffffffffff1673ffffffffffffffffffffffffffffffffffffffff167f8be0079c531659141344cd1fd0a4f28419497f9722a3daafe3b4186f6b6457e060405160405180910390a3600160009054906101000a900473ffffffffffffffffffffffffffffffffffffffff166000806101000a81548173ffffffffffffffffffffffffffffffffffffffff021916908373ffffffffffffffffffffffffffffffffffffffff160217905550565b6000600254905090565b6000600760008381526020019081526020016000206003015411610b38576040517f08c379a0000000000000000000000000000000000000000000000000000000008152600401610b2f906128ef565b60405180910390fd5b600015156008600083815260200190815260200160002060009054906101000a900460ff16151514610b9f576040517f08c379a0000000000000000000000000000000000000000000000000000000008152600401610b969061292f565b60405180910390fd5b60016008600083815260200190815260200160002060006101000a81548160ff021916908315150217905550600460009054906101000a900473ffffffffffffffffffffffffffffffffffffffff1673ffffffffffffffffffffffffffffffffffffffff1663e0c862896040518163ffffffff1660e01b8152600401600060405180830381600087803b158015610c3557600080fd5b505af1158015610c49573d6000803e3d6000fd5b50505050600460009054906101000a900473ffffffffffffffffffffffffffffffffffffffff1673ffffffffffffffffffffffffffffffffffffffff1663e89e106a6040518163ffffffff1660e01b8152600401602060405180830381600087803b158015610cb757600080fd5b505af1158015610ccb573d6000803e3d6000fd5b505050506040513d601f19601f82011682018060405250810190610cef9190612503565b6007600083815260200190815260200160002060060181905550436007600083815260200190815260200160002060000181905550807fbd51e5a352fab6e096017c2be9f26b900b8615c0353bc652a3f429c6e56c4e126007600084815260200190815260200160002060060154604051610d6a91906128b4565b60405180910390a250565b610d7d612440565b73ffffffffffffffffffffffffffffffffffffffff1660008054906101000a900473ffffffffffffffffffffffffffffffffffffffff1673ffffffffffffffffffffffffffffffffffffffff1614610e0a576040517f08c379a0000000000000000000000000000000000000000000000000000000008152600401610e019061294f565b60405180910390fd5b6008600084815260200190815260200160002060009054906101000a900460ff1615610e6b576040517f08c379a0000000000000000000000000000000000000000000000000000000008152600401610e629061292f565b60405180910390fd5b6000600760008581526020019081526020016000206003015414610ec4576040517f08c379a0000000000000000000000000000000000000000000000000000000008152600401610ebb9061298f565b60405180910390fd5b816007600085815260200190815260200160002060030181905550600360009054906101000a900473ffffffffffffffffffffffffffffffffffffffff1673ffffffffffffffffffffffffffffffffffffffff166323b872dd610f256108d8565b30856040518463ffffffff1660e01b8152600401610f4593929190612862565b602060405180830381600087803b158015610f5f57600080fd5b505af1158015610f73573d6000803e3d6000fd5b505050506040513d601f19601f82011682018060405250810190610f9791906124da565b610fca577f4e487b7100000000000000000000000000000000000000000000000000000000600052600160045260246000fd5b806007600085815260200190815260200160002060040181905550505050565b60066020528060005260406000206000915090505481565b60086020528060005260406000206000915054906101000a900460ff1681565b6005602052816000526040600020816006811061103e57600080fd5b01600091509150505481565b611052612440565b73ffffffffffffffffffffffffffffffffffffffff1660008054906101000a900473ffffffffffffffffffffffffffffffffffffffff1673ffffffffffffffffffffffffffffffffffffffff16146110df576040517f08c379a00000000000000000000000000000000000000000000000000000000081526004016110d69061294f565b60405180910390fd5b600360009054906101000a900473ffffffffffffffffffffffffffffffffffffffff1673ffffffffffffffffffffffffffffffffffffffff166323b872dd306111266108d8565b600360009054906101000a900473ffffffffffffffffffffffffffffffffffffffff1673ffffffffffffffffffffffffffffffffffffffff166370a08231306040518263ffffffff1660e01b81526004016111819190612847565b60206040518083038186803b15801561119957600080fd5b505afa1580156111ad573d6000803e3d6000fd5b505050506040513d601f19601f820116820180604052508101906111d19190612555565b6040518463ffffffff1660e01b81526004016111ef93929190612862565b602060405180830381600087803b15801561120957600080fd5b505af115801561121d573d6000803e3d6000fd5b505050506040513d601f19601f8201168201806040525081019061124191906124da565b611274577f4e487b7100000000000000000000000000000000000000000000000000000000600052600160045260246000fd5b565b61127e612440565b73ffffffffffffffffffffffffffffffffffffffff1660008054906101000a900473ffffffffffffffffffffffffffffffffffffffff1673ffffffffffffffffffffffffffffffffffffffff161461130b576040517f08c379a00000000000000000000000000000000000000000000000000000000081526004016113029061294f565b60405180910390fd5b60008054906101000a900473ffffffffffffffffffffffffffffffffffffffff16600160006101000a81548173ffffffffffffffffffffffffffffffffffffffff021916908373ffffffffffffffffffffffffffffffffffffffff16021790555060008060006101000a81548173ffffffffffffffffffffffffffffffffffffffff021916908373ffffffffffffffffffffffffffffffffffffffff16021790555080426113b99190612b22565b600281905550600073ffffffffffffffffffffffffffffffffffffffff1660008054906101000a900473ffffffffffffffffffffffffffffffffffffffff1673ffffffffffffffffffffffffffffffffffffffff167f8be0079c531659141344cd1fd0a4f28419497f9722a3daafe3b4186f6b6457e060405160405180910390a350565b611445612440565b73ffffffffffffffffffffffffffffffffffffffff1660008054906101000a900473ffffffffffffffffffffffffffffffffffffffff1673ffffffffffffffffffffffffffffffffffffffff16146114d2576040517f08c379a00000000000000000000000000000000000000000000000000000000081526004016114c99061294f565b60405180910390fd5b600073ffffffffffffffffffffffffffffffffffffffff168173ffffffffffffffffffffffffffffffffffffffff161415611542576040517f08c379a0000000000000000000000000000000000000000000000000000000008152600401611539906128cf565b60405180910390fd5b8073ffffffffffffffffffffffffffffffffffffffff1660008054906101000a900473ffffffffffffffffffffffffffffffffffffffff1673ffffffffffffffffffffffffffffffffffffffff167f8be0079c531659141344cd1fd0a4f28419497f9722a3daafe3b4186f6b6457e060405160405180910390a3806000806101000a81548173ffffffffffffffffffffffffffffffffffffffff021916908373ffffffffffffffffffffffffffffffffffffffff16021790555050565b60008060066000868152602001908152602001600020541415611657576040517f08c379a000000000000000000000000000000000000000000000000000000000815260040161164e9061296f565b60405180910390fd5b60006116616108d8565b73ffffffffffffffffffffffffffffffffffffffff1663261dc98986856040518363ffffffff1660e01b815260040161169b929190612a6a565b60206040518083038186803b1580156116b357600080fd5b505afa1580156116c7573d6000803e3d6000fd5b505050506040513d601f19601f820116820180604052508101906116eb9190612555565b905060006116f76108d8565b73ffffffffffffffffffffffffffffffffffffffff16636209a58b87866040518363ffffffff1660e01b8152600401611731929190612a6a565b60206040518083038186803b15801561174957600080fd5b505afa15801561175d573d6000803e3d6000fd5b505050506040513d601f19601f820116820180604052508101906117819190612555565b905081851015801561179e5750808261179a9190612b22565b8511155b6117dd576040517f08c379a00000000000000000000000000000000000000000000000000000000081526004016117d4906129af565b60405180910390fd5b60006007600088815260200190815260200160002060080160008781526020019081526020016000205414611847576040517f08c379a000000000000000000000000000000000000000000000000000000000815260040161183e9061290f565b60405180910390fd5b60006007600088815260200190815260200160002060040154905060006002826118719190612cab565b141561188657808061188290612c62565b9150505b60008187600660008b8152602001908152602001600020546118a89190612b22565b6118b29190612cab565b9050600082826118c29190612b78565b6103e86118cf9190612ba9565b905080600760008b815260200190815260200160002060080160008a8152602001908152602001600020819055506001811015611acd576001600560008b8152602001908152602001600020600060068110611954577f4e487b7100000000000000000000000000000000000000000000000000000000600052603260045260246000fd5b01541015611ac8576000600a6002600760008d8152602001908152602001600020600301546119839190612ba9565b61198d9190612b78565b90506001600560008c81526020019081526020016000206000600681106119dd577f4e487b7100000000000000000000000000000000000000000000000000000000600052603260045260246000fd5b0181905550600360009054906101000a900473ffffffffffffffffffffffffffffffffffffffff1673ffffffffffffffffffffffffffffffffffffffff166323b872dd308a846040518463ffffffff1660e01b8152600401611a4193929190612862565b602060405180830381600087803b158015611a5b57600080fd5b505af1158015611a6f573d6000803e3d6000fd5b505050506040513d601f19601f82011682018060405250810190611a9391906124da565b611ac6577f4e487b7100000000000000000000000000000000000000000000000000000000600052600160045260246000fd5b505b612431565b6002811015611cad576002600560008b8152602001908152602001600020600160068110611b24577f4e487b7100000000000000000000000000000000000000000000000000000000600052603260045260246000fd5b01541015611ca857600060646005600760008d815260200190815260200160002060030154611b539190612ba9565b611b5d9190612b78565b9050600560008b8152602001908152602001600020600160068110611bab577f4e487b7100000000000000000000000000000000000000000000000000000000600052603260045260246000fd5b016000815480929190611bbd90612c62565b9190505550600360009054906101000a900473ffffffffffffffffffffffffffffffffffffffff1673ffffffffffffffffffffffffffffffffffffffff166323b872dd308a846040518463ffffffff1660e01b8152600401611c2193929190612862565b602060405180830381600087803b158015611c3b57600080fd5b505af1158015611c4f573d6000803e3d6000fd5b505050506040513d601f19601f82011682018060405250810190611c7391906124da565b611ca6577f4e487b7100000000000000000000000000000000000000000000000000000000600052600160045260246000fd5b505b612430565b600a811015611e8d57600a600560008b8152602001908152602001600020600260068110611d04577f4e487b7100000000000000000000000000000000000000000000000000000000600052603260045260246000fd5b01541015611e8857600060646001600760008d815260200190815260200160002060030154611d339190612ba9565b611d3d9190612b78565b9050600560008b8152602001908152602001600020600260068110611d8b577f4e487b7100000000000000000000000000000000000000000000000000000000600052603260045260246000fd5b016000815480929190611d9d90612c62565b9190505550600360009054906101000a900473ffffffffffffffffffffffffffffffffffffffff1673ffffffffffffffffffffffffffffffffffffffff166323b872dd308a846040518463ffffffff1660e01b8152600401611e0193929190612862565b602060405180830381600087803b158015611e1b57600080fd5b505af1158015611e2f573d6000803e3d6000fd5b505050506040513d601f19601f82011682018060405250810190611e5391906124da565b611e86577f4e487b7100000000000000000000000000000000000000000000000000000000600052600160045260246000fd5b505b61242f565b601481101561206e576014600560008b8152602001908152602001600020600360068110611ee4577f4e487b7100000000000000000000000000000000000000000000000000000000600052603260045260246000fd5b015410156120695760006103e86005600760008d815260200190815260200160002060030154611f149190612ba9565b611f1e9190612b78565b9050600560008b8152602001908152602001600020600360068110611f6c577f4e487b7100000000000000000000000000000000000000000000000000000000600052603260045260246000fd5b016000815480929190611f7e90612c62565b9190505550600360009054906101000a900473ffffffffffffffffffffffffffffffffffffffff1673ffffffffffffffffffffffffffffffffffffffff166323b872dd308a846040518463ffffffff1660e01b8152600401611fe293929190612862565b602060405180830381600087803b158015611ffc57600080fd5b505af1158015612010573d6000803e3d6000fd5b505050506040513d601f19601f8201168201806040525081019061203491906124da565b612067577f4e487b7100000000000000000000000000000000000000000000000000000000600052600160045260246000fd5b505b61242e565b603281101561224f576032600560008b81526020019081526020016000206004600681106120c5577f4e487b7100000000000000000000000000000000000000000000000000000000600052603260045260246000fd5b0154101561224a5760006103e86002600760008d8152602001908152602001600020600301546120f59190612ba9565b6120ff9190612b78565b9050600560008b815260200190815260200160002060046006811061214d577f4e487b7100000000000000000000000000000000000000000000000000000000600052603260045260246000fd5b01600081548092919061215f90612c62565b9190505550600360009054906101000a900473ffffffffffffffffffffffffffffffffffffffff1673ffffffffffffffffffffffffffffffffffffffff166323b872dd308a846040518463ffffffff1660e01b81526004016121c393929190612862565b602060405180830381600087803b1580156121dd57600080fd5b505af11580156121f1573d6000803e3d6000fd5b505050506040513d601f19601f8201168201806040525081019061221591906124da565b612248577f4e487b7100000000000000000000000000000000000000000000000000000000600052600160045260246000fd5b505b61242d565b606481101561242c576064600560008b81526020019081526020016000206005600681106122a6577f4e487b7100000000000000000000000000000000000000000000000000000000600052603260045260246000fd5b0154101561242b5760006103e86001600760008d8152602001908152602001600020600301546122d69190612ba9565b6122e09190612b78565b9050600560008b815260200190815260200160002060056006811061232e577f4e487b7100000000000000000000000000000000000000000000000000000000600052603260045260246000fd5b01600081548092919061234090612c62565b9190505550600360009054906101000a900473ffffffffffffffffffffffffffffffffffffffff1673ffffffffffffffffffffffffffffffffffffffff166323b872dd308a846040518463ffffffff1660e01b81526004016123a493929190612862565b602060405180830381600087803b1580156123be57600080fd5b505af11580156123d2573d6000803e3d6000fd5b505050506040513d601f19601f820116820180604052508101906123f691906124da565b612429577f4e487b7100000000000000000000000000000000000000000000000000000000600052600160045260246000fd5b505b5b5b5b5b5b5b81955050505050509392505050565b600033905090565b60008135905061245781612f72565b92915050565b60008151905061246c81612f89565b92915050565b60008151905061248181612fa0565b92915050565b60008135905061249681612fb7565b92915050565b6000815190506124ab81612fb7565b92915050565b6000602082840312156124c357600080fd5b60006124d184828501612448565b91505092915050565b6000602082840312156124ec57600080fd5b60006124fa8482850161245d565b91505092915050565b60006020828403121561251557600080fd5b600061252384828501612472565b91505092915050565b60006020828403121561253e57600080fd5b600061254c84828501612487565b91505092915050565b60006020828403121561256757600080fd5b60006125758482850161249c565b91505092915050565b6000806040838503121561259157600080fd5b600061259f85828601612487565b92505060206125b085828601612487565b9150509250929050565b6000806000606084860312156125cf57600080fd5b60006125dd86828701612487565b93505060206125ee86828701612487565b92505060406125ff86828701612448565b9150509250925092565b60008060006060848603121561261e57600080fd5b600061262c86828701612487565b935050602061263d86828701612487565b925050604061264e86828701612487565b9150509250925092565b61266181612c03565b82525050565b61267081612c15565b82525050565b61267f81612c21565b82525050565b6000612692602683612b11565b915061269d82612d3a565b604082019050919050565b60006126b5601583612b11565b91506126c082612d89565b602082019050919050565b60006126d8601583612b11565b91506126e382612db2565b602082019050919050565b60006126fb601583612b11565b915061270682612ddb565b602082019050919050565b600061271e602083612b11565b915061272982612e04565b602082019050919050565b6000612741601283612b11565b915061274c82612e2d565b602082019050919050565b6000612764600e83612b11565b915061276f82612e56565b602082019050919050565b6000612787600e83612b11565b915061279282612e7f565b602082019050919050565b60006127aa601f83612b11565b91506127b582612ea8565b602082019050919050565b60006127cd601383612b11565b91506127d882612ed1565b602082019050919050565b60006127f0601383612b11565b91506127fb82612efa565b602082019050919050565b6000612813602383612b11565b915061281e82612f23565b604082019050919050565b61283281612c4b565b82525050565b61284181612c55565b82525050565b600060208201905061285c6000830184612658565b92915050565b60006060820190506128776000830186612658565b6128846020830185612658565b6128916040830184612829565b949350505050565b60006020820190506128ae6000830184612667565b92915050565b60006020820190506128c96000830184612676565b92915050565b600060208201905081810360008301526128e881612685565b9050919050565b60006020820190508181036000830152612908816126a8565b9050919050565b60006020820190508181036000830152612928816126cb565b9050919050565b60006020820190508181036000830152612948816126ee565b9050919050565b6000602082019050818103600083015261296881612711565b9050919050565b6000602082019050818103600083015261298881612734565b9050919050565b600060208201905081810360008301526129a881612757565b9050919050565b600060208201905081810360008301526129c88161277a565b9050919050565b600060208201905081810360008301526129e88161279d565b9050919050565b60006020820190508181036000830152612a08816127c0565b9050919050565b60006020820190508181036000830152612a28816127e3565b9050919050565b60006020820190508181036000830152612a4881612806565b9050919050565b6000602082019050612a646000830184612829565b92915050565b6000604082019050612a7f6000830185612829565b612a8c6020830184612658565b9392505050565b600061010082019050612aa9600083018b612829565b612ab6602083018a612829565b612ac36040830189612829565b612ad06060830188612829565b612add6080830187612829565b612aea60a0830186612829565b612af760c0830185612676565b612b0460e0830184612838565b9998505050505050505050565b600082825260208201905092915050565b6000612b2d82612c4b565b9150612b3883612c4b565b9250827fffffffffffffffffffffffffffffffffffffffffffffffffffffffffffffffff03821115612b6d57612b6c612cdc565b5b828201905092915050565b6000612b8382612c4b565b9150612b8e83612c4b565b925082612b9e57612b9d612d0b565b5b828204905092915050565b6000612bb482612c4b565b9150612bbf83612c4b565b9250817fffffffffffffffffffffffffffffffffffffffffffffffffffffffffffffffff0483118215151615612bf857612bf7612cdc565b5b828202905092915050565b6000612c0e82612c2b565b9050919050565b60008115159050919050565b6000819050919050565b600073ffffffffffffffffffffffffffffffffffffffff82169050919050565b6000819050919050565b600060ff82169050919050565b6000612c6d82612c4b565b91507fffffffffffffffffffffffffffffffffffffffffffffffffffffffffffffffff821415612ca057612c9f612cdc565b5b600182019050919050565b6000612cb682612c4b565b9150612cc183612c4b565b925082612cd157612cd0612d0b565b5b828206905092915050565b7f4e487b7100000000000000000000000000000000000000000000000000000000600052601160045260246000fd5b7f4e487b7100000000000000000000000000000000000000000000000000000000600052601260045260246000fd5b7f4f776e61626c653a206e6577206f776e657220697320746865207a65726f206160008201527f6464726573730000000000000000000000000000000000000000000000000000602082015250565b7f50524f504f53414c5f444f45534e545f45584953540000000000000000000000600082015250565b7f524553554c545f414c52454144595f4558495354530000000000000000000000600082015250565b7f52414e444f4d5f524551554553545f4558495354530000000000000000000000600082015250565b7f4f776e61626c653a2063616c6c6572206973206e6f7420746865206f776e6572600082015250565b7f524553554c545f49535f4e4f545f444f4e450000000000000000000000000000600082015250565b7f50524f504f53414c5f4558495354000000000000000000000000000000000000600082015250565b7f4e4f545f564f54455f4f574e4552000000000000000000000000000000000000600082015250565b7f436f6e7472616374206973206c6f636b656420756e74696c2037206461797300600082015250565b7f524551554553545f4e4f545f43555252454e5400000000000000000000000000600082015250565b7f524553554c545f414c52454144595f444f4e4500000000000000000000000000600082015250565b7f596f7520646f6e27742068617665207065726d697373696f6e20746f20756e6c60008201527f6f636b0000000000000000000000000000000000000000000000000000000000602082015250565b612f7b81612c03565b8114612f8657600080fd5b50565b612f9281612c15565b8114612f9d57600080fd5b50565b612fa981612c21565b8114612fb457600080fd5b50565b612fc081612c4b565b8114612fcb57600080fd5b5056fea2646970667358221220e40edb59bfacece5d40febf780c176845fde37ac051c6e755f1d8e77c4a9b49f64736f6c63430008040033",
  "linkReferences": {},
  "deployedLinkReferences": {}
}