{
  "_format": "hh-sol-artifact-1",
  "contractName": "TheOpenFarmDAO",
  "sourceName": "contracts/FarmDAO.sol",
  "abi": [
    {
      "anonymous": false,
      "inputs": [
        {
          "indexed": true,
          "internalType": "address",
          "name": "previousOwner",
          "type": "address"
        },
        {
          "indexed": true,
          "internalType": "address",
          "name": "newOwner",
          "type": "address"
        }
      ],
      "name": "OwnershipTransferred",
      "type": "event"
    },
    {
      "stateMutability": "payable",
      "type": "fallback"
    },
    {
      "inputs": [],
      "name": "VOTE_COST",
      "outputs": [
        {
          "internalType": "uint256",
          "name": "",
          "type": "uint256"
        }
      ],
      "stateMutability": "view",
      "type": "function"
    },
    {
      "inputs": [
        {
          "internalType": "uint256",
          "name": "_proposalIndex",
          "type": "uint256"
        }
      ],
      "name": "amountOfVotesRequired",
      "outputs": [
        {
          "internalType": "uint256",
          "name": "",
          "type": "uint256"
        }
      ],
      "stateMutability": "view",
      "type": "function"
    },
    {
      "inputs": [
        {
          "internalType": "uint256",
          "name": "_amountOfVotesRequired",
          "type": "uint256"
        }
      ],
      "name": "createProposal",
      "outputs": [
        {
          "internalType": "uint256",
          "name": "",
          "type": "uint256"
        }
      ],
      "stateMutability": "nonpayable",
      "type": "function"
    },
    {
      "inputs": [
        {
          "internalType": "uint256",
          "name": "_proposalIndex",
          "type": "uint256"
        }
      ],
      "name": "executeProposal",
      "outputs": [],
      "stateMutability": "nonpayable",
      "type": "function"
    },
    {
      "inputs": [],
      "name": "geUnlockTime",
      "outputs": [
        {
          "internalType": "uint256",
          "name": "",
          "type": "uint256"
        }
      ],
      "stateMutability": "view",
      "type": "function"
    },
    {
      "inputs": [
        {
          "internalType": "uint256",
          "name": "_proposalIndex",
          "type": "uint256"
        },
        {
          "internalType": "address",
          "name": "_voter",
          "type": "address"
        }
      ],
      "name": "getVoterAmountOfTokens",
      "outputs": [
        {
          "internalType": "uint256",
          "name": "",
          "type": "uint256"
        }
      ],
      "stateMutability": "view",
      "type": "function"
    },
    {
      "inputs": [
        {
          "internalType": "uint256",
          "name": "_proposalIndex",
          "type": "uint256"
        },
        {
          "internalType": "address",
          "name": "_voter",
          "type": "address"
        }
      ],
      "name": "getVoterAmountOfVotes",
      "outputs": [
        {
          "internalType": "uint256",
          "name": "",
          "type": "uint256"
        }
      ],
      "stateMutability": "view",
      "type": "function"
    },
    {
      "inputs": [
        {
          "internalType": "uint256",
          "name": "_proposalIndex",
          "type": "uint256"
        },
        {
          "internalType": "address",
          "name": "_voter",
          "type": "address"
        }
      ],
      "name": "getVoterVoteIndex",
      "outputs": [
        {
          "internalType": "uint256",
          "name": "",
          "type": "uint256"
        }
      ],
      "stateMutability": "view",
      "type": "function"
    },
    {
      "inputs": [
        {
          "internalType": "uint256",
          "name": "time",
          "type": "uint256"
        }
      ],
      "name": "lock",
      "outputs": [],
      "stateMutability": "nonpayable",
      "type": "function"
    },
    {
      "inputs": [],
      "name": "numProposals",
      "outputs": [
        {
          "internalType": "uint256",
          "name": "",
          "type": "uint256"
        }
      ],
      "stateMutability": "view",
      "type": "function"
    },
    {
      "inputs": [],
      "name": "owner",
      "outputs": [
        {
          "internalType": "address",
          "name": "",
          "type": "address"
        }
      ],
      "stateMutability": "view",
      "type": "function"
    },
    {
      "inputs": [
        {
          "internalType": "uint256",
          "name": "",
          "type": "uint256"
        }
      ],
      "name": "proposals",
      "outputs": [
        {
          "internalType": "uint256",
          "name": "amountOfVotes",
          "type": "uint256"
        },
        {
          "internalType": "uint256",
          "name": "amountOfVotesRequired",
          "type": "uint256"
        },
        {
          "internalType": "uint256",
          "name": "amountOfTokens",
          "type": "uint256"
        },
        {
          "internalType": "uint256",
          "name": "amountOfTokensRequired",
          "type": "uint256"
        },
        {
          "internalType": "uint256",
          "name": "deadline",
          "type": "uint256"
        },
        {
          "internalType": "bool",
          "name": "executed",
          "type": "bool"
        }
      ],
      "stateMutability": "view",
      "type": "function"
    },
    {
      "inputs": [],
      "name": "renounceOwnership",
      "outputs": [],
      "stateMutability": "nonpayable",
      "type": "function"
    },
    {
      "inputs": [
        {
          "internalType": "address",
          "name": "newOwner",
          "type": "address"
        }
      ],
      "name": "transferOwnership",
      "outputs": [],
      "stateMutability": "nonpayable",
      "type": "function"
    },
    {
      "inputs": [],
      "name": "unlock",
      "outputs": [],
      "stateMutability": "nonpayable",
      "type": "function"
    },
    {
      "inputs": [
        {
          "internalType": "uint256",
          "name": "_proposalIndex",
          "type": "uint256"
        },
        {
          "internalType": "uint256",
          "name": "_amountOfVotes",
          "type": "uint256"
        }
      ],
      "name": "voteOnProposal",
      "outputs": [],
      "stateMutability": "nonpayable",
      "type": "function"
    },
    {
      "inputs": [],
      "name": "withdrawBalance",
      "outputs": [],
      "stateMutability": "nonpayable",
      "type": "function"
    },
    {
      "inputs": [],
      "name": "withdrawEther",
      "outputs": [],
      "stateMutability": "nonpayable",
      "type": "function"
    },
    {
      "inputs": [
        {
          "internalType": "uint256",
          "name": "_proposalIndex",
          "type": "uint256"
        }
      ],
      "name": "withdrawFromFailedProposal",
      "outputs": [],
      "stateMutability": "nonpayable",
      "type": "function"
    },
    {
      "stateMutability": "payable",
      "type": "receive"
    }
  ],
  "bytecode": "0x60806040526509184e72a0006003557305812b6d8ea0f70bf5c43225f3ca7799f41bfd78600660006101000a81548173ffffffffffffffffffffffffffffffffffffffff021916908373ffffffffffffffffffffffffffffffffffffffff160217905550738f3cf7ad23cd3cadbd9735aff958023239c6a063600760006101000a81548173ffffffffffffffffffffffffffffffffffffffff021916908373ffffffffffffffffffffffffffffffffffffffff1602179055503480156100c457600080fd5b5060006100d561017860201b60201c565b9050806000806101000a81548173ffffffffffffffffffffffffffffffffffffffff021916908373ffffffffffffffffffffffffffffffffffffffff1602179055508073ffffffffffffffffffffffffffffffffffffffff16600073ffffffffffffffffffffffffffffffffffffffff167f8be0079c531659141344cd1fd0a4f28419497f9722a3daafe3b4186f6b6457e060405160405180910390a350610180565b600033905090565b612e0a80620001906000396000f3fe6080604052600436106101185760003560e01c80636209a58b116100a0578063b6c5232411610064578063b6c5232414610398578063d5892b55146103c3578063dd467064146103ec578063f2fde38b14610415578063fe71b8ba1461043e5761011f565b80636209a58b146102eb578063715018a6146103285780637362377b1461033f5780638da5cb5b14610356578063a69df4b5146103815761011f565b8063400e3949116100e7578063400e394914610206578063556f6cc014610231578063572614871461025a5780635a43dc00146102975780635fd8c710146102d45761011f565b8063013cf08b146101215780630d61b5191461016357806314c127031461018c578063261dc989146101c95761011f565b3661011f57005b005b34801561012d57600080fd5b5061014860048036038101906101439190612280565b610469565b60405161015a9695949392919061289d565b60405180910390f35b34801561016f57600080fd5b5061018a60048036038101906101859190612280565b6104b2565b005b34801561019857600080fd5b506101b360048036038101906101ae9190612280565b6109c6565b6040516101c0919061284b565b60405180910390f35b3480156101d557600080fd5b506101f060048036038101906101eb91906122d2565b6109eb565b6040516101fd919061284b565b60405180910390f35b34801561021257600080fd5b5061021b610ad3565b604051610228919061284b565b60405180910390f35b34801561023d57600080fd5b506102586004803603810190610253919061230e565b610ad9565b005b34801561026657600080fd5b50610281600480360381019061027c91906122d2565b611007565b60405161028e919061284b565b60405180910390f35b3480156102a357600080fd5b506102be60048036038101906102b99190612280565b6110ef565b6040516102cb919061284b565b60405180910390f35b3480156102e057600080fd5b506102e96112d2565b005b3480156102f757600080fd5b50610312600480360381019061030d91906122d2565b6114fc565b60405161031f919061284b565b60405180910390f35b34801561033457600080fd5b5061033d6115e4565b005b34801561034b57600080fd5b50610354611737565b005b34801561036257600080fd5b5061036b61181c565b60405161037891906125a7565b60405180910390f35b34801561038d57600080fd5b50610396611845565b005b3480156103a457600080fd5b506103ad611a19565b6040516103ba919061284b565b60405180910390f35b3480156103cf57600080fd5b506103ea60048036038101906103e59190612280565b611a23565b005b3480156103f857600080fd5b50610413600480360381019061040e9190612280565b611e43565b005b34801561042157600080fd5b5061043c6004803603810190610437919061222e565b61200a565b005b34801561044a57600080fd5b506104536121cc565b604051610460919061284b565b60405180910390f35b60046020528060005260406000206000915090508060000154908060010154908060020154908060030154908060040154908060050160009054906101000a900460ff16905086565b6000600760009054906101000a900473ffffffffffffffffffffffffffffffffffffffff1673ffffffffffffffffffffffffffffffffffffffff1663dd62ed3e33306040518363ffffffff1660e01b81526004016105119291906125c2565b60206040518083038186803b15801561052957600080fd5b505afa15801561053d573d6000803e3d6000fd5b505050506040513d601f19601f8201168201806040525081019061056191906122a9565b116105a1576040517f08c379a00000000000000000000000000000000000000000000000000000000081526004016105989061272b565b60405180910390fd5b8042600460008381526020019081526020016000206004015411156105fb576040517f08c379a00000000000000000000000000000000000000000000000000000000081526004016105f29061264b565b60405180910390fd5b600015156004600083815260200190815260200160002060050160009054906101000a900460ff16151514610665576040517f08c379a000000000000000000000000000000000000000000000000000000000815260040161065c906126cb565b60405180910390fd5b60006004600084815260200190815260200160002090508060030154816002015410156106c7576040517f08c379a00000000000000000000000000000000000000000000000000000000081526004016106be906127ab565b60405180910390fd5b806001015481600001541015610712576040517f08c379a00000000000000000000000000000000000000000000000000000000081526004016107099061278b565b60405180910390fd5b8060020154600760009054906101000a900473ffffffffffffffffffffffffffffffffffffffff1673ffffffffffffffffffffffffffffffffffffffff166370a08231306040518263ffffffff1660e01b815260040161077291906125a7565b60206040518083038186803b15801561078a57600080fd5b505afa15801561079e573d6000803e3d6000fd5b505050506040513d601f19601f820116820180604052508101906107c291906122a9565b1015610803576040517f08c379a00000000000000000000000000000000000000000000000000000000081526004016107fa906126ab565b60405180910390fd5b600760009054906101000a900473ffffffffffffffffffffffffffffffffffffffff1673ffffffffffffffffffffffffffffffffffffffff1663095ea7b3600660009054906101000a900473ffffffffffffffffffffffffffffffffffffffff1683600201546040518363ffffffff1660e01b8152600401610886929190612622565b602060405180830381600087803b1580156108a057600080fd5b505af11580156108b4573d6000803e3d6000fd5b505050506040513d601f19601f820116820180604052508101906108d89190612257565b61090b577f4e487b7100000000000000000000000000000000000000000000000000000000600052600160045260246000fd5b600660009054906101000a900473ffffffffffffffffffffffffffffffffffffffff1673ffffffffffffffffffffffffffffffffffffffff1663c71bf91a84836002015484600001546040518463ffffffff1660e01b815260040161097293929190612866565b600060405180830381600087803b15801561098c57600080fd5b505af11580156109a0573d6000803e3d6000fd5b5050505060018160050160006101000a81548160ff021916908315150217905550505050565b6000806004600084815260200190815260200160002090508060010154915050919050565b60008060046000858152602001908152602001600020905060008160060160008573ffffffffffffffffffffffffffffffffffffffff1673ffffffffffffffffffffffffffffffffffffffff168152602001908152602001600020541415610a88576040517f08c379a0000000000000000000000000000000000000000000000000000000008152600401610a7f9061274b565b60405180910390fd5b8060060160008473ffffffffffffffffffffffffffffffffffffffff1673ffffffffffffffffffffffffffffffffffffffff1681526020019081526020016000205491505092915050565b60055481565b6000600760009054906101000a900473ffffffffffffffffffffffffffffffffffffffff1673ffffffffffffffffffffffffffffffffffffffff1663dd62ed3e33306040518363ffffffff1660e01b8152600401610b389291906125c2565b60206040518083038186803b158015610b5057600080fd5b505afa158015610b64573d6000803e3d6000fd5b505050506040513d601f19601f82011682018060405250810190610b8891906122a9565b11610bc8576040517f08c379a0000000000000000000000000000000000000000000000000000000008152600401610bbf9061272b565b60405180910390fd5b8142600460008381526020019081526020016000206004015411610c21576040517f08c379a0000000000000000000000000000000000000000000000000000000008152600401610c18906126eb565b60405180910390fd5b60006004600085815260200190815260200160002090506000600760009054906101000a900473ffffffffffffffffffffffffffffffffffffffff1673ffffffffffffffffffffffffffffffffffffffff166370a08231336040518263ffffffff1660e01b8152600401610c9591906125a7565b60206040518083038186803b158015610cad57600080fd5b505afa158015610cc1573d6000803e3d6000fd5b505050506040513d601f19601f82011682018060405250810190610ce591906122a9565b9050600084600354610cf79190612965565b905080821015610d3c576040517f08c379a0000000000000000000000000000000000000000000000000000000008152600401610d33906127eb565b60405180910390fd5b60008360080160003373ffffffffffffffffffffffffffffffffffffffff1673ffffffffffffffffffffffffffffffffffffffff1681526020019081526020016000205414610dc0576040517f08c379a0000000000000000000000000000000000000000000000000000000008152600401610db79061270b565b60405180910390fd5b60008511610e03576040517f08c379a0000000000000000000000000000000000000000000000000000000008152600401610dfa9061282b565b60405180910390fd5b60018360000154610e14919061290f565b8360060160003373ffffffffffffffffffffffffffffffffffffffff1673ffffffffffffffffffffffffffffffffffffffff16815260200190815260200160002081905550848360070160003373ffffffffffffffffffffffffffffffffffffffff1673ffffffffffffffffffffffffffffffffffffffff16815260200190815260200160002081905550808360080160003373ffffffffffffffffffffffffffffffffffffffff1673ffffffffffffffffffffffffffffffffffffffff1681526020019081526020016000208190555080836002016000828254610ef9919061290f565b9250508190555084836000016000828254610f14919061290f565b92505081905550600760009054906101000a900473ffffffffffffffffffffffffffffffffffffffff1673ffffffffffffffffffffffffffffffffffffffff166323b872dd3330846040518463ffffffff1660e01b8152600401610f7a939291906125eb565b602060405180830381600087803b158015610f9457600080fd5b505af1158015610fa8573d6000803e3d6000fd5b505050506040513d601f19601f82011682018060405250810190610fcc9190612257565b610fff577f4e487b7100000000000000000000000000000000000000000000000000000000600052600160045260246000fd5b505050505050565b60008060046000858152602001908152602001600020905060008160080160008573ffffffffffffffffffffffffffffffffffffffff1673ffffffffffffffffffffffffffffffffffffffff1681526020019081526020016000205414156110a4576040517f08c379a000000000000000000000000000000000000000000000000000000000815260040161109b9061274b565b60405180910390fd5b8060080160008473ffffffffffffffffffffffffffffffffffffffff1673ffffffffffffffffffffffffffffffffffffffff1681526020019081526020016000205491505092915050565b600080600760009054906101000a900473ffffffffffffffffffffffffffffffffffffffff1673ffffffffffffffffffffffffffffffffffffffff1663dd62ed3e33306040518363ffffffff1660e01b815260040161114f9291906125c2565b60206040518083038186803b15801561116757600080fd5b505afa15801561117b573d6000803e3d6000fd5b505050506040513d601f19601f8201168201806040525081019061119f91906122a9565b116111df576040517f08c379a00000000000000000000000000000000000000000000000000000000081526004016111d69061272b565b60405180910390fd5b6000600460006005548152602001908152602001600020905060006005541461126f57600060046000600160055461121791906129bf565b815260200190815260200160002090508060040154421161126d576040517f08c379a00000000000000000000000000000000000000000000000000000000081526004016112649061268b565b60405180910390fd5b505b828160010181905550826003546112869190612965565b8160030181905550603c4261129b919061290f565b8160040181905550600560008154809291906112b690612a3b565b919050555060016005546112ca91906129bf565b915050919050565b6112da6121d2565b73ffffffffffffffffffffffffffffffffffffffff1660008054906101000a900473ffffffffffffffffffffffffffffffffffffffff1673ffffffffffffffffffffffffffffffffffffffff1614611367576040517f08c379a000000000000000000000000000000000000000000000000000000000815260040161135e9061276b565b60405180910390fd5b600760009054906101000a900473ffffffffffffffffffffffffffffffffffffffff1673ffffffffffffffffffffffffffffffffffffffff1663a9059cbb6113ad61181c565b600760009054906101000a900473ffffffffffffffffffffffffffffffffffffffff1673ffffffffffffffffffffffffffffffffffffffff166370a08231306040518263ffffffff1660e01b815260040161140891906125a7565b60206040518083038186803b15801561142057600080fd5b505afa158015611434573d6000803e3d6000fd5b505050506040513d601f19601f8201168201806040525081019061145891906122a9565b6040518363ffffffff1660e01b8152600401611475929190612622565b602060405180830381600087803b15801561148f57600080fd5b505af11580156114a3573d6000803e3d6000fd5b505050506040513d601f19601f820116820180604052508101906114c79190612257565b6114fa577f4e487b7100000000000000000000000000000000000000000000000000000000600052600160045260246000fd5b565b60008060046000858152602001908152602001600020905060008160070160008573ffffffffffffffffffffffffffffffffffffffff1673ffffffffffffffffffffffffffffffffffffffff168152602001908152602001600020541415611599576040517f08c379a00000000000000000000000000000000000000000000000000000000081526004016115909061274b565b60405180910390fd5b8060070160008473ffffffffffffffffffffffffffffffffffffffff1673ffffffffffffffffffffffffffffffffffffffff1681526020019081526020016000205491505092915050565b6115ec6121d2565b73ffffffffffffffffffffffffffffffffffffffff1660008054906101000a900473ffffffffffffffffffffffffffffffffffffffff1673ffffffffffffffffffffffffffffffffffffffff1614611679576040517f08c379a00000000000000000000000000000000000000000000000000000000081526004016116709061276b565b60405180910390fd5b600073ffffffffffffffffffffffffffffffffffffffff1660008054906101000a900473ffffffffffffffffffffffffffffffffffffffff1673ffffffffffffffffffffffffffffffffffffffff167f8be0079c531659141344cd1fd0a4f28419497f9722a3daafe3b4186f6b6457e060405160405180910390a360008060006101000a81548173ffffffffffffffffffffffffffffffffffffffff021916908373ffffffffffffffffffffffffffffffffffffffff160217905550565b61173f6121d2565b73ffffffffffffffffffffffffffffffffffffffff1660008054906101000a900473ffffffffffffffffffffffffffffffffffffffff1673ffffffffffffffffffffffffffffffffffffffff16146117cc576040517f08c379a00000000000000000000000000000000000000000000000000000000081526004016117c39061276b565b60405180910390fd5b6117d461181c565b73ffffffffffffffffffffffffffffffffffffffff166108fc479081150290604051600060405180830381858888f19350505050158015611819573d6000803e3d6000fd5b50565b60008060009054906101000a900473ffffffffffffffffffffffffffffffffffffffff16905090565b3373ffffffffffffffffffffffffffffffffffffffff16600160009054906101000a900473ffffffffffffffffffffffffffffffffffffffff1673ffffffffffffffffffffffffffffffffffffffff16146118d5576040517f08c379a00000000000000000000000000000000000000000000000000000000081526004016118cc9061280b565b60405180910390fd5b6002544211611919576040517f08c379a0000000000000000000000000000000000000000000000000000000008152600401611910906127cb565b60405180910390fd5b600160009054906101000a900473ffffffffffffffffffffffffffffffffffffffff1673ffffffffffffffffffffffffffffffffffffffff1660008054906101000a900473ffffffffffffffffffffffffffffffffffffffff1673ffffffffffffffffffffffffffffffffffffffff167f8be0079c531659141344cd1fd0a4f28419497f9722a3daafe3b4186f6b6457e060405160405180910390a3600160009054906101000a900473ffffffffffffffffffffffffffffffffffffffff166000806101000a81548173ffffffffffffffffffffffffffffffffffffffff021916908373ffffffffffffffffffffffffffffffffffffffff160217905550565b6000600254905090565b6000600760009054906101000a900473ffffffffffffffffffffffffffffffffffffffff1673ffffffffffffffffffffffffffffffffffffffff1663dd62ed3e33306040518363ffffffff1660e01b8152600401611a829291906125c2565b60206040518083038186803b158015611a9a57600080fd5b505afa158015611aae573d6000803e3d6000fd5b505050506040513d601f19601f82011682018060405250810190611ad291906122a9565b11611b12576040517f08c379a0000000000000000000000000000000000000000000000000000000008152600401611b099061272b565b60405180910390fd5b804260046000838152602001908152602001600020600401541115611b6c576040517f08c379a0000000000000000000000000000000000000000000000000000000008152600401611b639061264b565b60405180910390fd5b600015156004600083815260200190815260200160002060050160009054906101000a900460ff16151514611bd6576040517f08c379a0000000000000000000000000000000000000000000000000000000008152600401611bcd906126cb565b60405180910390fd5b60006004600084815260200190815260200160002090508060080160003373ffffffffffffffffffffffffffffffffffffffff1673ffffffffffffffffffffffffffffffffffffffff16815260200190815260200160002054600760009054906101000a900473ffffffffffffffffffffffffffffffffffffffff1673ffffffffffffffffffffffffffffffffffffffff166370a08231306040518263ffffffff1660e01b8152600401611c8a91906125a7565b60206040518083038186803b158015611ca257600080fd5b505afa158015611cb6573d6000803e3d6000fd5b505050506040513d601f19601f82011682018060405250810190611cda91906122a9565b1015611d1b576040517f08c379a0000000000000000000000000000000000000000000000000000000008152600401611d12906126ab565b60405180910390fd5b600760009054906101000a900473ffffffffffffffffffffffffffffffffffffffff1673ffffffffffffffffffffffffffffffffffffffff1663a9059cbb338360080160003373ffffffffffffffffffffffffffffffffffffffff1673ffffffffffffffffffffffffffffffffffffffff168152602001908152602001600020546040518363ffffffff1660e01b8152600401611db9929190612622565b602060405180830381600087803b158015611dd357600080fd5b505af1158015611de7573d6000803e3d6000fd5b505050506040513d601f19601f82011682018060405250810190611e0b9190612257565b611e3e577f4e487b7100000000000000000000000000000000000000000000000000000000600052600160045260246000fd5b505050565b611e4b6121d2565b73ffffffffffffffffffffffffffffffffffffffff1660008054906101000a900473ffffffffffffffffffffffffffffffffffffffff1673ffffffffffffffffffffffffffffffffffffffff1614611ed8576040517f08c379a0000000000000000000000000000000000000000000000000000000008152600401611ecf9061276b565b60405180910390fd5b60008054906101000a900473ffffffffffffffffffffffffffffffffffffffff16600160006101000a81548173ffffffffffffffffffffffffffffffffffffffff021916908373ffffffffffffffffffffffffffffffffffffffff16021790555060008060006101000a81548173ffffffffffffffffffffffffffffffffffffffff021916908373ffffffffffffffffffffffffffffffffffffffff1602179055508042611f86919061290f565b600281905550600073ffffffffffffffffffffffffffffffffffffffff1660008054906101000a900473ffffffffffffffffffffffffffffffffffffffff1673ffffffffffffffffffffffffffffffffffffffff167f8be0079c531659141344cd1fd0a4f28419497f9722a3daafe3b4186f6b6457e060405160405180910390a350565b6120126121d2565b73ffffffffffffffffffffffffffffffffffffffff1660008054906101000a900473ffffffffffffffffffffffffffffffffffffffff1673ffffffffffffffffffffffffffffffffffffffff161461209f576040517f08c379a00000000000000000000000000000000000000000000000000000000081526004016120969061276b565b60405180910390fd5b600073ffffffffffffffffffffffffffffffffffffffff168173ffffffffffffffffffffffffffffffffffffffff16141561210f576040517f08c379a00000000000000000000000000000000000000000000000000000000081526004016121069061266b565b60405180910390fd5b8073ffffffffffffffffffffffffffffffffffffffff1660008054906101000a900473ffffffffffffffffffffffffffffffffffffffff1673ffffffffffffffffffffffffffffffffffffffff167f8be0079c531659141344cd1fd0a4f28419497f9722a3daafe3b4186f6b6457e060405160405180910390a3806000806101000a81548173ffffffffffffffffffffffffffffffffffffffff021916908373ffffffffffffffffffffffffffffffffffffffff16021790555050565b60035481565b600033905090565b6000813590506121e981612d8f565b92915050565b6000815190506121fe81612da6565b92915050565b60008135905061221381612dbd565b92915050565b60008151905061222881612dbd565b92915050565b60006020828403121561224057600080fd5b600061224e848285016121da565b91505092915050565b60006020828403121561226957600080fd5b6000612277848285016121ef565b91505092915050565b60006020828403121561229257600080fd5b60006122a084828501612204565b91505092915050565b6000602082840312156122bb57600080fd5b60006122c984828501612219565b91505092915050565b600080604083850312156122e557600080fd5b60006122f385828601612204565b9250506020612304858286016121da565b9150509250929050565b6000806040838503121561232157600080fd5b600061232f85828601612204565b925050602061234085828601612204565b9150509250929050565b612353816129f3565b82525050565b61236281612a05565b82525050565b60006123756015836128fe565b915061238082612ab3565b602082019050919050565b60006123986026836128fe565b91506123a382612adc565b604082019050919050565b60006123bb6016836128fe565b91506123c682612b2b565b602082019050919050565b60006123de6014836128fe565b91506123e982612b54565b602082019050919050565b60006124016019836128fe565b915061240c82612b7d565b602082019050919050565b60006124246011836128fe565b915061242f82612ba6565b602082019050919050565b6000612447600d836128fe565b915061245282612bcf565b602082019050919050565b600061246a6010836128fe565b915061247582612bf8565b602082019050919050565b600061248d600f836128fe565b915061249882612c21565b602082019050919050565b60006124b06020836128fe565b91506124bb82612c4a565b602082019050919050565b60006124d36010836128fe565b91506124de82612c73565b602082019050919050565b60006124f66011836128fe565b915061250182612c9c565b602082019050919050565b6000612519601f836128fe565b915061252482612cc5565b602082019050919050565b600061253c6012836128fe565b915061254782612cee565b602082019050919050565b600061255f6023836128fe565b915061256a82612d17565b604082019050919050565b60006125826012836128fe565b915061258d82612d66565b602082019050919050565b6125a181612a31565b82525050565b60006020820190506125bc600083018461234a565b92915050565b60006040820190506125d7600083018561234a565b6125e4602083018461234a565b9392505050565b6000606082019050612600600083018661234a565b61260d602083018561234a565b61261a6040830184612598565b949350505050565b6000604082019050612637600083018561234a565b6126446020830184612598565b9392505050565b6000602082019050818103600083015261266481612368565b9050919050565b600060208201905081810360008301526126848161238b565b9050919050565b600060208201905081810360008301526126a4816123ae565b9050919050565b600060208201905081810360008301526126c4816123d1565b9050919050565b600060208201905081810360008301526126e4816123f4565b9050919050565b6000602082019050818103600083015261270481612417565b9050919050565b600060208201905081810360008301526127248161243a565b9050919050565b600060208201905081810360008301526127448161245d565b9050919050565b6000602082019050818103600083015261276481612480565b9050919050565b60006020820190508181036000830152612784816124a3565b9050919050565b600060208201905081810360008301526127a4816124c6565b9050919050565b600060208201905081810360008301526127c4816124e9565b9050919050565b600060208201905081810360008301526127e48161250c565b9050919050565b600060208201905081810360008301526128048161252f565b9050919050565b6000602082019050818103600083015261282481612552565b9050919050565b6000602082019050818103600083015261284481612575565b9050919050565b60006020820190506128606000830184612598565b92915050565b600060608201905061287b6000830186612598565b6128886020830185612598565b6128956040830184612598565b949350505050565b600060c0820190506128b26000830189612598565b6128bf6020830188612598565b6128cc6040830187612598565b6128d96060830186612598565b6128e66080830185612598565b6128f360a0830184612359565b979650505050505050565b600082825260208201905092915050565b600061291a82612a31565b915061292583612a31565b9250827fffffffffffffffffffffffffffffffffffffffffffffffffffffffffffffffff0382111561295a57612959612a84565b5b828201905092915050565b600061297082612a31565b915061297b83612a31565b9250817fffffffffffffffffffffffffffffffffffffffffffffffffffffffffffffffff04831182151516156129b4576129b3612a84565b5b828202905092915050565b60006129ca82612a31565b91506129d583612a31565b9250828210156129e8576129e7612a84565b5b828203905092915050565b60006129fe82612a11565b9050919050565b60008115159050919050565b600073ffffffffffffffffffffffffffffffffffffffff82169050919050565b6000819050919050565b6000612a4682612a31565b91507fffffffffffffffffffffffffffffffffffffffffffffffffffffffffffffffff821415612a7957612a78612a84565b5b600182019050919050565b7f4e487b7100000000000000000000000000000000000000000000000000000000600052601160045260246000fd5b7f444541444c494e455f4e4f545f45584345454445440000000000000000000000600082015250565b7f4f776e61626c653a206e6577206f776e657220697320746865207a65726f206160008201527f6464726573730000000000000000000000000000000000000000000000000000602082015250565b7f4143544956455f50524f504f53414c5f45584953545300000000000000000000600082015250565b7f4e4f545f454e4f5547485f44414f5f46554e4453000000000000000000000000600082015250565b7f50524f504f53414c5f414c52454144595f455845435554454400000000000000600082015250565b7f444541444c494e455f4558434545444544000000000000000000000000000000600082015250565b7f414c52454144595f564f54454400000000000000000000000000000000000000600082015250565b7f4e4f545f415f44414f5f4d454d42455200000000000000000000000000000000600082015250565b7f564f5445525f4e4f545f464f554e440000000000000000000000000000000000600082015250565b7f4f776e61626c653a2063616c6c6572206973206e6f7420746865206f776e6572600082015250565b7f4e4f545f454e4f5547485f564f54455300000000000000000000000000000000600082015250565b7f4e4f545f454e4f5547485f544f4b454e53000000000000000000000000000000600082015250565b7f436f6e7472616374206973206c6f636b656420756e74696c2037206461797300600082015250565b7f4e4f545f454e4f5547485f42414c414e43450000000000000000000000000000600082015250565b7f596f7520646f6e27742068617665207065726d697373696f6e20746f20756e6c60008201527f6f636b0000000000000000000000000000000000000000000000000000000000602082015250565b7f494e56414c49445f564f54455f434f554e540000000000000000000000000000600082015250565b612d98816129f3565b8114612da357600080fd5b50565b612daf81612a05565b8114612dba57600080fd5b50565b612dc681612a31565b8114612dd157600080fd5b5056fea264697066735822122047ffde5ef0bee8dc1a663c2914fe69d6380c33aebadc1f4f49d4bb0ce72c871d64736f6c63430008040033",
  "linkReferences": {},
  "deployedLinkReferences": {}
}