{
  "_format": "hh-sol-artifact-1",
  "contractName": "TheOpenFarmDAOsLotto",
  "sourceName": "contracts/FarmDAOsLotto.sol",
  "abi": [
    {
      "anonymous": false,
      "inputs": [
        {
          "indexed": true,
          "internalType": "uint256",
          "name": "_proposalIndex",
          "type": "uint256"
        },
        {
          "indexed": false,
          "internalType": "bytes32",
          "name": "requestId",
          "type": "bytes32"
        }
      ],
      "name": "NewRandomRequest",
      "type": "event"
    },
    {
      "anonymous": false,
      "inputs": [
        {
          "indexed": true,
          "internalType": "address",
          "name": "previousOwner",
          "type": "address"
        },
        {
          "indexed": true,
          "internalType": "address",
          "name": "newOwner",
          "type": "address"
        }
      ],
      "name": "OwnershipTransferred",
      "type": "event"
    },
    {
      "inputs": [],
      "name": "emergencyWithdraw",
      "outputs": [],
      "stateMutability": "nonpayable",
      "type": "function"
    },
    {
      "inputs": [
        {
          "internalType": "uint256",
          "name": "",
          "type": "uint256"
        }
      ],
      "name": "gameRounds",
      "outputs": [
        {
          "internalType": "uint256",
          "name": "randomRequestBlock",
          "type": "uint256"
        },
        {
          "internalType": "uint256",
          "name": "randomResult",
          "type": "uint256"
        },
        {
          "internalType": "uint256",
          "name": "randomResultBlock",
          "type": "uint256"
        },
        {
          "internalType": "uint256",
          "name": "lockedFunds",
          "type": "uint256"
        },
        {
          "internalType": "uint256",
          "name": "amountRaised",
          "type": "uint256"
        },
        {
          "internalType": "uint256",
          "name": "votes",
          "type": "uint256"
        },
        {
          "internalType": "uint256",
          "name": "wonAmount",
          "type": "uint256"
        },
        {
          "internalType": "bytes32",
          "name": "randomRequestId",
          "type": "bytes32"
        },
        {
          "internalType": "uint8",
          "name": "lastResult",
          "type": "uint8"
        }
      ],
      "stateMutability": "view",
      "type": "function"
    },
    {
      "inputs": [],
      "name": "geUnlockTime",
      "outputs": [
        {
          "internalType": "uint256",
          "name": "",
          "type": "uint256"
        }
      ],
      "stateMutability": "view",
      "type": "function"
    },
    {
      "inputs": [
        {
          "internalType": "uint256",
          "name": "_proposalIndex",
          "type": "uint256"
        },
        {
          "internalType": "uint256",
          "name": "_votePos",
          "type": "uint256"
        }
      ],
      "name": "getVoteRedeemd",
      "outputs": [
        {
          "internalType": "uint256",
          "name": "",
          "type": "uint256"
        }
      ],
      "stateMutability": "view",
      "type": "function"
    },
    {
      "inputs": [
        {
          "internalType": "uint256",
          "name": "_proposalIndex",
          "type": "uint256"
        },
        {
          "internalType": "uint256",
          "name": "_votePos",
          "type": "uint256"
        },
        {
          "internalType": "address",
          "name": "_voter",
          "type": "address"
        }
      ],
      "name": "getVoteResult",
      "outputs": [
        {
          "internalType": "uint256",
          "name": "",
          "type": "uint256"
        }
      ],
      "stateMutability": "nonpayable",
      "type": "function"
    },
    {
      "inputs": [
        {
          "internalType": "uint256",
          "name": "",
          "type": "uint256"
        }
      ],
      "name": "hasRequestedRandom",
      "outputs": [
        {
          "internalType": "bool",
          "name": "",
          "type": "bool"
        }
      ],
      "stateMutability": "view",
      "type": "function"
    },
    {
      "inputs": [
        {
          "internalType": "uint256",
          "name": "time",
          "type": "uint256"
        }
      ],
      "name": "lock",
      "outputs": [],
      "stateMutability": "nonpayable",
      "type": "function"
    },
    {
      "inputs": [
        {
          "internalType": "uint256",
          "name": "_proposalIndex",
          "type": "uint256"
        },
        {
          "internalType": "uint256",
          "name": "_amount",
          "type": "uint256"
        },
        {
          "internalType": "uint256",
          "name": "_votes",
          "type": "uint256"
        }
      ],
      "name": "newRound",
      "outputs": [],
      "stateMutability": "nonpayable",
      "type": "function"
    },
    {
      "inputs": [],
      "name": "owner",
      "outputs": [
        {
          "internalType": "address",
          "name": "",
          "type": "address"
        }
      ],
      "stateMutability": "view",
      "type": "function"
    },
    {
      "inputs": [
        {
          "internalType": "uint256",
          "name": "",
          "type": "uint256"
        }
      ],
      "name": "randomRequests",
      "outputs": [
        {
          "internalType": "uint256",
          "name": "",
          "type": "uint256"
        }
      ],
      "stateMutability": "view",
      "type": "function"
    },
    {
      "inputs": [
        {
          "internalType": "uint256",
          "name": "",
          "type": "uint256"
        },
        {
          "internalType": "uint256",
          "name": "",
          "type": "uint256"
        }
      ],
      "name": "redeems",
      "outputs": [
        {
          "internalType": "uint256",
          "name": "",
          "type": "uint256"
        }
      ],
      "stateMutability": "view",
      "type": "function"
    },
    {
      "inputs": [],
      "name": "renounceOwnership",
      "outputs": [],
      "stateMutability": "nonpayable",
      "type": "function"
    },
    {
      "inputs": [
        {
          "internalType": "uint256",
          "name": "_proposalIndex",
          "type": "uint256"
        }
      ],
      "name": "requestResolveRound",
      "outputs": [],
      "stateMutability": "nonpayable",
      "type": "function"
    },
    {
      "inputs": [
        {
          "internalType": "uint256",
          "name": "_proposalIndex",
          "type": "uint256"
        }
      ],
      "name": "resolveBet",
      "outputs": [
        {
          "internalType": "bool",
          "name": "",
          "type": "bool"
        }
      ],
      "stateMutability": "nonpayable",
      "type": "function"
    },
    {
      "inputs": [
        {
          "internalType": "address",
          "name": "newOwner",
          "type": "address"
        }
      ],
      "name": "transferOwnership",
      "outputs": [],
      "stateMutability": "nonpayable",
      "type": "function"
    },
    {
      "inputs": [],
      "name": "unlock",
      "outputs": [],
      "stateMutability": "nonpayable",
      "type": "function"
    }
  ],
  "bytecode": "0x6080604052738f3cf7ad23cd3cadbd9735aff958023239c6a063600360006101000a81548173ffffffffffffffffffffffffffffffffffffffff021916908373ffffffffffffffffffffffffffffffffffffffff160217905550734c5f09d239e11896ed4b21e5beba0de9d777eebd600460006101000a81548173ffffffffffffffffffffffffffffffffffffffff021916908373ffffffffffffffffffffffffffffffffffffffff1602179055503480156100ba57600080fd5b5060006100cb61016e60201b60201c565b9050806000806101000a81548173ffffffffffffffffffffffffffffffffffffffff021916908373ffffffffffffffffffffffffffffffffffffffff1602179055508073ffffffffffffffffffffffffffffffffffffffff16600073ffffffffffffffffffffffffffffffffffffffff167f8be0079c531659141344cd1fd0a4f28419497f9722a3daafe3b4186f6b6457e060405160405180910390a350610176565b600033905090565b612f5f80620001866000396000f3fe608060405234801561001057600080fd5b50600436106100ff5760003560e01c8063c71bf91a11610097578063db2e21bc11610066578063db2e21bc146102b4578063dd467064146102be578063f2fde38b146102da578063f84e6d91146102f6576100ff565b8063c71bf91a14610208578063ca067ad014610224578063d212dcea14610254578063d34b6fbd14610284576100ff565b80638da5cb5b116100d35780638da5cb5b146101a6578063a69df4b5146101c4578063b6c52324146101ce578063c36aea47146101ec576100ff565b806219e6371461010457806325f3c1bd146101345780634c36c36e1461016c578063715018a61461019c575b600080fd5b61011e600480360381019061011991906124ca565b610326565b60405161012b919061299b565b60405180910390f35b61014e60048036038101906101499190612478565b610358565b604051610163999897969594939291906129df565b60405180910390f35b61018660048036038101906101819190612478565b6103b3565b60405161019391906127e5565b60405180910390f35b6101a4610673565b005b6101ae6107c6565b6040516101bb9190612793565b60405180910390f35b6101cc6107ef565b005b6101d66109c3565b6040516101e3919061299b565b60405180910390f35b61020660048036038101906102019190612478565b6109cd565b005b610222600480360381019061021d9190612555565b610c63565b005b61023e60048036038101906102399190612478565b610f36565b60405161024b919061299b565b60405180910390f35b61026e60048036038101906102699190612478565b610f4e565b60405161027b91906127e5565b60405180910390f35b61029e600480360381019061029991906124ca565b610f6e565b6040516102ab919061299b565b60405180910390f35b6102bc610f96565b005b6102d860048036038101906102d39190612478565b6111c2565b005b6102f460048036038101906102ef91906123fd565b611389565b005b610310600480360381019061030b9190612506565b61154b565b60405161031d919061299b565b60405180910390f35b600060076000848152602001908152602001600020600901600083815260200190815260200160002054905092915050565b60076020528060005260406000206000915090508060000154908060010154908060020154908060030154908060040154908060050154908060060154908060070154908060080160009054906101000a900460ff16905089565b60008060076000848152602001908152602001600020600401541161040d576040517f08c379a00000000000000000000000000000000000000000000000000000000081526004016104049061283b565b60405180910390fd5b600060076000848152602001908152602001600020600701549050600460009054906101000a900473ffffffffffffffffffffffffffffffffffffffff1673ffffffffffffffffffffffffffffffffffffffff1663e89e106a6040518163ffffffff1660e01b8152600401602060405180830381600087803b15801561049257600080fd5b505af11580156104a6573d6000803e3d6000fd5b505050506040513d601f19601f820116820180604052508101906104ca919061244f565b811461050b576040517f08c379a00000000000000000000000000000000000000000000000000000000081526004016105029061293b565b60405180910390fd5b6000600660008581526020019081526020016000205414610561576040517f08c379a00000000000000000000000000000000000000000000000000000000081526004016105589061295b565b60405180910390fd5b436007600085815260200190815260200160002060020181905550600460009054906101000a900473ffffffffffffffffffffffffffffffffffffffff1673ffffffffffffffffffffffffffffffffffffffff1663db61e87b6040518163ffffffff1660e01b8152600401602060405180830381600087803b1580156105e657600080fd5b505af11580156105fa573d6000803e3d6000fd5b505050506040513d601f19601f8201168201806040525081019061061e91906124a1565b6006600085815260200190815260200160002081905550600660008481526020019081526020016000205460076000858152602001908152602001600020600101819055506000600190508092505050919050565b61067b61238c565b73ffffffffffffffffffffffffffffffffffffffff1660008054906101000a900473ffffffffffffffffffffffffffffffffffffffff1673ffffffffffffffffffffffffffffffffffffffff1614610708576040517f08c379a00000000000000000000000000000000000000000000000000000000081526004016106ff9061289b565b60405180910390fd5b600073ffffffffffffffffffffffffffffffffffffffff1660008054906101000a900473ffffffffffffffffffffffffffffffffffffffff1673ffffffffffffffffffffffffffffffffffffffff167f8be0079c531659141344cd1fd0a4f28419497f9722a3daafe3b4186f6b6457e060405160405180910390a360008060006101000a81548173ffffffffffffffffffffffffffffffffffffffff021916908373ffffffffffffffffffffffffffffffffffffffff160217905550565b60008060009054906101000a900473ffffffffffffffffffffffffffffffffffffffff16905090565b3373ffffffffffffffffffffffffffffffffffffffff16600160009054906101000a900473ffffffffffffffffffffffffffffffffffffffff1673ffffffffffffffffffffffffffffffffffffffff161461087f576040517f08c379a00000000000000000000000000000000000000000000000000000000081526004016108769061297b565b60405180910390fd5b60025442116108c3576040517f08c379a00000000000000000000000000000000000000000000000000000000081526004016108ba9061291b565b60405180910390fd5b600160009054906101000a900473ffffffffffffffffffffffffffffffffffffffff1673ffffffffffffffffffffffffffffffffffffffff1660008054906101000a900473ffffffffffffffffffffffffffffffffffffffff1673ffffffffffffffffffffffffffffffffffffffff167f8be0079c531659141344cd1fd0a4f28419497f9722a3daafe3b4186f6b6457e060405160405180910390a3600160009054906101000a900473ffffffffffffffffffffffffffffffffffffffff166000806101000a81548173ffffffffffffffffffffffffffffffffffffffff021916908373ffffffffffffffffffffffffffffffffffffffff160217905550565b6000600254905090565b6000600760008381526020019081526020016000206004015411610a26576040517f08c379a0000000000000000000000000000000000000000000000000000000008152600401610a1d9061283b565b60405180910390fd5b600015156008600083815260200190815260200160002060009054906101000a900460ff16151514610a8d576040517f08c379a0000000000000000000000000000000000000000000000000000000008152600401610a849061287b565b60405180910390fd5b60016008600083815260200190815260200160002060006101000a81548160ff021916908315150217905550600460009054906101000a900473ffffffffffffffffffffffffffffffffffffffff1673ffffffffffffffffffffffffffffffffffffffff1663e0c862896040518163ffffffff1660e01b8152600401600060405180830381600087803b158015610b2357600080fd5b505af1158015610b37573d6000803e3d6000fd5b50505050600460009054906101000a900473ffffffffffffffffffffffffffffffffffffffff1673ffffffffffffffffffffffffffffffffffffffff1663e89e106a6040518163ffffffff1660e01b8152600401602060405180830381600087803b158015610ba557600080fd5b505af1158015610bb9573d6000803e3d6000fd5b505050506040513d601f19601f82011682018060405250810190610bdd919061244f565b6007600083815260200190815260200160002060070181905550436007600083815260200190815260200160002060000181905550807fbd51e5a352fab6e096017c2be9f26b900b8615c0353bc652a3f429c6e56c4e126007600084815260200190815260200160002060070154604051610c589190612800565b60405180910390a250565b610c6b61238c565b73ffffffffffffffffffffffffffffffffffffffff1660008054906101000a900473ffffffffffffffffffffffffffffffffffffffff1673ffffffffffffffffffffffffffffffffffffffff1614610cf8576040517f08c379a0000000000000000000000000000000000000000000000000000000008152600401610cef9061289b565b60405180910390fd5b6008600084815260200190815260200160002060009054906101000a900460ff1615610d59576040517f08c379a0000000000000000000000000000000000000000000000000000000008152600401610d509061287b565b60405180910390fd5b6000600760008581526020019081526020016000206004015414610db2576040517f08c379a0000000000000000000000000000000000000000000000000000000008152600401610da9906128db565b60405180910390fd5b816007600085815260200190815260200160002060040181905550600a600780600086815260200190815260200160002060040154610df19190612b04565b610dfb9190612ad3565b6007600085815260200190815260200160002060030181905550600360009054906101000a900473ffffffffffffffffffffffffffffffffffffffff1673ffffffffffffffffffffffffffffffffffffffff166323b872dd610e5b6107c6565b3060076000888152602001908152602001600020600301546040518463ffffffff1660e01b8152600401610e91939291906127ae565b602060405180830381600087803b158015610eab57600080fd5b505af1158015610ebf573d6000803e3d6000fd5b505050506040513d601f19601f82011682018060405250810190610ee39190612426565b610f16577f4e487b7100000000000000000000000000000000000000000000000000000000600052600160045260246000fd5b806007600085815260200190815260200160002060050181905550505050565b60066020528060005260406000206000915090505481565b60086020528060005260406000206000915054906101000a900460ff1681565b60056020528160005260406000208160068110610f8a57600080fd5b01600091509150505481565b610f9e61238c565b73ffffffffffffffffffffffffffffffffffffffff1660008054906101000a900473ffffffffffffffffffffffffffffffffffffffff1673ffffffffffffffffffffffffffffffffffffffff161461102b576040517f08c379a00000000000000000000000000000000000000000000000000000000081526004016110229061289b565b60405180910390fd5b600360009054906101000a900473ffffffffffffffffffffffffffffffffffffffff1673ffffffffffffffffffffffffffffffffffffffff166323b872dd306110726107c6565b600360009054906101000a900473ffffffffffffffffffffffffffffffffffffffff1673ffffffffffffffffffffffffffffffffffffffff166370a08231306040518263ffffffff1660e01b81526004016110cd9190612793565b60206040518083038186803b1580156110e557600080fd5b505afa1580156110f9573d6000803e3d6000fd5b505050506040513d601f19601f8201168201806040525081019061111d91906124a1565b6040518463ffffffff1660e01b815260040161113b939291906127ae565b602060405180830381600087803b15801561115557600080fd5b505af1158015611169573d6000803e3d6000fd5b505050506040513d601f19601f8201168201806040525081019061118d9190612426565b6111c0577f4e487b7100000000000000000000000000000000000000000000000000000000600052600160045260246000fd5b565b6111ca61238c565b73ffffffffffffffffffffffffffffffffffffffff1660008054906101000a900473ffffffffffffffffffffffffffffffffffffffff1673ffffffffffffffffffffffffffffffffffffffff1614611257576040517f08c379a000000000000000000000000000000000000000000000000000000000815260040161124e9061289b565b60405180910390fd5b60008054906101000a900473ffffffffffffffffffffffffffffffffffffffff16600160006101000a81548173ffffffffffffffffffffffffffffffffffffffff021916908373ffffffffffffffffffffffffffffffffffffffff16021790555060008060006101000a81548173ffffffffffffffffffffffffffffffffffffffff021916908373ffffffffffffffffffffffffffffffffffffffff16021790555080426113059190612a7d565b600281905550600073ffffffffffffffffffffffffffffffffffffffff1660008054906101000a900473ffffffffffffffffffffffffffffffffffffffff1673ffffffffffffffffffffffffffffffffffffffff167f8be0079c531659141344cd1fd0a4f28419497f9722a3daafe3b4186f6b6457e060405160405180910390a350565b61139161238c565b73ffffffffffffffffffffffffffffffffffffffff1660008054906101000a900473ffffffffffffffffffffffffffffffffffffffff1673ffffffffffffffffffffffffffffffffffffffff161461141e576040517f08c379a00000000000000000000000000000000000000000000000000000000081526004016114159061289b565b60405180910390fd5b600073ffffffffffffffffffffffffffffffffffffffff168173ffffffffffffffffffffffffffffffffffffffff16141561148e576040517f08c379a00000000000000000000000000000000000000000000000000000000081526004016114859061281b565b60405180910390fd5b8073ffffffffffffffffffffffffffffffffffffffff1660008054906101000a900473ffffffffffffffffffffffffffffffffffffffff1673ffffffffffffffffffffffffffffffffffffffff167f8be0079c531659141344cd1fd0a4f28419497f9722a3daafe3b4186f6b6457e060405160405180910390a3806000806101000a81548173ffffffffffffffffffffffffffffffffffffffff021916908373ffffffffffffffffffffffffffffffffffffffff16021790555050565b600080600660008681526020019081526020016000205414156115a3576040517f08c379a000000000000000000000000000000000000000000000000000000000815260040161159a906128bb565b60405180910390fd5b60006115ad6107c6565b73ffffffffffffffffffffffffffffffffffffffff1663261dc98986856040518363ffffffff1660e01b81526004016115e79291906129b6565b60206040518083038186803b1580156115ff57600080fd5b505afa158015611613573d6000803e3d6000fd5b505050506040513d601f19601f8201168201806040525081019061163791906124a1565b905060006116436107c6565b73ffffffffffffffffffffffffffffffffffffffff16636209a58b87866040518363ffffffff1660e01b815260040161167d9291906129b6565b60206040518083038186803b15801561169557600080fd5b505afa1580156116a9573d6000803e3d6000fd5b505050506040513d601f19601f820116820180604052508101906116cd91906124a1565b90508185101580156116ea575080826116e69190612a7d565b8511155b611729576040517f08c379a0000000000000000000000000000000000000000000000000000000008152600401611720906128fb565b60405180910390fd5b60006007600088815260200190815260200160002060090160008781526020019081526020016000205414611793576040517f08c379a000000000000000000000000000000000000000000000000000000000815260040161178a9061285b565b60405180910390fd5b60006007600088815260200190815260200160002060050154905060006002826117bd9190612c06565b14156117d25780806117ce90612bbd565b9150505b60008187600660008b8152602001908152602001600020546117f49190612a7d565b6117fe9190612c06565b90506000828261180e9190612ad3565b6103e861181b9190612b04565b905080600760008b815260200190815260200160002060090160008a8152602001908152602001600020819055506001811015611a19576001600560008b81526020019081526020016000206000600681106118a0577f4e487b7100000000000000000000000000000000000000000000000000000000600052603260045260246000fd5b01541015611a14576000600a6002600760008d8152602001908152602001600020600401546118cf9190612b04565b6118d99190612ad3565b90506001600560008c8152602001908152602001600020600060068110611929577f4e487b7100000000000000000000000000000000000000000000000000000000600052603260045260246000fd5b0181905550600360009054906101000a900473ffffffffffffffffffffffffffffffffffffffff1673ffffffffffffffffffffffffffffffffffffffff166323b872dd308a846040518463ffffffff1660e01b815260040161198d939291906127ae565b602060405180830381600087803b1580156119a757600080fd5b505af11580156119bb573d6000803e3d6000fd5b505050506040513d601f19601f820116820180604052508101906119df9190612426565b611a12577f4e487b7100000000000000000000000000000000000000000000000000000000600052600160045260246000fd5b505b61237d565b6002811015611bf9576002600560008b8152602001908152602001600020600160068110611a70577f4e487b7100000000000000000000000000000000000000000000000000000000600052603260045260246000fd5b01541015611bf457600060646005600760008d815260200190815260200160002060040154611a9f9190612b04565b611aa99190612ad3565b9050600560008b8152602001908152602001600020600160068110611af7577f4e487b7100000000000000000000000000000000000000000000000000000000600052603260045260246000fd5b016000815480929190611b0990612bbd565b9190505550600360009054906101000a900473ffffffffffffffffffffffffffffffffffffffff1673ffffffffffffffffffffffffffffffffffffffff166323b872dd308a846040518463ffffffff1660e01b8152600401611b6d939291906127ae565b602060405180830381600087803b158015611b8757600080fd5b505af1158015611b9b573d6000803e3d6000fd5b505050506040513d601f19601f82011682018060405250810190611bbf9190612426565b611bf2577f4e487b7100000000000000000000000000000000000000000000000000000000600052600160045260246000fd5b505b61237c565b600a811015611dd957600a600560008b8152602001908152602001600020600260068110611c50577f4e487b7100000000000000000000000000000000000000000000000000000000600052603260045260246000fd5b01541015611dd457600060646001600760008d815260200190815260200160002060040154611c7f9190612b04565b611c899190612ad3565b9050600560008b8152602001908152602001600020600260068110611cd7577f4e487b7100000000000000000000000000000000000000000000000000000000600052603260045260246000fd5b016000815480929190611ce990612bbd565b9190505550600360009054906101000a900473ffffffffffffffffffffffffffffffffffffffff1673ffffffffffffffffffffffffffffffffffffffff166323b872dd308a846040518463ffffffff1660e01b8152600401611d4d939291906127ae565b602060405180830381600087803b158015611d6757600080fd5b505af1158015611d7b573d6000803e3d6000fd5b505050506040513d601f19601f82011682018060405250810190611d9f9190612426565b611dd2577f4e487b7100000000000000000000000000000000000000000000000000000000600052600160045260246000fd5b505b61237b565b6014811015611fba576014600560008b8152602001908152602001600020600360068110611e30577f4e487b7100000000000000000000000000000000000000000000000000000000600052603260045260246000fd5b01541015611fb55760006103e86005600760008d815260200190815260200160002060040154611e609190612b04565b611e6a9190612ad3565b9050600560008b8152602001908152602001600020600360068110611eb8577f4e487b7100000000000000000000000000000000000000000000000000000000600052603260045260246000fd5b016000815480929190611eca90612bbd565b9190505550600360009054906101000a900473ffffffffffffffffffffffffffffffffffffffff1673ffffffffffffffffffffffffffffffffffffffff166323b872dd308a846040518463ffffffff1660e01b8152600401611f2e939291906127ae565b602060405180830381600087803b158015611f4857600080fd5b505af1158015611f5c573d6000803e3d6000fd5b505050506040513d601f19601f82011682018060405250810190611f809190612426565b611fb3577f4e487b7100000000000000000000000000000000000000000000000000000000600052600160045260246000fd5b505b61237a565b603281101561219b576032600560008b8152602001908152602001600020600460068110612011577f4e487b7100000000000000000000000000000000000000000000000000000000600052603260045260246000fd5b015410156121965760006103e86002600760008d8152602001908152602001600020600401546120419190612b04565b61204b9190612ad3565b9050600560008b8152602001908152602001600020600460068110612099577f4e487b7100000000000000000000000000000000000000000000000000000000600052603260045260246000fd5b0160008154809291906120ab90612bbd565b9190505550600360009054906101000a900473ffffffffffffffffffffffffffffffffffffffff1673ffffffffffffffffffffffffffffffffffffffff166323b872dd308a846040518463ffffffff1660e01b815260040161210f939291906127ae565b602060405180830381600087803b15801561212957600080fd5b505af115801561213d573d6000803e3d6000fd5b505050506040513d601f19601f820116820180604052508101906121619190612426565b612194577f4e487b7100000000000000000000000000000000000000000000000000000000600052600160045260246000fd5b505b612379565b6064811015612378576064600560008b81526020019081526020016000206005600681106121f2577f4e487b7100000000000000000000000000000000000000000000000000000000600052603260045260246000fd5b015410156123775760006103e86001600760008d8152602001908152602001600020600401546122229190612b04565b61222c9190612ad3565b9050600560008b815260200190815260200160002060056006811061227a577f4e487b7100000000000000000000000000000000000000000000000000000000600052603260045260246000fd5b01600081548092919061228c90612bbd565b9190505550600360009054906101000a900473ffffffffffffffffffffffffffffffffffffffff1673ffffffffffffffffffffffffffffffffffffffff166323b872dd308a846040518463ffffffff1660e01b81526004016122f0939291906127ae565b602060405180830381600087803b15801561230a57600080fd5b505af115801561231e573d6000803e3d6000fd5b505050506040513d601f19601f820116820180604052508101906123429190612426565b612375577f4e487b7100000000000000000000000000000000000000000000000000000000600052600160045260246000fd5b505b5b5b5b5b5b5b81955050505050509392505050565b600033905090565b6000813590506123a381612ecd565b92915050565b6000815190506123b881612ee4565b92915050565b6000815190506123cd81612efb565b92915050565b6000813590506123e281612f12565b92915050565b6000815190506123f781612f12565b92915050565b60006020828403121561240f57600080fd5b600061241d84828501612394565b91505092915050565b60006020828403121561243857600080fd5b6000612446848285016123a9565b91505092915050565b60006020828403121561246157600080fd5b600061246f848285016123be565b91505092915050565b60006020828403121561248a57600080fd5b6000612498848285016123d3565b91505092915050565b6000602082840312156124b357600080fd5b60006124c1848285016123e8565b91505092915050565b600080604083850312156124dd57600080fd5b60006124eb858286016123d3565b92505060206124fc858286016123d3565b9150509250929050565b60008060006060848603121561251b57600080fd5b6000612529868287016123d3565b935050602061253a868287016123d3565b925050604061254b86828701612394565b9150509250925092565b60008060006060848603121561256a57600080fd5b6000612578868287016123d3565b9350506020612589868287016123d3565b925050604061259a868287016123d3565b9150509250925092565b6125ad81612b5e565b82525050565b6125bc81612b70565b82525050565b6125cb81612b7c565b82525050565b60006125de602683612a6c565b91506125e982612c95565b604082019050919050565b6000612601601583612a6c565b915061260c82612ce4565b602082019050919050565b6000612624601583612a6c565b915061262f82612d0d565b602082019050919050565b6000612647601583612a6c565b915061265282612d36565b602082019050919050565b600061266a602083612a6c565b915061267582612d5f565b602082019050919050565b600061268d601283612a6c565b915061269882612d88565b602082019050919050565b60006126b0600e83612a6c565b91506126bb82612db1565b602082019050919050565b60006126d3600e83612a6c565b91506126de82612dda565b602082019050919050565b60006126f6601f83612a6c565b915061270182612e03565b602082019050919050565b6000612719601383612a6c565b915061272482612e2c565b602082019050919050565b600061273c601383612a6c565b915061274782612e55565b602082019050919050565b600061275f602383612a6c565b915061276a82612e7e565b604082019050919050565b61277e81612ba6565b82525050565b61278d81612bb0565b82525050565b60006020820190506127a860008301846125a4565b92915050565b60006060820190506127c360008301866125a4565b6127d060208301856125a4565b6127dd6040830184612775565b949350505050565b60006020820190506127fa60008301846125b3565b92915050565b600060208201905061281560008301846125c2565b92915050565b60006020820190508181036000830152612834816125d1565b9050919050565b60006020820190508181036000830152612854816125f4565b9050919050565b6000602082019050818103600083015261287481612617565b9050919050565b600060208201905081810360008301526128948161263a565b9050919050565b600060208201905081810360008301526128b48161265d565b9050919050565b600060208201905081810360008301526128d481612680565b9050919050565b600060208201905081810360008301526128f4816126a3565b9050919050565b60006020820190508181036000830152612914816126c6565b9050919050565b60006020820190508181036000830152612934816126e9565b9050919050565b600060208201905081810360008301526129548161270c565b9050919050565b600060208201905081810360008301526129748161272f565b9050919050565b6000602082019050818103600083015261299481612752565b9050919050565b60006020820190506129b06000830184612775565b92915050565b60006040820190506129cb6000830185612775565b6129d860208301846125a4565b9392505050565b6000610120820190506129f5600083018c612775565b612a02602083018b612775565b612a0f604083018a612775565b612a1c6060830189612775565b612a296080830188612775565b612a3660a0830187612775565b612a4360c0830186612775565b612a5060e08301856125c2565b612a5e610100830184612784565b9a9950505050505050505050565b600082825260208201905092915050565b6000612a8882612ba6565b9150612a9383612ba6565b9250827fffffffffffffffffffffffffffffffffffffffffffffffffffffffffffffffff03821115612ac857612ac7612c37565b5b828201905092915050565b6000612ade82612ba6565b9150612ae983612ba6565b925082612af957612af8612c66565b5b828204905092915050565b6000612b0f82612ba6565b9150612b1a83612ba6565b9250817fffffffffffffffffffffffffffffffffffffffffffffffffffffffffffffffff0483118215151615612b5357612b52612c37565b5b828202905092915050565b6000612b6982612b86565b9050919050565b60008115159050919050565b6000819050919050565b600073ffffffffffffffffffffffffffffffffffffffff82169050919050565b6000819050919050565b600060ff82169050919050565b6000612bc882612ba6565b91507fffffffffffffffffffffffffffffffffffffffffffffffffffffffffffffffff821415612bfb57612bfa612c37565b5b600182019050919050565b6000612c1182612ba6565b9150612c1c83612ba6565b925082612c2c57612c2b612c66565b5b828206905092915050565b7f4e487b7100000000000000000000000000000000000000000000000000000000600052601160045260246000fd5b7f4e487b7100000000000000000000000000000000000000000000000000000000600052601260045260246000fd5b7f4f776e61626c653a206e6577206f776e657220697320746865207a65726f206160008201527f6464726573730000000000000000000000000000000000000000000000000000602082015250565b7f50524f504f53414c5f444f45534e545f45584953540000000000000000000000600082015250565b7f524553554c545f414c52454144595f4558495354530000000000000000000000600082015250565b7f52414e444f4d5f524551554553545f4558495354530000000000000000000000600082015250565b7f4f776e61626c653a2063616c6c6572206973206e6f7420746865206f776e6572600082015250565b7f524553554c545f49535f4e4f545f444f4e450000000000000000000000000000600082015250565b7f50524f504f53414c5f4558495354000000000000000000000000000000000000600082015250565b7f4e4f545f564f54455f4f574e4552000000000000000000000000000000000000600082015250565b7f436f6e7472616374206973206c6f636b656420756e74696c2037206461797300600082015250565b7f524551554553545f4e4f545f43555252454e5400000000000000000000000000600082015250565b7f524553554c545f414c52454144595f444f4e4500000000000000000000000000600082015250565b7f596f7520646f6e27742068617665207065726d697373696f6e20746f20756e6c60008201527f6f636b0000000000000000000000000000000000000000000000000000000000602082015250565b612ed681612b5e565b8114612ee157600080fd5b50565b612eed81612b70565b8114612ef857600080fd5b50565b612f0481612b7c565b8114612f0f57600080fd5b50565b612f1b81612ba6565b8114612f2657600080fd5b5056fea26469706673582212201b6a8c3124123875caaae214fda5b1430cd4637755abcd86c722756414bd054564736f6c63430008040033",
  "linkReferences": {},
  "deployedLinkReferences": {}
}