{
  "_format": "hh-sol-artifact-1",
  "contractName": "TheOpenFarmDAOsLotto",
  "sourceName": "contracts/FarmDAOsLotto.sol",
  "abi": [
    {
      "anonymous": false,
      "inputs": [
        {
          "indexed": true,
          "internalType": "uint256",
          "name": "_proposalIndex",
          "type": "uint256"
        },
        {
          "indexed": false,
          "internalType": "bytes32",
          "name": "requestId",
          "type": "bytes32"
        }
      ],
      "name": "NewRandomRequest",
      "type": "event"
    },
    {
      "anonymous": false,
      "inputs": [
        {
          "indexed": true,
          "internalType": "address",
          "name": "previousOwner",
          "type": "address"
        },
        {
          "indexed": true,
          "internalType": "address",
          "name": "newOwner",
          "type": "address"
        }
      ],
      "name": "OwnershipTransferred",
      "type": "event"
    },
    {
      "inputs": [],
      "name": "emergencyWithdraw",
      "outputs": [],
      "stateMutability": "nonpayable",
      "type": "function"
    },
    {
      "inputs": [
        {
          "internalType": "uint256",
          "name": "",
          "type": "uint256"
        }
      ],
      "name": "gameRounds",
      "outputs": [
        {
          "internalType": "uint256",
          "name": "randomRequestBlock",
          "type": "uint256"
        },
        {
          "internalType": "uint256",
          "name": "randomResult",
          "type": "uint256"
        },
        {
          "internalType": "uint256",
          "name": "randomResultBlock",
          "type": "uint256"
        },
        {
          "internalType": "uint256",
          "name": "lockedFunds",
          "type": "uint256"
        },
        {
          "internalType": "uint256",
          "name": "amountRaised",
          "type": "uint256"
        },
        {
          "internalType": "uint256",
          "name": "votes",
          "type": "uint256"
        },
        {
          "internalType": "uint256",
          "name": "wonAmount",
          "type": "uint256"
        },
        {
          "internalType": "bytes32",
          "name": "randomRequestId",
          "type": "bytes32"
        },
        {
          "internalType": "uint8",
          "name": "lastResult",
          "type": "uint8"
        }
      ],
      "stateMutability": "view",
      "type": "function"
    },
    {
      "inputs": [],
      "name": "geUnlockTime",
      "outputs": [
        {
          "internalType": "uint256",
          "name": "",
          "type": "uint256"
        }
      ],
      "stateMutability": "view",
      "type": "function"
    },
    {
      "inputs": [
        {
          "internalType": "uint256",
          "name": "_proposalIndex",
          "type": "uint256"
        },
        {
          "internalType": "uint256",
          "name": "_votePos",
          "type": "uint256"
        }
      ],
      "name": "getVoteRedeemd",
      "outputs": [
        {
          "internalType": "uint256",
          "name": "",
          "type": "uint256"
        }
      ],
      "stateMutability": "view",
      "type": "function"
    },
    {
      "inputs": [
        {
          "internalType": "uint256",
          "name": "_proposalIndex",
          "type": "uint256"
        },
        {
          "internalType": "uint256",
          "name": "_votePos",
          "type": "uint256"
        },
        {
          "internalType": "address",
          "name": "_voter",
          "type": "address"
        }
      ],
      "name": "getVoteResult",
      "outputs": [
        {
          "internalType": "uint256",
          "name": "",
          "type": "uint256"
        }
      ],
      "stateMutability": "nonpayable",
      "type": "function"
    },
    {
      "inputs": [
        {
          "internalType": "uint256",
          "name": "_proposalIndex",
          "type": "uint256"
        },
        {
          "internalType": "uint256",
          "name": "_votePos",
          "type": "uint256"
        }
      ],
      "name": "getVoteScratchedNumber",
      "outputs": [
        {
          "internalType": "uint256",
          "name": "",
          "type": "uint256"
        }
      ],
      "stateMutability": "view",
      "type": "function"
    },
    {
      "inputs": [
        {
          "internalType": "uint256",
          "name": "",
          "type": "uint256"
        }
      ],
      "name": "hasRequestedRandom",
      "outputs": [
        {
          "internalType": "bool",
          "name": "",
          "type": "bool"
        }
      ],
      "stateMutability": "view",
      "type": "function"
    },
    {
      "inputs": [
        {
          "internalType": "uint256",
          "name": "time",
          "type": "uint256"
        }
      ],
      "name": "lock",
      "outputs": [],
      "stateMutability": "nonpayable",
      "type": "function"
    },
    {
      "inputs": [
        {
          "internalType": "uint256",
          "name": "_proposalIndex",
          "type": "uint256"
        },
        {
          "internalType": "uint256",
          "name": "_amount",
          "type": "uint256"
        },
        {
          "internalType": "uint256",
          "name": "_votes",
          "type": "uint256"
        }
      ],
      "name": "newRound",
      "outputs": [],
      "stateMutability": "nonpayable",
      "type": "function"
    },
    {
      "inputs": [],
      "name": "owner",
      "outputs": [
        {
          "internalType": "address",
          "name": "",
          "type": "address"
        }
      ],
      "stateMutability": "view",
      "type": "function"
    },
    {
      "inputs": [
        {
          "internalType": "uint256",
          "name": "",
          "type": "uint256"
        }
      ],
      "name": "randomRequests",
      "outputs": [
        {
          "internalType": "uint256",
          "name": "",
          "type": "uint256"
        }
      ],
      "stateMutability": "view",
      "type": "function"
    },
    {
      "inputs": [
        {
          "internalType": "uint256",
          "name": "",
          "type": "uint256"
        },
        {
          "internalType": "uint256",
          "name": "",
          "type": "uint256"
        }
      ],
      "name": "redeemHistory",
      "outputs": [
        {
          "internalType": "uint256",
          "name": "",
          "type": "uint256"
        }
      ],
      "stateMutability": "view",
      "type": "function"
    },
    {
      "inputs": [],
      "name": "renounceOwnership",
      "outputs": [],
      "stateMutability": "nonpayable",
      "type": "function"
    },
    {
      "inputs": [
        {
          "internalType": "uint256",
          "name": "_proposalIndex",
          "type": "uint256"
        }
      ],
      "name": "requestResolveRound",
      "outputs": [],
      "stateMutability": "nonpayable",
      "type": "function"
    },
    {
      "inputs": [
        {
          "internalType": "uint256",
          "name": "_proposalIndex",
          "type": "uint256"
        }
      ],
      "name": "resolveBet",
      "outputs": [
        {
          "internalType": "bool",
          "name": "",
          "type": "bool"
        }
      ],
      "stateMutability": "nonpayable",
      "type": "function"
    },
    {
      "inputs": [
        {
          "internalType": "address",
          "name": "newOwner",
          "type": "address"
        }
      ],
      "name": "transferOwnership",
      "outputs": [],
      "stateMutability": "nonpayable",
      "type": "function"
    },
    {
      "inputs": [],
      "name": "unlock",
      "outputs": [],
      "stateMutability": "nonpayable",
      "type": "function"
    }
  ],
  "bytecode": "0x6080604052738f3cf7ad23cd3cadbd9735aff958023239c6a063600360006101000a81548173ffffffffffffffffffffffffffffffffffffffff021916908373ffffffffffffffffffffffffffffffffffffffff160217905550734c5f09d239e11896ed4b21e5beba0de9d777eebd600460006101000a81548173ffffffffffffffffffffffffffffffffffffffff021916908373ffffffffffffffffffffffffffffffffffffffff1602179055503480156100ba57600080fd5b5060006100cb61016e60201b60201c565b9050806000806101000a81548173ffffffffffffffffffffffffffffffffffffffff021916908373ffffffffffffffffffffffffffffffffffffffff1602179055508073ffffffffffffffffffffffffffffffffffffffff16600073ffffffffffffffffffffffffffffffffffffffff167f8be0079c531659141344cd1fd0a4f28419497f9722a3daafe3b4186f6b6457e060405160405180910390a350610176565b600033905090565b61311480620001866000396000f3fe608060405234801561001057600080fd5b506004361061010a5760003560e01c8063b6c52324116100a2578063d212dcea11610071578063d212dcea146102bf578063db2e21bc146102ef578063dd467064146102f9578063f2fde38b14610315578063f84e6d91146103315761010a565b8063b6c5232414610239578063c36aea4714610257578063c71bf91a14610273578063ca067ad01461028f5761010a565b8063673efa69116100de578063673efa69146101d7578063715018a6146102075780638da5cb5b14610211578063a69df4b51461022f5761010a565b806219e6371461010f578063122197cc1461013f57806325f3c1bd1461016f5780634c36c36e146101a7575b600080fd5b6101296004803603810190610124919061261a565b610361565b6040516101369190612b3e565b60405180910390f35b6101596004803603810190610154919061261a565b610393565b6040516101669190612b3e565b60405180910390f35b610189600480360381019061018491906125c8565b6103c5565b60405161019e99989796959493929190612b82565b60405180910390f35b6101c160048036038101906101bc91906125c8565b610420565b6040516101ce919061296d565b60405180910390f35b6101f160048036038101906101ec919061261a565b61077a565b6040516101fe9190612b3e565b60405180910390f35b61020f6107a2565b005b6102196108f5565b60405161022691906128f2565b60405180910390f35b61023761091e565b005b610241610af2565b60405161024e9190612b3e565b60405180910390f35b610271600480360381019061026c91906125c8565b610afc565b005b61028d600480360381019061028891906126a5565b610d92565b005b6102a960048036038101906102a491906125c8565b611065565b6040516102b69190612b3e565b60405180910390f35b6102d960048036038101906102d491906125c8565b61107d565b6040516102e6919061296d565b60405180910390f35b6102f761109d565b005b610313600480360381019061030e91906125c8565b6112c9565b005b61032f600480360381019061032a919061254d565b611490565b005b61034b60048036038101906103469190612656565b611652565b6040516103589190612b3e565b60405180910390f35b600060076000848152602001908152602001600020600901600083815260200190815260200160002054905092915050565b600060076000848152602001908152602001600020600a01600083815260200190815260200160002054905092915050565b60076020528060005260406000206000915090508060000154908060010154908060020154908060030154908060040154908060050154908060060154908060070154908060080160009054906101000a900460ff16905089565b60008060076000848152602001908152602001600020600401541161047a576040517f08c379a0000000000000000000000000000000000000000000000000000000008152600401610471906129de565b60405180910390fd5b600060076000848152602001908152602001600020600701549050600460009054906101000a900473ffffffffffffffffffffffffffffffffffffffff1673ffffffffffffffffffffffffffffffffffffffff1663e89e106a6040518163ffffffff1660e01b8152600401602060405180830381600087803b1580156104ff57600080fd5b505af1158015610513573d6000803e3d6000fd5b505050506040513d601f19601f82011682018060405250810190610537919061259f565b8114610578576040517f08c379a000000000000000000000000000000000000000000000000000000000815260040161056f90612ade565b60405180910390fd5b60006006600085815260200190815260200160002054146105ce576040517f08c379a00000000000000000000000000000000000000000000000000000000081526004016105c590612afe565b60405180910390fd5b436007600085815260200190815260200160002060020181905550600460009054906101000a900473ffffffffffffffffffffffffffffffffffffffff1673ffffffffffffffffffffffffffffffffffffffff1663db61e87b6040518163ffffffff1660e01b8152600401602060405180830381600087803b15801561065357600080fd5b505af1158015610667573d6000803e3d6000fd5b505050506040513d601f19601f8201168201806040525081019061068b91906125f1565b6006600085815260200190815260200160002081905550600460009054906101000a900473ffffffffffffffffffffffffffffffffffffffff1673ffffffffffffffffffffffffffffffffffffffff1663f6eaffc860006040518263ffffffff1660e01b81526004016106fe91906129a3565b602060405180830381600087803b15801561071857600080fd5b505af115801561072c573d6000803e3d6000fd5b505050506040513d601f19601f8201168201806040525081019061075091906125f1565b60076000858152602001908152602001600020600101819055506000600190508092505050919050565b6005602052816000526040600020816006811061079657600080fd5b01600091509150505481565b6107aa6124dc565b73ffffffffffffffffffffffffffffffffffffffff1660008054906101000a900473ffffffffffffffffffffffffffffffffffffffff1673ffffffffffffffffffffffffffffffffffffffff1614610837576040517f08c379a000000000000000000000000000000000000000000000000000000000815260040161082e90612a3e565b60405180910390fd5b600073ffffffffffffffffffffffffffffffffffffffff1660008054906101000a900473ffffffffffffffffffffffffffffffffffffffff1673ffffffffffffffffffffffffffffffffffffffff167f8be0079c531659141344cd1fd0a4f28419497f9722a3daafe3b4186f6b6457e060405160405180910390a360008060006101000a81548173ffffffffffffffffffffffffffffffffffffffff021916908373ffffffffffffffffffffffffffffffffffffffff160217905550565b60008060009054906101000a900473ffffffffffffffffffffffffffffffffffffffff16905090565b3373ffffffffffffffffffffffffffffffffffffffff16600160009054906101000a900473ffffffffffffffffffffffffffffffffffffffff1673ffffffffffffffffffffffffffffffffffffffff16146109ae576040517f08c379a00000000000000000000000000000000000000000000000000000000081526004016109a590612b1e565b60405180910390fd5b60025442116109f2576040517f08c379a00000000000000000000000000000000000000000000000000000000081526004016109e990612abe565b60405180910390fd5b600160009054906101000a900473ffffffffffffffffffffffffffffffffffffffff1673ffffffffffffffffffffffffffffffffffffffff1660008054906101000a900473ffffffffffffffffffffffffffffffffffffffff1673ffffffffffffffffffffffffffffffffffffffff167f8be0079c531659141344cd1fd0a4f28419497f9722a3daafe3b4186f6b6457e060405160405180910390a3600160009054906101000a900473ffffffffffffffffffffffffffffffffffffffff166000806101000a81548173ffffffffffffffffffffffffffffffffffffffff021916908373ffffffffffffffffffffffffffffffffffffffff160217905550565b6000600254905090565b6000600760008381526020019081526020016000206004015411610b55576040517f08c379a0000000000000000000000000000000000000000000000000000000008152600401610b4c906129de565b60405180910390fd5b600015156008600083815260200190815260200160002060009054906101000a900460ff16151514610bbc576040517f08c379a0000000000000000000000000000000000000000000000000000000008152600401610bb390612a1e565b60405180910390fd5b60016008600083815260200190815260200160002060006101000a81548160ff021916908315150217905550600460009054906101000a900473ffffffffffffffffffffffffffffffffffffffff1673ffffffffffffffffffffffffffffffffffffffff1663e0c862896040518163ffffffff1660e01b8152600401600060405180830381600087803b158015610c5257600080fd5b505af1158015610c66573d6000803e3d6000fd5b50505050600460009054906101000a900473ffffffffffffffffffffffffffffffffffffffff1673ffffffffffffffffffffffffffffffffffffffff1663e89e106a6040518163ffffffff1660e01b8152600401602060405180830381600087803b158015610cd457600080fd5b505af1158015610ce8573d6000803e3d6000fd5b505050506040513d601f19601f82011682018060405250810190610d0c919061259f565b6007600083815260200190815260200160002060070181905550436007600083815260200190815260200160002060000181905550807fbd51e5a352fab6e096017c2be9f26b900b8615c0353bc652a3f429c6e56c4e126007600084815260200190815260200160002060070154604051610d879190612988565b60405180910390a250565b610d9a6124dc565b73ffffffffffffffffffffffffffffffffffffffff1660008054906101000a900473ffffffffffffffffffffffffffffffffffffffff1673ffffffffffffffffffffffffffffffffffffffff1614610e27576040517f08c379a0000000000000000000000000000000000000000000000000000000008152600401610e1e90612a3e565b60405180910390fd5b6008600084815260200190815260200160002060009054906101000a900460ff1615610e88576040517f08c379a0000000000000000000000000000000000000000000000000000000008152600401610e7f90612a1e565b60405180910390fd5b6000600760008581526020019081526020016000206004015414610ee1576040517f08c379a0000000000000000000000000000000000000000000000000000000008152600401610ed890612a7e565b60405180910390fd5b816007600085815260200190815260200160002060040181905550600a600780600086815260200190815260200160002060040154610f209190612ca7565b610f2a9190612c76565b6007600085815260200190815260200160002060030181905550600360009054906101000a900473ffffffffffffffffffffffffffffffffffffffff1673ffffffffffffffffffffffffffffffffffffffff166323b872dd610f8a6108f5565b3060076000888152602001908152602001600020600301546040518463ffffffff1660e01b8152600401610fc09392919061290d565b602060405180830381600087803b158015610fda57600080fd5b505af1158015610fee573d6000803e3d6000fd5b505050506040513d601f19601f820116820180604052508101906110129190612576565b611045577f4e487b7100000000000000000000000000000000000000000000000000000000600052600160045260246000fd5b806007600085815260200190815260200160002060050181905550505050565b60066020528060005260406000206000915090505481565b60086020528060005260406000206000915054906101000a900460ff1681565b6110a56124dc565b73ffffffffffffffffffffffffffffffffffffffff1660008054906101000a900473ffffffffffffffffffffffffffffffffffffffff1673ffffffffffffffffffffffffffffffffffffffff1614611132576040517f08c379a000000000000000000000000000000000000000000000000000000000815260040161112990612a3e565b60405180910390fd5b600360009054906101000a900473ffffffffffffffffffffffffffffffffffffffff1673ffffffffffffffffffffffffffffffffffffffff166323b872dd306111796108f5565b600360009054906101000a900473ffffffffffffffffffffffffffffffffffffffff1673ffffffffffffffffffffffffffffffffffffffff166370a08231306040518263ffffffff1660e01b81526004016111d491906128f2565b60206040518083038186803b1580156111ec57600080fd5b505afa158015611200573d6000803e3d6000fd5b505050506040513d601f19601f8201168201806040525081019061122491906125f1565b6040518463ffffffff1660e01b81526004016112429392919061290d565b602060405180830381600087803b15801561125c57600080fd5b505af1158015611270573d6000803e3d6000fd5b505050506040513d601f19601f820116820180604052508101906112949190612576565b6112c7577f4e487b7100000000000000000000000000000000000000000000000000000000600052600160045260246000fd5b565b6112d16124dc565b73ffffffffffffffffffffffffffffffffffffffff1660008054906101000a900473ffffffffffffffffffffffffffffffffffffffff1673ffffffffffffffffffffffffffffffffffffffff161461135e576040517f08c379a000000000000000000000000000000000000000000000000000000000815260040161135590612a3e565b60405180910390fd5b60008054906101000a900473ffffffffffffffffffffffffffffffffffffffff16600160006101000a81548173ffffffffffffffffffffffffffffffffffffffff021916908373ffffffffffffffffffffffffffffffffffffffff16021790555060008060006101000a81548173ffffffffffffffffffffffffffffffffffffffff021916908373ffffffffffffffffffffffffffffffffffffffff160217905550804261140c9190612c20565b600281905550600073ffffffffffffffffffffffffffffffffffffffff1660008054906101000a900473ffffffffffffffffffffffffffffffffffffffff1673ffffffffffffffffffffffffffffffffffffffff167f8be0079c531659141344cd1fd0a4f28419497f9722a3daafe3b4186f6b6457e060405160405180910390a350565b6114986124dc565b73ffffffffffffffffffffffffffffffffffffffff1660008054906101000a900473ffffffffffffffffffffffffffffffffffffffff1673ffffffffffffffffffffffffffffffffffffffff1614611525576040517f08c379a000000000000000000000000000000000000000000000000000000000815260040161151c90612a3e565b60405180910390fd5b600073ffffffffffffffffffffffffffffffffffffffff168173ffffffffffffffffffffffffffffffffffffffff161415611595576040517f08c379a000000000000000000000000000000000000000000000000000000000815260040161158c906129be565b60405180910390fd5b8073ffffffffffffffffffffffffffffffffffffffff1660008054906101000a900473ffffffffffffffffffffffffffffffffffffffff1673ffffffffffffffffffffffffffffffffffffffff167f8be0079c531659141344cd1fd0a4f28419497f9722a3daafe3b4186f6b6457e060405160405180910390a3806000806101000a81548173ffffffffffffffffffffffffffffffffffffffff021916908373ffffffffffffffffffffffffffffffffffffffff16021790555050565b600080600660008681526020019081526020016000205414156116aa576040517f08c379a00000000000000000000000000000000000000000000000000000000081526004016116a190612a5e565b60405180910390fd5b60006116b46108f5565b73ffffffffffffffffffffffffffffffffffffffff1663261dc98986856040518363ffffffff1660e01b81526004016116ee929190612b59565b60206040518083038186803b15801561170657600080fd5b505afa15801561171a573d6000803e3d6000fd5b505050506040513d601f19601f8201168201806040525081019061173e91906125f1565b9050600061174a6108f5565b73ffffffffffffffffffffffffffffffffffffffff16636209a58b87866040518363ffffffff1660e01b8152600401611784929190612b59565b60206040518083038186803b15801561179c57600080fd5b505afa1580156117b0573d6000803e3d6000fd5b505050506040513d601f19601f820116820180604052508101906117d491906125f1565b90508185101580156117f1575080826117ed9190612c20565b8511155b611830576040517f08c379a000000000000000000000000000000000000000000000000000000000815260040161182790612a9e565b60405180910390fd5b6000600760008881526020019081526020016000206009016000878152602001908152602001600020541461189a576040517f08c379a0000000000000000000000000000000000000000000000000000000008152600401611891906129fe565b60405180910390fd5b60006007600088815260200190815260200160002060050154905060006002826118c49190612dbb565b14156118d95780806118d590612d72565b9150505b60008187600660008b8152602001908152602001600020546118fb9190612ca7565b6119059190612dbb565b905060008288600660008c8152602001908152602001600020546119299190612ca7565b6119339190612dbb565b9050600083826103e86119469190612ca7565b6119509190612c76565b905080600760008c815260200190815260200160002060090160008b81526020019081526020016000208190555082600760008c8152602001908152602001600020600a0160008b81526020019081526020016000208190555060018111611b77576001600560008c8152602001908152602001600020600060068110611a00577f4e487b7100000000000000000000000000000000000000000000000000000000600052603260045260246000fd5b01541015611b72576000600a6002600760008e815260200190815260200160002060040154611a2f9190612ca7565b611a399190612c76565b90506001600560008d8152602001908152602001600020600060068110611a89577f4e487b7100000000000000000000000000000000000000000000000000000000600052603260045260246000fd5b0181905550600360009054906101000a900473ffffffffffffffffffffffffffffffffffffffff1673ffffffffffffffffffffffffffffffffffffffff1663a9059cbb8a836040518363ffffffff1660e01b8152600401611aeb929190612944565b602060405180830381600087803b158015611b0557600080fd5b505af1158015611b19573d6000803e3d6000fd5b505050506040513d601f19601f82011682018060405250810190611b3d9190612576565b611b70577f4e487b7100000000000000000000000000000000000000000000000000000000600052600160045260246000fd5b505b6124cc565b60028111611d54576002600560008c8152602001908152602001600020600160068110611bcd577f4e487b7100000000000000000000000000000000000000000000000000000000600052603260045260246000fd5b01541015611d4f57600060646005600760008e815260200190815260200160002060040154611bfc9190612ca7565b611c069190612c76565b9050600560008c8152602001908152602001600020600160068110611c54577f4e487b7100000000000000000000000000000000000000000000000000000000600052603260045260246000fd5b016000815480929190611c6690612d72565b9190505550600360009054906101000a900473ffffffffffffffffffffffffffffffffffffffff1673ffffffffffffffffffffffffffffffffffffffff1663a9059cbb8a836040518363ffffffff1660e01b8152600401611cc8929190612944565b602060405180830381600087803b158015611ce257600080fd5b505af1158015611cf6573d6000803e3d6000fd5b505050506040513d601f19601f82011682018060405250810190611d1a9190612576565b611d4d577f4e487b7100000000000000000000000000000000000000000000000000000000600052600160045260246000fd5b505b6124cb565b600a8111611f3157600a600560008c8152602001908152602001600020600260068110611daa577f4e487b7100000000000000000000000000000000000000000000000000000000600052603260045260246000fd5b01541015611f2c57600060646001600760008e815260200190815260200160002060040154611dd99190612ca7565b611de39190612c76565b9050600560008c8152602001908152602001600020600260068110611e31577f4e487b7100000000000000000000000000000000000000000000000000000000600052603260045260246000fd5b016000815480929190611e4390612d72565b9190505550600360009054906101000a900473ffffffffffffffffffffffffffffffffffffffff1673ffffffffffffffffffffffffffffffffffffffff1663a9059cbb8a836040518363ffffffff1660e01b8152600401611ea5929190612944565b602060405180830381600087803b158015611ebf57600080fd5b505af1158015611ed3573d6000803e3d6000fd5b505050506040513d601f19601f82011682018060405250810190611ef79190612576565b611f2a577f4e487b7100000000000000000000000000000000000000000000000000000000600052600160045260246000fd5b505b6124ca565b6014811161210f576014600560008c8152602001908152602001600020600360068110611f87577f4e487b7100000000000000000000000000000000000000000000000000000000600052603260045260246000fd5b0154101561210a5760006103e86005600760008e815260200190815260200160002060040154611fb79190612ca7565b611fc19190612c76565b9050600560008c815260200190815260200160002060036006811061200f577f4e487b7100000000000000000000000000000000000000000000000000000000600052603260045260246000fd5b01600081548092919061202190612d72565b9190505550600360009054906101000a900473ffffffffffffffffffffffffffffffffffffffff1673ffffffffffffffffffffffffffffffffffffffff1663a9059cbb8a836040518363ffffffff1660e01b8152600401612083929190612944565b602060405180830381600087803b15801561209d57600080fd5b505af11580156120b1573d6000803e3d6000fd5b505050506040513d601f19601f820116820180604052508101906120d59190612576565b612108577f4e487b7100000000000000000000000000000000000000000000000000000000600052600160045260246000fd5b505b6124c9565b603281116122ed576032600560008c8152602001908152602001600020600460068110612165577f4e487b7100000000000000000000000000000000000000000000000000000000600052603260045260246000fd5b015410156122e85760006103e86002600760008e8152602001908152602001600020600401546121959190612ca7565b61219f9190612c76565b9050600560008c81526020019081526020016000206004600681106121ed577f4e487b7100000000000000000000000000000000000000000000000000000000600052603260045260246000fd5b0160008154809291906121ff90612d72565b9190505550600360009054906101000a900473ffffffffffffffffffffffffffffffffffffffff1673ffffffffffffffffffffffffffffffffffffffff1663a9059cbb8a836040518363ffffffff1660e01b8152600401612261929190612944565b602060405180830381600087803b15801561227b57600080fd5b505af115801561228f573d6000803e3d6000fd5b505050506040513d601f19601f820116820180604052508101906122b39190612576565b6122e6577f4e487b7100000000000000000000000000000000000000000000000000000000600052600160045260246000fd5b505b6124c8565b606481116124c7576064600560008c8152602001908152602001600020600560068110612343577f4e487b7100000000000000000000000000000000000000000000000000000000600052603260045260246000fd5b015410156124c65760006103e86001600760008e8152602001908152602001600020600401546123739190612ca7565b61237d9190612c76565b9050600560008c81526020019081526020016000206005600681106123cb577f4e487b7100000000000000000000000000000000000000000000000000000000600052603260045260246000fd5b0160008154809291906123dd90612d72565b9190505550600360009054906101000a900473ffffffffffffffffffffffffffffffffffffffff1673ffffffffffffffffffffffffffffffffffffffff1663a9059cbb8a836040518363ffffffff1660e01b815260040161243f929190612944565b602060405180830381600087803b15801561245957600080fd5b505af115801561246d573d6000803e3d6000fd5b505050506040513d601f19601f820116820180604052508101906124919190612576565b6124c4577f4e487b7100000000000000000000000000000000000000000000000000000000600052600160045260246000fd5b505b5b5b5b5b5b5b8296505050505050509392505050565b600033905090565b6000813590506124f381613082565b92915050565b60008151905061250881613099565b92915050565b60008151905061251d816130b0565b92915050565b600081359050612532816130c7565b92915050565b600081519050612547816130c7565b92915050565b60006020828403121561255f57600080fd5b600061256d848285016124e4565b91505092915050565b60006020828403121561258857600080fd5b6000612596848285016124f9565b91505092915050565b6000602082840312156125b157600080fd5b60006125bf8482850161250e565b91505092915050565b6000602082840312156125da57600080fd5b60006125e884828501612523565b91505092915050565b60006020828403121561260357600080fd5b600061261184828501612538565b91505092915050565b6000806040838503121561262d57600080fd5b600061263b85828601612523565b925050602061264c85828601612523565b9150509250929050565b60008060006060848603121561266b57600080fd5b600061267986828701612523565b935050602061268a86828701612523565b925050604061269b868287016124e4565b9150509250925092565b6000806000606084860312156126ba57600080fd5b60006126c886828701612523565b93505060206126d986828701612523565b92505060406126ea86828701612523565b9150509250925092565b6126fd81612d01565b82525050565b61270c81612d13565b82525050565b61271b81612d1f565b82525050565b61272a81612d60565b82525050565b600061273d602683612c0f565b915061274882612e4a565b604082019050919050565b6000612760601583612c0f565b915061276b82612e99565b602082019050919050565b6000612783601583612c0f565b915061278e82612ec2565b602082019050919050565b60006127a6601583612c0f565b91506127b182612eeb565b602082019050919050565b60006127c9602083612c0f565b91506127d482612f14565b602082019050919050565b60006127ec601283612c0f565b91506127f782612f3d565b602082019050919050565b600061280f600e83612c0f565b915061281a82612f66565b602082019050919050565b6000612832600e83612c0f565b915061283d82612f8f565b602082019050919050565b6000612855601f83612c0f565b915061286082612fb8565b602082019050919050565b6000612878601383612c0f565b915061288382612fe1565b602082019050919050565b600061289b601383612c0f565b91506128a68261300a565b602082019050919050565b60006128be602383612c0f565b91506128c982613033565b604082019050919050565b6128dd81612d49565b82525050565b6128ec81612d53565b82525050565b600060208201905061290760008301846126f4565b92915050565b600060608201905061292260008301866126f4565b61292f60208301856126f4565b61293c60408301846128d4565b949350505050565b600060408201905061295960008301856126f4565b61296660208301846128d4565b9392505050565b60006020820190506129826000830184612703565b92915050565b600060208201905061299d6000830184612712565b92915050565b60006020820190506129b86000830184612721565b92915050565b600060208201905081810360008301526129d781612730565b9050919050565b600060208201905081810360008301526129f781612753565b9050919050565b60006020820190508181036000830152612a1781612776565b9050919050565b60006020820190508181036000830152612a3781612799565b9050919050565b60006020820190508181036000830152612a57816127bc565b9050919050565b60006020820190508181036000830152612a77816127df565b9050919050565b60006020820190508181036000830152612a9781612802565b9050919050565b60006020820190508181036000830152612ab781612825565b9050919050565b60006020820190508181036000830152612ad781612848565b9050919050565b60006020820190508181036000830152612af78161286b565b9050919050565b60006020820190508181036000830152612b178161288e565b9050919050565b60006020820190508181036000830152612b37816128b1565b9050919050565b6000602082019050612b5360008301846128d4565b92915050565b6000604082019050612b6e60008301856128d4565b612b7b60208301846126f4565b9392505050565b600061012082019050612b98600083018c6128d4565b612ba5602083018b6128d4565b612bb2604083018a6128d4565b612bbf60608301896128d4565b612bcc60808301886128d4565b612bd960a08301876128d4565b612be660c08301866128d4565b612bf360e0830185612712565b612c016101008301846128e3565b9a9950505050505050505050565b600082825260208201905092915050565b6000612c2b82612d49565b9150612c3683612d49565b9250827fffffffffffffffffffffffffffffffffffffffffffffffffffffffffffffffff03821115612c6b57612c6a612dec565b5b828201905092915050565b6000612c8182612d49565b9150612c8c83612d49565b925082612c9c57612c9b612e1b565b5b828204905092915050565b6000612cb282612d49565b9150612cbd83612d49565b9250817fffffffffffffffffffffffffffffffffffffffffffffffffffffffffffffffff0483118215151615612cf657612cf5612dec565b5b828202905092915050565b6000612d0c82612d29565b9050919050565b60008115159050919050565b6000819050919050565b600073ffffffffffffffffffffffffffffffffffffffff82169050919050565b6000819050919050565b600060ff82169050919050565b6000612d6b82612d49565b9050919050565b6000612d7d82612d49565b91507fffffffffffffffffffffffffffffffffffffffffffffffffffffffffffffffff821415612db057612daf612dec565b5b600182019050919050565b6000612dc682612d49565b9150612dd183612d49565b925082612de157612de0612e1b565b5b828206905092915050565b7f4e487b7100000000000000000000000000000000000000000000000000000000600052601160045260246000fd5b7f4e487b7100000000000000000000000000000000000000000000000000000000600052601260045260246000fd5b7f4f776e61626c653a206e6577206f776e657220697320746865207a65726f206160008201527f6464726573730000000000000000000000000000000000000000000000000000602082015250565b7f50524f504f53414c5f444f45534e545f45584953540000000000000000000000600082015250565b7f524553554c545f414c52454144595f4558495354530000000000000000000000600082015250565b7f52414e444f4d5f524551554553545f4558495354530000000000000000000000600082015250565b7f4f776e61626c653a2063616c6c6572206973206e6f7420746865206f776e6572600082015250565b7f524553554c545f49535f4e4f545f444f4e450000000000000000000000000000600082015250565b7f50524f504f53414c5f4558495354000000000000000000000000000000000000600082015250565b7f4e4f545f564f54455f4f574e4552000000000000000000000000000000000000600082015250565b7f436f6e7472616374206973206c6f636b656420756e74696c2037206461797300600082015250565b7f524551554553545f4e4f545f43555252454e5400000000000000000000000000600082015250565b7f524553554c545f414c52454144595f444f4e4500000000000000000000000000600082015250565b7f596f7520646f6e27742068617665207065726d697373696f6e20746f20756e6c60008201527f6f636b0000000000000000000000000000000000000000000000000000000000602082015250565b61308b81612d01565b811461309657600080fd5b50565b6130a281612d13565b81146130ad57600080fd5b50565b6130b981612d1f565b81146130c457600080fd5b50565b6130d081612d49565b81146130db57600080fd5b5056fea2646970667358221220995b6faaa091e80249d7450ae25f946648f998d8274c33132c65a5f163fde3e964736f6c63430008040033",
  "linkReferences": {},
  "deployedLinkReferences": {}
}