{
  "_format": "hh-sol-artifact-1",
  "contractName": "VRFv2Consumer",
  "sourceName": "contracts/VRF.sol",
  "abi": [
    {
      "inputs": [],
      "stateMutability": "nonpayable",
      "type": "constructor"
    },
    {
      "inputs": [
        {
          "internalType": "address",
          "name": "have",
          "type": "address"
        },
        {
          "internalType": "address",
          "name": "want",
          "type": "address"
        }
      ],
      "name": "OnlyCoordinatorCanFulfill",
      "type": "error"
    },
    {
      "inputs": [
        {
          "internalType": "uint256",
          "name": "requestId",
          "type": "uint256"
        },
        {
          "internalType": "uint256[]",
          "name": "randomWords",
          "type": "uint256[]"
        }
      ],
      "name": "rawFulfillRandomWords",
      "outputs": [],
      "stateMutability": "nonpayable",
      "type": "function"
    },
    {
      "inputs": [],
      "name": "requestRandomWords",
      "outputs": [],
      "stateMutability": "nonpayable",
      "type": "function"
    },
    {
      "inputs": [
        {
          "internalType": "uint256",
          "name": "",
          "type": "uint256"
        }
      ],
      "name": "s_randomWords",
      "outputs": [
        {
          "internalType": "uint256",
          "name": "",
          "type": "uint256"
        }
      ],
      "stateMutability": "view",
      "type": "function"
    },
    {
      "inputs": [],
      "name": "s_randomWords0",
      "outputs": [
        {
          "internalType": "uint256",
          "name": "",
          "type": "uint256"
        }
      ],
      "stateMutability": "view",
      "type": "function"
    },
    {
      "inputs": [],
      "name": "s_randomWords1",
      "outputs": [
        {
          "internalType": "uint256",
          "name": "",
          "type": "uint256"
        }
      ],
      "stateMutability": "view",
      "type": "function"
    },
    {
      "inputs": [],
      "name": "s_requestId",
      "outputs": [
        {
          "internalType": "uint256",
          "name": "",
          "type": "uint256"
        }
      ],
      "stateMutability": "view",
      "type": "function"
    },
    {
      "inputs": [
        {
          "internalType": "address",
          "name": "_requester",
          "type": "address"
        }
      ],
      "name": "setRequester",
      "outputs": [],
      "stateMutability": "nonpayable",
      "type": "function"
    }
  ],
  "bytecode": "0x60a060405273ae975071be8f8ee67addbc1a82488f1c24858067600160006101000a81548173ffffffffffffffffffffffffffffffffffffffff021916908373ffffffffffffffffffffffffffffffffffffffff1602179055507f6e099d640cde6de9d40ac749b4b594126b0169747122711109c9985d47751f9360001b600255620186a0600360006101000a81548163ffffffff021916908363ffffffff16021790555060038060046101000a81548161ffff021916908361ffff1602179055506002600360066101000a81548163ffffffff021916908363ffffffff1602179055503480156100ef57600080fd5b50600160009054906101000a900473ffffffffffffffffffffffffffffffffffffffff168073ffffffffffffffffffffffffffffffffffffffff1660808173ffffffffffffffffffffffffffffffffffffffff1660601b8152505050600160009054906101000a900473ffffffffffffffffffffffffffffffffffffffff166000806101000a81548173ffffffffffffffffffffffffffffffffffffffff021916908373ffffffffffffffffffffffffffffffffffffffff16021790555033600660006101000a81548173ffffffffffffffffffffffffffffffffffffffff021916908373ffffffffffffffffffffffffffffffffffffffff16021790555033600760006101000a81548173ffffffffffffffffffffffffffffffffffffffff021916908373ffffffffffffffffffffffffffffffffffffffff160217905550604b600060146101000a81548167ffffffffffffffff021916908367ffffffffffffffff16021790555060805160601c61098961027e6000396000818161019d01526101f101526109896000f3fe608060405234801561001057600080fd5b506004361061007d5760003560e01c8063db61e87b1161005b578063db61e87b146100d8578063e0c86289146100f6578063e89e106a14610100578063f6eaffc81461011e5761007d565b8063145220b6146100825780631fe543e3146100a0578063227a30c5146100bc575b600080fd5b61008a61014e565b60405161009791906107d0565b60405180910390f35b6100ba60048036038101906100b591906106a6565b61019b565b005b6100d660048036038101906100d1919061062b565b61025b565b005b6100e06102f9565b6040516100ed91906107d0565b60405180910390f35b6100fe610346565b005b6101086104a7565b60405161011591906107d0565b60405180910390f35b61013860048036038101906101339190610654565b6104ad565b60405161014591906107d0565b60405180910390f35b6000600460018154811061018b577f4e487b7100000000000000000000000000000000000000000000000000000000600052603260045260246000fd5b9060005260206000200154905090565b7f000000000000000000000000000000000000000000000000000000000000000073ffffffffffffffffffffffffffffffffffffffff163373ffffffffffffffffffffffffffffffffffffffff161461024d57337f00000000000000000000000000000000000000000000000000000000000000006040517f1cf993f4000000000000000000000000000000000000000000000000000000008152600401610244929190610754565b60405180910390fd5b61025782826104d1565b5050565b600660009054906101000a900473ffffffffffffffffffffffffffffffffffffffff1673ffffffffffffffffffffffffffffffffffffffff163373ffffffffffffffffffffffffffffffffffffffff16146102b557600080fd5b80600760006101000a81548173ffffffffffffffffffffffffffffffffffffffff021916908373ffffffffffffffffffffffffffffffffffffffff16021790555050565b60006004600081548110610336577f4e487b7100000000000000000000000000000000000000000000000000000000600052603260045260246000fd5b9060005260206000200154905090565b600760009054906101000a900473ffffffffffffffffffffffffffffffffffffffff1673ffffffffffffffffffffffffffffffffffffffff163373ffffffffffffffffffffffffffffffffffffffff16146103a057600080fd5b60008054906101000a900473ffffffffffffffffffffffffffffffffffffffff1673ffffffffffffffffffffffffffffffffffffffff16635d3b1d30600254600060149054906101000a900467ffffffffffffffff16600360049054906101000a900461ffff16600360009054906101000a900463ffffffff16600360069054906101000a900463ffffffff166040518663ffffffff1660e01b815260040161044d95949392919061077d565b602060405180830381600087803b15801561046757600080fd5b505af115801561047b573d6000803e3d6000fd5b505050506040513d601f19601f8201168201806040525081019061049f919061067d565b600581905550565b60055481565b600481815481106104bd57600080fd5b906000526020600020016000915090505481565b80600490805190602001906104e79291906104ec565b505050565b828054828255906000526020600020908101928215610528579160200282015b8281111561052757825182559160200191906001019061050c565b5b5090506105359190610539565b5090565b5b8082111561055257600081600090555060010161053a565b5090565b600061056961056484610810565b6107eb565b9050808382526020820190508285602086028201111561058857600080fd5b60005b858110156105b8578161059e8882610601565b84526020840193506020830192505060018101905061058b565b5050509392505050565b6000813590506105d181610925565b92915050565b600082601f8301126105e857600080fd5b81356105f8848260208601610556565b91505092915050565b6000813590506106108161093c565b92915050565b6000815190506106258161093c565b92915050565b60006020828403121561063d57600080fd5b600061064b848285016105c2565b91505092915050565b60006020828403121561066657600080fd5b600061067484828501610601565b91505092915050565b60006020828403121561068f57600080fd5b600061069d84828501610616565b91505092915050565b600080604083850312156106b957600080fd5b60006106c785828601610601565b925050602083013567ffffffffffffffff8111156106e457600080fd5b6106f0858286016105d7565b9150509250929050565b6107038161083c565b82525050565b6107128161084e565b82525050565b61072181610858565b82525050565b61073081610886565b82525050565b61073f81610890565b82525050565b61074e816108a0565b82525050565b600060408201905061076960008301856106fa565b61077660208301846106fa565b9392505050565b600060a0820190506107926000830188610709565b61079f6020830187610745565b6107ac6040830186610718565b6107b96060830185610736565b6107c66080830184610736565b9695505050505050565b60006020820190506107e56000830184610727565b92915050565b60006107f5610806565b905061080182826108b4565b919050565b6000604051905090565b600067ffffffffffffffff82111561082b5761082a6108e5565b5b602082029050602081019050919050565b600061084782610866565b9050919050565b6000819050919050565b600061ffff82169050919050565b600073ffffffffffffffffffffffffffffffffffffffff82169050919050565b6000819050919050565b600063ffffffff82169050919050565b600067ffffffffffffffff82169050919050565b6108bd82610914565b810181811067ffffffffffffffff821117156108dc576108db6108e5565b5b80604052505050565b7f4e487b7100000000000000000000000000000000000000000000000000000000600052604160045260246000fd5b6000601f19601f8301169050919050565b61092e8161083c565b811461093957600080fd5b50565b61094581610886565b811461095057600080fd5b5056fea264697066735822122001f42e531d37fbd401a48addb95388c224e44c64199adcbcd566e59e8ce87efa64736f6c63430008040033",
  "linkReferences": {},
  "deployedLinkReferences": {}
}